:020000040800F2
:1000000048140024ED030008478A0008D38500083F
:10001000458A00083D27000839B8000800000000A4
:10002000000000000000000000000000058E000835
:10003000B929000800000000C38B0008118E0008D9
:100040000704000807040008070400080704000864
:100050000704000807040008070400080704000854
:10006000070400080704000807040008892700089F
:100070009527000807040008070400080704000883
:10008000070400080704000807040008C129000845
:1000900007040008CD290008070400080704000829
:1000A0000704000807040008070400080704000804
:1000B00007040008718F00080704000807040008FF
:1000C00007040008070400080704000807040008E4
:1000D00007040008070400080704000807040008D4
:1000E00007040008070400080000000007040008D7
:1000F00007040008070400080704000807040008B4
:1001000007040008070400080704000807040008A3
:100110000704000807040008070400080704000893
:100120000704000807040008070400080704000883
:100130000704000807040008070400080704000873
:1001400000000000000000000000000000000000AF
:100150000704000807040008070400080704000853
:100160000704000807040008070400080704000843
:1001700007040008498A000807040008000000007E
:100180000704000807040008C590000807040008D9
:100190000704000807040008070400080704000813
:1001A0000704000807040008070400080000000016
:1001B00007040008070400080704000807040008F3
:1001C0000704000807040008000000000000000009
:1001D000000000000000000007040008000000000C
:1001E000000000000000000000000000000000000F
:1001F00000000000000000000704000807040008D9
:1002000007040008070400080000000007040008B5
:100210000704000807040008070400080704000892
:1002200007040008000000000704000800000000A8
:100230000704000807040008000000000704000885
:100240000704000807040008070400080704000862
:100250000704000807040008070400080704000852
:100260000704000807040008070400080704000842
:100270000704000807040008070400080000000045
:100280000704000807040008070400080704000822
:100290000000000007040008070400080000000038
:1002A0000000000007040008070400080704000815
:1002B00007040008070400080704000807040008F2
:1002C00007040008070400080704000800F002F80B
:1002D00000F07DF80AA090E8000C82448344AAF163
:1002E0000107DA4501D100F072F8AFF2090EBAE861
:1002F0000F0013F0010F18BFFB1A43F0010318475A
:1003000060D10000A0D100000A444FF0000C10F8AA
:10031000013B13F0070408BF10F8014B1D1108BF83
:1003200010F8015B641E05D010F8016B641E01F823
:10033000016BF9D113F0080F1EBF10F8014BAD1C73
:100340000C1B09D16D1E58BF01F801CBFAD505E091
:1003500014F8016B01F8016B6D1EF9D59142D6D3EB
:1003600070470000103A24BF78C878C1FAD8520705
:1003700024BF30C830C144BF04680C60704700001F
:100380000023002400250026103A28BF78C1FBD89E
:10039000520728BF30C148BF0B607047632900F087
:1003A0001E82002070471FB50CF0BAFA01F052FA15
:1003B0000400002000210CF095FA401C6060002031
:1003C00000210CF079FAE0601FBD10B510BD01F0FE
:1003D00013FA1146FFF7E7FF0BF07CFE01F0B0FACD
:1003E00003B4FFF7F2FF03BC01F012FD0948804798
:1003F00009480047FEE7FEE7FEE7FEE7FEE7FEE707
:10040000FEE7FEE7FEE7FEE704480549054A064B1E
:1004100070470000B18E0008CD020008480E00248D
:1004200048140024481000244810002453EA020C09
:1004300000F069802DE9F04B4FF00006002B1FBF44
:10044000B3FA83F503FA05F424FA05F65E4012BF09
:100450001643B2FA82F502FA05F4C5F120051EBF73
:1004600022FA05FC44EA0C04203556EA044C4FEA13
:10047000144418BF641C4FF000084FF0000990426C
:1004800071EB030C39D3002919BFB1FA81F701FAD6
:1004900007F6B0FA80F700FA07F6C7F120071EBF8B
:1004A00020FA07FC46EA0C062037B6FBF4FCA7EB63
:1004B0000507103F07F01F0BCBF120060CFA0BFBD2
:1004C0002CFA06F644BFB3460026202FA4BF5E4692
:1004D0004FF0000B5BEA060C08BF4FF0010B19EB65
:1004E0000B09ABFB027C48EB0608C01B06FB02CCE9
:1004F0000BFB03CC71EB0C01C1E70B4602464146F6
:100500004846BDE8F08B13B54FF000004FF00001F6
:10051000AFF30080BDE81C40704700000FB41CB56D
:100520000C0007AA009001D02044401E074B7B44DA
:1005300069460190069800F028F9002C03D069461E
:10054000002000F035F91CBC5DF814FB89020000A6
:100550002DE9F0410E460446002020622046E16865
:10056000884730B3252805D0D4E901219047206A77
:10057000401CF2E7E168204600278847050018D0B4
:10058000A5F14100192802D820354FF40067324602
:10059000294620462760FFF701FF40B1012804D01B
:1005A000F61D26F007060836D8E7361DD6E728469A
:1005B000DAE7206ABDE8F08170B50C460546012AED
:1005C00005D02878800600D5EA69002302E00123DF
:1005D00005E05B1C934202D2E05C0028F9D1A869D7
:1005E000E618C01AA861286A184428622846AFF3A2
:1005F000008004E0D5E9012114F8010B9047B442D2
:10060000F8D32846AFF3008070BD00000FB400B5EA
:100610008DB010A9099000910B904FF0FF300A9017
:1006200000200C90064878440690064878446A46B4
:1006300007900F9909A800F0A5FA0DB05DF814FB1A
:100640007B05000093050000401ECAB210F8011F90
:100650008A4202D00029F9D10020704710B5431C0E
:1006600002E010F8011B71B18107FAD14FF001329D
:1006700002C88C1A8C4314EAC211F9D0C01A0A06B7
:1006800003D0C01E10BDC01A10BD0A0401D0801EC8
:1006900010BD0902FCD0401E10BD421E12F8013FE1
:1006A000002BFBD111F8013B002B02F8013BF9D1E3
:1006B000704710B5203AC0F00B80B1E81850203ACE
:1006C000A0E81850B1E81850A0E81850BFF4F5AFF2
:1006D0005FEA027C24BFB1E81850A0E8185044BF7C
:1006E00018C918C0BDE810405FEA827C24BF51F8E9
:1006F000043B40F8043B08BF7047D20728BF31F8DD
:10070000023B48BF11F8012B28BF20F8023B48BF2D
:1007100000F8012B70474FF0000200B513469446D5
:100720009646203922BFA0E80C50A0E80C50B1F149
:100730002001BFF4F7AF090728BFA0E80C5048BF5D
:100740000CC05DF804EB890028BF40F8042B08BFFB
:10075000704748BF20F8022B11F0804F18BF00F8F7
:10076000012B704770477047704710B500F0A0FB31
:10077000006810BD10B5044600F09AFB046010BD7F
:1007800001694A1C02610878704700B58FB0CDE955
:1007900001310021059105497944CDE90310114645
:1007A0006846FFF7D5FE0FB000BD0000E5FFFFFF74
:1007B0000A6802F8010B0A607047D1E900239A42E7
:1007C00002D2531C0B601070704710B5436913B10F
:1007D000AFF3008001E0FFF7EFFE012010BD1278BB
:1007E00000F124010A7000224A700122EDE711682D
:1007F0004FF0FF32E9E72DE9FF4F1C4691464FF0DD
:10080000FF3581B000218A468846D4E90167A16995
:1008100002986D1C8847216A834688470028F6D1D4
:10082000BBF1FF3F0CD0002F26F4C0661ADD700626
:1008300015D5BBF12B0F0AD0BBF12D0F0FD104E062
:100840004FF0FF3005B0BDE8F08F46F48066A16937
:1008500002986D1C88477F1E8346002F02DDBBF186
:10086000300F03D0B9F1000F2AD025E0A1696D1C2B
:1008700002987F1E46F400768847002F834605DDE8
:10088000BBF1780F06D0BBF1580F03D0B9F1000FC0
:1008900010D011E0B9F1000F02D0B9F1100F0BD157
:1008A000A1696D1C02987F1E26F400768847834656
:1008B000102000E0082081464FEAE970009017E020
:1008C0000A20F8E74346AAFB0928DDF800C07F1E8E
:1008D00003FB098046F4007605F101050AFB0C01D3
:1008E00012EB0B0A029841EBEB78A169884783462B
:1008F000002F06DD4946584600F0E7FA5FEA000B94
:10090000E0D5E16902988847B00502D46FF0010094
:1009100098E7F00718D1700610D55146700505D537
:100920000023D1EB030163EB080200E0424620689C
:10093000031D23600068C0E9001205E02068011D66
:1009400021600068C0E900A828467BE72DE9FF5F29
:100950001D464FF0FF3B91464FF000085F46D5E93A
:100960000146A96901987F1C8847296A8246884701
:100970000028F6D1BAF1FF3F0CD0002E24F4C06459
:1009800019DD600614D5BAF12B0F09D0BAF12D0F7D
:100990000ED103E0584604B0BDE8F09F44F48064F3
:1009A000A96901987F1C8847761E8246002E02DDC9
:1009B000BAF1300F03D0B9F1000F26D032E0A969A7
:1009C000761E01987F1C44F400748847002E8246EE
:1009D00005DDBAF1780F06D0BAF1580F03D0B9F19E
:1009E000000F10D01EE0B9F1000F02D0B9F1100FC6
:1009F00018D1A969761E01987F1C24F400748847D9
:100A00008246102002E0082000E00A20814609E02A
:100A1000A96908FB0908761E01987F1C44F400743C
:100A200088478246002E05DD4946504600F04DFAC3
:100A30000028EDDAE96901988847A00502D46FF033
:100A40000100A8E7E00725D1600613D5600502D5AF
:100A5000C8F1000000E0404629680A1D2A600968C4
:100A6000220501D5087015E0220701D5088011E0A4
:100A700008600FE02868011D29600068210502D583
:100A800080F8008006E0210702D5A0F8008001E090
:100A9000C0F8008038467EE72DE9FF5F4FF0000880
:100AA0009946144646469169D2E901A7DDF838B067
:100AB00001988847054659EA0B0005D009E0A1696D
:100AC0000198761C88470546216A284688470028F1
:100AD000F5D1681C03D05FEACA7005D015E04FF06D
:100AE000FF3004B0BDE8F09F2068011D2160D0F800
:100AF00000800AE05FEACA7001D108F8015BA169D1
:100B0000761C01987F1E88470546002F1ADD681C59
:100B100018D0B9F1000F0DD0E81705EBD0604211E5
:100B200020F01F0059F822102A1A0120904001429B
:100B3000E0D107E0BBF1000FDCD12846216A8847ED
:100B40000028D7D0E16901988847BBF1000F07D191
:100B5000002E05DD5FEACA7002D1002188F800107E
:100B6000A068B84203DDBBF1000F03D017B16FF0EE
:100B70000100B6E73046B4E702681144137801601B
:100B800018467047D1600549794451610449794458
:100B9000116200211161114600F0A6B9EDFFFFFFBF
:100BA00027030000426842B1016811F8013B23B1FC
:100BB000521EC0E90012184670470121C160881E0C
:100BC000704742685AB1C368016843B983688B4271
:100BD00005D0491E521CC0E90012002070474FF09A
:100BE000FF3070472DE9FF4F4FF000089A4614463A
:100BF000C146464683B0D2E901B7CDF80080CDF8B2
:100C00000480916904988847109905465AEA0100C2
:100C100005D009E0A1690498761C88470546216A39
:100C2000284688470028F5D1681C03D05FEACB70BE
:100C300005D02AE04FF0FF3007B0BDE8F08F206804
:100C4000011D2160D0F800801FE002A86A46E9B2C9
:100C500000F08FFD411C07D0801C09D04FF0000927
:100C60005FEACB7007D00AE0E169049888473EE06C
:100C70004FF0010904E0BDF8081028F8021B7F1EA0
:100C8000A1690498761C88470546002F1ADD681C68
:100C900018D0BAF1000F0DD0E81705EBD060421163
:100CA00020F01F005AF822102A1A01209040014219
:100CB000CBD107E010980028C7D12846216A884781
:100CC0000028C2D0E16904988847B9F1000F0ED11D
:100CD000109830B9002E04DD5FEACB7001D1A8F87E
:100CE0000000A068B84202DD109818B117B16FF08B
:100CF0000100A1E730469FE72DE9FF4F4FF00008C4
:100D00009B461446454683B0D2E90196CDF8008053
:100D1000CDF804809169DDF848A00498884707461B
:100D20005BEA0A0005D009E0A16904986D1C8847B8
:100D30000746216A384688470028F5D1781C03D039
:100D40005FEAC97005D01BE04FF0FF3007B0BDE887
:100D5000F08F2068011D2160D0F8008010E05FEA6C
:100D6000C97007D16A464046B9B200F020FD411C67
:100D700031D08044A1696D1C0498761E88470746CF
:100D8000002E14DD781C12D0BBF1000007D03B46CA
:100D9000DDE9101200F0DEFC0028E0D107E0BAF136
:100DA000000FDCD13846216A88470028D7D0E16996
:100DB00004988847BAF1000F06D1002D04DD5FEAE0
:100DC000C97001D188F80000A068B04203DDBAF113
:100DD000000F03D016B16FF00100B7E72846B5E762
:100DE0002DE9FF5F9B46144600273D469169D2E9F5
:100DF0000196DDF840A00198884780465BEA0A002A
:100E000005D009E0A16901986D1C88478046216AD8
:100E1000404688470028F5D1B8F1FF3F03D05FEA8C
:100E2000C97005D014E04FF0FF3004B0BDE8F09F6A
:100E30002068011D216007680AE05FEAC97001D1DE
:100E400027F8028BA1696D1C0198761E88478046A1
:100E5000002E15DDB8F1FF3F12D0BBF1000007D026
:100E60004346DDE90E1200F075FC0028E5D107E0ED
:100E7000BAF1000FE1D14046216A88470028DCD052
:100E8000E16901988847BAF1000F05D1002D03DD13
:100E90005FEAC97000D13880A068B04203DDBAF1C2
:100EA000000F03D016B16FF00100BEE72846BCE783
:100EB00000487047E413002010B5044600F0C2FC5F
:100EC0000068005D00F0010010BD3A2800D2303803
:100ED00020F02002412A01D3A2F13700884201D339
:100EE0004FF0FF30704700002DE9F34F4FF0000A3C
:100EF0000C4656468DB001200C9001F10C000B9071
:100F000062690B9801219047051E2DD0252D2CD00C
:100F1000216A8847C0B162690B9801219047216A14
:100F200088470028F7D16269411E0B98904700E07E
:100F3000761CA1690D988847216A88470028F7D157
:100F4000E1690D988847DBE7A1690D988847A842B9
:100F5000074601D1761CD3E7E1690D9888477F1CCD
:100F600002D1BAF1000F6FD06CE162690B980027D3
:100F70003D46394690472A2804D162690B980121E1
:100F800090470125DFF8D08262690B9801219047D4
:100F9000A0F130010A290AD24745E5DC07EB8701B9
:100FA00000EB4107303FDFD445F01005ECE7E906E0
:100FB00001D46FF000476C280AD04C2814D0682860
:100FC00015D06A280DD074281CD07A281AD01DE0BC
:100FD00062690B98012190476C2802D045F0040506
:100FE00014E045F002050DE045F020050AE06269D5
:100FF0000B9801219047682802D045F0080505E0CC
:1010000045F4006562690B9801219047C4E90157D6
:1010100065283DD019DC58287AD00CDC452837D01B
:1010200004DC252826D041289ED131E046282FD047
:10103000472899D12CE05B2877D0612828D06328F5
:101040007CD0642823D15AE0F7E06F2848D008DC30
:1010500066281DD067281BD0692821D06E2816D19C
:1010600027E0702845D0732868D0752847D07828A5
:101070000DD14DE0A1690D988847252805463FF41C
:1010800069AFE1690D9888476D1C3FF46AAFD9E0FC
:101090000D9923466A466FF001000BF0A9FCC6E0EB
:1010A00045F0400023464FF000026060A80736D4A8
:1010B0003EE0E8077FF447AF2068011D216000682B
:1010C000290501D506701BE7290701D5068017E71A
:1010D000A90703D5F117C0E9006111E706600FE722
:1010E00045F0400023464FF008026060A80716D480
:1010F0001EE040F60E0125EA0100606016E045F0B2
:10110000400023464FF00A026060A80707D40FE0B2
:1011100045F040006060A80708D5234610220D99CD
:101120006FF00100FFF767FB81E007E01022234624
:101130000D996FF00100FFF709FC78E04FF000090E
:1011400063284F46C8464B46CB4602D05B2807D0A3
:1011500039E02079C00601D40120A060012732E0E7
:101160006269D4F80CB00B98012190475E2807D132
:101170004FF0010949466269D4F80CB00B989047CA
:10118000216939B900210A4603AB43F82120491CE3
:101190000829FADBD8B3216949B308F1010862696B
:1011A0000B98012190475D28F4D1B9F1000F09D0C7
:1011B000002003A951F82020D24341F82020401CF0
:1011C0000828F7DB03AB2069002820794FEA40703C
:1011D0001ED05B462246CDF80080CDE901970D99DF
:1011E00000286FF0010020DAFFF7FAFD1FE0C117B9
:1011F00003AA00EBD1614B1121F01F0102EB830226
:10120000411A13680120884003431360C7E719E0BF
:101210000D99224600286FF00100009702DAFFF7CF
:10122000E1FC04E0FFF738FC01E0FFF765FD002872
:101230000ADA401C06D10C9820B14FF0FF300FB0F5
:10124000BDE8F08F5046FAE7E90701D10AF1010A3B
:10125000064400200C9053E6CCCCCC0C2DE9FF4F7B
:1012600006468BB00878FF2806D0491C2D2805D0EB
:1012700000244FF0000908E000200CE00124F8E70A
:1012800009EB8903491C00EB43090878FF28F7D1D3
:1012900014B1C9F100008146107800252C46AA46F9
:1012A00029462D2801D02B2804D1521C2D2813D0DB
:1012B000002082468B461078FF280FD04FF0000C9C
:1012C0000A21521CA5FB017804FB018105FB0C11CE
:1012D000C5194BEB0104EEE70120EAE700210846BF
:1012E0004FF00000BAF1000F02D000EB8000400880
:1012F000C0F38157012F01DD4FF0FF370E9955EAFA
:10130000040009EB01080BD04FF0020918F5FA7F31
:1013100016DA4FEACA70002F706008DD012007E07E
:101320004FEACA70C6E900B00FB0BDE8F08F0020E8
:101330003060FFF7BDFDC0F800901821084616E0A8
:10134000B8F5FA7F18DD002F02DAF748784401E09B
:10135000F6487844D0E90010C6E9001040EACA70A7
:101360007060FFF7A5FDC0F80090142108460FB08B
:10137000BDE8F04F0BF0D9BA002108464FF000004D
:10138000B8F10001099002DAC7F1000200E03A4624
:1013900001DAC8F1000106A800F060FA06AB93E894
:1013A000070003AB83E8070044F23E005BEA040158
:1013B0000090584604D144F21E012C465D4600912F
:1013C000210C0904014306D10099240444EA154480
:1013D0002D041039009104F07F41014306D100999A
:1013E000240244EA15642D020839009104F070418A
:1013F000014306D10099240144EA15742D01091F07
:10140000009104F04041014306D10099A40044EA50
:101410009574AD00891E009104F00041084304D189
:1014200000986D196441401E00904FF001033A4648
:101430006846B8F1000FCDE9014503A902DD00F0CF
:10144000D4FF01E000F0A7FFBAF1000F04460D46FB
:1014500001D084F00044002108464FF000000999B3
:1014600040F2FF77484010F00C0F07D124F0004005
:10147000284303D0C4F30A50B84212D1FFF718FD35
:10148000C0F80090C4F30A50B8420AD1A848784482
:10149000D0E90010C6E9001004F000410843706074
:1014A00042E7C6E900543FE72DE9FF4F1F464FF0E2
:1014B000000A4FF0FF38454691B0D7E90146CDF814
:1014C0003CA000F0C7F9C0680168405C1090B969A1
:1014D00012986D1C8847396A814688470028F6D1E2
:1014E000B9F1FF3F0AD0002E24F4D06411DDB9F128
:1014F0002B0F08D0B9F12D0F0BD102E0404615B0EB
:1015000013E744F48064B96912986D1C8847761E0D
:101510008146600504A901D52D2000E02B20002E76
:1015200001F1010B0DF130088DF810003FDDB9F12C
:10153000690F08D0B9F1490F05D0B9F16E0F02D08B
:10154000B9F14E0F1CD13B4601A8009580E850022E
:10155000DDE912126FF002000BF04EFAC11CCED181
:101560000EE0B96912986D1C884781461398761E63
:1015700044F4007405600F98401C002E0F9016DD97
:10158000B9F1300FEDD0B9F1780F02D0B9F1580FA1
:101590000DD10F9801280AD13B46CDE90054DDE971
:1015A0001212001F02960BF025FAC11CA7D1109948
:1015B00089453ED144F0800406E01399681CAAF1E5
:1015C000010A44F400740860B9696D1C1298761E13
:1015D000884730288146F0D02BE01099894505D105
:1015E000200603D4761E44F0800418E048460AF032
:1015F000AFFB08B3761E0DF123018B4544F4007454
:1016000008D2A9F130000BF8010B200607D5AAF18A
:10161000010003E0200602D40AF101008246A00581
:1016200002D51399681C0860B96912986D1C884727
:101630008146002ED1DC53E0002E51DDB9F1650F5B
:1016400002D0B9F1450F4BD1A00549D5B9696D1C40
:101650001298761E24F440748847002E81460CDDD3
:101660002B2804D0B9F12D0F07D144F48074B96947
:1016700012986D1C8847761E8146E00501D52D2104
:1016800000E02B2108F8011BCDF8008021E0761E38
:101690000DF13901884544F400740CD2A9F13000F1
:1016A00010F0FF0088F8000002D10099884509D9A0
:1016B00008F1010806E0E00501D51E4801E042F20C
:1016C0000F708246B96912986D1C8847814613983D
:1016D0000560002E04DD48460AF03AFB0028D6D10A
:1016E000F96912988847FF2053468BF8000088F864
:1016F000000000200A900B9004AA0CA90AA8FFF78A
:10170000ADFDA00502D46FF00100F8E614F0240F3F
:1017100012D0E0071CD13868DDE90A12031D3B60D6
:101720000068C0E9001213E058C100004AC100007F
:101730000EC00000F1D8FFFF0AA968460AF0A0FA1F
:10174000E00705D13868009A011D39600068026021
:101750002846D4E610B508E030F8024B9C4204D18C
:101760000AB1002010BD012010BD491EF4D2104660
:1017700010BD70B516460C46054600F063F80368C8
:1017800093F80101012804D0185D68B101202C8074
:1017900070BDD3F803013246214603F2031303441C
:1017A0002846BDE8704018474FF0FF3070BD70B557
:1017B00016460C46054600F045F8036893F801010B
:1017C000012806D0FF2C0FD8185D68B101202C70BD
:1017D00070BDD3F807013246214603F207130344D4
:1017E0002846BDE8704018474FF0FF3070BD00003C
:1017F00000487047E41300207546FFF7F9FFAE4636
:1018000005006946534620F00700854618B020B50C
:10181000FEF7FAFDBDE820404FF000064FF000074C
:101820004FF000084FF0000B21F00701AC46ACE888
:10183000C009ACE8C009ACE8C009ACE8C0098D46F5
:101840007047000010B500F005F8001D10BD00BF86
:1018500095B0000000487047041400202DE9F047BF
:10186000814616468AB0354878440DC88DE80D008B
:1018700032487844801C03AC0DC884E80D0041F662
:101880009B300844372190FBF1F290FBF1F5A5F174
:10189000800501FB12041B3C02D56442012000E0DC
:1018A0000020DFF898A080460027FA44AAF1BE0A7B
:1018B0000EE0E0070AD03246684607EB47010123F5
:1018C0000AEB810100F07CFD8DE8070064107F1CAD
:1018D000002CEED1194F7F44AE3F19E0E80715D038
:1018E00007EB04100DF1180A90E80E008AE80E00CC
:1018F000C068F04201D1981908903246012306A928
:1019000003A800F05DFD03AB83E807006D10641CC5
:10191000002DE3D14FF0010332466946B8F1000FC4
:1019200003A802D000F022FD01E000F049FDC9E962
:101930000001C9F808200AB0BDE8F087D8B300005C
:1019400010B50446AFF300802046BDE81040FEF716
:1019500047BD00002DE9FF4F1F464FF03C0987B0FF
:101960004FF00042DDE9141001F10108DDF858A044
:1019700002EA405003900020059083460546044645
:101980000490B969461E08988847AAF1010A029096
:10199000BAF1000F3BDD02982E2815D01021FFF779
:1019A00094FA00282EDB4FF0010B0599014317D064
:1019B000B9F1000F0BDB4A46C11700F02FFA0543BF
:1019C0000C43A9F1040905E0012004900BE008B1E3
:1019D00045F0010501200590049820B9361D02E06C
:1019E000049800B1361FB969089808F101088847C2
:1019F000BBF1000FAAF1010A0290C9D00999C1F800
:101A00000080C5E70298702808D0502806D0F969F0
:101A100008988847BBF1000F14D04FE000200290D7
:101A20000120BBF1000F049009D0B969089808F1B2
:101A300001088847AAF10109B9F1000F07DCF9692B
:101A4000089888476FF001000BB0BDE8F08F2B2895
:101A500004D02D280CD14FF0FF300490B9690898BC
:101A600008F101088847A9F10109B9F1000FE6DD85
:101A7000411CE4D00A21FFF728FA0028DFDB029995
:101A800008F1010801EB810100EB41000290B96906
:101A9000089888470A21FFF718FA099AA9F101095D
:101AA000B9F1000FC2F8008001DD0028E7DAF9691A
:101AB000089888470499029800FB016655EA0400DB
:101AC00004D004F04041090002D006E0039898E0F9
:101AD000A40044EA9574AD00B61E04F0004108006D
:101AE00002D16D196441761E159810F0240F03D0B1
:101AF0004FF00B095C4803E04FF028096FF07D00C0
:101B00008246564507DAAAEB06018944B9F1410F2E
:101B100001DD4FF0410901200021A9F1010200F08F
:101B20007DF9024628400B462140084301D001219F
:101B300000E00021501E029143F1FF312840214076
:101B4000084301D0012000E000200299834651EAB9
:101B50000B014FD0002108464FF00000039900F41C
:101B6000400039B100EB80004FF4400100EBD07031
:101B700001EA60008015012802DD4FF0FF3000E02F
:101B800013D0401C36D0029860B3BBF1000F0CD1CB
:101B90004A460120002100F041F928402140084335
:101BA00001D0012000E00020E0B101204A460021E0
:101BB00000F034F9034640190A4661412D1A8C4160
:101BC00011D3B9F1400F09DD159810F0240F02D0A0
:101BD000AAF1340603E0AAF1170600E0761C0025FE
:101BE0004FF0004406E05B1E42F1FF3220EA03059D
:101BF00021EA0204CAF10100B04206DA1B49039847
:101C000008430190002000900EE0039AC4F3D32112
:101C1000E80A0A43164940EA44500A433146CDE9EE
:101C2000000268460AF038F8159810F0240F0BD01F
:101C30001598C00715D13868DDE90012031D3B6017
:101C40000068C0E900120CE002A869460AF018F822
:101C50001598C00705D13868029A011D39600068DF
:101C600002604046F0E6000002FCFFFF0000F07F4B
:101C70000000F03F2DE9FF4F92461D4685B04FF022
:101C80000041DDE9124BDDE914727F1E01EA4B5081
:101C9000414940F0FF4940EA0108002122F02000BC
:101CA0004928049102D04E2828D04CE03BA00126C0
:101CB00007C88DE80700A9690698641C88477F1E3D
:101CC000014606D41DF8060018B121F0200181421A
:101CD0000BD0E96906988847032E34D0082E32D0FD
:101CE0006FF0010009B0BDE8F08F761C032E01D023
:101CF000082EE0D1601CCAF80000DCE7A96906984C
:101D0000641C88477F1E2AD420F02000412826D159
:101D1000A9690698641C88477F1E20D420F0200003
:101D20004E281CD1A9690698641C88477F1E48F478
:101D3000002849F48009CAF8004001D4282806D0B8
:101D4000E969069888475FEACB7012D022E0A9695A
:101D50000698641C88477F1E01D4002803DAE969CD
:101D600006988847BCE72928F1D1641CCAF80040CE
:101D7000E9E71BF0240F07D028680499031D2B60A6
:101D80000068C0E9001805E02868021D2A600068A4
:101D9000C0F800902046A5E70000F07F494E464974
:101DA0004E495459000000004FF0013C50F8042BFC
:101DB00051F8043B9A4215D1A2EB0C03934313EA6A
:101DC000CC130BD150F8042B51F8043B9A4209D1A3
:101DD000A2EB0C03934313EACC13E7D04FF00000BF
:101DE000704700BFD01A01BAB1FA81F101F01801B1
:101DF00022FA01F0CB40C1F12001DBB2C0B2C01A1F
:101E00002CFA01F3D11A914311EAC311E6D17047BC
:101E100001491820ABBEFEE726000200B2F1200304
:101E20000AD5C2F1200301FA02F120FA03F300FA05
:101E300002F041EA0301704700FA03F14FF000009D
:101E4000704770479FED201AB5EE002A00EE012A78
:101E50009FED1E1ABDEEC20AB5EEC02AF1EE10FAD1
:101E600010EE100AB8BF013800EE100A0020B8EEDC
:101E7000C00A32EE400A9FED162A20EE010ABCEE9F
:101E8000C01A11EE101A30EE021AB0EB512F18BF23
:101E9000002102EE101A4CF65C4000FE010AC0F66A
:101EA0000000B8EE422A00EB810090ED011A30EEFE
:101EB000420AB7EE002A32EE402A20EE010A90EDE7
:101EC000001A02EE010A704783F9223E0000004426
:101ED000000000C420F07F4C80EA030023F07F471D
:101EE000ACEB070303F57C5300F0004003F1FF0364
:101EF0002DE980494FEA154B09B44FEA144325EA0E
:101F00000B4E24EA03480FF2042606EB1327490878
:101F10003E785FEA320203FB0667C7F5000707FB5E
:101F200006F64FEA54374FEAD64606F1020607FB9B
:101F3000066CCCF1005C4FEA1C472CEA074C07FB0F
:101F400006F40CFB06F504EB15464FEA961634BF73
:101F500000204FF000404FEAD13706FB07FC4FEA64
:101F60001C4C0CFB0BF7D21B03FB0CF761EB0701BE
:101F70000CFB0EF7B0EB074072EB17420CFB08F7B7
:101F800034BFA2EB0742B2EB074261EB17414FEAC5
:101F90000C444FEA910706FB07FC4FEA1C4C0CFB74
:101FA0000BF7B0EBC74072EB573203FB0CF734BFB3
:101FB000A2EBC742B2EBC74261EB57310CFB0EF705
:101FC000B0EBC70072EB57720CFB08F734BFA2EB03
:101FD000C702B2EBC70261EB5771039F4FEA816101
:101FE00041EA921104EBCC044FEAD1374FEA826206
:101FF00006FB07FC42EA90124FEA80604FEA1C4C55
:102000000CFB0BF7D21B03FB0CF761EB07010CFB7E
:102010000EF7B0EB074072EB17420CFB08F734BF2A
:10202000A2EB0742B2EB074261EB17414FEA8C5536
:102030004FEA910704EB9C2406FB07FC4FEA1C4C7B
:102040000CFB0BF7B0EBC74072EB573203FB0CF7FE
:1020500034BFA2EBC742B2EBC74261EB57310CFB76
:102060000EF7B0EBC70072EB57720CFB08F734BFEA
:10207000A2EBC702B2EBC70261EB577115EB4C251F
:102080004FEA816141EA92114FEA82624FEAD13709
:1020900042EA901206FB07FC44F100044FEA80601C
:1020A0004FEA1C4C0CFB0BF7D21B03FB0CF761EB4C
:1020B00007010CFB0EF7B0EB074072EB17420CFB6D
:1020C00008F734BFA2EB0742B2EB074261EB1741BE
:1020D00015EB1C154FEA813141EA92414FEA8232F9
:1020E00042EA90424FEA80304FEA0C7644F1000415
:1020F00048EA03434EEA0B484FF0000EB2EB080CDF
:1021000071EB030724BF624639464EEB0E0E4FF0CB
:10211000000B0018524149414BEB0B0BB2EB080C82
:1021200071EB03077BF1000B24BF624639464EEB8F
:102130000E0E4FF0000B0018524149414BEB0B0BB8
:10214000B2EB080C71EB03077BF1000B24BF624676
:1021500039464EEB0E0E51EA020718BF46F0010653
:1021600016EB0E7655F1000254F1000103D5BDE8DF
:102170008901BDE80088BDE88901BDE80048B619BD
:10218000524141EB0101A3F10103704780807F7E42
:102190007D7C7B7A797877767675747372717170DD
:1021A0006F6E6E6D6C6C6B6A6A696868676666658F
:1021B0006464636362616160605F5F5E5E5D5D5C1D
:1021C0005C5B5B5A5A59595858575756565555558E
:1021D0005454535352525251515050504F4F4F4EEE
:1021E0004E4D4D4D4C4C4C4B4B4B4A4A4A4949493C
:1021F000484848474747474646464545454444447E
:1022000044434343434242424241414146EA064637
:10221000A3F570534FEA164646EA42564FEAD222D9
:1022200042EA415210B54FEAD121A3F1010300F077
:102230002FF820F0004000F1020C00F0004701EB05
:1022400000501146BCF5006F40EA070000D210BDF7
:10225000BAF1000F0AD01CB503B44FF004004FF0E0
:1022600004014FF000000FBCBDE810404FF000012A
:10227000BBF1010FB9BF04484FF0FF310348002103
:1022800040EA070010BD00BFFFFFEF7F0000F07FB6
:10229000002B9C4630D477002BD01CB54FEA370773
:1022A00003B44FF010004FF01001BAF1000F06D048
:1022B000BCF1000FDCBF40F0080040F008014FF017
:1022C00000000FBCBDE810400BF1010BBBF1010F8A
:1022D00008BF5FEA170722BF12F1010211F10101E5
:1022E0004FF0004143F1000300F0004043EA0000DA
:1022F0007047F9D35708D0E746EA064613F1400F76
:102300004FEA16461FDD13F1200FDFBF16430A46C2
:10231000002120335B42BED0C3F1200746EA0646C7
:1023200002FA07F74FEA164646EA0706C3F1200706
:1023300022FA03F201FA07F721FA03F14FF0000342
:1023400042EA0702A7E746EA020646EA06464FEADD
:10235000164646EA0106BCBF46EA0646360C4FF072
:1023600000034FF000024FF0000194E72DE9804C8C
:102370009A46934670B491E8380007C831EA400C99
:1023800048BF34EA430C03D5FFF7A4FDFFF780FFF5
:10239000F0BCBDE8008C2DE9804C9A46934670B4A1
:1023A00091E8380007C831EA400C48BF34EA430CD2
:1023B00003D5FFF78FFDFFF729FFF0BCBDE8008CC8
:1023C0002DE9804C9A46934670B491E8380007C8CE
:1023D00010F0804F08BF13F0804F03D100F01AF8BF
:1023E000FFF756FFF0BCBDE8008C2DE9804C9A4603
:1023F000934670B491E8380007C810F0804F08BFCA
:1024000013F0804F03D100F005F8FFF7FFFEF0BC9A
:10241000BDE8008C20F07F4780EA030023F07F4C6A
:1024200007EB0C03A3F57C5300F00040A3F1FE037F
:1024300092F0000F00F0B38095F0000F00F077806D
:102440002DE901494FEA11404FEA144621EA0048BC
:1024500000FB06FC24EA064708FB06F607FB08F823
:1024600000FB07F718EB06484CEB164C4FEA124BF3
:1024700018EB07484FEA15464CEB174022EA0B4E83
:102480000BFB06FC25EA06470EFB06F607FB0EFED5
:102490000BFB07F71EEB064E4CEB164C4FF00006FD
:1024A0001EEB074E4CEB174B18EB0B0840F10000EE
:1024B00018EB0E0B58EB000840F100008F1A4FF09C
:1024C00000013CBFC943661B14BFB5EB040C0021DF
:1024D0003CBFC943F61B4FEA17444EEA8E0E27EA6B
:1024E00004454FEA1C4704FB07622CEA074C05FB36
:1024F00007F70CFB05F604FB0CFC16EB074642EB5A
:10250000174216EB0C4642EB1C421BEB060658EB3F
:102510000202414146EA9E0601D5BDE80189B6198D
:10252000524141EB0101A3F10103BDE801894FEAEA
:1025300014454FEA114724EA054621EA074C05FBFA
:1025400007F406FB07F70CFB06F105FB0CFC11EB8F
:10255000074144EB17444FEA124711EB0C4144EB9F
:102560001C4422EA074C05FB07F206FB07F70CFBAD
:1025700006F605FB0CFC16EB074642EB174216EB82
:102580000C4642EB1C456A1854F1000148BF7047E5
:10259000B619524141EB0101A3F10103704795F0D7
:1025A000000F37D04FEA11424FEA144721EA0246A2
:1025B00024EA074C02FB07F106FB07F70CFB06F4C5
:1025C00002FB0CFC14EB074441EB17414FEA1547A3
:1025D00014EB0C4441EB1C4125EA074C02FB07F5C8
:1025E00006FB07F70CFB06F602FB0CFC16EB074696
:1025F00045EB174516EB0C4645EB1C42121951F101
:10260000000148BF7047B619524141EB0101A3F1E7
:10261000010370474FEA14454FEA114724EA054683
:1026200021EA074C05FB07F106FB07F70CFB06F256
:102630004FF0000605FB0CFC12EB074241EB174183
:1026400012EB0C4251EB1C4148BF7047921841EB12
:102650000101A3F10103704710B532490446006837
:10266000884202D0304A904202D1D1F8080302E0F9
:102670002E48D0F8080310F4403F10D004F0DEFDDF
:102680006168B1F5803F06D0B1F5003F03D0B1F5E8
:10269000403F26D101E0090C17E0800821E000212D
:1026A0004FF4002003F0B0FE61688A03920B18D14A
:1026B0008A140C2A15D2DFE802F014060606060674
:1026C000060B0D0F1113890C4900B0FBF1F008E067
:1026D000000906E0400904E0800902E0C00900E0CA
:1026E000000A13494008884204D82068816821F410
:1026F000407108E00F49884207D82068816821F4BA
:10270000407141F48071816010BD0B49884220689E
:10271000816804D821F4407141F40071F3E741F479
:102720004071F0E7002002400021024000600258A2
:10273000105E5F0020BCBE0040787D01FEE70020F7
:10274000704700207047000005490022054810B579
:1027500007F0D8FC0449034807F0C7FC002010BD6F
:10276000E40B00203C040024E4030020014604485C
:1027700010B507F0BAFC024807F090FC002010BD2D
:102780003C04002400207047014801F057BA0000C3
:10279000B8020024014801F051BA0000C40300242B
:1027A000294A016891423AD0274A1832914236D0DC
:1027B000254A3032914232D0234A483291422ED0BB
:1027C000214A603291422AD01F4A7832914226D063
:1027D0001D4A9032914222D01B4AA83291421ED00B
:1027E0001A4A91421BD0194A1832914217D0174AFF
:1027F0003032914213D0154A483291420FD0134AD9
:10280000603291420BD0114A7832914207D00F4A80
:102810009032914203D00D4AA832914211D1CAB2EE
:102820001823103AB2FBF3F26FF30901032A02F006
:102830000703074AD25CC26500D9091D81650846B5
:10284000704721F0FF01F9E7100002401004024038
:1028500090CA000830B5224A012301689142CAB2E9
:102860001BD01F4C1434A14217D01D4C2834A14258
:1028700013D01B4C3C34A1420FD0194C5034A14210
:102880000BD0174C6434A14207D0154C7834A142C8
:1028900003D0134C8C34A1420CD11421114C083AB2
:1028A000B2FBF1F10F4A803201F01F0504EB810108
:1028B000AB4010E00C4D1824103A0D44B2FBF4F17B
:1028C000A82D00D80831094A01F01F0402EB81014C
:1028D000064AA3408032603080E80E0030BD000020
:1028E0000854025800580258F0FBFDBF000802408F
:1028F00010B50279531E072B2DD8174C0168A14241
:102900001BD0154C1434A14217D0134C2834A142CB
:1029100013D0114C3C34A1420FD00F4C5034A14283
:102920000BD00D4C6434A14207D00B4C7834A1423B
:1029300003D0094C8C34A14203D10849074C4431DF
:1029400002E00749064C443104EB8202C0E91B2136
:1029500001219940416710BD08540258FC580258A3
:10296000FC08024010B583694FF0C074826A0146CA
:10297000002053B1B3F5005F15D072B1012A0CD01D
:10298000022A0AD0032A09D104E01AB1012A06D08A
:10299000022A03D1C96AC90100D5012010BDC96A44
:1029A000A142FAD010BD002AF7D0012AF2D0022AA3
:1029B000F3D0032AF3D010BD704772B6FEE70000D3
:1029C000014802F05DB8000070000020014802F0EC
:1029D00057B8000070000020F0B503684FF6FC7196
:1029E0006D4C426BD3F884508D4345EA8205C3F8A1
:1029F0008450036853F8845F068F25F47F0545EA09
:102A000006451D60836B654D9F180268D2F88830BB
:102A10008B4343EA8703C2F88830026852F8883F44
:102A2000868F23F4FE0343EA06431360066856F8D4
:102A3000A03FC26B8B4307EB420243EA8203336041
:102A4000076857F8A03FB0F8406023F4FE0343EA5C
:102A500006433B60D0E9103603FB06220368D3F837
:102A6000B0608E4346EA8206C3F8B0600368B0F8EF
:102A70004860D3F8B07027F4FE0747EA0646C3F86B
:102A8000B060D0E91267036806FB0722D3F8AC6098
:102A90008E4346EA8206C3F8AC60D0E91467036847
:102AA00006FB0722D3F8F0608E4346EA8206C3F89D
:102AB000F0600368B0F85860D3F8F07027F47C1722
:102AC00047EA0646C3F8F0600368876D53F8C06FA5
:102AD00002EB47028E4346EA820119600168B0F8B2
:102AE0005C20D1F8C03023F47C1343EA0242C1F8E1
:102AF000C020016890F86020D1F8C03023F07C53EA
:102B000043EA0262C1F8C020416B04EB8101C16657
:102B1000826B01EB82020267C36B02EBC302426766
:102B2000D0E91034634302EB83028267D0E91234A8
:102B3000634302EB8302C267D0E91434634302EBC0
:102B40008302C0F88020836D02EBC303C0F8843099
:102B5000C46D826E544303EB8403C0F88830046E66
:102B6000544303EB8402C0F89020AA420AD9D0F85B
:102B70009C20032142F02002C0F89C2080F898108D
:102B80000120F0BD002200E004C1D0F890308B425B
:102B9000FAD80020F0BD000000AC0040FCD300409B
:102BA000F0B58E680C69D1E9005744EA0604DFB13C
:102BB00045F080452C43866ED1E906C54F695E43DA
:102BC00091F8203045EA0C05D0F884E00020D1F8D7
:102BD0000CC047EA0363114F1D430EEB860345EA21
:102BE0000C05E3E8024511E044EA8544E3E71418E4
:102BF000155CA67894F803C094F801E0360445EA21
:102C00000C6446EA0E252C43001D10C3CC6807EB6C
:102C1000144424788442EAD8F0BD000098CA000821
:102C20002DE9F0470F4690F85C109CB0044601294E
:102C30004FF0000915D00026DFF8F880012084F855
:102C40005C0018961996216841450ED13A4D0095C1
:102C5000284605F0E9FC8246206805F0E5FC60B1F5
:102C60000EE002201CB0BDE8F087206E84F85C60A6
:102C700040F0200020660120F4E7BAF1000F09D0EF
:102C8000216E4FF0010941F020002066484684F88B
:102C90005C60E7E720684146884201D0A84201D144
:102CA000264800E0264840F61F72D7F800C0254BA2
:102CB000BCF1000F23D0D0F808C0D7F804802CF462
:102CC000404C4CEA080CC0F808C0D4F800C08C4551
:102CD00001D0AC4507D18968AB6801F0010103F070
:102CE0000103194302E0996801F001010029CDD1E7
:102CF000BD683968836829439343194317E087689F
:102D000027F44047876027688F4201D0AF4207D140
:102D10008968AB6801F0010103F00103194302E087
:102D2000996801F001010029B0D181689143816067
:102D3000ACE70000002002400021024000230240D6
:102D400000630258006002582DE9F84F4FF0000B65
:102D50000446FD4E0D46CDF800B0DA4690F85C0012
:102D6000FA4F012808D04FF0010984F85C902068E0
:102D700005F056FC18B152E20220BDE8F88F206839
:102D8000B0420DD02968C2690B0327D091FAA1F196
:102D9000B1FA81F101F01F0309FA03F10A43C2619C
:102DA000D5E900124FF00C0C20681F23C1F3846199
:102DB0000CEA921C02F01F02604493409140026BA7
:102DC0009A430A430263206805F02AFC8046206883
:102DD00005F022FC58EA000003D048E1C1F3846109
:102DE000D8E7AA682968206805F022FC2068B0426C
:102DF00004D1C2686969C2F3C1020BE0D44A126807
:102E0000B9EB127F02D0C168C90605D4C2686969EE
:102E1000C2F38202520004E0C268696902F0100243
:102E2000520891402A69042A5AD02B6800EB82028A
:102E3000B04202F1600207D103F0F8401368084382
:102E400040F00040106008E0D2F800C003F0F84005
:102E500008430CF00041014311602068B0421CD1CE
:102E60002A69E96900EB8200026E22F080720A434F
:102E7000026695F8201020682A6901290AD00021ED
:102E8000B042AAD100EB8200026E22F000720A4327
:102E90000266ECE04FF00071F2E795F821102A6924
:102EA000012917D05FF0000100EB8200026E22F0D2
:102EB00000420A430266287E21682A6901280CD054
:102EC00000200B6902F01F02904023F4F0420243FD
:102ED0000A61CCE04FF00041E6E74FF40060F0E714
:102EE000B04273D1002105F091FB000320684FF040
:102EF00000016DD005F08AFB90FAA0F0B0FA80F1E5
:102F00002868020369D090FAA0F0B0FA80F08142FC
:102F100004D100222068114605F09AFB20680121A7
:102F200005F074FB000320684FF0010158D005F054
:102F30006DFB90FAA0F0B0FA80F12868020354D03B
:102F400090FAA0F0B0FA80F0814204D1206800220B
:102F5000012105F07DFB2068022105F057FB0003ED
:102F600020684FF0020143D005F050FB90FAA0F02A
:102F7000B0FA80F1286802033FD090FAA0F0B0FACE
:102F800080F0814204D120680022022105F060FB1C
:102F90002068032105F03AFB000320684FF003018D
:102FA0002ED005F033FB90FAA0F0B0FA80F128683B
:102FB00002032AD090FAA0F0B0FA80F0814256D1F4
:102FC00020680022032105F043FB50E020E0FFE7EA
:102FD00005F01CFBC0F3846192E7C0F3846096E7C0
:102FE00005F014FBC0F38461A7E7C0F38460ABE78E
:102FF00005F00CFBC0F38461BCE7C0F38460C0E75C
:1030000005F004FBC0F38461D1E7C0F38460D5E729
:10301000016E2A7801F0F841B1EB826F03D1016EA5
:1030200021F00041016620682978426E02F0F842E2
:10303000B2EB816F03D1416E21F0004141662068FF
:103040002978826E02F0F842B2EB816F03D1816E73
:1030500021F00041816620682978C26E02F0F842B2
:10306000B2EB816F03D1C16E21F00041C1662068CF
:10307000816811F0010F71D1364AB042EB682968BE
:103080000FD1D0F8B0C003F01808C1F3130322FA2F
:1030900008F20A402CEA030C4CEA020CC0F8B0C05B
:1030A0000EE0D0F8C0C003F01808C1F3130322FAF1
:1030B00008F20A402CEA030C4CEA020CC0F8C0C02B
:1030C0002548E96881427DD1286801031BD090FA28
:1030D000A0F1B1FA81F1491C01F01F0109294FEA61
:1030E00000313CD8002911D090FAA0F1B1FA81F159
:1030F00001F1010101F01F0109FA01F209D100BF3C
:10310000C0F3846109E0C0F38461E4E7C0F3846143
:10311000EEE790FAA0F1B1FA81F101F1010101F0BD
:103120001F0142EA816102D1C0F3846003E090FA9A
:10313000A0F0B0FA80F000F1010000F01F0000EBF9
:10314000400041EA005140E0006002580021024086
:103150000010005CFFFF0F000000FF4765E0002942
:103160000FD000BF90FAA0F1B1FA81F101F1010195
:1031700001F01F0109FA01F206D100BFC0F384611A
:1031800006E0C0F38461F1E790FAA0F1B1FA81F1B1
:1031900001F1010101F01F0142EA816102D1C0F396
:1031A000846003E090FAA0F0B0FA80F0434A00F1A6
:1031B000010000F01F0000EB400002EB005041EA6C
:1031C000000100E005E041F00071AA68206805F008
:1031D0002FFAD5F800C0BCF1000F26DA384B206872
:1031E0003849DFF8E490984201D0B84201D10A464C
:1031F00000E04A469268984202F0E07201D0B8427C
:1032000009D19D68D7F8088005F0010508F001088C
:1032100045EA080502E0B56805F001054DB1216EEB
:103220004FF0010A41F020002066504684F85CB05F
:10323000A3E5264DAC451CD115021AD4B042F4D1F9
:10324000984202D0B84200D049468B6842F4000050
:1032500023F0E07202438A601E491D480968B1FBF1
:10326000F0F04000801C00E0401E00900028FBD1E0
:10327000DBE7194DAC450CD1D5010AD4B042D4D10D
:10328000984202D0B84200D049468B6842F0807024
:103290000EE0124DAC45C8D15502C6D4B042C4D1DF
:1032A000984202D0B84200D049468B6842F4800070
:1032B00023F0E07202438A60B7E70000000020FEBE
:1032C000002002400023024000630258000052C761
:1032D000400D030014000020000021C3000084CB37
:1032E0002DE9F8434FF0000504002E46009502D06A
:1032F000206E18B108E00120BDE8F883204600F0F8
:1033000043F9656684F85C5020688168C1F34071B8
:1033100019B181688E4A1140816020688168C1F3CB
:10332000007181B981688B4A114041F08051816000
:103330008A4989480968B1FBF0F0401C00E0401E52
:1033400000900028FBD120688168C1F3007141B969
:10335000216E012641F010012166616E41F00101EC
:10336000616605F05DF9216EC90600D420B1206EBA
:10337000012640F01000E0E0206E20F4807040F064
:103380000200206620688168754D11F0010F1ED182
:10339000744B754A984201D0904207D1996897685A
:1033A00001F0010107F00107394302E0A96801F0CB
:1033B000010161B9984201D0904201D16B4800E00F
:1033C0006B488268616822F47C120A43826021683B
:1033D000A9421FD1637ED4E90207E26B5B033A4343
:1033E000082805D00C280FD01C280FD018280FD083
:1033F0005FF0000000F00C0794F8200043EA470358
:103400001A4342EA00400FE00420F3E70820F1E706
:103410001C20EFE7627E94F82030A768E06B52032F
:1034200042EA03423843104394F82020012A04D191
:10343000A28C504B03EB42421043A26A2AB1E36ACA
:1034400002F47872024343EA0200CA68A9420BD12F
:10345000494B1A400243CA602068626B016921F03F
:1034600040611143016103E0444B1A400243CA60CA
:10347000206805F0D5F80746206805F0CDF8074329
:103480004ED12068A946484506D1217E94F83820BF
:10349000890341EA420103E0227E216B41EA823145
:1034A000C26844F203039A430A43C26094F844009A
:1034B0000128206803D0016921F0010122E048457C
:1034C0000ED1D4E9121CD4E9143502692C4F41EA1B
:1034D0000C012B433A401943114341F0010111E023
:1034E000D4E91317B4F848C0DFF89880636D026917
:1034F00008EB0C4C224D394343EA0C036D1E2A4065
:103500001943114301612068236C026922F0704263
:103510001A4302612068484502D02046FFF79CF814
:103520002069012820680BD0016B21F00F01016395
:10353000206E20F0020040F0010020663046DBE6FD
:10354000E269016B521E21F00F011143EFE7000009
:10355000C0FFFF5FC0FFFF7F400D0300140000208D
:103560000060025800200240002102400023024077
:10357000006302580000FEFF0740F0FF03C0F0FFA9
:103580001FF800FC0100FFFFF0B5B5B0064614219E
:103590002EA8FDF7C0F8B8216846FDF7BCF8294908
:1035A000306888424CD1022000224FF40021009163
:1035B000CDE901201023154606AACDE90330C02429
:1035C000059082E8310068460995289503F06AF86D
:1035D00008B1FFF7F2F91C48016841F020010160D1
:1035E000006800F02000339017480830016841F06F
:1035F0000101016000682EAA032100F00100339050
:10360000202082E8230011482EA901F06FFD104C04
:10361000092110484FF4807C021584E82300D7006C
:10362000C4E90352C3142046C4E907C56562C4E96E
:10363000053700F077FE08B1FFF7BFF9B465A66360
:1036400035B0F0BD00200240D844025800000258B6
:10365000B8020024100002402DE9F84F044601F0A2
:1036600059FE00903CB194F83500022806D0802124
:1036700061650020E4E00120BDE8F88FC74DC74E2A
:10368000C649183520683036DFF81483DFF8149304
:103690008842DFF814A3DFF814B32ED0A8422CD050
:1036A000B0422AD0404528D0484526D0504524D0A5
:1036B000584522D0BD4A183290421ED0BC4A904292
:1036C0001BD0BB4A1832904217D0B94A30329042D0
:1036D00013D0B74A483290420FD0B54A6032904278
:1036E0000BD0B34A7832904207D0B14A9032904220
:1036F00003D0AF4AA832904209D1026822F01E02DC
:1037000002602068426922F08002426103E00268A0
:1037100022F00E02026027688F4238464DD0A84240
:103720004BD0B04249D0404547D0484545D05045A0
:1037300043D0584541D09D4A183290423DD09C4AD2
:1037400090423AD09A4A1832904236D0984A303253
:10375000904232D0964A483290422ED0944A6032FB
:1037600090422AD0924A7832904226D0904A9032A3
:10377000904222D08E4AA83290421ED08D4A90426A
:103780001BD08C4A1432904217D08A4A2832904279
:1037900013D0884A3C3290420FD0864A5032904231
:1037A0000BD0844A6432904207D0824A78329042E9
:1037B00003D0804A8C32974204D1206E026822F4F2
:1037C0008072026075492068884228D0A84226D0BD
:1037D000B04224D0404522D0484520D050451ED08C
:1037E00058451CD071491831884218D07049884218
:1037F00015D06F491831884211D06D493031884257
:103800000DD06B494831884209D0694960318842FE
:1038100005D067497831884201D065499031016807
:1038200021F0010101600EE001F074FD0099401AE1
:10383000052808D9202262650321002084F835106C
:1038400084F8340017E73868C007EDD1534A0121E6
:10385000206890422ED0A8422CD0B0422AD04045B9
:1038600028D0484526D0504524D0584522D04F4B2B
:10387000183398421ED04E4B98421BD04C4B1833F5
:10388000984217D04A4B3033984213D0484B4833B4
:1038900098420FD0464B603398420BD0444B78335C
:1038A000984207D0424B9033984203D0404BA83304
:1038B000984208D194F85C703F23A06D07F01F0771
:1038C000BB40836007E094F85C30A06D03F01F03F9
:1038D00001FA03F34360206890424DD0A8424BD0D8
:1038E000B04249D0404547D0484545D0504543D0E7
:1038F000584541D02D4A183290423DD02C4A904232
:103900003AD02B4A1832904236D0294A303290426F
:1039100032D0274A483290422ED0254A6032904217
:103920002AD0234A7832904226D0214A90329042BF
:1039300022D01F4AA83290421ED01E4A90421BD06D
:103940001C4A1432904217D01A4A2832904213D09F
:10395000184A3C3290420FD0164A503290420BD057
:10396000144A6432904207D0124A7832904203D00F
:10397000104A8C3290420BD1D4E919024260E06EB9
:1039800030B1026822F480720260D4E91C02426005
:10399000002084F8351084F834006DE610000240F1
:1039A000580002407000024088000240A00002401F
:1039B00010040240085402582DE9F05F28B190F835
:1039C0003510022904D0802141650120BDE8F09F17
:1039D000904C904B0168183C18338E4ADFF83C92AB
:1039E000A1428D4CDFF838E28E4FDFF83CB2DFF8B1
:1039F0003CA28F4D8F4E31D091422FD099422DD085
:103A0000A1422BD0494529D0714527D0B94225D0B4
:103A1000DFF810C20CF1180C61451FD0DFF808C2A6
:103A2000ACF1600C614519D0DFF8FCC1ACF1480C79
:103A3000614513D0DFF8F0C1ACF1300C61450DD019
:103A4000DFF8E4C1ACF1180C614507D0594505D049
:103A5000514503D0A94201D0B1422CD1DFF8B4C105
:103A60004FF0040880F83580ACF1180C61451DD08A
:103A700091421BD0994219D0A14217D0494515D087
:103A8000714513D0B94211D06648183081420DD02B
:103A900065486038814209D063484838814205D082
:103AA00061483038814201D05F481838086820F0FA
:103AB00001000860ABE0D1F800C02CF00E08DFF880
:103AC00054C1C1F80080ACF1180C0168614527D0E1
:103AD000914225D0994223D0A14221D049451FD0FF
:103AE00071451DD0B9421BD0DFF838C10CF1180C5C
:103AF000614515D0DFF830C1ACF1600C61450FD0E5
:103B0000DFF824C1ACF1480C614509D0DFF818C1D9
:103B1000ACF1300C614503D0DFF80CC1ACF1180CEE
:103B2000D1F800C02CF0010CC1F800C0DFF8E4802F
:103B30004FF0010C0168A8F11808414546D09142A8
:103B400044D0994242D0A14240D049453ED071452F
:103B50003CD0B9423AD0334A1832914236D0324A38
:103B6000603A914232D0304A483A91422ED02E4AA1
:103B7000303A91422AD02C4A183A914226D05945DF
:103B800024D0514522D0A94220D0B1421ED02A4A89
:103B900091421BD0284A1432914217D0264A28322B
:103BA000914213D0244A3C3291420FD0224A5032E3
:103BB00091420BD0204A6432914207D01E4A78329B
:103BC000914203D01C4A8C32914218D1016E0A688E
:103BD00022F480720A6090F85C20816D02F01F026E
:103BE0000CFA02F24A60D0E919124A60C16E31B192
:103BF0000A6822F480720A60D0E91C124A6000222E
:103C0000016D80F835C080F8342001B1884700206C
:103C1000DCE600002800024058000240700002402C
:103C200088000240A0000240700402408804024064
:103C3000A0040240B8040240085402582DE9FC5F79
:103C40000446F74E0020DFF8D88300904FF4165258
:103C5000F44808F11808A56DDFF8C493DFF8C0A395
:103C6000016809F1300920680AF1480AB1FBF2F154
:103C7000B04201912F68D5F800C0DFF8ACB335D061
:103C80004146884232D0484530D050452ED0584524
:103C90002CD0E5491831884228D0E3493031884298
:103CA00024D0E1494831884220D0E04988421DD0E3
:103CB000DE491831884219D0DC493031884215D0AC
:103CC000DA494831884211D0DFF860E30EF1600E26
:103CD00070450BD0D54A7832904207D0D34B903301
:103CE000984203D0D149A83188427DD194F85C2014
:103CF000082102F01F0201FA02F23A424AD0B04211
:103D000032D0404530D048452ED050452CD0584573
:103D10002AD0C54A1832904226D0C34A3032904247
:103D200022D0C14A483290421ED0C04A90421BD095
:103D3000BE4A1832904217D0BC4A3032904213D05B
:103D4000BA4A483290420FD0B84A603290420BD003
:103D5000B64A7832904207D0B44A9032904203D0AB
:103D6000B24AA832904203D1026802F0040202E093
:103D7000026802F008026AB1026822F004020260DE
:103D800094F85C0000F01F008140A960606D40F075
:103D90000100606594F85C00012100F01F00814083
:103DA000394240D02068B04234D0404532D04845F6
:103DB00030D050452ED058452CD09B4A18329042D6
:103DC00028D0994A3032904224D0974A48329042C3
:103DD00020D0964A90421DD0944A1832904219D071
:103DE000924A3032904200E0AFE113D08F4A48321D
:103DF00090420FD08D4A603290420BD08B4A78327D
:103E0000904207D0894A9032904203D0874AA83224
:103E100090427DD1406910F0800F04D0A960606DA0
:103E200040F00200606594F85C00042100F01F007F
:103E3000814039423ED02068B04232D0404530D037
:103E400048452ED050452CD058452AD0764A1832B5
:103E5000904226D0744A3032904222D0724A483280
:103E600090421ED0714A90421BD0704A1832904244
:103E700017D06E4A3032904213D06C4A483290428A
:103E80000FD06A4A603290420BD0684A7832904232
:103E900007D0664A9032904203D0644AA8329042DA
:103EA0004ED1006810F0020F04D0A960606D40F0A0
:103EB0000400606594F85C00102100F01F00814050
:103EC000394258D02068B04234D0404532D04845BD
:103ED00030D050452ED058452CD0534A18329042FD
:103EE00028D0514A3032904224D04F4A4832904232
:103EF00020D04E4A90421DD04C4A1832904219D0E0
:103F00004A4A3032904215D0484A4832904200E046
:103F100014E00FD0454A603290420BD0434A7832C9
:103F2000904207D0414A9032904203D03F4AA83293
:103F3000904207D1006800F0080006E0006872E7D0
:103F40000068B7E7006800F00400A0B1A96020682D
:103F50000168490304D50068000308D5A16C07E097
:103F60000168C90503D4016821F008010160216CD2
:103F700009B12046884794F85C00202100F01F001A
:103F80008140394279D02068B04232D0404530D0AB
:103F900048452ED050452CD058452AD0224A1832B8
:103FA000904226D0204A3032904222D01E4A4832D7
:103FB00090421ED01D4A90421BD01C4A183290429B
:103FC00017D01A4A3032904213D0184A48329042E1
:103FD0000FD0164A603290420BD0144A7832904289
:103FE00007D0124A9032904203D0104AA832904231
:103FF00003D1006800F0100002E0006800F0020049
:10400000B0B3A96094F835000428206801680FD087
:1040100049037ED5006800032BD4616C2AE00000C0
:104020001000024014000020700002401004024002
:1040300021F0160101602068416921F08001416191
:10404000206C08B9A06C20B12068016821F008013B
:10405000016094F85C303F21012003F01F0300222F
:104060009940A96084F8350084F83420216D65E01A
:1040700003E0E16B09B120468847606D00287DD0E0
:10408000606DC00759D02068042184F83510B04213
:104090002BD0404529D0484527D0504525D05845FC
:1040A00023D09D49884220D09B49183188421CD09A
:1040B00099493031884218D09849884215D097499B
:1040C0001831884211D09549303188420DD093493A
:1040D0004831884209D091496031884205D08F49E2
:1040E0007831884201D08D499031016821F0010179
:1040F000016020680099019A491C0091914202D800
:104100000168C907F6D10068C00710D003200FE08E
:10411000FFE70168C905ACD403680121002223F040
:104120001003036084F8351084F83420A1E70120DF
:1041300084F83500002084F83400E16C00291DD09B
:1041400002B02046BDE8F05F0847754988421DD09F
:1041500073491431884219D071492831884215D0E9
:104160006F493C31884211D06D49503188420DD0A1
:104170006B496431884209D0694900E084E07831B4
:10418000884203D066498C3188427DD194F85C80A6
:104190000427016808F01F0807FA08F717EA0C0F50
:1041A000009746D04F0744D500980F04686003D5A8
:1041B000C8033CD4A16CC1E7880638D42068B0425B
:1041C0002DD055496039884229D0484527D05045DF
:1041D00025D0584523D05049884220D04E49183127
:1041E00088421CD04C493031884218D04B49884213
:1041F00015D04A491831884211D048493031884297
:104200000DD046494831884209D0704507D09042C8
:1042100005D0984203D04149A831884203D10168B2
:1042200021F0080102E0016821F004010160216C25
:1042300084E7022707FA08F717EA0C0F00974ED019
:104240008F074CD500980F04686003D5C80344D489
:10425000616C73E7880640D42068B0422FD02E49A5
:10426000603988422BD0484529D0504527D0584541
:1042700025D02949884222D02749183188421ED0AA
:1042800025493031884200E044E018D02349884273
:1042900015D022491831884211D020493031884246
:1042A0000DD01E494831884209D0704507D0904250
:1042B00005D0984203D01949A831884203D101683A
:1042C00021F0140102E0016821F00A0101600121DE
:1042D00084F83510002084F83400E16B2EE70822C2
:1042E00002FA08F212EA0C0F14D0090712D501687D
:1042F00021F00E01016094F85C100120002201F011
:104300001F0100FA01F16960606584F8350084F8E6
:10431000342012E7BDE8FC9F8800024010040240F0
:10432000085402582DE9F05F044600F0F3FF002C1A
:1043300007467DD0E24E022120684FF00308DFF8E7
:1043400084934FF00005DFF880A3B042DFF87CB320
:1043500034D0DB4A1832904230D048452ED05045F8
:104360002CD058452AD0D94A1832904226D0D74A64
:104370003032904222D0D54A483290421ED0D44AA0
:1043800090421BD0D24A1832904217D0D04A3032D5
:10439000904213D0CE4A483290420FD0CC4A60327D
:1043A00090420BD0CA4A7832904207D0C84A903225
:1043B000904203D0C64AA83290427DD184F835108D
:1043C000B04284F834502ED0BD49183188422AD0EA
:1043D000484528D0504526D0584524D0BB491831EF
:1043E000884220D0B949303188421CD0B749483181
:1043F000884218D0B649884215D0B549183188424C
:1044000011D0B349303188420DD0B149483188428A
:1044100009D0AF496031884205D0AD497831884232
:1044200001D0AB499031016821F00101016008E041
:1044300025E100BF00F06EFFC01B052801D9202137
:104440001AE120680068C007F4D1D4E902032168AA
:10445000103418438E4694E88410D4E90338096870
:104460003A4310439B4A40EA0C00676918431140E5
:10447000103C40EA0800042F40EA010003D1D4E9CF
:104480000B12114308436168A1F12902052A0BD9D7
:10449000163A032A08D9083A012A05D9083A032A04
:1044A00002D97439032901D840F48010CEF80000F5
:1044B0002068676A406900E020E0042F20F00700D0
:1044C00047EA00070DD1D4E90A01074349B1204664
:1044D000FEF748FA28B140206065012184F83510C4
:1044E000CDE0206847612046FEF75AF994F85C2039
:1044F0003F2102F01F029140816055E0764A9042D0
:104500001BD0754B1433984217D0734B2833984205
:1045100013D0714B3C3398420FD06F4B50339842BD
:104520000BD06D4B6433984207D06B4B7833984275
:1045300003D0694B8C3398427ED184F8351084F8CF
:104540003450664B0168A26801EA030E402A74D019
:10455000802A73D05FF00002D4E90378D4E90531F2
:1045600042EAD70242EAD8085B4AD4E9077C48EA23
:10457000D30848EAD10141EAD701524241EA1C116D
:10458000142341EA0E01016020681044B0FBF3F0EF
:104590008000E0652046FEF703F994F85C200121D5
:1045A00002F01F02914041602068B04257D0444958
:1045B0001831884253D0484551D050454FD05845C6
:1045C0004DD042491831884249D040493031884263
:1045D00045D03E494831884241D03D4988423ED08D
:1045E0003B49183188423AD039493031884236D077
:1045F00037494831884232D03549603188422ED01F
:104600003349783188422AD031499031884226D0C6
:104610002F49A831884222D02F4988421FD02E49E5
:10462000143188421BD02C492831884217D02A499E
:104630003C31884213D002E01DE017E018E0264923
:10464000503188420BD024496431884207D0224936
:104650007831884203D020498C31884229D12046C4
:10466000FEF7F8F8A06880280CD00CE0102273E761
:104670004FF4804270E74021616584F83580012065
:10468000BDE8F09F6560216E20790860D4E91901CA
:1046900041606068401E072808D82046FEF728F9C8
:1046A000E06E0560D4E91C01416002E0E566256723
:1046B00065670120656584F835000020E0E70000AB
:1046C00010000240400002405800024070000240CA
:1046D000100402403F8010FE085402580F00FEFFF5
:1046E00080B207F077BB000010B590F89830012B2E
:1046F00009D0022B07D0D0F89C1041F00201C0F87D
:104700009C10012010BD03689C6D0C4203D1DC6D30
:1047100044F0010404E09C6D31EA04041FD003243A
:10472000DC658B0505D50368D3F8E0401443C3F876
:10473000E0404B0505D50368D3F8E4401443C3F8C3
:10474000E4400068084A01EA0203446D074A1C433A
:104750004465106840EA91701060002010BDDC6D67
:1047600044F00204DCE70000FFFFCF3F14A8004044
:1047700070B5044690F89800022804D0D4F89C0044
:1047800040F008000DE02068D0F8C03013F07C5FE6
:104790000BD0D0F8C4309B020CD5D4F89C0040F468
:1047A0000070C4F89C00012070BDD4F89C0040F05B
:1047B0002000F6E7D0F8C400C0F3044520462B469D
:1047C000FEF7EEF921680120A840C1F8D000C4F836
:1047D0009400002070BD704790F89830012B07D0EE
:1047E000D0F89C1041F00401C0F89C1001207047E3
:1047F00061B10068012913D0D0F8B01021F0FE415A
:1048000041EA0261C0F8B010002070470068D0F89B
:10481000F01021F07C5141EA0261C0F8F010F3E79A
:10482000D0F8A01021F0FE4141EA0261C0F8A010CA
:10483000EAE770B590F89820012A09D0022A07D03B
:10484000D0F89C1041F00201C0F89C10012070BD0E
:104850000B68CA6883B10B69072A43EA427325D003
:104860000C7A4A6942EA84724968006F00EBC10021
:10487000C0E90032002070BD072A0DD00C7AD606A0
:104880000D8A4B6943EA847246EA0543C06E496863
:104890001A4340F82120EDE70B8A4FF06055D1E92B
:1048A000062442EA034245EA0423EFE78A69DBE78C
:1048B00030B590F89850039C012D07D0D0F89C108B
:1048C00041F00401C0F89C10012030BD0D010168C9
:1048D00045EA820040EA43002043C1F880000020FE
:1048E00030BD704770470000F0B590F89840002543
:1048F000022C04D0D0F89C1041F008012BE0402994
:104900004FF0004605D0412929D0046D8C4219D9B9
:1049100042E00468D4F8A07017F4FE0F12D0D4F867
:10492000A4707F0613D0D4F8A470FF0105D5D4F885
:10493000A070B6EBD77F00D10125D4F8A470466FE4
:10494000446C24E0D0F89C1041F0200103E0D0F842
:104950009C1041F48071C0F89C100120F0BD0468E7
:10496000D4F8B07017F4FE0FECD0D4F8B4707F0612
:10497000EDD0D4F8B470FF0105D5D4F8B070B6EB23
:10498000D77F00D10125D4F8B470866FC46CC7F30B
:1049900005273D446C4302E0446DC66F4C4306EB73
:1049A0008404266816F080465660266836D026F0C5
:1049B00060461660D4F800C000262F4F0CF0005C53
:1049C000C2F808C0D4F800C00CF0004CC2F810C007
:1049D000B4F804C01FFA8CFCC2F81CC0D4F804C0A0
:1049E0000CF4702CC2F80CC0D4F804C00CF4801C79
:1049F000C2F814C0D4F804C00CF4001CC2F818C0EB
:104A0000D4F804C0CCF3066CC2F820C0D4F804C0BB
:104A100008344FEADC7CC2F824C008E0C6F38A46BA
:104A2000C7E700BF14F806C003F806C0761CD2F82A
:104A30000CC007EB1C4C9CF800C0B445F2D84029D0
:104A40000AD041290CD020294FF001020CD2006875
:104A50008A40C0F898200DE00068C0F8A85009E02E
:104A60000068C0F8B85005E0006801F01F018A40F6
:104A7000C0F89C200020F0BD98CA000870470000D4
:104A80002DE9FF5FDFF80CB304460BF10401DBF8FE
:104A9000000025680F68AA468007D5F85090696D18
:104AA000D5F850806E6D2A6DD5F854C02B6D00EA94
:104AB0008770009009F470496F6D286D01EA090153
:104AC0000191DAF85410DAF85490DAF8505008F0FE
:104AD0000F0806EA0806029602F0F00203F071538E
:104AE0006FEA09061F4000F060700CEA020CCDF876
:104AF0000CC0F20501EA00090CD4E843C00509D452
:104B000000214FF48073CAF85030CBF800102046D3
:104B1000FFF7B4FF700512D4E84340050FD42068B6
:104B200000234FF48068D0F8DC20D0F8E410C0F8FF
:104B30005080CBF800301140204600F0D3FADFF867
:104B400058A2009850B12268830F00EA0A0010654D
:104B5000CBF8003020460099FFF73DFE019850B198
:104B60002268830F00EA0A001065CBF80030204667
:104B7000019900F0B9FA029850B12268830F00EA57
:104B80000A001065CBF800302046029900F080FA48
:104B9000039850B12268830F00EA0A001065CBF831
:104BA00000302046039900F07DFA30050CD4E8432C
:104BB000000509D4236800204FF400621A65CBF881
:104BC0000000204600F091FAB00512D4E8438005B9
:104BD0000FD4206800234FF40078D0F8D820D0F804
:104BE000E010C0F85080CBF800301140204600F0B3
:104BF0007AFA30030CD4E843000309D42368002078
:104C00004FF400221A65CBF80000204600F03EFA6F
:104C1000F0030CD4E843C00309D4236800204FF408
:104C200080321A65CBF80000204600F05AFA700373
:104C30000CD4E843400309D4226800204FF48023B9
:104C40001365CBF80000204600F04AFAB0030FD4F9
:104C5000E84380030CD4236800204FF400321A6527
:104C6000CBF80000D4F89C0040F08000C4F89C0011
:104C7000B9F1000F0BD022684FEA997309EA0A00D4
:104C80001065CBF8003049462046FFF72BFE5FB198
:104C90002268BB0F07EA0A001065CBF80030D4F891
:104CA0009C003843C4F89C003C492068884268D185
:104CB000606881468068800763D0D9F82060D9F8A1
:104CC0002410D9F82080D9F82400D9F820C0D9F8C8
:104CD0002470D9F82030D9F82450D9F8202003F4D2
:104CE000FC4306F00F0AD9F824601D40D9F824B01F
:104CF00008F030080CF4C07C02F4F02211EA0A013A
:104D000000EA080807EA0C0706EA0206D9F820A01C
:104D100004D0C9F82010204600F0DFF9B8F10000F7
:104D200005D0616808624146204600F0D8F96FEA74
:104D30000B0040060ED46FEA0A0040060AD46068F1
:104D40004021C36BC26B01622046190C02F03F0286
:104D500000F0C4F92FB1606807623946204600F0C0
:104D6000BBF935B160680562D4F89C002843C4F8EB
:104D70009C0036B160680662D4F89C003043C4F8E9
:104D80009C00D4F89C00002802D02046FFF7A9FD23
:104D9000BDE8FF9F10A80040FFFFCF3F00A00040EC
:104DA0002DE9F04194B08D494C2204466846FBF74A
:104DB00080FC64B18A4D2068A84202D100F5807061
:104DC000606094F898004FF0000820B108E00120DE
:104DD00014B0BDE8F081204684F8998000F002F913
:104DE0002068816921F01001816100F093FA0327A6
:104DF000064604E000F08EFA801B0A2811D82068CD
:104E000080690007F6D42068816941F00101816161
:104E100000F080FA06460DE000F07CFA801B0A28BC
:104E200008D9D4F89C0040F00100C4F89C0084F834
:104E30009870CCE720688069C007EDD02068816950
:104E400041F002018161207C01282068816937D00E
:104E500041F040018161607C01282068816932D085
:104E600021F480418161A07C0128206881692DD0D6
:104E700041F4805181612068A268816921F4407108
:104E8000114381612068816921F0A401816120685A
:104E9000016921F010010161E068012819D010B307
:104EA00002281BD02068816941F08001816120685F
:104EB000016941F010010161E06803280ED012E0A1
:104EC00021F04001C6E741F48041CBE721F4805155
:104ED000D0E72068816941F0040103E0206881691E
:104EE00041F020018161207E6FF0FF02D4E9077359
:104EF000A68A1102400602EB0727A0F10070384392
:104F000027685B1E184301EB06463043F861A06832
:104F1000B0F5407F11D104F12800A68C6FF00F0C82
:104F200089C801EB0641401E02EB032210432268B0
:104F30000CEB071318430843D060206E30B1206893
:104F4000626ED0F8C0101143C0F8C010D4E9171237
:104F50006846D14209D02168A36E51F8C82F50F895
:104F6000233022F007021A430A60216C49B12168FC
:104F7000626C51F8BC3F50F8226023F007023243C4
:104F80000A60A16C51B12168E36C51F8BC2F50F854
:104F9000233022F0700242EA03120A60216D51B1FF
:104FA0002168626D51F8BC3F50F8220023F4E062A2
:104FB00042EA002008602068A84204D16068816845
:104FC00021F003018160C4F894800121C4F89C8021
:104FD00084F898102046FDF7FFFCF9E6A8CA0008FF
:104FE00000A0004010B5B4B0044614212EA8FBF771
:104FF00092FBB8216846FBF78EFB21492068884266
:105000003CD100204FF40041CDE900104A0368462E
:105010001B9201F047FB08B1FDF7CFFC194801686E
:1050200041F480710160006800F48070339015488D
:105030000C38016841F00801016000680923032170
:1050400000F00800339000202E9102222EA9CDE915
:105050002F20CDE931030C4800F048F8002213203E
:10506000114600F01DFA132000F00CFA0022152062
:10507000114600F015FA152000F004FA34B010BD06
:1050800000A00040EC440258000C02587047000099
:10509000C90704D00249884201D106F0DFBE70473B
:1050A00070000020704790F89810012907D0D0F8C0
:1050B0009C1041F00401C0F89C10012070470221AF
:1050C00080F89810002201688B6923F001038B613E
:1050D000C0F89C2010467047704770477047704773
:1050E0007047704770477047704770472DE9F84F19
:1050F00003247A4D00234FF001094FF0B04B4FF0DD
:105100000F0AE4E009FA03F6324078D00F7907F08D
:105110000307012F01D0022F1AD187684FEA430EEF
:10512000D1F80CC004FA0EF827EA08070CFA0EFCB6
:105130004CEA070CC0F808C0476891F804C0B743B0
:10514000CCF3001C0CFA03FC4CEA070CC0F804C0BA
:105150000E79F643B6070BD0C6684FEA43088F684E
:1051600004FA08FC26EA0C0607FA08F73743C7607A
:105170000E7906F00306022E12D1DE080F694FEAFF
:10518000437C00EB8606B646366A4FEADC6C0AFAC8
:105190000CF807FA0CF726EA08063743CEF8207019
:1051A0000F7906684FEA430807F0030704FA08FC82
:1051B00007FA08F726EA0C06374307604E6816F42C
:1051C000403F1CD0464E376847F0020737603668CC
:1051D0009F0706F00206009623F0030606F1B0468C
:1051E000B6463F0FD6F80864DFF8F8800AFA07FCE5
:1051F000404526EA0C0603D14FF0000C3AE065E08A
:10520000DFF8E4C0604502D14FF0010C32E0DFF876
:10521000DCC0604502D14FF0020C2BE0DFF8D0C0BB
:10522000604502D14FF0030C24E0DFF8C8C06045B0
:1052300002D14FF0040C1DE0DFF8BCC0604502D184
:105240004FF0050C16E0DFF8B4C0604502D14FF016
:10525000060C0FE0DFF8A8C0604502D14FF0070C44
:1052600008E0DFF8A0C0604502D14FF0090C01E072
:105270004FF00A0C0CFA07FC4CEA060CCEF808C4F6
:105280004F68DBF80060FF0226EA020600D51643ED
:105290005F46CBF80060D1F804C0DBF804605FEA39
:1052A0008C2C26EA020600D516437E606E684F6895
:1052B00026EA0206BF0300D516436E602E684F68CB
:1052C00026EA0206FF0300D516432E605B1C0A681F
:1052D00032FA03F67FF416AFBDE8F88F800000586D
:1052E000F444025800000258000402580008025812
:1052F000000C0258001002580014025800180258FE
:10530000001C0258002402580AB181617047090448
:10531000FBE700000148806870470000600100243E
:10532000024881680278114481607047600100245E
:10533000032010B500F0D4F801F0C6FF0F4A104961
:1053400014681368C4F3032203F00F038A5CC95C7A
:1053500002F01F0201F01F01D0400A4A20FA01F1B9
:10536000116009490860002000F010F808B1012020
:1053700010BD00F079F8002010BD0000184402585C
:105380001CCB0008180000201400002070B50D4D43
:1053900004462878A0B14FF47A71B1FBF0F00A49C5
:1053A0000968B1FBF0F002F0DFFB48B9102C07D21E
:1053B00000222146501E00F073F800206C6070BD82
:1053C000012070BD6001002414000020F0B5154CD0
:1053D0004378211D0A1D23600378F3B143680B60F5
:1053E000057BC67A817A437B2D07847B45EA066577
:1053F000C77B90F809C0067A90F800E045EAC14002
:1054000040EA834040EA444040EA074040EA0C203A
:1054100040EA460040EA0E0001E00020086010600B
:10542000F0BD000098ED00E0BFF35F8F044800215D
:105430000368034A23F480330360703211607047BD
:1054400024ED00E0074A40F0010006497032106088
:10545000086840F480300860BFF34F8FBFF36F8F50
:105460007047000024ED00E0054808B5016841F0F0
:1054700002010160006800F00200009008BD000019
:10548000F4440258002809DB410900F01F0289009A
:10549000012001F1E0219040C1F8000170470000B7
:1054A0000E4BF0B41B680D46C3F30223C3F107068D
:1054B000042E00D90426191D072901D2002300E07B
:1054C000DB1E012404FA06F19C40491E2940641E9B
:1054D000994014402143F0BC06F0C7B90CED00E040
:1054E000064900F0070210B54FF6FF040868044BA8
:1054F000204040EA02201843086010BD0CED00E097
:105500000000FA0501680123C0F80035002280F888
:10551000F4248869044A40F000608861486D1043B3
:1055200048650020704700000300001070470068C5
:10553000416200207047F0B503685D6A39B19F6A27
:105540004C1E00204FF4827605EB17450BE045EA30
:105550000240986210E0471C06EB800053F800C040
:10556000F8B205EB1C45A042F5D34FF4807000EB78
:10557000810045EA02421A500020F0BDD0F808052B
:1055800005F0A3B801EBC10200EB8202D0F80805D8
:10559000926C04F0F6BF01EBC10200EB8202D0F87E
:1055A0000805D2F8882205F048B8D0F8080505F0BB
:1055B0008EB80A0601F00F0101EBC10100EB810179
:1055C00001D53C3101E001F51F71006805F07ABF9B
:1055D00001F00F020B0670B502EBC20104464FF05A
:1055E00001004FF0000504EB810103D581F83D0077
:1055F0003C3103E081F87D5201F51F710A7094F887
:10560000BC24012A08D084F8BC04206805F076FC8C
:10561000002084F8BC5470BD022070BD70B5426893
:10562000044601F00F00904201D9012070BD01F045
:105630000F024FF000050B0602EBC2014FF0010212
:1056400004EB810103D581F83D203C3103E081F872
:105650007D5201F51F718D70087094F8BC0401280B
:1056600008D084F8BC24206805F0B8FD002084F838
:10567000BC5470BD022070BD01F00F0101EBC101EF
:1056800000EB8100D0F8900270472DE9F04101F065
:105690000F0604460D064FF0010006EBC6014FF061
:1056A000000504EB810103D581F83D003C3103E0A6
:1056B00081F87D5201F51F714F788A600B710E7071
:1056C00007B14E83022B00D14D7194F8BC24012AFE
:1056D00009D084F8BC04206805F05EFB284684F8F5
:1056E000BC54BDE8F0810220FBE770B501F00F0566
:1056F000002405EBC50100EB810101F5227181E871
:105700001C0001F80B4C01F80C5DC368012B00D1A3
:10571000CA61027B006805F0B9FD002070BD70B55C
:105720000D464168044605F00F00884201D901206A
:1057300070BD29064FF000064FF0010207D500EBBF
:10574000C00104EB810181F83D203C3107E005EB0D
:10575000C50104EB810181F87D6201F51F718A703A
:10576000087094F8BC04012807D084F8BC24206891
:1057700005F060FD280702D007E0022070BD217B04
:1057800004F2C442206805F0FDFC002084F8BC64EB
:1057900070BD70B501F00F04002504EBC4010126B3
:1057A00000EB8101483181E82C0001F80B6C01F815
:1057B0000C4DC368012B00D1CA61027B006805F063
:1057C00065FD002070BD00002DE9FC5F0568044602
:1057D000284605F018FF00287ED1206805F03FFF1D
:1057E000002879D0D5F80808C0F30D20C4F8FC04CF
:1057F000206805F034FF800704D52068416901F076
:1058000002014161206805F02AFFC10604F2C4408C
:10581000009034D52068816921F0100181612F6AE0
:1058200007F00F01C7F3434001EBC101022804EB6D
:10583000810606F51F7602D0062811D01AE047F639
:10584000F070074216D0C7F30A12F16817462846CF
:1058500005F009FFF16870693944F160384408E0E7
:1058600000990822284605F0FEFE7069C7F30A1168
:10587000084470612068816941F0100181612068ED
:1058800005F0EDFE00034FF0000A4FF0020B4FF061
:1058900001097CD52068002605F0C0FE074674E0AB
:1058A000F80770D02068F1B205F0D1FE8046C0073D
:1058B00007D005EB4611C1F8089B3146204603F09E
:1058C000C9F85FEA087025D505EB46110820C1F834
:1058D000080BFC49206800E042E2026C00EB461035
:1058E00001928A42D0F8081B05D9090403D54FF468
:1058F0000041C0F8081B204600F01AFBF14901984E
:10590000884207D9E068012804D120680121009A63
:1059100005F038FC5FEAC86004D505EB461110209D
:10592000C1F8080B5FEA88701CD56869000605D5C8
:10593000D5F8040840F48061C5F8041806EBC600E9
:1059400004EB800090F87F1200F51F70012905D14B
:1059500080F803A02046F1B200F008FA05EB4611EA
:10596000C1F808BB5FEA886004D505EB461120202A
:10597000C1F8080B5FEA884005D505EB46114FF4E6
:105980000050C1F8080B7F08761C002F88D12068D2
:1059900005F065FE40036FD5206805F038FE00264F
:1059A000074667E0F80763D02068F1B205F03DFED6
:1059B0008046C00723D0D5F8342806F00F0C05EB3D
:1059C000461309FA0CF08243C5F83428C3F8089945
:1059D000E06801280FD106EBC60004EB8000D0E997
:1059E00011121144816436B9E06C20B9206801219C
:1059F000009A05F0C7FB2046F1B2FFF7C3FD5FEA4E
:105A0000087004D505EB46110820C1F808095FEAC3
:105A1000C86004D505EB46111020C1F808095FEAFB
:105A2000486004D505EB46114020C1F808095FEA3B
:105A3000887016D53146284605F0B8FD06EBC6003D
:105A400004EB800090F83F103C30012905D180F82C
:105A500003A02046F1B200F085F905EB4611C1F82C
:105A600008B95FEA086003D53146204603F058F8CC
:105A70007F08761C002F95D1206805F0F0FD0028E6
:105A800011DAD5F8040820F00101C5F8041894F8DB
:105A9000F40401283BD0204600F02EFA206841692A
:105AA00001F000414161206805F0D9FD00050BD5EA
:105AB000D5F80808C00702D0204600F061FA206837
:105AC000416901F400614161206805F0C8FD0001F1
:105AD0000AD52068416901F00061416194F8F4043D
