:020000040800F2
:10000000A8130024E1020008D9E6000899DC0008E2
:10001000D1E6000871160008314C0108000000000C
:1000200000000000000000000000000029F00008AF
:10003000E11C000800000000F1EA0008C1F000081F
:10004000FB020008FB020008FB020008FB0200089C
:10005000FB020008FB020008FB020008FB0200088C
:10006000FB020008FB020008FB0200085917000809
:1000700069170008FB020008FB020008FB020008E9
:10008000FB020008FB020008FB020008F91C000844
:10009000FB020008091D0008FB020008FB02000823
:1000A000FB020008FB020008FB020008FB0200083C
:1000B000FB020008D9F20008FB020008FB0200085E
:1000C000FB020008FB020008FB020008FB0200081C
:1000D000FB020008FB020008FB020008FB0200080C
:1000E000FB020008FB02000800000000FB02000801
:1000F000FB020008FB020008FB020008FB020008EC
:10010000FB020008FB020008FB020008FB020008DB
:10011000FB020008FB020008FB020008FB020008CB
:10012000FB020008FB020008FB020008FB020008BB
:10013000FB020008FB020008FB020008FB020008AB
:1001400000000000000000000000000000000000AF
:10015000FB020008FB020008FB020008FB0200088B
:10016000FB020008FB020008FB020008FB0200087B
:10017000FB02000851E70008FB0200080000000035
:10018000FB020008FB020008B9F50008FB020008AA
:10019000FB020008FB020008FB020008FB0200084B
:1001A000FB020008FB020008FB0200080000000040
:1001B000FB020008FB020008FB020008FB0200082B
:1001C000FB020008FB020008000000000000000025
:1001D0000000000000000000FB020008000000001A
:1001E000000000000000000000000000000000000F
:1001F0000000000000000000FB020008FB020008F5
:10020000FB020008FB02000800000000FB020008DF
:10021000FB020008FB020008FB020008FB020008CA
:10022000FB02000800000000FB02000800000000C4
:10023000FB020008FB02000800000000FB020008AF
:10024000FB020008FB020008FB020008FB0200089A
:10025000FB020008FB020008FB020008FB0200088A
:10026000FB020008FB020008FB020008FB0200087A
:10027000FB020008FB020008FB020008000000006F
:10028000FB020008FB020008FB020008FB0200085A
:1002900000000000FB020008FB0200080000000054
:1002A00000000000FB020008FB020008FB0200083F
:1002B000A9100108FB020008FB020008FB0200086D
:1002C000FB020008FB020008FB020008DFF80CD06C
:1002D00000F038FE0048004791510108A81300249F
:1002E0000648804706480047FEE7FEE7FEE7FEE7D0
:1002F000FEE7FEE7FEE7FEE7FEE7FEE799F100080E
:10030000CD0200082DE9F05F0546002092469B468D
:1003100088460646814640241BE02846414647461B
:10032000224600F0A2F853465A46C01A914110D313
:1003300011461846224600F089F82D1A67EB01088D
:100340004F4622460120002100F080F817EB0009FB
:100350004E41201EA4F10104DFDC484631462A4606
:100360004346BDE8F09F40EA01039B0703D009E044
:1003700008C9121F08C0042AFAD203E011F8013B91
:1003800000F8013B521EF9D27047D2B201E000F8EA
:10039000012B491EFBD270470022F6E710B5134629
:1003A0000A4604461946FFF7F0FF204610BD421EDC
:1003B00012F8013F002BFBD111F8013B02F8013B81
:1003C000002BF9D17047CAB2401E10F8011F8A42B3
:1003D00002D00029F9D100207047421C10F8011BFF
:1003E0000029FBD1801A70470FB400B58DB010A959
:1003F00009900B9000914FF0FF300A9000200C9074
:1004000005480690054807906A4609A80F9900F02C
:10041000B3FB0DB05DF814FB950B0008B30B00089F
:1004200030B50B46014600202022012409E021FAC4
:1004300002F59D4205D303FA02F5491B04FA02F5C1
:100440002844151EA2F10102F1DC30BD202A04DB94
:10045000203A00FA02F1002070479140C2F12003D7
:1004600020FA03F3194390407047202A04DB203A16
:1004700021FA02F00021704721FA02F3D040C2F1C4
:10048000200291400843194670472DE9FF4F1C4652
:1004900081B00021D4E9016791464FF0FF358A46CB
:1004A0008846A1696D1C02988847216A834688475F
:1004B0000028F6D1BBF1FF3F0CD026F4C066002F18
:1004C0001ADD700615D5BBF12B0F0AD0BBF12D0F2D
:1004D0000FD104E04FF0FF3005B0BDE8F08F46F4D7
:1004E0008066A1696D1C029888477F1E8346002F95
:1004F00002DDBBF1300F03D0B9F1000F2AD025E0A7
:10050000A1696D1C46F400767F1E029888478346D9
:10051000002F05DDBBF1780F06D0BBF1580F03D0DB
:10052000B9F1000F10D011E0B9F1000F02D0B9F10C
:10053000100F0BD1A1696D1C26F400767F1E029866
:1005400088478346102000E0082081464FEAE97082
:10055000009017E00A20F8E74346AAFB092803FBAE
:100560000980DDF800C07F1E0AFB0C0112EB0B0AAC
:1005700041EBEB78A16946F4007605F1010502989C
:1005800088478346002F06DD4946584600F009FD9E
:100590005FEA000BE0D5E16902988847B00502D414
:1005A0006FF0010098E7F00718D1700610D57005BC
:1005B000514605D50023D1EB030163EB080200E0AF
:1005C00042462068031D23600068C0E9001205E070
:1005D0002068011D21600068C0E900A828467BE76B
:1005E0002DE9FF5F1D464FF0FF3BD5E901469146DF
:1005F0005F464FF00008A9697F1C01988847296A67
:10060000824688470028F6D1BAF1FF3F0CD024F487
:10061000C064002E19DD600614D5BAF12B0F09D085
:10062000BAF12D0F0ED103E0584604B0BDE8F09F9B
:1006300044F48064A9697F1C01988847761E82462D
:10064000002E02DDBAF1300F03D0B9F1000F26D031
:1006500032E0A969761E44F400747F1C0198884733
:100660008246002E05DDBAF1780F06D0BAF1580F98
:1006700003D0B9F1000F10D01EE0B9F1000F02D085
:10068000B9F1100F18D1A969761E24F400747F1CEB
:10069000019888478246102002E0082000E00A20E6
:1006A000814609E008FB0908A969761E44F4007434
:1006B0007F1C019888478246002E05DD494650463A
:1006C00000F06FFC0028EDDAE96901988847A00581
:1006D00002D46FF00100A8E7E00725D1600613D52A
:1006E000600502D5C8F1000000E0404629680A1DF7
:1006F0002A600968220501D5087015E0220701D596
:10070000088011E008600FE02868011D296000687A
:10071000210502D580F8008006E0210702D5A0F867
:10072000008001E0C0F8008038467EE72DE9FF5FD9
:10073000D2E901A74FF00008916999461446DDF807
:1007400038B0464601988847054659EA0B0005D05F
:1007500009E0A169761C019888470546216A284668
:1007600088470028F5D1681C03D05FEACA7005D01D
:1007700015E04FF0FF3004B0BDE8F09F2068011D88
:100780002160D0F800800AE05FEACA7001D108F861
:10079000015BA169761C7F1E019888470546002FE2
:1007A0001ADD681C18D0B9F1000F0DD0E81705EB61
:1007B000D060421120F01F0059F822102A1A01209F
:1007C00090400142E0D107E0BBF1000FDCD1216A8B
:1007D000284688470028D7D0E16901988847BBF1AF
:1007E000000F07D1002E05DD5FEACA7002D100219B
:1007F00088F80010A068B84203DDBBF1000F03D0F9
:1008000017B16FF00100B6E73046B4E72DE9FF4FAE
:10081000087883B09946FF2805D0491C2D2804D0BC
:100820000024002008E000200BE00124F9E700EBA1
:10083000800003EB4000491C0B78FF2BF7D104B17B
:10084000404200230293147819461D462D2C01D0F6
:100850002B2C04D1521C2D2C13D000240294AA4618
:100860001478FF2C0FD00A25A3FB057801FB058126
:100870004FF0000C03FB0C11521CE3194AEB010171
:10088000EEE70124EAE7814453EA010002D019F5BA
:10089000C87F06DA03980021C0E9001107B0BDE85F
:1008A000F08F0025AE4E2F46DFF8B882184600F0D4
:1008B0007AFDCDE90001B9F1000002DAC9F10004C6
:1008C00000E004460023A74A1AEB030B42EB045A4C
:1008D00012E0E00707D02A4633463846414600F08A
:1008E00020FA074688462A4633461046194600F045
:1008F00018FA05460E466410002CEAD1DDE9000125
:10090000B9F1000F5A46534606DA00F07CFA3A462F
:10091000434600F078FA05E000F003FA3A46434611
:1009200000F0FFF9029A0AB181F00041039AC2E98E
:100930000001B3E72DE9FF4F1F468DB0D7E901460F
:100940004FF0FF382E2045464FF000090B90B96953
:100950006D1C0E988847396A824688470028F6D170
:10096000BAF1FF3F0AD024F4D064002E11DDBAF1B1
:100970002B0F08D0BAF12D0F0BD102E0404611B079
:100980008DE744F48064B9696D1C0E9888478246EF
:10099000761E6946600501D52D2000E02B208DF8DC
:1009A000000001F1010B0DF1200809E0B9696D1C8F
:1009B0000E98884782460F9844F40074761E0560AE
:1009C000002E02DDBAF1300FF0D00B998A453ED1EE
:1009D00044F0800406E00F99681CA9F1010944F471
:1009E00000740860B9696D1C761E0E9888478246AF
:1009F0003028F0D02BE00B998A4505D1200603D48E
:100A000044F08004761E18E0504615F067F808B3ED
:100A10000DF11302761EAAF1300044F400749345E0
:100A200006D20BF8010B200607D5A9F1010003E05F
:100A3000200602D409F101008146A00502D50F99D4
:100A4000681C0860B9696D1C0E9888478246002EA4
:100A5000D1DC53E0002E51DDBAF1650F02D0BAF1BE
:100A6000450F4BD1A00549D5B9696D1C24F44074DC
:100A7000761E0E9888478246002E0CDD2B2804D067
:100A8000BAF12D0F07D144F48074B9696D1C0E982A
:100A900088478246761EE00501D52D2100E02B21F6
:100AA00008F8011BCDF82C8021E00DF12901761EFC
:100AB00044F4007488450CD2AAF1300010F0FF0015
:100AC00088F8000002D10B99884509D908F101087E
:100AD00006E0E00501D5244801E042F20F708146AE
:100AE000B9696D1C0E98884782460F980560002EE4
:100AF00004DD504614F0F2FF0028D6D1F9690E98B3
:100B00008847FF208BF8000088F80000002006903E
:100B100007904B466A4608A906A8FFF777FEA0058E
:100B200002D46FF001002AE714F0240F0AD0E00786
:100B300014D1DDE906123868031D3B600068C0E986
:100B400000120BE0DDE9060100F039FC0146E00788
:100B500004D13868021D3A600068016028460EE73B
:100B6000000014400000F03FF1D8FFFF026811447C
:100B70001378016018467047D160044951610449F7
:100B8000116200211161114600F01ABA6D0B0008C4
:100B9000990F0008426842B1016811F8013B23B186
:100BA000521EC0E90012184670470121C160881E1C
:100BB000704742685AB1C368016843B983688B4281
:100BC00005D0491E521CC0E90012002070474FF0AA
:100BD000FF3070472DE9FE4F804681EA0300C00FC9
:100BE0000C46009021F0004123F00045B8EB0200D4
:100BF000A94105D24046214690461C460B46024676
:100C000023F00040104347D0270DC7F30A00C3F379
:100C10000A510290401A019040286BDAC3F3130086
:100C200040F4801B0098924620B10023D2EB030AC7
:100C300063EB0B0B01985946C0F140025046FFF799
:100C400005FC06460D4650465946019A00F092F9B9
:100C500010EB08006141002487EA115284EAE7732F
:100C60001A4340D0009A62B3019A012A4FEA075210
:100C700015DC001B61EB02014FF0004202EA075253
:100C8000CDE90042001C41F5801132462B4600F0B0
:100C90003CFB03B0BDE8F08F40462146F9E7001B5E
:100CA00061EB0201001C41F5801300185B41201824
:100CB000A2F5001747EB030140EAD570B6196D4164
:100CC00011E06D084FEA360645EAC0754FEA075253
:100CD000001B61EB0201001C41F5801149084FEA3D
:100CE00030000019514132462B4603B0BDE8F04FA9
:100CF00000F0FCBA0098012240000023D0EB020271
:100D000063EBE073009821464FEAE074B8EB000013
:100D100061EB0401E9E783F000435BE781F0004108
:100D200058E72DE9FE4F81EA030404F0004421F066
:100D3000004100944FF0000B23F0004350EA0104FF
:100D40005ED052EA03045BD0C3F30A54C1F30A55E0
:100D50002C44A4F2F3340194A0FB0254C1F3130118
:100D600041F48011C3F3130343F4801301FB0244E5
:100D700000FB034E840A970A44EA815447EA8357EA
:100D8000A4FB076802958D0A05FB07854FEA932CA3
:100D900004FB0C542705029D4FEA065847EA163714
:100DA000B5EB08056EEB070C870E920E47EA81172C
:100DB00042EA8312A7FB0201B6EB0B0164EB0004CD
:100DC0002B0D43EA0C335E1844EB1C50DA465146B7
:100DD000E7FB0201C5F313044FEA0B3343EA145354
:100DE0004FEA0432019C43EA0603A4F10C04029486
:100DF000009CCDE900B400F088FA03B0BDE8F08FA4
:100E000000200146F9E72DE9F04D81EA030404F0E2
:100E1000004B21F0004514464FF0000A23F000413A
:100E200050EA050220D054EA01021DD0C5F30A574A
:100E30000246C5F31303C1F31300C1F30A5640F48D
:100E4000801543F48013A7EB0608101BD64608F262
:100E5000FD3873EB050002D308F1010801E0921898
:100E60005B41B8F1000F03DA00200146BDE8F08DC8
:100E700000204FF48011064684460EE0171B73EBEA
:100E8000050705D3121B63EB050306434CEA010C6F
:100E900049084FEA300092185B4150EA0107EDD152
:100EA00052EA030012D082EA040083EA05010843F3
:100EB00005D0101BAB4106D20122002306E0002220
:100EC0004FF0004302E06FF0010253101AEB0600EE
:100ED0004CEB085110EB0A0041EB0B01BDE8F04D63
:100EE00000F004BAC1F30A52C1F3130140F2FF3318
:100EF00041F480119A4202DA00200146704740F224
:100F000033439A42A2F2334202DC5242FFF7ADBAB7
:100F1000FFF79CBA30B5041E71F1000404DB4FF0FA
:100F20000044404264EB0101141E73F1000405DB30
:100F30001C464FF00043524263EB0403994208BF42
:100F4000904230BD1CB50948009009480190054603
:100F5000009C06E0E06840F0010394E80700984731
:100F60001034AC42F6D3FFF7B5F900007063010806
:100F7000B0630108202A06DBCB17203A41FA02F0C1
:100F800043EAE07306E041FA02F3D040C2F12002E6
:100F90009140084319467047C0B24FF4F05100F039
:100FA0002BBA3A2800D2303820F02002412A01D34F
:100FB000A2F13700884201D34FF0FF3070470000A4
:100FC0002DE9F34F8BB04FF0000801F10C000C46F7
:100FD0004FF0010B46460DF1080A019062690121AC
:100FE00001989047051E2DD0252D2CD0216A8847C9
:100FF000C0B16269012101989047216A88470028A1
:10100000F7D1411E62690198904700E0761CA16902
:101010000B988847216A88470028F7D1E1690B9827
:101020008847DBE7A1690B9888470746A84201D1AA
:10103000761CD3E7E1690B9888477F1C02D1B8F191
:10104000000F6FD046E1002762693D46394601989E
:1010500090472A2804D1626901210198904701250F
:10106000DFF884926269012101989047A0F1300174
:101070000A290AD24F45E5DC07EB870100EB41075F
:10108000303FDFD445F01005ECE7E90601D46FF0FE
:1010900000476C280AD04C2814D0682815D06A283C
:1010A0000DD074281CD07A281AD01DE06269012165
:1010B000019890476C2802D045F0040514E045F0F3
:1010C00002050DE045F020050AE062690121019862
:1010D0009047682802D045F0080505E045F4006512
:1010E0006269012101989047C4E9015765283DD004
:1010F00019DC58287AD00CDC452837D004DC2528A8
:1011000026D0412831D131E046282FD047282CD194
:101110002CE05B2877D0612828D063287CD0642815
:1011200023D15AE0D0E06F2848D008DC66281DD0D3
:1011300067281BD0692821D06E2816D127E0702897
:1011400045D0732868D0752847D078280DD14DE058
:10115000A1690B988847054625283FF469AFE169E6
:101160000B9888476D1C3FF46AAFB3E023466A468C
:101170006FF001000B99FFF7DDFB9EE045F04000AA
:101180006060A80723464FF0000236D43EE0E8072F
:101190007FF447AF2068011D21600068290501D553
:1011A00006701BE7290701D5068017E7A90703D5B5
:1011B000F117C0E9006111E706600FE745F0400054
:1011C0006060A80723464FF0080216D41EE040F6E0
:1011D0000E0125EA0100606016E045F04000606005
:1011E000A80723464FF00A0207D40FE045F040005D
:1011F0006060A80708D5234610226FF001000B9904
:10120000FFF743F959E007E0234610226FF0010091
:101210000B99FFF7E5F950E04FF000094F464B46B8
:10122000632802D05B2806D040E0E80601D4012004
:10123000A06001273AE062690121019890475E2889
:1012400005D14FF00109626949460198904721692B
:1012500039B900210A46534643F82120491C082980
:10126000FADBB0B3216969B9C11700EBD162531140
:101270000AEB830122F01F02821A01200B689040C2
:1012800003430B6062690121019890475D28E8D112
:10129000B9F1000F09D00020514651F82020D24367
:1012A00041F82020401C0828F7DB02AB22460097BB
:1012B0006FF001000B99FFF739FA00280CDA401C97
:1012C00008D1BBF1000F05D04FF0FF300DB0BDE8E5
:1012D000F08FFFE74046F9E7E90701D108F101087F
:1012E00006444FF0000B79E6CCCCCC0C10B5141EA4
:1012F00073F1000408DA401C41F1000192185B41CF
:101300001A4301D120F0010010BD2DE9F04D9246A5
:101310009B4611B1B1FA81F202E0B0FA80F22032BC
:101320009046FFF793F804460F4640EA0A0041EA68
:101330000B0153465A46084313D0114653EA0100A5
:1013400019D0C8F140025046FFF78FF805460E4607
:10135000504659464246FFF779F8084305D0012028
:1013600004E020463946BDE8F08D0020054346EAFA
:10137000E0762C4337430A986305E40AA0EB0800A3
:101380000022FD0A44EA47540A3002D500200146F3
:10139000E9E7010510196941DDE9084500196941CE
:1013A000BDE8F04DA2E70EB540F2334202920022B2
:1013B000CDE900221346FFF7A8FF03B000BD01F0FE
:1013C000004330B421F0004150EA010206D00A0D7A
:1013D000A2F56072C1F31301002A02DC30BC0020C8
:1013E0007047440F44EAC104C100E01830BC00EB70
:1013F000C25000F015B800007F2801D9002208E093
:10140000064A02EB5002C007127800D1120902F01E
:101410000F02012090400840704700003062010830
:101420000029A8BF7047401C490008BF20F00100F8
:10143000704710B4B0FA80FC00FA0CF050EA0104D6
:1014400004BF10BC704749B1CCF1200421FA04F468
:1014500011FA0CF118BF012121430843A3EB0C0141
:10146000CB1D4FEA00614FEA102042BF002010BCA4
:10147000704700EBC35010440029A4BF10BC704754
:10148000401C490008BF20F0010010BC704700005C
:1014900080B584B003900398006842F20001C4F262
:1014A0000201884209D0FFE70398006842F2001168
:1014B000C4F20201884209D1FFE742F20830C4F2C7
:1014C0000200006810F4403F09D129E046F20830DC
:1014D000C5F60200006810F4403F21D0FFE70AF093
:1014E000CBF80290039840680190B0F5803F0AD095
:1014F000FFE70198B0F5003F05D0FFE70198B0F590
:10150000403F07D00AE00398C1880298B0FBF1F091
:10151000029004E002988008029000E0FFE75FE09C
:101520004FF40020002108F0F7F80290039840687B
:101530000090B0F5802F32D0FFE70098B0F5002F73
:101540002DD0FFE70098B0F5402F28D0FFE7009896
:10155000B0F5801F23D0FFE70098B0F5A01F1ED084
:10156000FFE70098B0F5C01F19D0FFE70098B0F56D
:10157000E01F1FD0FFE70098B0F5001F1ED0FFE767
:101580000098B0F5101F1DD0FFE70098B0F5201FA0
:101590001CD0FFE70098B0F5301F1BD01EE0039869
:1015A00041686FF0010000EA51410298B0FBF1F090
:1015B000029014E002980009029010E0029840099D
:1015C00002900CE002988009029008E00298C0099D
:1015D000029004E00298000A029000E0FFE7FFE7B3
:1015E000029840080290029845F61061C0F25F012F
:1015F000884209D8FFE703980068806820F44070AB
:101600000399096888602EE002984BF62041C0F2E9
:10161000BE0188420AD8FFE703980068806801216C
:1016200061F309200399096888601BE0029847F676
:101630004001C0F27D1188420AD8FFE70398006894
:101640008068022161F3092003990968886008E035
:1016500003980068806840F44070039909688860C6
:10166000FFE7FFE7FFE704B080BD000000000000D7
:10167000FFE7FEE70000000084B08DF80F00029144
:10168000ADF806209DF80F000146009123281DD8D3
:101690000099DFE801F012131415161B1B1B1B1B0E
:1016A0001B1B1B1B1B1B1B1B1B1B1B1B1B1B1B1B8A
:1016B0001B1B1B1B1B1B1718191A08E007E006E071
:1016C00005E004E003E002E001E000E0FFE70020C5
:1016D00004B07047000000000020704700000000C8
:1016E00080B582B040F6DC20C2F20040009040F2AB
:1016F000C821C2F200410022019210F031F9009895
:1017000040F26021C2F2000110F00AF9019802B023
:1017100080BD00000000000080B584B003900291FD
:10172000039940F6DC20C2F20040019010F0F8F876
:10173000019810F099F8002004B080BD000000006E
:1017400083B0029001918DF8032000208DF80200F3
:101750009DF9020003B0704780B540F6E820C2F260
:10176000000002F005FF80BD80B540F6B850C2F21F
:10177000004002F0FDFE80BD83B002900298016837
:1017800001201022C4F202029142009000F0A380D6
:10179000FFE70298016801202822C4F20202914268
:1017A000009000F09880FFE7029801680120402235
:1017B000C4F202029142009000F08D80FFE702988F
:1017C000016801205822C4F202029142009000F008
:1017D0008280FFE70298016801207022C4F20202B1
:1017E0009142009077D0FFE702980168012088229B
:1017F000C4F20202914200906DD0FFE702980168A6
:101800000120A022C4F202029142009063D0FFE7BF
:10181000029801680120B822C4F2020291420090AD
:1018200059D0FFE702980168012040F21042C4F24B
:101830000202914200904ED0FFE702980168012019
:1018400040F22842C4F202029142009043D0FFE7E6
:1018500002980168012040F24042C4F20202914223
:10186000009038D0FFE702980168012040F258420A
:10187000C4F20202914200902DD0FFE70298016865
:10188000012040F27042C4F202029142009022D044
:10189000FFE702980168012040F28842C4F2020288
:1018A0009142009017D0FFE702980168012040F2B2
:1018B000A042C4F20202914200900CD0FFE70298CD
:1018C00000684FF64831CBF6FD710844B0FA80F05D
:1018D00040090090FFE70098C00740B3FFE7029877
:1018E000007810384AF6AB21CAF6AA21A0FB0110F5
:1018F00000090190019800F0070146F2DC20C0F6D3
:101900000100405C0299C8650198042807D3FFE7ED
:1019100002990868042262F30900886506E00299CA
:10192000086840F2FF3290438865FFE705E00299BE
:10193000086820F0FF008865FFE70298806D03B01B
:10194000704700000000000084B003900398006816
:10195000019003980168012045F20842C5F6020291
:10196000914200904ED0FFE703980168012045F2B4
:101970001C42C5F602029142009043D0FFE7039853
:101980000168012045F23042C5F602029142009002
:1019900038D0FFE703980168012045F24442C5F6BC
:1019A0000202914200902DD0FFE7039801680120C8
:1019B00045F25842C5F602029142009022D0FFE75C
:1019C00003980168012045F26C42C5F6020291427B
:1019D000009017D0FFE703980168012045F280428C
:1019E000C5F60202914200900CD0FFE70398006810
:1019F0004AF66C31CAF2FD710844B0FA80F0400931
:101A00000090FFE70098C00710B3FFE70398007845
:101A100008384CF6CD41CCF6CC41A0FB01100009B2
:101A20000290029945F60000C5F6020000EB810025
:101A300003990866039945F68000C5F602004866DA
:101A4000029800F01F01012088400399886635E064
:101A50000398007810384AF6AB21CAF6AA21A0FBF9
:101A6000011000090290019840F2B841C4F202014D
:101A700088420CD8FFE7019840F21041C4F20201FD
:101A8000884204D3FFE7029808300290FFE70299EA
:101A900040F60000C4F2020000EB810003990866E2
:101AA000039940F68000C4F202004866029800F0F4
:101AB0001F010120884003998866FFE704B0704742
:101AC00083B002900298007901900198002800F0FC
:101AD0008A80FFE70198082800F28580FFE70298D6
:101AE0000168012045F20842C5F6020291420090C9
:101AF0004ED0FFE702980168012045F21C42C5F66E
:101B000002029142009043D0FFE702980168012051
:101B100045F23042C5F602029142009038D0FFE70C
:101B200002980168012045F24442C5F60202914242
:101B300000902DD0FFE702980168012045F258423D
:101B4000C5F602029142009022D0FFE70298016898
:101B5000012045F26C42C5F602029142009017D076
:101B6000FFE702980168012045F28042C5F60202B3
:101B7000914200900CD0FFE7029800684AF66C3161
:101B8000CAF2FD710844B0FA80F040090090FFE706
:101B90000098C00780B1FFE7019945F6FC00C5F643
:101BA000020000EB81000299C866029945F64010D8
:101BB000C5F6020008670FE0019940F6FC00C4F288
:101BC000020000EB81000299C866029940F64010BD
:101BD000C4F202000867FFE70198411E0120884017
:101BE00002994867FFE703B070470000000000005B
:101BF00085B0049000208DF80F000498806918BB10
:101C0000FFE70498806A029003281BD80299DFE856
:101C100001F0020D0218049890F82F00C00720B1BF
:101C2000FFE701208DF80F00FFE70CE00498C06A81
:101C3000B0F1C07F04D1FFE701208DF80F00FFE76E
:101C400001E000E0FFE747E004988069B0F5005F3D
:101C500026D1FFE70498806A019003281ED80199D5
:101C6000DFE801F00206021101208DF80F0016E0F6
:101C7000049890F82F00C00720B1FFE701208DF8ED
:101C80000F00FFE70BE00498C06AB0F1C07F04D1F9
:101C9000FFE701208DF80F00FFE700E0FFE71AE003
:101CA0000498806A0090032804D3FFE70098032873
:101CB00004D00EE001208DF80F000BE0049890F89E
:101CC0002F00C00720B1FFE701208DF80F00FFE7CC
:101CD00000E0FFE7FFE7FFE79DF80F0005B0704762
:101CE000704700000000000081B0EFF3108072B672
:101CF0000090FFE7FEE7000080B540F66030C2F2DA
:101D0000000004F06DFD80BD80B540F66030C2F289
:101D1000000004F065FD80BD84B002900298406B25
:101D2000009002980068D0F884004FF6FC71884358
:101D3000009940EA810002990968C1F8840002987C
:101D40000068D0F8840020F47F00029A1168926B3A
:101D500040EA0240C1F884000298816B0098084470
:101D6000009002980068D0F888006FF38F00009907
:101D700040EA810002990968C1F888000298006869
:101D8000D0F8880020F4FE00029A1168D26B40EA75
:101D90000240C1F888000298C16B009800EB410036
:101DA000009002980068D0F8A0006FF38F000099AF
:101DB00040EA810002990968C1F8A0000298006811
:101DC000D0F8A00020F4FE00029A1168126C40EADC
:101DD0000240C1F8A0000299086C496C009A00FB0F
:101DE0000120009002980068D0F8B0006FF38F00D7
:101DF000009940EA810002990968C1F8B000029890
:101E00000068D0F8B00020F4FE00029A1168926CCD
:101E100040EA0240C1F8B0000299886CC96C009A8F
:101E200000FB0120009002980068D0F8AC006FF32E
:101E30008F00009940EA810002990968C1F8AC005E
:101E40000299086D496D009A00FB012000900298EC
:101E50000068D0F8F0006FF38F00009940EA81002D
:101E600002990968C1F8F00002980068D0F8F00003
:101E700020F47C10029A1168926D40EA0240C1F889
:101E8000F0000298816D009800EB410000900298EC
:101E90000068D0F8C0006FF38F00009940EA81001D
:101EA00002990968C1F8C00002980068D0F8C00023
:101EB00020F47C10029A1168D26D40EA0240C1F809
:101EC000C00002980068D0F8C00020F07C50029A50
:101ED0001168126E40EA0260C1F8C00002994A6BB4
:101EE0004AF60040C4F2000000EB8200C866029986
:101EF0008A6BC86E00EB820008670299CA6B086F94
:101F000000EBC200486702990A6C4B6C486F5A4359
:101F100000EB8200886702998A6CCB6C886F5A4309
:101F200000EB8200C86702990A6D4B6DC86F5A4377
:101F300000EB8200C1F8800002998A6DD1F8800020
:101F400000EBC200C1F884000299CA6D8B6ED1F813
:101F500084005A4300EB8200C1F8880002990A6E9F
:101F60008B6ED1F888005A4300EB8200C1F89000D4
:101F70000298D0F890004DF2FD31C4F20001884281
:101F80000FD3FFE70299D1F89C0040F02000C1F880
:101F90009C000299032081F8980001208DF80F0021
:101FA00017E00298C06E0190FFE701980299D1F8FE
:101FB0009010884208D2FFE7019900200860FFE7EF
:101FC000019804300190F0E7FFE700208DF80F0042
:101FD000FFE79DF80F0004B070470000000000000C
:101FE00088B007900691059204930698406848B916
:101FF000FFE70698016882680069104340EA814063
:10200000039009E00698016882680069104308435C
:1020100040F080400390FFE70698D0F820C0C168E8
:1020200042698369C06940EA0C6018431043084361
:1020300002900798826ED0F884000499514300EB17
:102040008100019003980199086001980430019083
:1020500002980199086001980430019000200090D6
:10206000FFE700980699CA8946F2CC21C0F6010123
:10207000895C88420DD2FFE7059800994058019984
:102080000860019804300190FFE700980430009048
:10209000E7E708B07047000080B584B04EF6000056
:1020A000C1F6F170006803904EF60400C1F6F170BD
:1020B000006802904EF60800C1F6F17000680190C9
:1020C0000199039808440390039888B1FFE70398A7
:1020D00040F22001C2F200010091023108220BF00F
:1020E000DFFD00990298123104220BF0D9FDFFE7C1
:1020F00004B080BD0000000080B5AAB028902791F0
:1021000000208DF89B002798006808B1FFE7FFE7E3
:10211000FFE7289890F85C00012804D1FFE702202F
:102120008DF8A7002DE12899012081F85C00FFE7D8
:10213000FFE70020219022902898006842F20001D9
:10214000C4F20201884206D1FFE742F20010C4F255
:102150000200099002E000200990FFE7099878B991
:10216000FFE72899086E40F020000866FFE72899ED
:10217000002081F85C00FFE701208DF8A70000E156
:1021800009980BF031FE0890289800680BF02CFE9F
:10219000002840F0E280FFE70898002840F0DD804A
:1021A000FFE728980168012042F20002C4F202020F
:1021B000914207900CD0FFE7289800684DF6007117
:1021C000CBF6FD710844B0FA80F040090790FFE7B4
:1021D0000798C10746F20030C5F6020000291CBF6F
:1021E00042F20030C4F202002590279800680028CF
:1021F0005ED0FFE72598806820F440402799496821
:1022000008432599886028980168012042F200025D
:10221000C4F20202914206900CD0FFE728980068B1
:102220004DF60071CBF6FD710844B0FA80F040091C
:102230000690FFE70698C10746F20030C5F6020097
:1022400000291CBF42F20030C4F2020042F2003109
:10225000C4F20201884212D1FFE742F20000C4F248
:1022600002000BF0A9FD049042F20010C4F202003B
:102270000BF0A2FD014604980843059007E046F2E2
:102280000000C5F602000BF097FD0590FFE70598EA
:1022900068B9FFE72598806840F61F718843279A40
:1022A000116892681143084325998860FFE753E05D
:1022B0002599886820F440408860289801680120AA
:1022C00042F20002C4F20202914203900CD0FFE7F6
:1022D000289800684DF60071CBF6FD710844B0FAFD
:1022E00080F040090390FFE70398C10746F20030F1
:1022F000C5F6020000291CBF42F20030C4F2020001
:1023000042F20031C4F20201884212D1FFE742F2E8
:102310000000C4F202000BF04FFD019042F20010E9
:10232000C4F202000BF048FD0146019808430290F8
:1023300007E046F20000C5F602000BF03DFD0290FA
:10234000FFE7029838B9FFE72599886840F61F72C1
:1023500090438860FFE7FFE708E02899086E40F0A7
:102360002000086601208DF89B00FFE7FFE7289911
:10237000002081F85C00FFE79DF89B008DF8A70026
:10238000FFE79DF8A7002AB080BD00000000000014
:1023900080B5CCB02A90299100208DF8A30025901B
:1023A0002A9890F84400012801D1FFE70BE02A9811
:1023B000006846F20001C5F60201884201D1FFE73C
:1023C00000E0FFE7FFE72998C0680021C4F2FF7131
:1023D000884201D0FFE71EE02A98006842F200011F
:1023E000C4F20201884201D1FFE7FFE72A980068A2
:1023F00042F20011C4F20201884201D1FFE7FFE777
:102400002A98006846F20001C5F60201884201D10F
:10241000FFE7FFE7FFE7FFE72A9890F85C00012855
:1024200005D1FFE702208DF8AF0000F076BD2A99B4
:10243000012081F85C00FFE7FFE72A9800680BF0B5
:10244000CBFC002840F05585FFE72A98006846F24B
:102450000001C5F6020188422DD0FFE729980068E7
:10246000000330B9FFE729980068C0F38460229028
:1024700015E02998006890FAA0F04A904A9820B98F
:10248000FFE720208DF82F0105E04A98B0FA80F090
:102490008DF82F01FFE79DF82F012290FFE722988A
:1024A00000F01F01012000FA01F22A980168C869B2
:1024B0001043C861FFE72A98006829990A684968AB
:1024C0000BF09AFC2A9800680BF086FC24902A985E
:1024D00000680BF059FC23902498002840F05A82A1
:1024E000FFE72398002840F05582FFE72A9800680C
:1024F000299A116892680BF09FFC2A98006846F2AE
:102500000001C5F6020188420BD1FFE72998406916
:102510002A990968C96801F018018908884027903C
:1025200038E041F20000C5F60040006800F070405D
:10253000B0F1805F0BD1FFE7299840692A990968BB
:10254000C96801F01C014908884021901FE02A98C1
:102550000068C068C00600280BD4FFE729984069CE
:102560002A990968C96801F01C014908884020902F
:102570000AE0299840692A990968C96801F01001A0
:10258000490888402090FFE720982190FFE7219894
:102590002790FFE729980069042841D0FFE72A988F
:1025A000006829990A680969279B0BF0CDFC2A98D5
:1025B000006846F20001C5F60201884215D1FFE726
:1025C0002A980068299A1169D2690BF00DFD2A98A2
:1025D0000068299A116992F82020013AB2FA82F231
:1025E000520952060BF0E0FC19E02A980068299A7B
:1025F000116992F82120013AB2FA82F25209D20707
:102600000BF012FD2A980068299A1169127E013A8E
:10261000B2FA82F25209D2020BF082FCFFE7B8E173
:102620002A98006846F20001C5F60201884240F08F
:102630006681FFE72A98006800210BF095FB0003F4
:1026400048B9FFE72A98006800210BF08DFBC0F322
:1026500084601F9018E02A98006800210BF084FB2A
:1026600090FAA0F04890489820B9FFE720208DF814
:10267000270105E04898B0FA80F08DF82701FFE7C0
:102680009DF827011F90FFE71F981E90299800686A
:10269000000330B9FFE729980068C0F384601D90FB
:1026A00015E02998006890FAA0F04690469820B965
:1026B000FFE720208DF81F0105E04698B0FA80F072
:1026C0008DF81F01FFE79DF81F011D90FFE71E9881
:1026D0001D99884207D1FFE72A9800680022114619
:1026E0000BF0C2FCFFE72A98006801210BF03CFBCD
:1026F000000348B9FFE72A98006801210BF034FB7A
:10270000C0F384601C9018E02A98006801210BF047
:102710002BFB90FAA0F04490449820B9FFE72020CA
:102720008DF8170105E04498B0FA80F08DF8170194
:10273000FFE79DF817011C90FFE71C981B90299854
:102740000068000330B9FFE729980068C0F384608F
:102750001A9015E02998006890FAA0F042904298EB
:1027600020B9FFE720208DF80F0105E04298B0FA6C
:1027700080F08DF80F01FFE79DF80F011A90FFE739
:102780001B981A99884207D1FFE72A98006801210F
:1027900000220BF069FCFFE72A98006802210BF089
:1027A000E3FA000348B9FFE72A98006802210BF01A
:1027B000DBFAC0F38460199018E02A9800680221BF
:1027C0000BF0D2FA90FAA0F04090409820B9FFE7C1
:1027D00020208DF8070105E04098B0FA80F08DF8D0
:1027E0000701FFE79DF807011990FFE71998189076
:1027F00029980068000330B9FFE729980068C0F302
:102800008460179015E02998006890FAA0F03E9037
:102810003E9820B9FFE720208DF8FF0005E03E98A4
:10282000B0FA80F08DF8FF00FFE79DF8FF001790E9
:10283000FFE718981799884207D1FFE72A980068A0
:10284000022100220BF010FCFFE72A980068032108
:102850000BF08AFA000348B9FFE72A9800680321C1
:102860000BF082FAC0F38460169018E02A98006892
:1028700003210BF079FA90FAA0F03C903C9820B933
:10288000FFE720208DF8F70005E03C98B0FA80F0D3
:102890008DF8F700FFE79DF8F7001690FFE7169810
:1028A000159029980068000330B9FFE7299800685F
:1028B000C0F38460149015E02998006890FAA0F0A5
:1028C0003A903A9820B9FFE720208DF8EF0005E014
:1028D0003A98B0FA80F08DF8EF00FFE79DF8EF002E
:1028E0001490FFE715981499884207D1FFE72A98BA
:1028F0000068032100220BF0B7FBFFE748E02A98AD
:102900000068006E00F0F84029990968B0EB816F0B
:1029100007D1FFE72A980168086E20F0004008669A
:10292000FFE72A980068406E00F0F840299909688E
:10293000B0EB816F07D1FFE72A980168486E20F05D
:1029400000404866FFE72A980068806E00F0F84073
:1029500029990968B0EB816F07D1FFE72A980168D0
:10296000886E20F000408866FFE72A980068C06EF5
:1029700000F0F84029990968B0EB816F07D1FFE7B3
:102980002A980168C86E20F00040C866FFE7FFE79C
:10299000FFE7FFE72A9800680BF006FA002840F0EE
:1029A000A782FFE72A980068299A1168D2680BF07D
:1029B0005FFA2998C0680021C4F2FF71884240F094
:1029C0003381FFE72A980068139029980068000374
:1029D00030B9FFE729980068C0F38460129015E0D1
:1029E0002998006890FAA0F03890389820B9FFE74D
:1029F00020208DF8E70005E03898B0FA80F08DF8D7
:102A0000E700FFE79DF8E7001290FFE7129801301A
:102A100000F01F0009287DD8FFE72998006800030F
:102A200030B9FFE729980068C0F38460119015E081
:102A30002998006890FAA0F03690369820B9FFE700
:102A400020208DF8DF0005E03698B0FA80F08DF890
:102A5000DF00FFE79DF8DF001190FFE711980130DC
:102A600000F01F008006109029980068000330B91C
:102A7000FFE729980068C0F384600F9015E029985B
:102A8000006890FAA0F03490349820B9FFE7202035
:102A90008DF8D70005E03498B0FA80F08DF8D700B3
:102AA000FFE79DF8D7000F90FFE710980F990131CD
:102AB00001F01F020121914008430E9029980068FF
:102AC000000330B9FFE729980068C0F384600D90D7
:102AD00015E02998006890FAA0F03290329820B959
:102AE000FFE720208DF8CF0005E03298B0FA80F0A3
:102AF0008DF8CF00FFE79DF8CF000D90FFE70E980F
:102B00000D99013101F01F0101EB410140EA015033
:102B10000C9082E029980068000330B9FFE72998FB
:102B20000068C0F384600B9015E02998006890FA63
:102B3000A0F03090309820B9FFE720208DF8C70032
:102B400005E03098B0FA80F08DF8C700FFE79DF8F7
:102B5000C7000B90FFE70B98013000F01F008006C4
:102B60000A9029980068000330B9FFE729980068A7
:102B7000C0F38460099015E02998006890FAA0F0ED
:102B80002E902E9820B9FFE720208DF8BF0005E099
:102B90002E98B0FA80F08DF8BF00FFE79DF8BF00D7
:102BA0000990FFE70A980999013101F01F020121FC
:102BB00091400843089029980068000330B9FFE766
:102BC00029980068C0F38460079015E02998006890
:102BD00090FAA0F02C902C9820B9FFE720208DF8D7
:102BE000B70005E02C98B0FA80F08DF8B700FFE749
:102BF0009DF8B7000790FFE708990798013000F0AB
:102C00001F0000EB40020020CFF6206000EB0250D6
:102C1000084340F000700C90FFE713980C99299A34
:102C200092680BF009F9FFE72998C07800060028A0
:102C300040F15D81FFE72A980168012042F200021D
:102C4000C4F20202914206900CD0FFE72A98006875
:102C50004DF60071CBF6FD710844B0FA80F04009E2
:102C60000690FFE70698C10746F20030C5F602005D
:102C700000291CBF42F20030C4F202000BF06CF8D5
:102C800026902A9801684FF0010042F20002C4F237
:102C90000202914205900CD0FFE72A9800684DF699
:102CA0000071CBF6FD710844B0FA80F04009059040
:102CB000FFE70598C10746F20030C5F6020000297B
:102CC0001CBF42F20030C4F2020042F20031C4F2F2
:102CD0000201884212D1FFE742F20000C4F2020072
:102CE0000BF062F8039042F20010C4F202000BF005
:102CF0005BF8014603980843049007E046F20000A1
:102D0000C5F602000BF050F80490FFE70498002885
:102D100040F0E380FFE7299800680021CCF252716F
:102D2000884255D1FFE79DF89A00000600284FD44D
:102D3000FFE72A98006846F20001C5F602018842C2
:102D400045D1FFE72A980168012042F20002C4F24F
:102D50000202914202900CD0FFE72A9800684DF6DB
:102D60000071CBF6FD710844B0FA80F04009029082
:102D7000FFE70298C10746F20030C5F602000029BD
:102D80001CBF42F20030C4F20200269941F4000157
:102D90000BF0B6F840F22400C2F2004000684FEA9F
:102DA000901042F66351C0F23E51A0FB01104FEA71
:102DB00090114FF0020000EB41002590FFE72598AD
:102DC00020B1FFE7259801382590F8E7FFE783E079
:102DD000299800680021CCF22131884238D1FFE7E0
:102DE0009DF89B00C00798BBFFE72A98006846F251
:102DF0000001C5F60201884229D1FFE72A9801683F
:102E0000012042F20002C4F20202914201900CD071
:102E1000FFE72A9800684DF60071CBF6FD71084473
:102E2000B0FA80F040090190FFE70198C10746F22F
:102E30000030C5F6020000291CBF42F20030C4F287
:102E40000200269941F080710BF05AF8FFE742E04A
:102E5000299800680021CCF68431884239D1FFE7F7
:102E60009DF89A004006002833D4FFE72A980068AE
:102E700046F20001C5F60201884229D1FFE72A98EF
:102E80000168012042F20002C4F202029142009065
:102E90000CD0FFE72A9800684DF60071CBF6FD7163
:102EA0000844B0FA80F040090090FFE70098C1079D
:102EB00046F20030C5F6020000291CBF42F2003085
:102EC000C4F20200269941F480010BF019F8FFE7E3
:102ED00000E0FFE7FFE7FFE708E02A99086E40F00F
:102EE0002000086601208DF8A300FFE7FFE7FFE759
:102EF00008E02A99086E40F02000086601208DF84D
:102F0000A300FFE7FFE72A99002081F85C00FFE7B4
:102F10009DF8A3008DF8AF00FFE79DF8AF004CB01F
:102F200080BD00000000000010B590B00E900020A1
:102F30008DF837000A900E9820B9FFE701208DF830
:102F40003F006EE20E98006940B1FFE70E9890F8DE
:102F50002000012801D1FFE7FFE7FFE70E98006E90
:102F600050B9FFE70E9800F063FA0E99002048660A
:102F70000E9981F85C00FFE70E9800680AF00CFFDC
:102F800028B1FFE70E9800680AF0CAFEFFE70E9826
:102F900000680AF019FFE8B9FFE70E9800680AF028
:102FA000CBFE40F22400C2F200400068800942F6E5
:102FB0006351C0F23E51A0FB0101012000EB9110D2
:102FC0000A90FFE70A9820B1FFE70A9801380A90B3
:102FD000F8E7FFE70E9800680AF0F6FE70B9FFE721
:102FE0000E99086E40F0100008660E99486E40F089
:102FF0000100486601208DF83700FFE70E98006851
:103000000AF0EAFE0B900E98006EC006002800F150
:10301000FA81FFE70B98002840F0F581FFE70E9852
:10302000006E40F0020020F480700E9908660E9841
:1030300000680AF0B9FE002870D1FFE70E98016819
:10304000012042F20002C4F20202914207900CD029
:10305000FFE70E9800684DF60071CBF6FD7108444D
:10306000B0FA80F040090790FFE70798C10746F2E1
:103070000030C5F6020000291CBF42F20030C4F245
:10308000020042F20031C4F20201884212D1FFE78D
:1030900042F20000C4F202000AF086FE059042F2FD
:1030A0000010C4F202000AF07FFE014605980843B2
:1030B000069007E046F20000C5F602000AF074FE32
:1030C0000690FFE7069840BBFFE70E9801680120D5
:1030D00042F20002C4F20202914204900CD0FFE7D7
:1030E0000E9800684DF60071CBF6FD710844B0FAF9
:1030F00080F040090490FFE70498C10746F20030D1
:10310000C5F6020000291CBF42F20030C4F20200E2
:103110000E9949680AF0E4FEFFE7FFE70E980068A1
:1031200046F20001C5F6020188423AD1FFE70E9A45
:10313000517ED06B40EA41319068D26811430391CF
:10314000082803D1FFE7002002901DE00E98806858
:103150000C2803D1FFE70420019012E00E9880684C
:103160001C2803D1FFE70820009007E00E98816833
:103170000020182908BF1C200090FFE7009801904C
:10318000FFE701980290FFE70398029901F00C0114
:1031900040EA41000E9991F8201040EA01400C905D
:1031A0000CE00E994A7EC86B40EA42308A681043B0
:1031B00091F8201040EA01400C90FFE70E9890F83B
:1031C000200001280BD1FFE70E98416A0020CFF6BE
:1031D000FE7000EB41410C9808430C90FFE70E98FD
:1031E000806A50B1FFE70E99886AC96A00F4787066
:1031F00001430C9808430C90FFE70E98006846F2D4
:103200000001C5F60201884218D1FFE70E98006858
:10321000C06844F20701CFF6F07108400C990843EA
:103220000E990968C8600E980068006920F0406037
:103230000E9A1168526B104308610DE00E980068F9
:10324000C0684CF20301CFF6F07108400C990843B6
:103250000E990968C860FFE70E9800680AF0BCFD87
:1032600009900E9800680AF08FFD089009980028D0
:1032700040F0A880FFE70898002840F0A380FFE70F
:103280000E98006846F20001C5F60201884209D195
:10329000FFE70E99087E91F83810800340EA41005C
:1032A0000C9006E00E98017E006B40EA81300C9095
:1032B000FFE70E980068C06844F2030188430C9948
:1032C00008430E990968C8600E9890F844000128D8
:1032D00059D1FFE70E98006846F20001C5F60201D9
:1032E000884201D1FFE700E0FFE70E98806A20B135
:1032F000FFE70E98C06A08B9FFE7FFE70E9800687D
:1033000046F20001C5F6020188421BD1FFE70E9884
:10331000006800694FF61E01CFF6004100EA010285
:103320000E9B1968986CD3F84CE0D3F850C040EA73
:103330000E0040EA0C005B6D1843104340F00100A2
:1033400008611FE00E98006800694FF61E01CFF675
:10335000004100EA01020E9B19689C6CD3F84CE016
:10336000D3F850C00020CFF6FF7000EB044040EAD5
:103370000E0040EA0C005B6D1843104340F0010062
:103380000861FFE706E00E980168086920F0010077
:103390000861FFE70E980068006920F070400E9AFF
:1033A0001168126C104308610E98006846F2000123
:1033B000C5F60201884204D0FFE70E98FEF768F8D0
:1033C000FFE7FFE70E98006901280CD1FFE70E9890
:1033D0000068006B20F00F000E9A1168D269013A64
:1033E0001043086306E00E980168086B20F00F0098
:1033F0000863FFE70E98006E40F0010020F0020025
:103400000E99086608E00E99086E40F010000866F4
:1034100001208DF83700FFE79DF837008DF83F0059
:10342000FFE79DF83F0010B010BD00000000000055
:1034300080B5B8B0379000203690359034903390F6
:10344000329004A8B821FCF7A7FF3798006842F231
:103450000001C4F20201884272D1FFE7002005900A
:103460004FF4002104910221069110220792089145
:1034700009910A91C0210B910C900D902C9004A8F9
:1034800006F0B6FE18B1FFE7FEF72EFCFFE7FFE7F8
:1034900044F2D840C5F60200016841F02001016005
:1034A000006800F0200003900398FFE7FFE744F274
:1034B000E040C5F60200016841F0010101600068CA
:1034C00000F0010002900298FFE7202032900320D4
:1034D00033900020009034900020C5F6020032A9FD
:1034E00003F05EFF009940F6E820C2F20000019070
:1034F0001022C4F202020260092242608160C160AF
:103500004FF4806202614FF4006242614FF4005256
:1035100082614FF48072C2610162416202F008F977
:1035200018B1FFE7FEF7E0FBFFE7FFE7379840F64B
:10353000E821C2F20001816537988863FFE7FFE761
:1035400038B080BD0000000080B58AB0089004F05B
:1035500013F90490089828B9FFE701208DF8270097
:1035600000F0AABC089890F8350002280ED0FFE7BA
:10357000089980204865FFE70899002081F8340009
:10358000FFE701208DF8270000F096BC089801683D
:1035900001201022C4F202029142039000F0A380A5
:1035A000FFE70898016801202822C4F20202914234
:1035B000039000F09880FFE70898016801204022FE
:1035C000C4F202029142039000F08D80FFE7089858
:1035D000016801205822C4F202029142039000F0D7
:1035E0008280FFE70898016801207022C4F202027D
:1035F0009142039077D0FFE7089801680120882264
:10360000C4F20202914203906DD0FFE7089801686E
:103610000120A022C4F202029142039063D0FFE78E
:10362000089801680120B822C4F202029142039076
:1036300059D0FFE708980168012040F21042C4F217
:103640000202914203904ED0FFE7089801680120E2
:1036500040F22842C4F202029142039043D0FFE7B5
:1036600008980168012040F24042C4F202029142EF
:10367000039038D0FFE708980168012040F25842D3
:10368000C4F20202914203902DD0FFE7089801682E
:10369000012040F27042C4F202029142039022D013
:1036A000FFE708980168012040F28842C4F2020254
:1036B0009142039017D0FFE708980168012040F27B
:1036C000A042C4F20202914203900CD0FFE7089896
:1036D00000684FF64831CBF6FD710844B0FA80F02F
:1036E00040090390FFE70398C00780B1FFE70898FF
:1036F0000168086820F01E000860089801684869A1
:1037000020F08000486108980068059009E008985A
:103710000168086820F00E000860089800680590AD
:10372000FFE70898016801201022C4F202029142CA
:10373000029000F00381FFE7089801680120282229
:10374000C4F202029142029000F0F880FFE708986C
:10375000016801204022C4F202029142029000F06E
:10376000ED80FFE70898016801205822C4F20202A8
:103770009142029000F0E280FFE708980168012082
:103780007022C4F202029142029000F0D780FFE75B
:103790000898016801208822C4F202029142029036
:1037A00000F0CC80FFE7089801680120A022C4F255
:1037B00002029142029000F0C180FFE70898016880
:1037C0000120B822C4F202029142029000F0B680B9
:1037D000FFE708980168012040F21042C4F202029B
:1037E0009142029000F0AA80FFE70898016801204A
:1037F00040F22842C4F202029142029000F09E8000
:10380000FFE708980168012040F24042C4F202023A
:103810009142029000F09280FFE708980168012031
:1038200040F25842C4F202029142029000F08680B7
:10383000FFE708980168012040F27042C4F20202DA
:10384000914202907AD0FFE708980168012040F287
:103850008842C4F20202914202906FD0FFE70898BA
:103860000168012040F2A042C4F20202914202909B
:1038700064D0FFE708980168012040F2B842C4F222
:1038800002029142029059D0FFE708980168012096
:1038900045F20842C5F60202914202904ED0FFE77F
:1038A00008980168012045F21C42C5F602029142C7
:1038B000029043D0FFE708980168012045F23042AA
:1038C000C5F602029142029038D0FFE708980168DD
:1038D000012045F24442C5F60202914202902DD0E9
:1038E000FFE708980168012045F25842C5F6020238
:1038F0009142029022D0FFE708980168012045F22A
:103900006C42C5F602029142029017D0FFE7089878
:103910000168012045F28042C5F602029142029000
:103920000CD0FFE7089800684AF66C31CAF2FD71C6
:103930000844B0FA80F040090290FFE70298C007FF
:1039400038B1FFE70898016E086820F480700860BD
:10395000FFE7089800681021C4F20201884200F0D5
:103960008180FFE7089800682821C4F2020188429C
:1039700078D0FFE7089800684021C4F2020188422D
:1039800070D0FFE7089800685821C4F2020188420D
:1039900068D0FFE7089800687021C4F202018842ED
:1039A00060D0FFE7089800688821C4F202018842CD
:1039B00058D0FFE708980068A021C4F202018842AD
:1039C00050D0FFE708980068B821C4F2020188428D
:1039D00048D0FFE70898006840F21041C4F20201A5
:1039E00088423FD0FFE70898006840F22841C4F2BF
:1039F0000201884236D0FFE70898006840F2404153
:103A0000C4F2020188422DD0FFE70898006840F216
:103A10005841C4F20201884224D0FFE708980068A8
:103A200040F27041C4F2020188421BD0FFE70898BF
:103A3000006840F28841C4F20201884212D0FFE7D8
:103A40000898006840F2A041C4F20201884209D0FF
:103A5000FFE70898006840F2B841C4F202018842CA
:103A600007D1FFE708980168086820F001000860A6
:103A700006E008980168086820F001000860FFE788
:103A8000FFE705980068C007C8B1FFE703F074FEC0
:103A90000499401A062811D3FFE7089920204865A9
:103AA0000899032081F83500FFE70899002081F884
:103AB0003400FFE701208DF82700FDE1E1E70898D9
:103AC000016801201022C4F202029142019000F02C
:103AD000A380FFE70898016801202822C4F20202AF
:103AE0009142019000F09880FFE70898016801205A
:103AF0004022C4F202029142019000F08D80FFE763
:103B00000898016801205822C4F2020291420190F3
:103B100000F08280FFE70898016801207022C4F25B
:103B200002029142019077D0FFE7089801680120D6
:103B30008822C4F20202914201906DD0FFE70898FA
:103B400001680120A022C4F202029142019063D0D8
:103B5000FFE7089801680120B822C4F202029142EE
:103B6000019059D0FFE708980168012040F2104207
:103B7000C4F20202914201904ED0FFE7089801681A
:103B8000012040F22842C4F202029142019043D047
:103B9000FFE708980168012040F24042C4F20202A7
:103BA0009142019038D0FFE708980168012040F267
:103BB0005842C4F20202914201902DD0FFE70898CA
:103BC0000168012040F27042C4F202029142019069
:103BD00022D0FFE708980168012040F28842C4F231
:103BE00002029142019017D0FFE708980168012076
:103BF00040F2A042C4F20202914201900CD0FFE7D1
:103C0000089800684FF64831CBF6FD710844B0FAC9
:103C100080F040090190FFE70198C00760B1FFE71D
:103C20000898806D07900898C06D00F01F013F2034
:103C30008840079988600BE00898806D0690089886
:103C4000C06D00F01F010120884006994860FFE721
:103C50000898016801201022C4F2020291420090EB
:103C600000F00381FFE70898016801202822C4F2D0
:103C700002029142009000F0F880FFE70898016886
:103C800001204022C4F202029142009000F0ED8037
:103C9000FFE70898016801205822C4F2020291420D
:103CA000009000F0E280FFE7089801680120702290
:103CB000C4F202029142009000F0D780FFE708981A
:103CC000016801208822C4F202029142009000F0B3
:103CD000CC80FFE7089801680120A022C4F202020C
:103CE0009142009000F0C180FFE708980168012030
:103CF000B822C4F202029142009000F0B680FFE7C1
:103D000008980168012040F21042C4F20202914278
:103D1000009000F0AA80FFE708980168012040F2B7
:103D20002842C4F202029142009000F09E80FFE718
:103D300008980168012040F24042C4F20202914218
:103D4000009000F09280FFE708980168012040F29F
:103D50005842C4F202029142009000F08680FFE7D0
:103D600008980168012040F27042C4F202029142B8
:103D700000907AD0FFE708980168012040F288425D
:103D8000C4F20202914200906FD0FFE708980168E8
:103D9000012040F2A042C4F202029142009064D09D
:103DA000FFE708980168012040F2B842C4F202021D
:103DB0009142009059D0FFE708980168012045F230
:103DC0000842C5F60202914200904ED0FFE70898E3
:103DD0000168012045F21C42C5F6020291420090A2
:103DE00043D0FFE708980168012045F23042C5F64C
:103DF00002029142009038D0FFE708980168012044
:103E000045F24442C5F60202914200902DD0FFE7F0
:103E100008980168012045F25842C5F60202914215
:103E2000009022D0FFE708980168012045F26C421B
:103E3000C5F602029142009017D0FFE7089801688A
:103E4000012045F28042C5F60202914200900CD05A
:103E5000FFE7089800684AF66C31CAF2FD71084421
:103E6000B0FA80F040090090FFE70098C007A0B1C9
:103E7000FFE70898416E806E48600898C06E58B1A0
:103E8000FFE70898C16E086820F480700860089801
:103E9000016F406F4860FFE7FFE70899012081F854
:103EA0003500FFE70899002081F83400FFE7FFE7BD
:103EB00000208DF82700FFE79DF827000AB080BD9D
:103EC00080B586B00490049820B9FFE701208DF8F2
:103ED000170046E3049890F83500022807D0FFE762
:103EE00004998020486501208DF8170039E3049873
:103EF000016801201022C4F202029142029000F0F7
:103F0000A380FFE70498016801202822C4F202027E
:103F10009142029000F09880FFE704980168012028
:103F20004022C4F202029142029000F08D80FFE72D
:103F30000498016801205822C4F2020291420290C2
:103F400000F08280FFE70498016801207022C4F22B
:103F500002029142029077D0FFE7049801680120A5
:103F60008822C4F20202914202906DD0FFE70498C9
:103F700001680120A022C4F202029142029063D0A3
:103F8000FFE7049801680120B822C4F202029142BE
:103F9000029059D0FFE704980168012040F21042D6
:103FA000C4F20202914202904ED0FFE704980168E9
:103FB000012040F22842C4F202029142029043D012
:103FC000FFE704980168012040F24042C4F2020277
:103FD0009142029038D0FFE704980168012040F236
:103FE0005842C4F20202914202902DD0FFE7049899
:103FF0000168012040F27042C4F202029142029034
:1040000022D0FFE704980168012040F28842C4F200
:1040100002029142029017D0FFE704980168012044
:1040200040F2A042C4F20202914202900CD0FFE79B
:10403000049800684FF64831CBF6FD710844B0FA99
:1040400080F040090290FFE70298C007002800F0C6
:104050009D80FFE70499042081F8350004980068EA
:104060001021C4F20201884200F08180FFE7049829
:1040700000682821C4F20201884278D0FFE7049842
:1040800000684021C4F20201884270D0FFE7049822
:1040900000685821C4F20201884268D0FFE7049802
:1040A00000687021C4F20201884260D0FFE70498E2
:1040B00000688821C4F20201884258D0FFE70498C2
:1040C0000068A021C4F20201884250D0FFE70498A2
:1040D0000068B821C4F20201884248D0FFE7049882
:1040E000006840F21041C4F2020188423FD0FFE76D
:1040F0000498006840F22841C4F20201884236D098
:10410000FFE70498006840F24041C4F2020188428F
:104110002DD0FFE70498006840F25841C4F2020134
:10412000884224D0FFE70498006840F27041C4F24E
:10413000020188421BD0FFE70498006840F28841E2
:10414000C4F20201884212D0FFE70498006840F2EE
:10415000A041C4F20201884209D0FFE70498006838
:1041600040F2B841C4F20201884207D1FFE7049847
:104170000168086820F00100086006E00498016802
:10418000086820F001000860FFE7E5E10498016895
:10419000086820F00E000860049800681021C4F23E
:1041A0000201884200F08180FFE70498006828211E
:1041B000C4F20201884278D0FFE7049800684021E9
:1041C000C4F20201884270D0FFE7049800685821C9
:1041D000C4F20201884268D0FFE7049800687021A9
:1041E000C4F20201884260D0FFE704980068882189
:1041F000C4F20201884258D0FFE704980068A02169
:10420000C4F20201884250D0FFE704980068B82148
:10421000C4F20201884248D0FFE70498006840F2E7
:104220001041C4F2020188423FD0FFE704980068C1
:1042300040F22841C4F20201884236D0FFE70498D8
:10424000006840F24041C4F2020188422DD0FFE7ED
:104250000498006840F25841C4F20201884224D018
:10426000FFE70498006840F27041C4F202018842FE
:104270001BD0FFE70498006840F28841C4F20201B5
:10428000884212D0FFE70498006840F2A041C4F2CF
:104290000201884209D0FFE70498006840F2B84163
:1042A000C4F20201884207D1FFE704980168086858
:1042B00020F00100086006E004980168086820F01A
:1042C00001000860FFE70498016801201022C4F291
:1042D00002029142019000F00381FFE70498016817
:1042E00001202822C4F202029142019000F0F880DD
:1042F000FFE70498016801204022C4F202029142C3
:10430000019000F0ED80FFE7049801680120582239
:10431000C4F202029142019000F0E280FFE70498AB
:10432000016801207022C4F202029142019000F063
:10433000D780FFE70498016801208822C4F20202B6
:104340009142019000F0CC80FFE7049801680120C1
:10435000A022C4F202029142019000F0C180FFE766
:10436000049801680120B822C4F20202914201902F
:1043700000F0B680FFE704980168012040F2104287
:10438000C4F202029142019000F0AA80FFE7049873
:104390000168012040F22842C4F2020291420190D9
:1043A00000F09E80FFE704980168012040F240423F
:1043B000C4F202029142019000F09280FFE704985B
:1043C0000168012040F25842C4F202029142019079
:1043D00000F08680FFE704980168012040F27042F7
:1043E000C4F20202914201907AD0FFE7049801687A
:1043F000012040F28842C4F20202914201906FD043
:10440000FFE704980168012040F2A042C4F20202D2
:104410009142019064D0FFE704980168012040F2C6
:10442000B842C4F202029142019059D0FFE70498C9
:104430000168012045F20842C5F60202914201904E
:104440004ED0FFE704980168012045F21C42C5F6F2
:1044500002029142019043D0FFE7049801680120D5
:1044600045F23042C5F602029142019038D0FFE792
:1044700004980168012045F24442C5F602029142C7
:1044800001902DD0FFE704980168012045F25842C1
:10449000C5F602029142019022D0FFE7049801681C
:1044A000012045F26C42C5F602029142019017D0FC
:1044B000FFE704980168012045F28042C5F6020238
:1044C000914201900CD0FFE7049800684AF66C31E5
:1044D000CAF2FD710844B0FA80F040090190FFE78C
:1044E0000198C00728B3FFE70498016E086820F41C
:1044F000807008600498806D03900498C06D00F08F
:104500001F0101208840039948600498416E806E25
:1045100048600498C06E58B1FFE70498C16E0868FF
:1045200020F4807008600498016F406F4860FFE7D6
:10453000FFE70499012081F83500FFE70499002086
:1045400081F83400FFE70498006D20B1FFE704987C
:10455000016D8847FFE7FFE7FFE700208DF81700B0
:10456000FFE79DF8170006B080BD000000000000C6
:1045700080B590B00F9000200B9040F22400C2F262
:104580000040006848F2B511C1F64E31A0FB0110A1
:10459000800A0A900F98806D09900F98806D08909E
:1045A000099800680E90089800680D900F980168AF
:1045B00001201022C4F202029142079000F0A38071
:1045C000FFE70F98016801202822C4F202029142FD
:1045D000079000F09880FFE70F98016801204022C3
:1045E000C4F202029142079000F08D80FFE70F981D
:1045F000016801205822C4F202029142079000F0A3
:104600008280FFE70F98016801207022C4F2020245
:104610009142079077D0FFE70F9801680120882228
:10462000C4F20202914207906DD0FFE70F98016833
:104630000120A022C4F202029142079063D0FFE75A
:104640000F9801680120B822C4F20202914207903B
:1046500059D0FFE70F980168012040F21042C4F2E0
:104660000202914207904ED0FFE70F9801680120A7
:1046700040F22842C4F202029142079043D0FFE781
:104680000F980168012040F24042C4F202029142B8
:10469000079038D0FFE70F980168012040F2584298
:1046A000C4F20202914207902DD0FFE70F980168F3
:1046B000012040F27042C4F202029142079022D0DF
:1046C000FFE70F980168012040F28842C4F202021D
:1046D0009142079017D0FFE70F980168012040F240
:1046E000A042C4F20202914207900CD0FFE70F985B
:1046F00000684FF64831CBF6FD710844B0FA80F0FF
:1047000040090790FFE70798C007002800F01385CD
:10471000FFE70E980F99C96D01F01F01C84000070F
:10472000002840F1B080FFE70F9800681021C4F224
:104730000201884200F08180FFE70F98006828217D
:10474000C4F20201884278D0FFE70F980068402148
:10475000C4F20201884270D0FFE70F980068582128
:10476000C4F20201884268D0FFE70F980068702108
:10477000C4F20201884260D0FFE70F9800688821E8
:10478000C4F20201884258D0FFE70F980068A021C8
:10479000C4F20201884250D0FFE70F980068B821A8
:1047A000C4F20201884248D0FFE70F98006840F247
:1047B0001041C4F2020188423FD0FFE70F98006821
:1047C00040F22841C4F20201884236D0FFE70F9838
:1047D000006840F24041C4F2020188422DD0FFE758
:1047E0000F98006840F25841C4F20201884224D078
:1047F000FFE70F98006840F27041C4F2020188425E
:104800001BD0FFE70F98006840F28841C4F2020114
:10481000884212D0FFE70F98006840F2A041C4F22E
:104820000201884209D0FFE70F98006840F2B841C2
:10483000C4F20201884207D1FFE70F9800680068C0
:1048400000F00400069006E00F980068006800F091
:1048500008000690FFE70698A0B1FFE70F980168EF
:10486000086820F0040008600F98C06D00F01F0178
:1048700008208840099988600F99486D40F0010030
:104880004865FFE7FFE70E980F99C96D01F01F011A
:10489000C840C007002800F0A980FFE70F98006813
:1048A0001021C4F20201884200F08180FFE70F98D6
:1048B00000682821C4F20201884278D0FFE70F98EF
:1048C00000684021C4F20201884270D0FFE70F98CF
:1048D00000685821C4F20201884268D0FFE70F98AF
:1048E00000687021C4F20201884260D0FFE70F988F
:1048F00000688821C4F20201884258D0FFE70F986F
:104900000068A021C4F20201884250D0FFE70F984E
:104910000068B821C4F20201884248D0FFE70F982E
:10492000006840F21041C4F2020188423FD0FFE724
:104930000F98006840F22841C4F20201884236D044
:10494000FFE70F98006840F24041C4F2020188423C
:104950002DD0FFE70F98006840F25841C4F20201E1
:10496000884224D0FFE70F98006840F27041C4F2FB
:10497000020188421BD0FFE70F98006840F288418F
:10498000C4F20201884212D0FFE70F98006840F29B
:10499000A041C4F20201884209D0FFE70F980068E5
:1049A00040F2B841C4F20201884207D1FFE70F98F4
:1049B0000068406900F08000059005E00F980068ED
:1049C000006800200590FFE7059870B1FFE70F9899
:1049D000C06D00F01F0101208840099988600F997F
:1049E000486D40F002004865FFE7FFE70E980F9919
:1049F000C96D01F01F01C8404007002840F1A9809F
:104A0000FFE70F9800681021C4F20201884200F00D
:104A10008180FFE70F9800682821C4F202018842D4
:104A200078D0FFE70F9800684021C4F20201884265
:104A300070D0FFE70F9800685821C4F20201884245
:104A400068D0FFE70F9800687021C4F20201884225
:104A500060D0FFE70F9800688821C4F20201884205
:104A600058D0FFE70F980068A021C4F202018842E5
:104A700050D0FFE70F980068B821C4F202018842C5
:104A800048D0FFE70F98006840F21041C4F20201DD
:104A900088423FD0FFE70F98006840F22841C4F2F7
:104AA0000201884236D0FFE70F98006840F240418B
:104AB000C4F2020188422DD0FFE70F98006840F24F
:104AC0005841C4F20201884224D0FFE70F980068E1
:104AD00040F27041C4F2020188421BD0FFE70F98F8
:104AE000006840F28841C4F20201884212D0FFE718
:104AF0000F98006840F2A041C4F20201884209D038
:104B0000FFE70F98006840F2B841C4F20201884202
:104B100007D1FFE70F980068006800F002000490DA
:104B200005E00F980068006800200490FFE70498F3
:104B300070B1FFE70F98C06D00F01F01042088409E
:104B4000099988600F99486D40F004004865FFE7B7
:104B5000FFE70E980F99C96D01F01F01C840C0060C
:104B6000002840F1DE80FFE70F9800681021C4F2B2
:104B70000201884200F08180FFE70F980068282139
:104B8000C4F20201884278D0FFE70F980068402104
:104B9000C4F20201884270D0FFE70F9800685821E4
:104BA000C4F20201884268D0FFE70F9800687021C4
:104BB000C4F20201884260D0FFE70F9800688821A4
:104BC000C4F20201884258D0FFE70F980068A02184
:104BD000C4F20201884250D0FFE70F980068B82164
:104BE000C4F20201884248D0FFE70F98006840F203
:104BF0001041C4F2020188423FD0FFE70F980068DD
:104C000040F22841C4F20201884236D0FFE70F98F3
:104C1000006840F24041C4F2020188422DD0FFE713
:104C20000F98006840F25841C4F20201884224D033
:104C3000FFE70F98006840F27041C4F20201884219
:104C40001BD0FFE70F98006840F28841C4F20201D0
:104C5000884212D0FFE70F98006840F2A041C4F2EA
:104C60000201884209D0FFE70F98006840F2B8417E
:104C7000C4F20201884207D1FFE70F98006800687C
:104C800000F00800039006E00F980068006800F04C
:104C900004000390FFE70398002841D0FFE70F9836
:104CA000C06D00F01F0110208840099988600F989E
:104CB00000680068400300281AD5FFE70F980068D5
:104CC00000680003002809D4FFE70F98006C20B1AA
:104CD000FFE70F98016C8847FFE708E00F98806CAA
:104CE00020B1FFE70F98816C8847FFE7FFE716E0E8
:104CF0000F9800680068C005002807D4FFE70F98E8
:104D00000168086820F008000860FFE70F98006C51
:104D100020B1FFE70F98016C8847FFE7FFE7FFE747
:104D2000FFE70E980F99C96D01F01F01C84080067A
:104D3000002840F12681FFE70F9800681021C4F297
:104D40000201884200F08180FFE70F980068282167
:104D5000C4F20201884278D0FFE70F980068402132
:104D6000C4F20201884270D0FFE70F980068582112
:104D7000C4F20201884268D0FFE70F9800687021F2
:104D8000C4F20201884260D0FFE70F9800688821D2
:104D9000C4F20201884258D0FFE70F980068A021B2
:104DA000C4F20201884250D0FFE70F980068B82192
:104DB000C4F20201884248D0FFE70F98006840F231
:104DC0001041C4F2020188423FD0FFE70F9800680B
:104DD00040F22841C4F20201884236D0FFE70F9822
:104DE000006840F24041C4F2020188422DD0FFE742
:104DF0000F98006840F25841C4F20201884224D062
:104E0000FFE70F98006840F27041C4F20201884247
:104E10001BD0FFE70F98006840F28841C4F20201FE
:104E2000884212D0FFE70F98006840F2A041C4F218
:104E30000201884209D0FFE70F98006840F2B841AC
:104E4000C4F20201884207D1FFE70F9800680068AA
:104E500000F01000029006E00F980068006800F073
:104E600002000290FFE70298002800F08980FFE727
:104E70000F98C06D00F01F012020884009998860BC
:104E80000F9890F83500042837D1FFE70F98016894
:104E9000086820F0160008600F980168486920F043
:104EA000800048610F98006C20B9FFE70F98806C74
:104EB00038B1FFE70F980168086820F00800086023
:104EC000FFE70F98C06D00F01F013F20884009994F
:104ED00088600F99012081F83500FFE70F990020C5
:104EE00081F83400FFE70F98006D20B1FFE70F98BD
:104EF000016D8847FFE700F019BC0F980068006853
:104F0000400300281AD5FFE70F98006800680003E7
:104F1000002809D4FFE70F98406C20B1FFE70F98F5
:104F2000416C8847FFE708E00F98C06B20B1FFE7AE
:104F30000F98C16B8847FFE7FFE720E00F980068F4
:104F40000068C005002811D4FFE70F9801680868C1
:104F500020F0100008600F99012081F83500FFE76C
:104F60000F99002081F83400FFE7FFE70F98C06B2E
:104F700020B1FFE70F98C16B8847FFE7FFE7FFE726
:104F8000FFE70F98406D002800F0D480FFE70F98EE
:104F9000406DC007002800F0C480FFE70F9904208F
:104FA00081F835000F9800681021C4F20201884290
:104FB00000F08180FFE70F9800682821C4F2020109
:104FC000884278D0FFE70F9800684021C4F20201C0
:104FD000884270D0FFE70F9800685821C4F20201A0
:104FE000884268D0FFE70F9800687021C4F2020180
:104FF000884260D0FFE70F9800688821C4F2020160
:10500000884258D0FFE70F980068A021C4F202013F
:10501000884250D0FFE70F980068B821C4F202011F
:10502000884248D0FFE70F98006840F21041C4F270
:10503000020188423FD0FFE70F98006840F2284104
:10504000C4F20201884236D0FFE70F98006840F2B0
:105050004041C4F2020188422DD0FFE70F9800685A
:1050600040F25841C4F20201884224D0FFE70F9871
:10507000006840F27041C4F2020188421BD0FFE791
:105080000F98006840F28841C4F20201884212D0B1
:10509000FFE70F98006840F2A041C4F20201884285
:1050A00009D0FFE70F98006840F2B841C4F202014E
:1050B000884207D1FFE70F980168086820F00100D7
:1050C000086006E00F980168086820F00100086099
:1050D000FFE7FFE70B9801300B900A99884201D94E
:1050E000FFE707E0FFE70F9800680068C0070028A7
:1050F000F0D1FFE70F9800680068C00728B1FFE70C
:105100000F99032081F8350004E00F99012081F800
:105110003500FFE7FFE70F99002081F83400FFE733
:10512000FFE70F98C06C20B1FFE70F98C16C88476C
:10513000FFE7FFE7FAE20F980168012045F2084215
:10514000C5F60202914201904ED0FFE70F98016828
:10515000012045F21C42C5F602029142019043D063
:10516000FFE70F980168012045F23042C5F60202C0
:105170009142019038D0FFE70F980168012045F275
:105180004442C5F60202914201902DD0FFE70F98EC
:105190000168012045F25842C5F602029142019091
:1051A00022D0FFE70F980168012045F26C42C5F656
:1051B00002029142019017D0FFE70F980168012089
:1051C00045F28042C5F60202914201900CD0FFE701
:1051D0000F9800684AF66C31CAF2FD710844B0FAC3
:1051E00080F040090190FFE70198C007002800F017
:1051F0009B82FFE70F98006800680C900D980F994C
:10520000C96D01F01F01C8404007002840F1D78058
:10521000FFE79DF830004007002840F1D080FFE70D
:105220000F98C06D00F01F01042088400899486065
:105230009DF831000006002818D5FFE79DF83200E0
:10524000C00748B9FFE70F98806C20B1FFE70F98BF
:10525000816C8847FFE708E00F98006C20B1FFE7FA
:105260000F98016C8847FFE7FFE7A7E09DF8300043
:105270008006002800F19980FFE70F980068102150
:10528000C4F20201884200F08180FFE70F980068B5
:105290002821C4F20201884278D0FFE70F98006805
:1052A0004021C4F20201884270D0FFE70F980068E5
:1052B0005821C4F20201884268D0FFE70F980068C5
:1052C0007021C4F20201884260D0FFE70F980068A5
:1052D0008821C4F20201884258D0FFE70F98006885
:1052E000A021C4F20201884250D0FFE70F98006865
:1052F000B821C4F20201884248D0FFE70F98006845
:1053000040F21041C4F2020188423FD0FFE70F98FB
:10531000006840F22841C4F20201884236D0FFE71B
:105320000F98006840F24041C4F2020188422DD03B
:10533000FFE70F98006840F25841C4F2020188422A
:1053400024D0FFE70F98006840F27041C4F20201D8
:1053500088421BD0FFE70F98006840F28841C4F2F2
:105360000201884212D0FFE70F98006840F2A04186
:10537000C4F20201884209D0FFE70F98006840F2AA
:10538000B841C4F20201884207D1FFE70F980168D3
:10539000086820F00800086006E00F9801680868B7
:1053A00020F004000860FFE7FFE70F98006C20B1D1
:1053B000FFE70F98016C8847FFE7FFE7B3E10D981F
:1053C0000F99C96D01F01F01C8408007002840F106
:1053D000E180FFE79DF830008007002840F1DA8087
:1053E000FFE70F98C06D00F01F0102208840089968
:1053F00048609DF831000006002818D5FFE79DF8A9
:105400003200C00748B9FFE70F98406C20B1FFE7B2
:105410000F98416C8847FFE708E00F98C06B20B1F8
:10542000FFE70F98C16B8847FFE7FFE7B1E09DF802
:1054300030008006002800F1A380FFE70F98006885
:105440001021C4F20201884200F08180FFE70F982A
:1054500000682821C4F20201884278D0FFE70F9843
:1054600000684021C4F20201884270D0FFE70F9823
:1054700000685821C4F20201884268D0FFE70F9803
:1054800000687021C4F20201884260D0FFE70F98E3
:1054900000688821C4F20201884258D0FFE70F98C3
:1054A0000068A021C4F20201884250D0FFE70F98A3
:1054B0000068B821C4F20201884248D0FFE70F9883
:1054C000006840F21041C4F2020188423FD0FFE779
:1054D0000F98006840F22841C4F20201884236D099
:1054E000FFE70F98006840F24041C4F20201884291
:1054F0002DD0FFE70F98006840F25841C4F2020136
:10550000884224D0FFE70F98006840F27041C4F24F
:10551000020188421BD0FFE70F98006840F28841E3
:10552000C4F20201884212D0FFE70F98006840F2EF
:10553000A041C4F20201884209D0FFE70F98006839
:1055400040F2B841C4F20201884207D1FFE70F9848
:105550000168086820F01400086006E00F980168F0
:10556000086820F00A000860FFE70F99012081F821
:105570003500FFE70F99002081F83400FFE7FFE7CF
:105580000F98C06B20B1FFE70F98C16B8847FFE70A
:10559000FFE7C7E00D980F99C96D01F01F01C840E2
:1055A0000007002840F1BC80FFE79DF830000007AD
:1055B000002840F1B580FFE70F9800681021C4F281
:1055C0000201884200F08180FFE70F9800682821DF
:1055D000C4F20201884278D0FFE70F9800684021AA
:1055E000C4F20201884270D0FFE70F98006858218A
:1055F000C4F20201884268D0FFE70F98006870216A
:10560000C4F20201884260D0FFE70F980068882149
:10561000C4F20201884258D0FFE70F980068A02129
:10562000C4F20201884250D0FFE70F980068B82109
:10563000C4F20201884248D0FFE70F98006840F2A8
:105640001041C4F2020188423FD0FFE70F98006882
:1056500040F22841C4F20201884236D0FFE70F9899
:10566000006840F24041C4F2020188422DD0FFE7B9
:105670000F98006840F25841C4F20201884224D0D9
:10568000FFE70F98006840F27041C4F202018842BF
:105690001BD0FFE70F98006840F28841C4F2020176
:1056A000884212D0FFE70F98006840F2A041C4F290
:1056B0000201884209D0FFE70F98006840F2B84124
:1056C000C4F20201884207D1FFE70F980168086819
:1056D00020F01C00086006E00F980168086820F0C0
:1056E0000E000860FFE70F98C06D00F01F01012059
:1056F00000FA01F1089A51600F9948650F9981F8F5
:105700003500FFE70F99002081F83400FFE70F987C
:10571000C06C20B1FFE70F98C16C8847FFE700E03D
:10572000FFE7FFE7FFE700E0FFE7FFE710B080BD1E
:1057300010B58EB00C9002F01FF80A900C9828B9A2
:10574000FFE701208DF8370000F09EBC0C9801683F
:1057500001201022C4F202029142079000F0A380BF
:10576000FFE70C98016801202822C4F2020291424E
:10577000079000F09880FFE70C9801680120402214
:10578000C4F202029142079000F08D80FFE70C986E
:10579000016801205822C4F202029142079000F0F1
:1057A0008280FFE70C98016801207022C4F2020297
:1057B0009142079077D0FFE70C980168012088227A
:1057C000C4F20202914207906DD0FFE70C98016885
:1057D0000120A022C4F202029142079063D0FFE7A9
:1057E0000C9801680120B822C4F20202914207908D
:1057F00059D0FFE70C980168012040F21042C4F232
:105800000202914207904ED0FFE70C9801680120F8
:1058100040F22842C4F202029142079043D0FFE7CF
:105820000C980168012040F24042C4F20202914209
:10583000079038D0FFE70C980168012040F25842E9
:10584000C4F20202914207902DD0FFE70C98016844
:10585000012040F27042C4F202029142079022D02D
:10586000FFE70C980168012040F28842C4F202026E
:105870009142079017D0FFE70C980168012040F291
:10588000A042C4F20202914207900CD0FFE70C98AC
:1058900000684FF64831CBF6FD710844B0FA80F04D
:1058A00040090790FFE70798C007002800F07881BB
:1058B000FFE70C98406A08B1FFE7FFE70C99022068
:1058C00081F83500FFE70C99002081F83400FFE7EC
:1058D0000C9800681021C4F20201884200F0818017
:1058E000FFE70C9800682821C4F20201884278D0B2
:1058F000FFE70C9800684021C4F20201884270D092
:10590000FFE70C9800685821C4F20201884268D071
:10591000FFE70C9800687021C4F20201884260D051
:10592000FFE70C9800688821C4F20201884258D031
:10593000FFE70C980068A021C4F20201884250D011
:10594000FFE70C980068B821C4F20201884248D0F1
:10595000FFE70C98006840F21041C4F2020188424F
:105960003FD0FFE70C98006840F22841C4F20201E2
:10597000884236D0FFE70C98006840F24041C4F2FC
:10598000020188422DD0FFE70C98006840F2584190
:10599000C4F20201884224D0FFE70C98006840F26C
:1059A0007041C4F2020188421BD0FFE70C980068E6
:1059B00040F28841C4F20201884212D0FFE70C98FD
:1059C000006840F2A041C4F20201884209D0FFE71A
:1059D0000C98006840F2B841C4F20201884207D135
:1059E000FFE70C980168086820F00100086006E0F5
:1059F0000C980168086820F001000860FFE7FFE7E5
:105A00000C9800680068C00798B1FFE701F0B4FE89
:105A10000A99401A06280BD3FFE70C992020486505
:105A20000C99032081F8350001208DF837002BE315
:105A3000E6E70C98006800680B900B9848F23F016D
:105A4000CFF6106108400B900C998868D1F80CC013
:105A50000B694A6940EA0C00184310438A691043F5
:105A6000CA691043096A01430B9808430B900C98CC
:105A7000406A042808D1FFE70C99C86A096B014302
:105A80000B9808430B90FFE70C984068292807D330
:105A9000FFE70C98416801202F29069036D3FFE7D5
:105AA0000C9840683F2807D3FFE70C984168012015
:105AB000432906902AD3FFE70C984068472807D36C
:105AC000FFE70C9841680120492906901ED3FFE7A3
:105AD0000C9840684F2807D3FFE70C9841680120D5
