:020000040800F2
:1000000078130024E10300084B6E0008996900088A
:10001000496E0008391600088D960008000000009F
:10002000000000000000000000000000097200084D
:10003000D518000800000000C76F000815720008FE
:10004000FB030008FB030008FB030008FB03000898
:10005000FB030008FB030008FB030008FB03000888
:10006000FB030008FB030008FB030008B1160008AF
:10007000FB030008FB030008FB030008FB03000868
:10008000FB030008FB030008FB030008DD18000861
:10009000FB030008E9180008FB030008FB03000845
:1000A000FB030008FB030008FB030008FB03000838
:1000B000FB03000875730008FB030008FB0300083E
:1000C000FB030008FB030008FB030008FB03000818
:1000D000FB030008FB030008FB030008FB03000808
:1000E000FB030008FB03000800000000FB030008FE
:1000F000FB030008FB030008FB030008FB030008E8
:10010000FB030008FB030008FB030008FB030008D7
:10011000FB030008FB030008FB030008FB030008C7
:10012000FB030008FB030008FB030008FB030008B7
:10013000FB030008FB030008FB030008FB030008A7
:1001400000000000000000000000000000000000AF
:10015000FB030008FB030008FB030008FB03000887
:10016000FB030008FB030008FB030008FB03000877
:10017000FB0300084D6E0008FB03000800000000B0
:10018000FB030008FB030008FB030008FB03000857
:10019000FB030008FB030008FB030008FB03000847
:1001A000FB030008FB030008FB030008000000003D
:1001B000FB030008FB030008FB030008FB03000827
:1001C000FB030008FB030008000000000000000023
:1001D0000000000000000000FB0300080000000019
:1001E000000000000000000000000000000000000F
:1001F0000000000000000000FB030008FB030008F3
:10020000FB030008FB03000800000000FB030008DC
:10021000FB030008FB030008FB030008FB030008C6
:10022000FB03000800000000FB03000800000000C2
:10023000FB030008FB03000800000000FB030008AC
:10024000FB030008FB030008FB030008FB03000896
:10025000FB030008FB030008FB030008FB03000886
:10026000FB030008FB030008FB030008FB03000876
:10027000FB030008FB030008FB030008000000006C
:10028000FB030008FB030008FB030008FB03000856
:1002900000000000FB030008FB0300080000000052
:1002A00000000000FB030008FB030008FB0300083C
:1002B000FB030008FB030008FB030008FB03000826
:1002C000FB030008FB030008FB03000800F002F832
:1002D00000F077F80AA090E8000C82448344AAF169
:1002E0000107DA4501D100F06CF8AFF2090EBAE867
:1002F0000F0013F0010F18BFFB1A43F0010318475A
:1003000098990000D89900000A444FF0000C10F8AA
:10031000013B13F0070408BF10F8014B1D1108BF83
:1003200010F8015B641E05D010F8016B641E01F823
:10033000016BF9D113F0080F1EBF10F8014BAD1C73
:100340000C1B09D16D1E58BF01F801CBFAD505E091
:1003500014F8016B01F8016B6D1EF9D59142D6D3EB
:1003600070470000103A24BF78C878C1FAD8520705
:1003700024BF30C830C144BF04680C60704700001F
:100380000023002400250026103A28BF78C1FBD89E
:10039000520728BF30C148BF0B607047662909F07B
:1003A000E083002070471FB509F0D6FB00F0A0FBEA
:1003B00004000020002109F0B9FBE0601FBD10B56A
:1003C00010BD00F095FC1146FFF7EDFF09F07EFA35
:1003D00000F0B3FC03B4FFF7F2FF03BC00F0EAFC4B
:1003E0000948804709480047FEE7FEE7FEE7FEE7C9
:1003F000FEE7FEE7FEE7FEE7FEE7FEE70448054905
:10040000054A064B70470000B5720008CD0200088F
:10041000780D002478130024780F0024780F00242E
:1004200053EA020C00F069802DE9F04B4FF0000612
:10043000002B1FBFB3FA83F503FA05F424FA05F67F
:100440005E4012BF1643B2FA82F502FA05F4C5F116
:1004500020051EBF22FA05FC44EA0C04203556EAAA
:10046000044C4FEA144418BF641C4FF000084FF0CE
:100470000009904271EB030C39D3002919BFB1FA7E
:1004800081F701FA07F6B0FA80F700FA07F6C7F12C
:1004900020071EBF20FA07FC46EA0C062037B6FBF1
:1004A000F4FCA7EB0507103F07F01F0BCBF120066C
:1004B0000CFA0BFB2CFA06F644BFB3460026202F9D
:1004C000A4BF5E464FF0000B5BEA060C08BF4FF07E
:1004D000010B19EB0B09ABFB027C48EB0608C01BB8
:1004E00006FB02CC0BFB03CC71EB0C01C1E70B4606
:1004F000024641464846BDE8F08B13B54FF0000078
:100500004FF00001AFF30080BDE81C4070470000D1
:100510000FB41CB5074B06AA7B44694600900598AA
:1005200000F0CDFA0020694600F0DCFA1CBC5DF852
:1005300014FB0000C90500002DE9F0410E460446F9
:10054000002020622046E168884730B3252805D086
:10055000D4E901219047206A401CF2E7E168204677
:1005600000278847050018D0A5F14100192802D8B6
:1005700020354FF400673246294620462760FFF7B2
:100580000DFF40B1012804D0F61D26F007060836FD
:10059000D8E7361DD6E72846DAE7206ABDE8F081BD
:1005A00010B5431C02E010F8011B71B18107FAD1AC
:1005B0004FF0013202C88C1A8C4314EAC211F9D0F0
:1005C000C01A0A0603D0C01E10BDC01A10BD0A040E
:1005D00001D0801E10BD0902FCD0401E10BD10B518
:1005E000203AC0F00B80B1E81850203AA0E818502B
:1005F000B1E81850A0E81850BFF4F5AF5FEA027CEC
:1006000024BFB1E81850A0E8185044BF18C918C05A
:10061000BDE810405FEA827C24BF51F8043B40F8FB
:10062000043B08BF7047D20728BF31F8023B48BFE0
:1006300011F8012B28BF20F8023B48BF00F8012B1E
:1006400070474FF0000200B5134694469646203995
:1006500022BFA0E80C50A0E80C50B1F12001BFF47B
:10066000F7AF090728BFA0E80C5048BF0CC05DF8E1
:1006700004EB890028BF40F8042B08BF704748BF2F
:1006800020F8022B11F0804F18BF00F8012B7047A3
:1006900070477047704770472DE9FF4F0C461E4664
:1006A0004FF0FF378BB0D2E90001DDF860800A908F
:1006B0008A46C1F30A5505B93D46002108464FF068
:1006C0000000BAF1000F00F4400005DA00EB8000F2
:1006D0004FF4400101EA50004FEA9059B9F1010F7F
:1006E00000DDB9460A9850EA4A000ED044F6105090
:1006F000A5F2FF3545432F14B8F1000F1ED0754207
:10070000291E1EDDC9F100021CE0B8F1010F4FF0F7
:10071000000001D0302103E0F24305E02154401CE9
:10072000B042FBDB30460022002121540B99C1F876
:100730000880C1E900200FB0BDE8F08FBD1B6D1C23
:10074000DEE74A4600DA694206A800F05BFA06AB2B
:1007500093E8070003AB83E8070050460A9900F0CE
:1007600030FB8DE80700A0F500501F38009003987B
:10077000002D0ADD42F21F014A460844002303A966
:100780000390684600F099FD09E0A0F500504A4644
:100790001F38002303A90390684600F0A3FD8DE8ED
:1007A00007000004000C03D04FF0FF30410800E0C8
:1007B0001046B8F1000F03D00022009215461EE04B
:1007C000751E05D400F098F9303262556D1EF9D5CA
:1007D000B3460122084302D000227F1C04E02078A7
:1007E000302801D100227F1E002A099784D01DE005
:1007F000112D07DA00F080F9303262556D1C50EA95
:100800000102F5D1084302D00098C8B10EE00021E2
:10081000681E05E0235C625C63542254401E491C40
:100820008142F7DBAB46A81B401E0990002004F86C
:100830000B000B98099AC0F80880C0E9002B7AE7F2
:1008400011264FF0000857E72DE9F04F884604467F
:10085000D21D22F0070191B0D1E90001CDE90A01D2
:1008600008F015FF02460B98C00F01D02D2007E0BD
:100870002068810701D52B2002E0202101EAC00079
:10088000032A099001D0072A05DB0346414620468A
:1008900000F078F90BE12078800601D5E06900E0EE
:1008A0000620B8F1650F814606D0B8F1660F18D062
:1008B000B8F1670F70D131E00020B9F1110F00904D
:1008C00001DB112301E009F101030AAA01A90CA827
:1008D000FFF7E2FEDDE90C70002609F10105834611
:1008E00047E001204B4600904FF000470AAA01A9BB
:1008F0000CA8FFF7D1FEDDE90DB00C995D4600268E
:1009000010B909F101000D18B9EB050003D4C0F1CD
:10091000FF3609F10105A5EB09002BE0B9F1010F44
:1009200001DA4FF001090020B9F1110F009048469B
:1009300001DD112300E003460AAA01A90CA8FFF774
:10094000ABFEDDE90C704D4600268346207800079B
:100950000AD4AB4500DA5D4601A8012D04DD41193A
:1009600011F8011C302907D04F4502DA17F1040FA6
:1009700004DA012082460FE06D1EEEE7002F02DC54
:10098000ED1B3E4403E0781CA84200DD7D1CB81B33
:1009900000F1010A4FF000472078000703D4AA4570
:1009A00001DB4FF0FF3A0021B7F1004F0DF1430892
:1009B0008DF8431024D002202B23002F01DA7F4230
:1009C0002D230A21021EA0F1010000DC5FB197FB7C
:1009D000F1FC97FBF1F201FB1C7C17460CF1300C8B
:1009E00008F801CDEEE7A8F10100037021880905A0
:1009F00001D5452100E06521A0F1010800F8011CA6
:100A000009980FA9A1EB0807FF1D00B101204119AA
:100A100001EBEA70A1693844081A401EA0612078F1
:100A2000C00602D42046AFF30080099828B1D4E96B
:100A300001219047206A401C20622078C00622D500
:100A40002046AFF300801EE0002E04DBB34502DD3C
:100A500001A8805D00E03020D4E901219047206AA0
:100A6000401C2062761CAAF101005FEA000A0AD14C
:100A700000F03EF8C0680168405CD4E9012190476D
:100A8000206A401C2062281EA5F10105DCDC07E07D
:100A9000D4E9012118F8010B9047206A401C20621C
:100AA000381EA7F10107F3DC2046AFF300800320D6
:100AB00011B041E601694A1C02610878704700B52F
:100AC0008FB0CDE901310021059105497944CDE987
:100AD000031011466846FFF72FFD0FB000BD000060
:100AE000E5FFFFFF0A6802F8010B0A60704700008B
:100AF00000487047340D002430B5B0F10A024FEAC7
:100B0000900E71F100034EEA817EB0EB0E0061EBB6
:100B100091014FEA101E4EEA017E10EB0E0041EBF0
:100B200011114FEA102E4EEA016E10EB0E0041EB50
:100B300011214FEA104E4EEA014E10EB0E0041EB30
:100B40001141401841F100014FEAD00040EA4170E4
:100B50004FEAD10110EB80054FEA810444EA90741A
:100B600044EB01046D1944EB0404521BA3414FF004
:100B7000000348BF0A3200D530BD401C41F10001DE
:100B800030BD00002DE9F0411F46044603260168F0
:100B9000072A01F4006004DB08B116A505E016A5DC
:100BA00003E008B115A500E015A521F010002060B4
:100BB000A069C01EA0610FB1401EA0612046AFF326
:100BC00000804FB1D4E9012138469047206A401C8B
:100BD0002062C01C206206E0206AFAE7D4E9012105
:100BE00015F8010B9047761EF8D22046AFF300802F
:100BF000BDE8F0814E414E006E616E00494E4600E8
:100C0000696E66002DE9F047814616468AB0354880
:100C100078440DC88DE80D0032487844801C03AC40
:100C20000DC884E80D0041F69B300844372190FB45
:100C3000F1F290FBF1F5A5F1800501FB12041B3CDC
:100C400002D56442012000E00020DFF898A0804631
:100C50000027FA44AAF1BE0A0EE0E0070AD03246A5
:100C6000684607EB470101230AEB810100F03AFBDC
:100C70008DE8070064107F1C002CEED1194F7F44D3
:100C8000AE3F19E0E80715D007EB04100DF1180A84
:100C900090E80E008AE80E00C068F04201D1981971
:100CA00008903246012306A903A800F01BFB03AB02
:100CB00083E807006D10641C002DE3D14FF00103A1
:100CC00032466946B8F1000F03A802D000F0F5FAE9
:100CD00001E000F007FBC9E90001C9F808200AB0EB
:100CE000BDE8F0876C90000000487047140D0024A8
:100CF0007546FFF7F9FFAE4605006946534620F0FA
:100D00000700854618B020B5FFF778FBBDE8204006
:100D10004FF000064FF000074FF000084FF0000BB7
:100D200021F00701AC46ACE8C009ACE8C009ACE86A
:100D3000C009ACE8C0098D46704710B50446AFF352
:100D400000802046BDE81040FFF744BB4FF0013C57
:100D500050F8042B51F8043B9A4215D1A2EB0C0336
:100D6000934313EACC130BD150F8042B51F8043BF6
:100D70009A4209D1A2EB0C03934313EACC13E7D0B8
:100D80004FF00000704700BFD01A01BAB1FA81F1EC
:100D900001F0180122FA01F0CB40C1F12001DBB2D1
:100DA000C0B2C01A2CFA01F3D11A914311EAC3114F
:100DB000E6D1704701491820ABBEFEE726000200CD
:100DC00070475FEA400C08BF91F0000F4FEA8C2398
:100DD0004FEAC12243EA51514FEA1C5018BF00F5B7
:100DE000F0404FEA300018BF41F000415FEA6C5C10
:100DF00000F02980BCF1FF3F08BF40F08040704701
:100E0000130C06BF12044FF0100C4FF0000C130E21
:100E100004BF12020CF1080C130F04BF12010CF1F5
:100E2000040C930F04BF92000CF1020CD30F04BF0B
:100E300052000CF1010C11464FF00002A0F11F000E
:100E4000A0EB0C00704711F0004F08BF704731F065
:100E500000413FF4D5AF0B0C06BF09044FF0100C56
:100E60004FF0000C0B0E04BF09020CF1080C0B0F25
:100E700004BF09010CF1040C8B0F04BF89000CF1B5
:100E8000020CCB0F04BF49000CF1010CCCF1200384
:100E9000A0EB0C0022FA03F302FA0CF241EA030180
:100EA00000F10100704720F07F4C80EA030023F03E
:100EB0007F47ACEB070303F57C5300F0004003F1E0
:100EC000FF032DE980494FEA154B09B44FEA14435B
:100ED00025EA0B4E24EA03480FF2042606EB1327FB
:100EE00049083E785FEA320203FB0667C7F5000750
:100EF00007FB06F64FEA54374FEAD64606F10206DC
:100F000007FB066CCCF1005C4FEA1C472CEA074C4F
:100F100007FB06F40CFB06F504EB15464FEA9616A4
:100F200034BF00204FF000404FEAD13706FB07FCEA
:100F30004FEA1C4C0CFB0BF7D21B03FB0CF761EBCD
:100F400007010CFB0EF7B0EB074072EB17420CFBEE
:100F500008F734BFA2EB0742B2EB074261EB17413F
:100F60004FEA0C444FEA910706FB07FC4FEA1C4C82
:100F70000CFB0BF7B0EBC74072EB573203FB0CF7DF
:100F800034BFA2EBC742B2EBC74261EB57310CFB57
:100F90000EF7B0EBC70072EB57720CFB08F734BFCB
:100FA000A2EBC702B2EBC70261EB5771039F4FEA96
:100FB000816141EA921104EBCC044FEAD1374FEA48
:100FC000826206FB07FC42EA90124FEA80604FEA19
:100FD0001C4C0CFB0BF7D21B03FB0CF761EB07015E
:100FE0000CFB0EF7B0EB074072EB17420CFB08F757
:100FF00034BFA2EB0742B2EB074261EB17414FEA65
:101000008C554FEA910704EB9C2406FB07FC4FEA42
:101010001C4C0CFB0BF7B0EBC74072EB573203FBD9
:101020000CF734BFA2EBC742B2EBC74261EB5731BA
:101030000CFB0EF7B0EBC70072EB57720CFB08F716
:1010400034BFA2EBC702B2EBC70261EB577115EBDD
:101050004C254FEA816141EA92114FEA82624FEAE0
:10106000D13742EA901206FB07FC44F100044FEA34
:1010700080604FEA1C4C0CFB0BF7D21B03FB0CF7F8
:1010800061EB07010CFB0EF7B0EB074072EB174268
:101090000CFB08F734BFA2EB0742B2EB074261EB4F
:1010A000174115EB1C154FEA813141EA92414FEA95
:1010B000823242EA90424FEA80304FEA0C7644F1A5
:1010C000000448EA03434EEA0B484FF0000EB2EB2F
:1010D000080C71EB030724BF624639464EEB0E0E37
:1010E0004FF0000B0018524149414BEB0B0BB2EB98
:1010F000080C71EB03077BF1000B24BF62463946F5
:101100004EEB0E0E4FF0000B0018524149414BEBD5
:101110000B0BB2EB080C71EB03077BF1000B24BF48
:10112000624639464EEB0E0E51EA020718BF46F0F2
:10113000010616EB0E7655F1000254F1000103D5BD
:10114000BDE88901BDE80088BDE88901BDE8004827
:10115000B619524141EB0101A3F1010370478080B0
:101160007F7E7D7C7B7A7978777676757473727101
:1011700071706F6E6E6D6C6C6B6A6A6968686766B9
:1011800066656464636362616160605F5F5E5E5D4B
:101190005D5C5C5B5B5A5A595958585757565655BF
:1011A00055555454535352525251515050504F4F21
:1011B0004F4E4E4D4D4D4C4C4C4B4B4B4A4A4A4971
:1011C00049494848484747474746464645454544B4
:1011D0004444444343434342424242414141002B41
:1011E0009C4630D477002BD01CB54FEA370703B4A8
:1011F0004FF010004FF01001BAF1000F06D0BCF113
:10120000000FDCBF40F0080040F008014FF0000084
:101210000FBCBDE810400BF1010BBBF1010F08BF83
:101220005FEA170722BF12F1010211F101014FF02D
:10123000004143F1000300F0004043EA0000704722
:10124000F9D35708D0E746EA064613F1400F4FEAB4
:1012500016461FDD13F1200FDFBF16430A4600219B
:1012600020335B42BED0C3F1200746EA064602FAAD
:1012700007F74FEA164646EA0706C3F1200722FAA7
:1012800003F201FA07F721FA03F14FF0000342EAF3
:101290000702A7E746EA020646EA06464FEA16466E
:1012A00046EA0106BCBF46EA0646360C4FF000038C
:1012B0004FF000024FF0000194E72DE9804C9A4670
:1012C000934670B491E8380007C831EA400C48BF33
:1012D00034EA430C03D5FFF7E6FDFFF780FFF0BCCF
:1012E000BDE8008C2DE9804C9A46934670B491E895
:1012F000380007C810F0804F08BF13F0804F03D1AB
:1013000000F005F8FFF76BFFF0BCBDE8008C20F0A3
:101310007F4780EA030023F07F4C07EB0C03A3F523
:101320007C5300F00040A3F1FE0392F0000F00F0A8
:10133000B38095F0000F00F077802DE901494FEA66
:1013400011404FEA144621EA004800FB06FC24EA5B
:10135000064708FB06F607FB08F800FB07F718EB43
:1013600006484CEB164C4FEA124B18EB07484FEA75
:1013700015464CEB174022EA0B4E0BFB06FC25EA08
:1013800006470EFB06F607FB0EFE0BFB07F71EEBF0
:10139000064E4CEB164C4FF000061EEB074E4CEB86
:1013A000174B18EB0B0840F1000018EB0E0B58EB35
:1013B000000840F100008F1A4FF000013CBFC94304
:1013C000661B14BFB5EB040C00213CBFC943F61BE0
:1013D0004FEA17444EEA8E0E27EA04454FEA1C47AF
:1013E00004FB07622CEA074C05FB07F70CFB05F62C
:1013F00004FB0CFC16EB074642EB174216EB0C46BF
:1014000042EB1C421BEB060658EB0202414146EA46
:101410009E0601D5BDE80189B619524141EB010193
:10142000A3F10103BDE801894FEA14454FEA1147D2
:1014300024EA054621EA074C05FB07F406FB07F7FB
:101440000CFB06F105FB0CFC11EB074144EB1744C8
:101450004FEA124711EB0C4144EB1C4422EA074CC3
:1014600005FB07F206FB07F70CFB06F605FB0CFC79
:1014700016EB074642EB174216EB0C4642EB1C45B7
:101480006A1854F1000148BF7047B619524141EB48
:101490000101A3F10103704795F0000F37D04FEA27
:1014A00011424FEA144721EA024624EA074C02FBA4
:1014B00007F106FB07F70CFB06F402FB0CFC14EB30
:1014C000074441EB17414FEA154714EB0C4441EB3D
:1014D0001C4125EA074C02FB07F506FB07F70CFB4E
:1014E00006F602FB0CFC16EB074645EB174516EB20
:1014F0000C4645EB1C42121951F1000148BF7047E0
:10150000B619524141EB0101A3F1010370474FEAC3
:1015100014454FEA114724EA054621EA074C05FB2A
:1015200007F106FB07F70CFB06F24FF0000605FB80
:101530000CFC12EB074241EB174112EB0C4251EB52
:101540001C4148BF7047921841EB0101A3F1010310
:101550007047000010B5324904460068884202D046
:10156000304A904202D1D1F8080302E02E48D0F868
:10157000080310F4403F10D004F08CFA6168B1F514
:10158000803F06D0B1F5003F03D0B1F5403F26D1F2
:1015900001E0090C17E0800821E000214FF4002051
:1015A00003F05EFB61688A03920B18D18A140C2A3F
:1015B00015D2DFE802F0140606060606060B0D0F2C
:1015C0001113890C4900B0FBF1F008E0000906E0B6
:1015D000400904E0800902E0C00900E0000A134964
:1015E0004008884204D82068816821F4407108E0EE
:1015F0000F49884207D82068816821F4407141F47E
:101600008071816010BD0B4988422068816804D8D0
:1016100021F4407141F40071F3E741F44071F0E7C7
:10162000002002400021024000600258105E5F006E
:1016300020BCBE0040787D01FEE7002070470020FE
:101640007047000005490022054810B506F05CFC13
:101650000449034806F04BFC002010BD6C0B002031
:101660000C0300246C0300200146044810B506F06A
:101670003EFC024806F014FC002010BD0C030024C0
:1016800000207047094A10B5D2F8BC22D2F81422C3
:101690000AB1012010BD0A460146044806F034FC98
:1016A000BDE81040014806F0A5BC00000C03002472
:1016B000014800F01FBF000060010024294A0168B2
:1016C00091423AD0274A1832914236D0254A3032D8
:1016D000914232D0234A483291422ED0214A603280
:1016E00091422AD01F4A7832914226D01D4A903228
:1016F000914222D01B4AA83291421ED01A4A9142EE
:101700001BD0194A1832914217D0174A30329142F1
:1017100013D0154A483291420FD0134A6032914299
:101720000BD0114A7832914207D00F4A9032914241
:1017300003D00D4AA832914211D1CAB21823103AEF
:10174000B2FBF3F26FF30901032A02F00703074A21
:10175000D25CC26500D9091D81650846704721F039
:10176000FF01F9E71000024010040240669B0008E8
:1017700030B5224A012301689142CAB21BD01F4CE6
:101780001434A14217D01D4C2834A14213D01B4C55
:101790003C34A1420FD0194C5034A1420BD0174C0D
:1017A0006434A14207D0154C7834A14203D0134CC5
:1017B0008C34A1420CD11421114C083AB2FBF1F146
:1017C0000F4A803201F01F0504EB8101AB4010E0AD
:1017D0000C4D1824103A0D44B2FBF4F1A82D00D89A
:1017E0000831094A01F01F0402EB8101064AA340B7
:1017F0008032603080E80E0030BD0000085402588E
:1018000000580258F0FBFDBF0008024010B50279F5
:10181000531E072B2DD8174C0168A1421BD0154C25
:101820001434A14217D0134C2834A14213D0114CC8
:101830003C34A1420FD00F4C5034A1420BD00D4C80
:101840006434A14207D00B4C7834A14203D0094C38
:101850008C34A14203D10849074C443102E00749C6
:10186000064C443104EB8202C0E91B21012199405E
:10187000416710BD08540258FC580258FC08024049
:1018800010B583694FF0C074826A0146002053B1DD
:10189000B3F5005F15D072B1012A0CD0022A0AD02C
:1018A000032A09D104E01AB1012A06D0022A03D181
:1018B000C96AC90100D5012010BDC96AA142FAD088
:1018C00010BD002AF7D0012AF2D0022AF3D0032A51
:1018D000F3D010BD704772B6FEE70000014801F07A
:1018E000F7BC0000D8010024014801F0F1BC000061
:1018F000D8010024F0B503684FF6FC716D4C426BC3
:10190000D3F884508D4345EA8205C3F884500368B8
:1019100053F8845F068F25F47F0545EA06451D6070
:10192000836B654D9F180268D2F888308B4343EA79
:101930008703C2F88830026852F8883F868F23F404
:10194000FE0343EA06431360066856F8A03FC26BE5
:101950008B4307EB420243EA82033360076857F880
:10196000A03FB0F8406023F4FE0343EA06433B6027
:10197000D0E9103603FB06220368D3F8B0608E432B
:1019800046EA8206C3F8B0600368B0F84860D3F84E
:10199000B07027F4FE0747EA0646C3F8B060D0E906
:1019A0001267036806FB0722D3F8AC608E4346EA51
:1019B0008206C3F8AC60D0E91467036806FB07220F
:1019C000D3F8F0608E4346EA8206C3F8F0600368FD
:1019D000B0F85860D3F8F07027F47C1747EA064651
:1019E000C3F8F0600368876D53F8C06F02EB4702DD
:1019F0008E4346EA820119600168B0F85C20D1F894
:101A0000C03023F47C1343EA0242C1F8C0200168CD
:101A100090F86020D1F8C03023F07C5343EA026292
:101A2000C1F8C020416B04EB8101C166826B01EB00
:101A300082020267C36B02EBC3024267D0E9103433
:101A4000634302EB83028267D0E91234634302EB03
:101A50008302C267D0E91434634302EB8302C0F807
:101A60008020836D02EBC303C0F88430C46D826EA6
:101A7000544303EB8403C0F88830046E544303EBF3
:101A80008402C0F89020AA420AD9D0F89C200321F1
:101A900042F02002C0F89C2080F898100120F0BD90
:101AA000002200E004C1D0F890308B42FAD8002028
:101AB000F0BD000000AC0040FCD300402DE9F04731
:101AC0000F4690F85C109CB0044601294FF00009C5
:101AD00015D00026DFF8F880012084F85C00189605
:101AE0001996216841450ED13A4D0095284604F0DB
:101AF000A5FF8246206804F0A1FF60B10EE002203D
:101B00001CB0BDE8F087206E84F85C6040F02000D7
:101B100020660120F4E7BAF1000F09D0216E4FF0E2
:101B2000010941F020002066484684F85C60E7E740
:101B300020684146884201D0A84201D1264800E0F1
:101B4000264840F61F72D7F800C0254BBCF1000FA5
:101B500023D0D0F808C0D7F804802CF4404C4CEACD
:101B6000080CC0F808C0D4F800C08C4501D0AC45C2
:101B700007D18968AB6801F0010103F00103194343
:101B800002E0996801F001010029CDD1BD683968F2
:101B9000836829439343194317E0876827F4404734
:101BA000876027688F4201D0AF4207D18968AB6850
:101BB00001F0010103F00103194302E0996801F00B
:101BC00001010029B0D1816891438160ACE7000038
:101BD000002002400021024000230240006302581E
:101BE000006002582DE9F84F4FF0000B0446FD4EFF
:101BF0000D46CDF800B0DA4690F85C00FA4F0128A7
:101C000008D04FF0010984F85C90206804F012FFBE
:101C100018B152E20220BDE8F88F2068B0420DD022
:101C20002968C2690B0327D091FAA1F1B1FA81F1B9
:101C300001F01F0309FA03F10A43C261D5E900125A
:101C40004FF00C0C20681F23C1F384610CEA921C36
:101C500002F01F02604493409140026B9A430A4392
:101C60000263206804F0E6FE8046206804F0DEFE91
:101C700058EA000003D048E1C1F38461D8E7AA68BC
:101C80002968206804F0DEFE2068B04204D1C268F2
:101C90006969C2F3C1020BE0D44A1268B9EB127F42
:101CA00002D0C168C90605D4C2686969C2F382025C
:101CB000520004E0C268696902F0100252089140C3
:101CC0002A69042A5AD02B6800EB8202B04202F142
:101CD000600207D103F0F8401368084340F0004069
:101CE000106008E0D2F800C003F0F84008430CF0A0
:101CF0000041014311602068B0421CD12A69E969A2
:101D000000EB8200026E22F080720A43026695F8B0
:101D1000201020682A6901290AD00021B042AAD1E6
:101D200000EB8200026E22F000720A430266ECE0D1
:101D30004FF00071F2E795F821102A69012917D0B8
:101D40005FF0000100EB8200026E22F000420A43C5
:101D50000266287E21682A6901280CD000200B69C0
:101D600002F01F02904023F4F04202430A61CCE0EB
:101D70004FF00041E6E74FF40060F0E7B04273D166
:101D8000002104F04DFE000320684FF000016DD0EB
:101D900004F046FE90FAA0F0B0FA80F12868020341
:101DA00069D090FAA0F0B0FA80F0814204D100220C
:101DB0002068114604F056FE2068012104F030FE30
:101DC000000320684FF0010158D004F029FE90FA7A
:101DD000A0F0B0FA80F12868020354D090FAA0F085
:101DE000B0FA80F0814204D120680022012104F081
:101DF00039FE2068022104F013FE000320684FF032
:101E0000020143D004F00CFE90FAA0F0B0FA80F189
:101E1000286802033FD090FAA0F0B0FA80F0814227
:101E200004D120680022022104F01CFE2068032156
:101E300004F0F6FD000320684FF003012ED004F0FB
:101E4000EFFD90FAA0F0B0FA80F1286802032AD0E2
:101E500090FAA0F0B0FA80F0814256D120680022BA
:101E6000032104F0FFFD50E020E0FFE704F0D8FD7F
:101E7000C0F3846192E7C0F3846096E704F0D0FD7C
:101E8000C0F38461A7E7C0F38460ABE704F0C8FD4A
:101E9000C0F38461BCE7C0F38460C0E704F0C0FD18
:101EA000C0F38461D1E7C0F38460D5E7016E2A787E
:101EB00001F0F841B1EB826F03D1016E21F00041D6
:101EC000016620682978426E02F0F842B2EB816F19
:101ED00003D1416E21F00041416620682978826E6D
:101EE00002F0F842B2EB816F03D1816E21F0004124
:101EF000816620682978C26E02F0F842B2EB816FE9
:101F000003D1C16E21F00041C1662068816811F0E3
:101F1000010F71D1364AB042EB6829680FD1D0F871
:101F2000B0C003F01808C1F3130322FA08F20A4004
:101F30002CEA030C4CEA020CC0F8B0C00EE0D0F85A
:101F4000C0C003F01808C1F3130322FA08F20A40D4
:101F50002CEA030C4CEA020CC0F8C0C02548E96822
:101F600081427DD1286801031BD090FAA0F1B1FA1B
:101F700081F1491C01F01F0109294FEA00313CD8C9
:101F8000002911D090FAA0F1B1FA81F101F101011B
:101F900001F01F0109FA01F209D100BFC0F3846109
:101FA00009E0C0F38461E4E7C0F38461EEE790FAEE
:101FB000A0F1B1FA81F101F1010101F01F0142EA42
:101FC000816102D1C0F3846003E090FAA0F0B0FA1E
:101FD00080F000F1010000F01F0000EB400041EA3A
:101FE000005140E000600258002102400010005CF7
:101FF000FFFF0F000000FF4765E000290FD000BF82
:1020000090FAA0F1B1FA81F101F1010101F01F0193
:1020100009FA01F206D100BFC0F3846106E0C0F303
:102020008461F1E790FAA0F1B1FA81F101F10101C7
:1020300001F01F0142EA816102D1C0F3846003E034
:1020400090FAA0F0B0FA80F0434A00F1010000F0ED
:102050001F0000EB400002EB005041EA000100E0ED
:1020600005E041F00071AA68206804F0EBFCD5F8A7
:1020700000C0BCF1000F26DA384B20683849DFF881
:10208000E490984201D0B84201D10A4600E04A46A5
:102090009268984202F0E07201D0B84209D19D687E
:1020A000D7F8088005F0010508F0010845EA0805A1
:1020B00002E0B56805F001054DB1216E4FF0010A4F
:1020C00041F020002066504684F85CB0A3E5264D20
:1020D000AC451CD115021AD4B042F4D1984202D0BA
:1020E000B84200D049468B6842F4000023F0E07209
:1020F00002438A601E491D480968B1FBF0F04000A8
:10210000801C00E0401E00900028FBD1DBE7194D49
:10211000AC450CD1D5010AD4B042D4D1984202D0FA
:10212000B84200D049468B6842F080700EE0124DF4
:10213000AC45C8D15502C6D4B042C4D1984202D0F1
:10214000B84200D049468B6842F4800023F0E07228
:1021500002438A60B7E70000000020FE0020024032
:102160000023024000630258000052C7400D0300E4
:10217000B0000024000021C3000084CB2DE9F84307
:102180004FF0000504002E46009502D0206E18B1D5
:1021900008E00120BDE8F883204600F043F96566B9
:1021A00084F85C5020688168C1F3407119B181687E
:1021B0008E4A1140816020688168C1F3007181B945
:1021C00081688B4A114041F0805181608A49894879
:1021D0000968B1FBF0F0401C00E0401E00900028B0
:1021E000FBD120688168C1F3007141B9216E0126DD
:1021F00041F010012166616E41F00101616604F059
:1022000019FC216EC90600D420B1206E012640F0D1
:102210001000E0E0206E20F4807040F002002066A4
:1022200020688168754D11F0010F1ED1744B754AFD
:10223000984201D0904207D19968976801F0010156
:1022400007F00107394302E0A96801F0010161B913
:10225000984201D0904201D16B4800E06B488268FF
:10226000616822F47C120A4382602168A9421FD16E
:10227000637ED4E90207E26B5B033A43082805D08A
:102280000C280FD01C280FD018280FD05FF00000AA
:1022900000F00C0794F8200043EA47031A4342EA8F
:1022A00000400FE00420F3E70820F1E71C20EFE7EF
:1022B000627E94F82030A768E06B520342EA034242
:1022C0003843104394F82020012A04D1A28C504BAB
:1022D00003EB42421043A26A2AB1E36A02F4787225
:1022E000024343EA0200CA68A9420BD1494B1A4093
:1022F0000243CA602068626B016921F040611143AA
:10230000016103E0444B1A400243CA60206804F0B4
:1023100091FB0746206804F089FB07434ED12068F3
:10232000A946484506D1217E94F83820890341EA20
:10233000420103E0227E216B41EA8231C26844F20D
:1023400003039A430A43C26094F8440001282068BA
:1023500003D0016921F0010122E048450ED1D4E902
:10236000121CD4E9143502692C4F41EA0C012B43AD
:102370003A401943114341F0010111E0D4E9131728
:10238000B4F848C0DFF89880636D026908EB0C4C24
:10239000224D394343EA0C036D1E2A401943114371
:1023A00001612068236C026922F070421A430261C5
:1023B0002068484502D02046FFF7CCF82069012864
:1023C00020680BD0016B21F00F010163206E20F01B
:1023D000020040F0010020663046DBE6E269016B56
:1023E000521E21F00F011143EFE70000C0FFFF5F15
:1023F000C0FFFF7F400D0300B000002400600258C2
:1024000000200240002102400023024000630258E5
:102410000000FEFF0740F0FF03C0F0FF1FF800FCC4
:102420000100FFFFF0B5B5B0064614212EA8FEF757
:1024300008F9B8216846FEF704F92949306888424E
:102440004CD1022000224FF400210091CDE901205F
:102450001023154606AACDE90330C024059082E872
:10246000310068460995289502F048FD08B1FFF74C
:1024700032FA1C48016841F020010160006800F058
:102480002000339017480830016841F001010160D5
:1024900000682EAA032100F001003390202082E87A
:1024A000230011482EA901F049FA104C09211048C7
:1024B0004FF4807C021584E82300D700C4E903525E
:1024C000C3142046C4E907C56562C4E9053700F0B6
:1024D00085FB08B1FFF7FFF9B465A66335B0F0BD21
:1024E00000200240D8440258000002586001002435
:1024F000100002402DE9FC5F0446F74E0020DFF893
:10250000D88300904FF41652F44808F11808A56DCE
:10251000DFF8C493DFF8C0A3016809F1300920682F
:102520000AF1480AB1FBF2F1B04201912F68D5F8E7
:1025300000C0DFF8ACB335D04146884232D04845C0
:1025400030D050452ED058452CD0E549183188421E
:1025500028D0E3493031884224D0E14948318842CB
:1025600020D0E04988421DD0DE491831884219D078
:10257000DC493031884215D0DA494831884211D0DF
:10258000DFF860E30EF1600E70450BD0D54A78326B
:10259000904207D0D34B9033984203D0D149A83111
:1025A00088427DD194F85C20082102F01F0201FAD4
:1025B00002F23A424AD0B04232D0404530D048458B
:1025C0002ED050452CD058452AD0C54A18329042BA
:1025D00026D0C34A3032904222D0C14A483290427B
:1025E0001ED0C04A90421BD0BE4A1832904217D02B
:1025F000BC4A3032904213D0BA4A483290420FD08F
:10260000B84A603290420BD0B64A7832904207D036
:10261000B44A9032904203D0B24AA832904203D1D9
:10262000026802F0040202E0026802F008026AB1E5
:10263000026822F00402026094F85C0000F01F00BF
:102640008140A960606D40F00100606594F85C0015
:10265000012100F01F008140394240D02068B04283
:1026600034D0404532D0484530D050452ED0584522
:102670002CD09B4A1832904228D0994A303290424E
:1026800024D0974A4832904220D0964A90421DD09A
:10269000944A1832904219D0924A3032904200E067
:1026A000AFE113D08F4A483290420FD08D4A60324A
:1026B00090420BD08B4A7832904207D0894A9032B0
:1026C000904203D0874AA83290427DD1406910F0F1
:1026D000800F04D0A960606D40F00200606594F83E
:1026E0005C00042100F01F00814039423ED0206888
:1026F000B04232D0404530D048452ED050452CD045
:1027000058452AD0764A1832904226D0744A303240
:10271000904222D0724A483290421ED0714A904272
:102720001BD0704A1832904217D06E4A3032904215
:1027300013D06C4A483290420FD06A4A60329042BD
:102740000BD0684A7832904207D0664A9032904265
:1027500003D0644AA83290424ED1006810F0020FB4
:1027600004D0A960606D40F00400606594F85C00DE
:10277000102100F01F008140394258D02068B0423B
:1027800034D0404532D0484530D050452ED0584501
:102790002CD0534A1832904228D0514A30329042BD
:1027A00024D04F4A4832904220D04E4A90421DD009
:1027B0004C4A1832904219D04A4A3032904215D0D1
:1027C000484A4832904200E014E00FD0454A603257
:1027D00090420BD0434A7832904207D0414A90321F
:1027E000904203D03F4AA832904207D1006800F0DF
:1027F000080006E0006872E70068B7E7006800F0CC
:102800000400A0B1A96020680168490304D50068EC
:10281000000308D5A16C07E00168C90503D401686D
:1028200021F008010160216C09B12046884794F825
:102830005C00202100F01F008140394279D02068DF
:10284000B04232D0404530D048452ED050452CD0F3
:1028500058452AD0224A1832904226D0204A303297
:10286000904222D01E4A483290421ED01D4A9042C9
:102870001BD01C4A1832904217D01A4A303290426C
:1028800013D0184A483290420FD0164A6032904214
:102890000BD0144A7832904207D0124A90329042BC
:1028A00003D0104AA832904203D1006800F0100013
:1028B00002E0006800F00200B0B3A96094F83500AF
:1028C0000428206801680FD049037ED50068000302
:1028D0002BD4616C2AE0000010000240B0000024FC
:1028E000700002401004024021F0160101602068CF
:1028F000416921F080014161206C08B9A06C20B1D0
:102900002068016821F00801016094F85C303F21E3
:10291000012003F01F0300229940A96084F83500CC
:1029200084F83420216D65E003E0E16B09B12046B5
:102930008847606D00287DD0606DC00759D0206841
:10294000042184F83510B0422BD0404529D04845A9
:1029500027D0504525D0584523D09D49884220D0C6
:102960009B49183188421CD099493031884218D08F
:102970009849884215D097491831884211D0954915
:10298000303188420DD093494831884209D091496D
:102990006031884205D08F497831884201D08D4915
:1029A0009031016821F00101016020680099019ACD
:1029B000491C0091914202D80168C907F6D100680C
:1029C000C00710D003200FE0FFE70168C905ACD4B1
:1029D00003680121002223F01003036084F83510FE
:1029E00084F83420A1E7012084F83500002084F821
:1029F0003400E16C00291DD002B02046BDE8F05F34
:102A00000847754988421DD073491431884219D04E
:102A100071492831884215D06F493C31884211D024
:102A20006D49503188420DD06B496431884209D0DC
:102A3000694900E084E07831884203D066498C31EE
:102A400088427DD194F85C800427016808F01F0853
:102A500007FA08F717EA0C0F009746D04F0744D53E
:102A600000980F04686003D5C8033CD4A16CC1E78B
:102A7000880638D42068B0422DD055496039884244
:102A800029D0484527D0504525D0584523D0504916
:102A9000884220D04E49183188421CD04C493031F0
:102AA000884218D04B49884215D04A49183188428B
:102AB00011D04849303188420DD0464948318842CA
:102AC00009D0704507D0904205D0984203D04149C3
:102AD000A831884203D1016821F0080102E00168B1
:102AE00021F004010160216C84E7022707FA08F74E
:102AF00017EA0C0F00974ED08F074CD500980F04A3
:102B0000686003D5C80344D4616C73E7880640D479
:102B10002068B0422FD02E49603988422BD04845DA
:102B200029D0504527D0584525D02949884222D060
:102B30002749183188421ED025493031884200E0AB
:102B400044E018D02349884215D0224918318842E0
:102B500011D02049303188420DD01E494831884279
:102B600009D0704507D0904205D0984203D019494A
:102B7000A831884203D1016821F0140102E0016804
:102B800021F00A010160012184F83510002084F849
:102B90003400E16B2EE7082202FA08F212EA0C0F69
:102BA00014D0090712D5016821F00E01016094F8D4
:102BB0005C100120002201F01F0100FA01F16960A0
:102BC000606584F8350084F8342012E7BDE8FC9F86
:102BD0008800024010040240085402582DE9F05FBA
:102BE000044600F0C3FF002C07467DD0E24E0221D0
:102BF00020684FF00308DFF884934FF00005DFF8FA
:102C000080A3B042DFF87CB334D0DB4A1832904264
:102C100030D048452ED050452CD058452AD0D94ADE
:102C20001832904226D0D74A3032904222D0D54A2C
:102C3000483290421ED0D44A90421BD0D24A183219
:102C4000904217D0D04A3032904213D0CE4A483208
:102C500090420FD0CC4A603290420BD0CA4A7832B0
:102C6000904207D0C84A9032904203D0C64AA83258
:102C700090427DD184F83510B04284F834502ED083
:102C8000BD49183188422AD0484528D0504526D021
:102C9000584524D0BB491831884220D0B949303139
:102CA00088421CD0B7494831884218D0B64988427A
:102CB00015D0B5491831884211D0B3493031884216
:102CC0000DD0B1494831884209D0AF4960318842BE
:102CD00005D0AD497831884201D0AB4990310168C7
:102CE00021F00101016008E025E100BF00F03EFF96
:102CF000C01B052801D920211AE120680068C007FF
:102D0000F4D1D4E902032168103418438E4694E8C4
:102D10008410D4E9033809683A4310439B4A40EAD7
:102D20000C00676918431140103C40EA0800042F6A
:102D300040EA010003D1D4E90B1211430843616852
:102D4000A1F12902052A0BD9163A032A08D9083A13
:102D5000012A05D9083A032A02D97439032901D86E
:102D600040F48010CEF800002068676A406900E0F7
:102D700020E0042F20F0070047EA00070DD1D4E936
:102D80000A01074349B12046FEF77AFD28B14020E9
:102D90006065012184F83510CDE020684761204648
:102DA000FEF78CFC94F85C203F2102F01F0291405A
:102DB000816055E0764A90421BD0754B143398429F
:102DC00017D0734B2833984213D0714B3C33984241
:102DD0000FD06F4B503398420BD06D4B64339842F9
:102DE00007D06B4B7833984203D0694B8C339842B1
:102DF0007ED184F8351084F83450664B0168A2689F
:102E000001EA030E402A74D0802A73D05FF00002DA
:102E1000D4E90378D4E9053142EAD70242EAD80876
:102E20005B4AD4E9077C48EAD30848EAD10141EA81
:102E3000D701524241EA1C11142341EA0E010160FC
:102E400020681044B0FBF3F08000E0652046FEF7F8
:102E500035FC94F85C20012102F01F029140416092
:102E60002068B04257D044491831884253D0484571
:102E700051D050454FD058454DD042491831884225
:102E800049D040493031884245D03E494831884296
:102E900041D03D4988423ED03B49183188423AD022
:102EA00039493031884236D037494831884232D0AA
:102EB0003549603188422ED03349783188422AD052
:102EC00031499031884226D02F49A831884222D0FA
:102ED0002F4988421FD02E49143188421BD02C49DB
:102EE0002831884217D02A493C31884213D002E069
:102EF0001DE017E018E02649503188420BD02449E4
:102F00006431884207D022497831884203D0204971
:102F10008C31884229D12046FEF72AFCA0688028FF
:102F20000CD00CE0102273E74FF4804270E7402190
:102F3000616584F835800120BDE8F09F6560216EF1
:102F400020790860D4E9190141606068401E0728B3
:102F500008D82046FEF75AFCE06E0560D4E91C0153
:102F6000416002E0E566256765670120656584F8D4
:102F700035000020E0E70000100002404000024061
:102F80005800024070000240100402403F8010FED2
:102F9000085402580F00FEFF80B206F029BC000062
:102FA00010B590F89830012B09D0022B07D0D0F83B
:102FB0009C1041F00201C0F89C10012010BD036874
:102FC0009C6D0C4203D1DC6D44F0010404E09C6D67
:102FD00031EA04041FD00324DC658B0505D50368A2
:102FE000D3F8E0401443C3F8E0404B0505D503682F
:102FF000D3F8E4401443C3F8E4400068084A01EA07
:103000000203446D074A1C434465106840EA91700E
:103010001060002010BDDC6D44F00204DCE700000D
:10302000FFFFCF3F14A80040704790F89830012B65
:1030300007D0D0F89C1041F00401C0F89C1001208A
:10304000704761B10068012913D0D0F8B01021F0A9
:10305000FE4141EA0261C0F8B010002070470068EC
:10306000D0F8F01021F07C5141EA0261C0F8F01074
:10307000F3E7D0F8A01021F0FE4141EA0261C0F868
:10308000A010EAE770B590F89820012A09D0022A2A
:1030900007D0D0F89C1041F00201C0F89C1001202C
:1030A00070BD0B68CA6883B10B69072A43EA427393
:1030B00025D00C7A4A6942EA84724968006F00EBB5
:1030C000C100C0E90032002070BD072A0DD00C7A83
:1030D000D6060D8A4B6943EA847246EA0543C06E00
:1030E00049681A4340F82120EDE70B8A4FF06055FC
:1030F000D1E9062442EA034245EA0423EFE78A695C
:10310000DBE730B590F89850039C012D07D0D0F83C
:103110009C1041F00401C0F89C10012030BD0D014D
:10312000016845EA820040EA43002043C1F880007C
:10313000002030BD70477047F0B590F898400025EA
:10314000022C04D0D0F89C1041F008012BE040295B
:103150004FF0004605D0412929D0046D8C4219D981
:1031600042E00468D4F8A07017F4FE0F12D0D4F82F
:10317000A4707F0613D0D4F8A470FF0105D5D4F84D
:10318000A070B6EBD77F00D10125D4F8A470466FAC
:10319000446C24E0D0F89C1041F0200103E0D0F80A
:1031A0009C1041F48071C0F89C100120F0BD0468AF
:1031B000D4F8B07017F4FE0FECD0D4F8B4707F06DA
:1031C000EDD0D4F8B470FF0105D5D4F8B070B6EBEB
:1031D000D77F00D10125D4F8B470866FC46CC7F3D3
:1031E00005273D446C4302E0446DC66F4C4306EB3B
:1031F0008404266816F080465660266836D026F08D
:1032000060461660D4F800C000262F4F0CF0005C1A
:10321000C2F808C0D4F800C00CF0004CC2F810C0CE
:10322000B4F804C01FFA8CFCC2F81CC0D4F804C067
:103230000CF4702CC2F80CC0D4F804C00CF4801C40
:10324000C2F814C0D4F804C00CF4001CC2F818C0B2
:10325000D4F804C0CCF3066CC2F820C0D4F804C083
:1032600008344FEADC7CC2F824C008E0C6F38A4682
:10327000C7E700BF14F806C003F806C0761CD2F8F2
:103280000CC007EB1C4C9CF800C0B445F2D8402998
:103290000AD041290CD020294FF001020CD200683D
:1032A0008A40C0F898200DE00068C0F8A85009E0F6
:1032B0000068C0F8B85005E0006801F01F018A40BE
:1032C000C0F89C200020F0BD709B000870470000F3
:1032D0002DE9FF5FDFF80CB304460BF10401DBF8C6
:1032E000000025680F68AA468007D5F85090696DE0
:1032F000D5F850806E6D2A6DD5F854C02B6D00EA5C
:103300008770009009F470496F6D286D01EA09011A
:103310000191DAF85410DAF85490DAF8505008F0C5
:103320000F0806EA0806029602F0F00203F0715355
:103330006FEA09061F4000F060700CEA020CCDF83D
:103340000CC0F20501EA00090CD4E843C00509D419
:1033500000214FF48073CAF85030CBF8001020469B
:10336000FFF7B4FF700512D4E84340050FD420687E
:1033700000234FF48068D0F8DC20D0F8E410C0F8C7
:103380005080CBF800301140204600F0D3FADFF82F
:1033900058A2009850B12268830F00EA0A00106515
:1033A000CBF8003020460099FFF73EFE019850B15F
:1033B0002268830F00EA0A001065CBF8003020462F
:1033C000019900F0B9FA029850B12268830F00EA1F
:1033D0000A001065CBF800302046029900F080FA10
:1033E000039850B12268830F00EA0A001065CBF8F9
:1033F00000302046039900F07DFA30050CD4E843F4
:10340000000509D4236800204FF400621A65CBF848
:103410000000204600F091FAB00512D4E843800580
:103420000FD4206800234FF40078D0F8D820D0F8CB
:10343000E010C0F85080CBF800301140204600F07A
:103440007AFA30030CD4E843000309D4236800203F
:103450004FF400221A65CBF80000204600F03EFA37
:10346000F0030CD4E843C00309D4236800204FF4D0
:1034700080321A65CBF80000204600F05AFA70033B
:103480000CD4E843400309D4226800204FF4802381
:103490001365CBF80000204600F04AFAB0030FD4C1
:1034A000E84380030CD4236800204FF400321A65EF
:1034B000CBF80000D4F89C0040F08000C4F89C00D9
:1034C000B9F1000F0BD022684FEA997309EA0A009C
:1034D0001065CBF8003049462046FFF72CFE5FB15F
:1034E0002268BB0F07EA0A001065CBF80030D4F859
:1034F0009C003843C4F89C003C492068884268D14D
:10350000606881468068800763D0D9F82060D9F868
:103510002410D9F82080D9F82400D9F820C0D9F88F
:103520002470D9F82030D9F82450D9F8202003F499
:10353000FC4306F00F0AD9F824601D40D9F824B0E6
:1035400008F030080CF4C07C02F4F02211EA0A0101
:1035500000EA080807EA0C0706EA0206D9F820A0E4
:1035600004D0C9F82010204600F0DFF9B8F10000BF
:1035700005D0616808624146204600F0D8F96FEA3C
:103580000B0040060ED46FEA0A0040060AD46068B9
:103590004021C36BC26B01622046190C02F03F024E
:1035A00000F0C4F92FB1606807623946204600F088
:1035B000BBF935B160680562D4F89C002843C4F8B3
:1035C0009C0036B160680662D4F89C003043C4F8B1
:1035D0009C00D4F89C00002802D02046FFF7AAFDEA
:1035E000BDE8FF9F10A80040FFFFCF3F00A00040B4
:1035F0002DE9F04194B08D494C2204466846FCF711
:10360000EEFF64B18A4D2068A84202D100F58070B7
:10361000606094F898004FF0000820B108E00120A5
:1036200014B0BDE8F081204684F8998000F002F9DA
:103630002068816921F01001816100F097FA032769
:10364000064604E000F092FA801B0A2811D8206890
:1036500080690007F6D42068816941F00101816129
:1036600000F084FA06460DE000F080FA801B0A287C
:1036700008D9D4F89C0040F00100C4F89C0084F8FC
:103680009870CCE720688069C007EDD02068816918
:1036900041F002018161207C01282068816937D0D6
:1036A00041F040018161607C01282068816932D04D
:1036B00021F480418161A07C0128206881692DD09E
:1036C00041F4805181612068A268816921F44071D0
:1036D000114381612068816921F0A4018161206822
:1036E000016921F010010161E068012819D010B3CF
:1036F00002281BD02068816941F080018161206827
:10370000016941F010010161E06803280ED012E068
:1037100021F04001C6E741F48041CBE721F480511C
:10372000D0E72068816941F0040103E020688169E5
:1037300041F020018161207E6FF0FF02D4E9077320
:10374000A68A1102400602EB0727A0F10070384359
:1037500027685B1E184301EB06463043F861A068FA
:10376000B0F5407F11D104F12800A68C6FF00F0C4A
:1037700089C801EB0641401E02EB03221043226878
:103780000CEB071318430843D060206E30B120685B
:10379000626ED0F8C0101143C0F8C010D4E91712FF
:1037A0006846D14209D02168A36E51F8C82F50F85D
:1037B000233022F007021A430A60216C49B12168C4
:1037C000626C51F8BC3F50F8226023F0070232438C
:1037D0000A60A16C51B12168E36C51F8BC2F50F81C
:1037E000233022F0700242EA03120A60216D51B1C7
:1037F0002168626D51F8BC3F50F8220023F4E0626A
:1038000042EA002008602068A84204D1606881680C
:1038100021F003018160C4F894800121C4F89C80E8
:1038200084F898102046FEF765F8F9E6809B0008BA
:1038300000A0004010B5B4B0044614212EA8FCF737
:1038400000FFB8216846FCF7FCFE21492068884249
:103850003CD100204FF40041CDE900104A036846F6
:103860001B9201F04BFB08B1FEF735F819480168CF
:1038700041F480710160006800F480703390154855
:103880000C38016841F00801016000680923032138
:1038900000F00800339000202E9102222EA9CDE9DD
:1038A0002F20CDE931030C4800F048F80022132006
:1038B000114600F021FA132000F010FA0022152022
:1038C000114600F019FA152000F008FA34B010BDC6
:1038D00000A00040EC440258000C02587047000061
:1038E000C90704D00249884201D105F0B9BF704729
:1038F000D8010024704790F89810012907D0D0F81B
:103900009C1041F00401C0F89C1001207047022176
:1039100080F89810002201688B6923F001038B6105
:10392000C0F89C201046704770477047704770473A
:103930007047704770477047704770472DE9F84FE0
:1039400003247A4D00234FF001094FF0B04B4FF0A4
:103950000F0AE4E009FA03F6324078D00F7907F055
:103960000307012F01D0022F1AD187684FEA430EB7
:10397000D1F80CC004FA0EF827EA08070CFA0EFC7E
:103980004CEA070CC0F808C0476891F804C0B74378
:10399000CCF3001C0CFA03FC4CEA070CC0F804C082
:1039A0000E79F643B6070BD0C6684FEA43088F6816
:1039B00004FA08FC26EA0C0607FA08F73743C76042
:1039C0000E7906F00306022E12D1DE080F694FEAC7
:1039D000437C00EB8606B646366A4FEADC6C0AFA90
:1039E0000CF807FA0CF726EA08063743CEF82070E1
:1039F0000F7906684FEA430807F0030704FA08FC4A
:103A000007FA08F726EA0C06374307604E6816F4F3
:103A1000403F1CD0464E376847F002073760366893
:103A20009F0706F00206009623F0030606F1B04653
:103A3000B6463F0FD6F80864DFF8F8800AFA07FCAC
:103A4000404526EA0C0603D14FF0000C3AE065E051
:103A5000DFF8E4C0604502D14FF0010C32E0DFF83E
:103A6000DCC0604502D14FF0020C2BE0DFF8D0C083
:103A7000604502D14FF0030C24E0DFF8C8C0604578
:103A800002D14FF0040C1DE0DFF8BCC0604502D14C
:103A90004FF0050C16E0DFF8B4C0604502D14FF0DE
:103AA000060C0FE0DFF8A8C0604502D14FF0070C0C
:103AB00008E0DFF8A0C0604502D14FF0090C01E03A
:103AC0004FF00A0C0CFA07FC4CEA060CCEF808C4BE
:103AD0004F68DBF80060FF0226EA020600D51643B5
:103AE0005F46CBF80060D1F804C0DBF804605FEA01
:103AF0008C2C26EA020600D516437E606E684F685D
:103B000026EA0206BF0300D516436E602E684F6892
:103B100026EA0206FF0300D516432E605B1C0A68E6
:103B200032FA03F67FF416AFBDE8F88F8000005834
:103B3000F4440258000002580004025800080258D9
:103B4000000C0258001002580014025800180258C5
:103B5000001C0258002402580069084000D00120CF
:103B600070470AB1816170470904FBE7014880682A
:103B70007047000034000020024881680278114438
:103B80008160704734000020032010B500F0D4F8A5
:103B900001F0C6FF0F4A104914681368C4F30322EA
:103BA00003F00F038A5CC95C02F01F0201F01F01E1
:103BB000D0400A4A20FA01F111600949086000204A
:103BC00000F010F808B1012010BD00F079F80020D5
:103BD00010BD000018440258F49B0008B4000024F3
:103BE000B000002470B50D4D04462878A0B14FF404
:103BF0007A71B1FBF0F00A490968B1FBF0F002F00C
:103C0000DFFB48B9102C07D200222146501E00F0DD
:103C100073F800206C6070BD012070BD340000207E
:103C2000B0000024F0B5154C4378211D0A1D236017
:103C30000378F3B143680B60057BC67A817A437BD6
:103C40002D07847B45EA0665C77B90F809C0067A94
:103C500090F800E045EAC14040EA834040EA444031
:103C600040EA074040EA0C2040EA460040EA0E00E5
:103C700001E0002008601060F0BD000098ED00E059
:103C8000BFF35F8F044800210368034A23F48033A5
:103C9000036070321160704724ED00E0074A40F085
:103CA0000100064970321060086840F480300860F6
:103CB000BFF34F8FBFF36F8F7047000024ED00E01C
:103CC000054808B5016841F002010160006800F094
:103CD0000200009008BD0000F4440258002809DBEF
:103CE000410900F01F028900012001F1E02190400C
:103CF000C1F80001704700000E4BF0B41B680D4680
:103D0000C3F30223C3F10706042E00D90426191DAC
:103D1000072901D2002300E0DB1E012404FA06F18A
:103D20009C40491E2940641E994014402143F0BC28
:103D300005F0C5BC0CED00E0064900F0070210B527
:103D40004FF6FF040868044B204040EA0220184365
:103D5000086010BD0CED00E00000FA0501680123C9
:103D6000C0F80035002280F8F4248869044A40F045
:103D700000608861486D104348650020704700006E
:103D80000300001070470068416200207047F0B5E2
:103D900003685D6A39B19F6A4C1E00204FF4827639
:103DA00005EB17450BE045EA0240986210E0471C1E
:103DB00006EB800053F800C0F8B205EB1C45A042AA
:103DC000F5D34FF4807000EB810045EA02421A50AF
:103DD0000020F0BDD0F8080504F0A1BB01EBC10242
:103DE00000EB8202D0F80805926C04F0F4BA01EB03
:103DF000C10200EB8202D0F80805D2F8882204F054
:103E000046BBD0F8080504F08CBB0A0601F00F0190
:103E100001EBC10100EB810101D53C3101E001F56D
:103E20001F71006805F078BA01F00F020B0670B53B
:103E300002EBC20104464FF001004FF0000504EB15
:103E4000810103D581F83D003C3103E081F87D52CA
:103E500001F51F710A7094F8BC24012A08D084F877
:103E6000BC04206804F074FF002084F8BC5470BDCA
:103E7000022070BD70B54268044601F00F00904208
:103E800001D9012070BD01F00F024FF000050B06B3
:103E900002EBC2014FF0010204EB810103D581F86E
:103EA0003D203C3103E081F87D5201F51F718D709A
:103EB000087094F8BC04012808D084F8BC24206859
:103EC00005F0B6F8002084F8BC5470BD022070BD27
:103ED00001F00F0101EBC10100EB8100D0F890026D
:103EE00070472DE9F04101F00F0604460D064FF032
:103EF000010006EBC6014FF0000504EB810103D57C
:103F000081F83D003C3103E081F87D5201F51F71DD
:103F10004F788A600B710E7007B14E83022B00D16F
:103F20004D7194F8BC24012A09D084F8BC0420689F
:103F300004F05CFE284684F8BC54BDE8F081022001
:103F4000FBE770B501F00F05002405EBC50100EBA0
:103F5000810101F5227181E81C0001F80B4C01F888
:103F60000C5DC368012B00D1CA61027B006805F0BB
:103F7000B7F8002070BD70B50D464168044605F0E5
:103F80000F00884201D9012070BD29064FF00006BC
:103F90004FF0010207D500EBC00104EB810181F86D
:103FA0003D203C3107E005EBC50104EB810181F8C0
:103FB0007D6201F51F718A70087094F8BC040128B5
:103FC00007D084F8BC24206805F05EF8280702D0EA
:103FD00007E0022070BD217B04F2C442206804F097
:103FE000FBFF002084F8BC6470BD70B501F00F04C5
:103FF000002504EBC401012600EB8101483181E872
:104000002C0001F80B6C01F80C4DC368012B00D19A
:10401000CA61027B006805F063F8002070BD0000F3
:104020002DE9FC5F05680446284605F016FA0028CD
:104030007ED1206805F03DFA002879D0D5F808082F
:10404000C0F30D20C4F8FC04206805F032FA8007A4
:1040500004D52068416901F002014161206805F042
:1040600028FAC10604F2C440009034D52068816962
:1040700021F0100181612F6A07F00F01C7F343405F
:1040800001EBC101022804EB810606F51F7602D080
:10409000062811D01AE047F6F070074216D0C7F391
:1040A0000A12F1681746284605F007FAF1687069A8
:1040B0003944F160384408E000990822284605F0A8
:1040C000FCF97069C7F30A110844706120688169BE
:1040D00041F010018161206805F0EBF900034FF019
:1040E000000A4FF0020B4FF001097CD52068002632
:1040F00005F0BEF9074674E0F80770D02068F1B209
:1041000005F0CFF98046C00707D005EB4611C1F88E
:10411000089B3146204602F09FFE5FEA087025D5D5
:1041200005EB46110820C1F8080BFC49206800E0A7
:1041300042E2026C00EB461001928A42D0F8081B62
:1041400005D9090403D54FF40041C0F8081B2046E7
:1041500000F01AFBF1490198884207D9E06801286C
:1041600004D120680121009A04F036FF5FEAC8609C
:1041700004D505EB46111020C1F8080B5FEA8870E2
:104180001CD56869000605D5D5F8040840F480619F
:10419000C5F8041806EBC60004EB800090F87F1207
:1041A00000F51F70012905D180F803A02046F1B267
:1041B00000F008FA05EB4611C1F808BB5FEA886019
:1041C00004D505EB46112020C1F8080B5FEA8840B2
:1041D00005D505EB46114FF40050C1F8080B7F08D8
:1041E000761C002F88D1206805F063F940036FD555
:1041F000206805F036F90026074667E0F80763D027
:104200002068F1B205F03BF98046C00723D0D5F80D
:10421000342806F00F0C05EB461309FA0CF0824324
:10422000C5F83428C3F80899E06801280FD106EBD7
:10423000C60004EB8000D0E911121144816436B944
:10424000E06C20B920680121009A04F0C5FE2046E8
:10425000F1B2FFF7C3FD5FEA087004D505EB461124
:104260000820C1F808095FEAC86004D505EB4611CB
:104270001020C1F808095FEA486004D505EB461133
:104280004020C1F808095FEA887016D531462846F3
:1042900005F0B6F806EBC60004EB800090F83F107E
:1042A0003C30012905D180F803A02046F1B200F08E
:1042B00085F905EB4611C1F808B95FEA086003D536
:1042C0003146204602F02EFE7F08761C002F95D145
:1042D000206805F0EEF8002811DAD5F8040820F07F
:1042E0000101C5F8041894F8F40401283BD02046D5
:1042F00000F02EFA2068416901F000414161206818
:1043000005F0D7F800050BD5D5F80808C00702D08E
:10431000204600F061FA2068416901F400614161C2
:10432000206805F0C6F800010AD52068416901F04F
:104330000061416194F8F404E0B1204600F04CFAC9
:10434000206805F0B6F8C00472D5D5F8040820F04E
:104350000101C5F804182068102105F051F800216A
:104360004FF67F322DE00021204684F8F4A4FFF7B9
:1043700009FDBFE784F8F4942068406D0121C0F383
:104380008300C4F8F8042046FFF7FCFCD8E700BF20
:1043900005EB4110C0F80829D0F8003923F40013C8
:1043A000C0F80039C0F8082BD0F8003B23F4001304
:1043B000C0F8003BD0F8003B43F00063C0F8003B7E
:1043C000491C60688842E3D8D5F81C0840F0011108
:1043D000C5F81C18206B68B1D5F8840840F00B01B3
:1043E000C5F88418D5F8440840F00B012846C5F8F4
:1043F00044180DE0D5F8140842F22B010843C5F823
:104400001408D5F8100840F00B012846C5F810181C
:10441000D0F8000820F4FE61C5F80018217B206860
:10442000009A04F0D9FD2068416901F4805141618E
:10443000206805F03EF8800417D5206804F016FCCB
:10444000206804F0FDFF206101F024FB217C23683B
:10445000CAB20146184605F091F8204600F062F90C
:104460002068416901F400514161206805F021F89C
:10447000000707D5204600F06FF92068416901F078
:1044800008014161206805F014F8000616D5A869F6
:10449000012620F08001A9610DE000BF06EBC600F7
:1044A00004EB800090F87F02012803D12046F1B28E
:1044B000FFF7ABFC761C6068B042EFD8206804F0D0
:1044C000F8FFC00221D501264F4616E006EBC601D3
:1044D00005EB461004EB8101D0F8000991F840206B
:1044E000012A09D1002807DAF0B281F83F7040F0C4
:1044F00080012046FFF789FC761C6068B042E5D851
:104500002068416901F480114161206804F0D1FF05
:10451000800234D501204B4629E000000A30544F78
:1045200000EBC00205EB401104EB8202D1F8001B46
:1045300092F88062012E19D1002917DA94F8FC64F0
:1045400001F4803106F00106B1420FD182F87F32CA
:10455000A96941F08002AA616969090606D4D5F803
:10456000040840F40070C5F8040803E0401C6168CA
:104570008142D5D82068416901F400114161206869
:1045800004F097FF400007D52046FFF723FC206882
:10459000416901F080414161206804F08AFF4007D1
:1045A0000AD520684568680702D52046FFF729FC30
:1045B0002068416829434160BDE8FC9FD0F80805A8
:1045C00004F008B8D0F8080504F018B82DE9F04157
:1045D00004008AB005D094F8BD040025266820B1F7
:1045E00008E001200AB0BDE8F081204684F8BC5400
:1045F00000F066F8032084F8BD04F06BC00500D419
:10460000E560206804F0E2FC04F11001684628220D
:104610008846FBF7E4FF94E80F0004F035FB02271F
:10462000D8BB2068002104F068FF0020012610E0BC
:1046300000EBC001421C04EB810181F83D6081F870
:1046400040504D648D64CD6481F83C00A1F8560063
:10465000D0B261688142EBD8002011E000EBC001CC
:10466000421C04EB810181F87D5281F88052C1F82F
:104670008452C1F88852C1F88C5281F87C02D0B2C1
:1046800061688142EAD8282241466846FBF7A7FFC5
:1046900094E80F0004F0DEFB10B184F8BD74A0E7CD
:1046A000606A84F8385084F8BD64012802D120463D
:1046B000FFF754FB206804F0BFFB002092E70000E6
:1046C00010B5B0B00446B8216846FBF7BAFF1349ED
:1046D0002068884220D100204FF480214FF44012FE
:1046E0002192CDE90010684600F008FC08B1FDF702
:1046F000F2F800F0B3F80A48016841F00071016077
:1047000000680022114600F000702E904D20FFF747
:10471000F3FA4D20FFF7E2FA30B010BD000004407C
:10472000D844025870B504460069012570B10228CA
:1047300001D0FDF7D0F8D4F80805294603F0CDFFE5
:10474000D4F80805BDE8704003F081BF0025F2E70A
:10475000D0F8080503F0AABFD0F8080503F0B0BFF1
:1047600010B5044690F8BC0401280BD0012084F851
:10477000381084F8BC04206804F0EEFE002084F8B1
:10478000BC0410BD022010BDD0F8082500F2C441C1
:10479000104603F0AEBF10B590F8BC140446006894
:1047A000012909D0012184F8BC14C16BC90509D4C1
:1047B000A16A012902D005E0022010BD816B41F4FD
:1047C00080318163206804F0F6FD206804F026FB48
:1047D000002084F8BC0410BD10B50446D0F80805CC
:1047E00003F0C9FF2068D0F8001E41F00101C0F8B5
:1047F000001E206A002804D00248016841F006012A
:10480000016010BD10ED00E0134970B50A68D24395
:10481000520705D5096801F00701814213D118E05C
:104820000A6822F0070202430A60FFF79FF90A4D67
:104830004FF47A760446083D07E000BFFFF796F98B
:10484000001BB04201D9012070BD2868C04380041C
:10485000F4D4002070BD00000C48025802480168E2
:1048600041F08071016070470C48025810B501F0AA
:1048700011F905490968054AC1F30211515C01F0BB
:104880001F01C84010BD000020440258F49B0008DE
:104890004A4930B5494C0B1D0A680C3409681D683B
:1048A000246802F0030305F00102C1F30511C4F30B
:1048B000CC04002914FB02F200EE102AF8EE400AA4
:1048C00076D0414A9FED3E1ADFED3E1AB7EE000A60
:1048D00023B1012B5AD0022B18D15CE0374C283C75
:1048E00023689B0612D5394B246801EE901A116893
:1048F000C4F3C104F8EE612AE34001EE903AC1F33B
:104900000801F8EE611A81EEA22A07E002EE101A01
:104910001168F8EE422A81EEA22A45E001EE901AD3
:104920001168F8EE611A40EE811A71EE800A62EEAB
:10493000200AC1F3462101EE101AB8EE411A31EEF9
:10494000001AC0EE811ABCEEE11A80ED001A11685F
:10495000C1F3064101EE101AB8EE411A31EE001A09
:10496000C0EE811ABCEEE11A80ED011A1168C1F3A4
:10497000066101EE101AB8EE411A31EE000A80EE1F
:10498000801ABCEEC10A80ED020A30BD01EE901A19
:10499000DFED0F2A03E001EE901ADFED0E2A116819
:1049A000F8EE611A82EEA12AC1F30801B6E7FFE72B
:1049B000002101604160816030BD00002844025840
:1049C000000000390024744C304402580090D00399
:1049D0000024744A001BB74B494930B5484C0B1DA5
:1049E0000A68143409681D68246802F00303C5F3DB
:1049F0000012C1F30531C4F3CC04002914FB02F208
:104A000000EE102AF8EE400A75D03F4A9FED3D1A9D
:104A1000B7EE000A6BB1DFED3D1A012B01D0022B7E
:104A200064D002EE101A1168F8EE422A81EEA22A32
:104A300021E0334C283C23689B0612D5344B246874
:104A400001EE901A1168C4F3C104F8EE612AE34044
:104A500001EE903AC1F30801F8EE611A81EEA22A44
:104A60000BE001EE901ADFED2B2A00BFF8EE611A81
:104A7000116882EEA12AC1F3080101EE901A1168B3
:104A8000F8EE611A40EE811A71EE800A62EE200A99
:104A9000C1F3462101EE101AB8EE411A31EE001AA8
:104AA000C0EE811ABCEEE11A80ED001A1168C1F364
:104AB000064101EE101AB8EE411A31EE001AC0EEAE
:104AC000811ABCEEE11A80ED011A1168C1F306618A
:104AD00001EE101AB8EE411A31EE000A80EE801A8B
:104AE000BCEEC10A80ED020A30BD04E001EE901A6E
:104AF000DFED092ABAE70021016041608160F3E738
:104B00002844025800000039384402580024744AEE
:104B10000090D0030024744C001BB74B494930B5BA
:104B2000484C0B1D0A681C3409681D68246802F093
:104B30000303C5F30022C1F30551C4F3CC040029DB
:104B400014FB02F200EE102AF8EE400A75D03F4A3C
:104B50009FED3D1AB7EE000A6BB1DFED3D1A012B58
:104B600001D0022B64D002EE101A1168F8EE422A2E
:104B700081EEA22A21E0334C283C23689B0612D503
:104B8000344B246801EE901A1168C4F3C104F8EEA6
:104B9000612AE34001EE903AC1F30801F8EE611A90
:104BA00081EEA22A0BE001EE901ADFED2B2A00BF66
:104BB000F8EE611A116882EEA12AC1F3080101EE34
:104BC000901A1168F8EE611A40EE811A71EE800AAF
:104BD00062EE200AC1F3462101EE101AB8EE411A26
:104BE00031EE001AC0EE811ABCEEE11A80ED001A17
:104BF0001168C1F3064101EE101AB8EE411A31EE08
:104C0000001AC0EE811ABCEEE11A80ED011A11689B
:104C1000C1F3066101EE101AB8EE411A31EE000A36
:104C200080EE801ABCEEC10A80ED020A30BD04E0BD
:104C300001EE901ADFED092ABAE700210160416018
:104C40008160F3E7284402580000003940440258CC
:104C50000024744A0090D0030024744C001BB74B0E
:104C60002DE9F04FA14A0546DFF87CA280F4807060
:104C7000DFF8809289B013119F4C08439C48AAF139
:104C800004064FF0805C4FF0005828D0DFF858B28F
:104C900085F480670F430BF1080B4FD085F4006754
:104CA0000F4360D085F480570F4372D085F40057CE
:104CB0000F434FF480394FF4003E69D085F400274C
:104CC0000F4373D085F480370F4370D085F480464E
:104CD0000E436DD085F400420A436AD02AE0DAF828
:104CE000001001F00701052924D2DFE801F0F9AA3C
:104CF0006A259F0006A8FFF7CBFD079809B0BDE81D
:104D0000F08F6846FFF768FE0098F7E703A8FFF703
:104D100005FF0398F2E72068C0F3C10022FA00F013
:104D2000ECE72268D2056ED561456CD11846E5E7FF
:104D30004145E3D00020E1E74846DFE7DBF800101B
:104D400001F46001B1F5800F3BD005DC00294AD0A9
:104D5000B1F5001FEED174E0B1F5C00FECD0B1F5A4
:104D6000000FE7D162E0DBF8001001F0E061B1F183
:104D7000007F26D004DCB1B3B1F1807FDAD160E0EE
:104D8000B1F1407FD8D0B1F1806FD3D14EE000E0D7
:104D90001BE0DAF8001001F4E041B1F5005F10D03B
:104DA00008DC01B3B1F5805FC4D14AE035E058E0DA
:104DB00065E088E0B1F5405FBED0B1F5804FB9D174
:104DC00034E020688000B5D5A0E7DAF8001001F4DF
:104DD000E021B1F5403F6DD006DC61B149457BD0A3
:104DE0007145A7D158E07BE0B1F5802F66D0B1F5D1
:104DF000A02F9FD10DE000F06FFE7FE76846FFF720
:104E0000EBFD01987AE728E003A8FFF787FE0498F6
:104E100074E7216889038AD48CE7DBF8001011F469
:104E200040310ED0494510D0714583D13168256895
:104E300001F040516D077FF574AF00297FF471AF29
:104E400069E720680001E7D55BE720688000E3D5CB
:104E500003A8FFF763FE059850E722689203DBD5AD
:104E600066E7306810F480303AD04845D4D12068E5
:104E70000001D1D56846FFF7AFFD02983EE7DBF8A9
:104E8000001001F0E041B1F1405F13D008DC71B1D6
:104E9000614521D04145BFD120688000B4D449E7A5
:104EA000B1F1804F0AD0B1F1A04FB2D042E7FFF785
:104EB000DDFC23E720684007AED52CE72068C0055D
:104EC000AAD533E708E0DAF8001011F04051A0D07D
:104ED000614505D041459FD1206800018ED429E766
:104EE0002068800198D505E7504402580090D0030F
:104EF00000366E010080BB00004402582DE9FE4FD1
:104F00000546DFF800A450F8081B0024FD4FC943F4
:104F1000019005F1280026460AF1240A00900801B4
:104F20001DD4686E50B1B0F5801F0CD0B0F5001FD5
:104F30000ED0B0F5401F1ED001240FE0386840F4B9
:104F40000030386017E00198022102F03DF803E0DC
:104F50000098022102F0C8F804000CD026462888E8
:104F6000C043C00523D4A86D05281ED2DFE800F099
:104F70000C11161B1B006A6EDAF8001021F44011A8
:104F80001143CAF80010EAE7386840F4003038608E
:104F900009E00198002102F017F803E000980021D1
:104FA00002F0A2F80446C4B100E001242646288895
:104FB000DFF85083C04308F12C0840052FD4D5F802
:104FC000A400B0F5C00F28D010DCB8B1B0F5001FB8
:104FD00019D0B0F5800F0FD11AE0AA6DDAF80010E1
:104FE00021F007011143CAF80010E0E7B0F5000F07
:104FF00013D0B0F5200F10D001240FE0386840F432
:105000000030386009E00198002101F0DDFF03E085
:105010000098002102F068F8044694B126462888DA
:10502000C043000530D4D5F8A800B0F1407F29D0A6
:1050300011DCC0B1B0F1807F1AD0B0F1007F10D187
:105040001BE0D5F8A420D8F8001021F4600111432A
:10505000C8F80010E3E7B0F1806F13D0B0F1A06F93
:1050600010D001240FE0386840F40030386009E0C7
:105070000198002101F0A8FF03E00098002102F050
:1050800033F8044694B126462868DFF878B2C04366
:105090000BF1200B80011FD4E86CD8B110280FD081
:1050A000202812D0302815D0012414E0D5F8A820EB
:1050B000D8F8001021F0E0611143C8F80010E3E7D0
:1050C000386840F40030386004E00198022101F0B3
:1050D0007BFF044674B126462888C043C0042BD405
:1050E000E86DB0F5005F20D00DDCA0B1B0F5805FB9
:1050F0000FD115E0EA6CDBF8001021F0300111430C
:10510000CBF80010E8E7B0F5405F13D0B0F5804F62
:1051100010D001240FE0386840F40030386009E016
:105120000198002101F050FF03E00098002101F0F8
:10513000DBFF04468CB126462888C043800429D46E
:10514000286EB0F5403F23D010DC08B3B0F5803FA7
:1051500014D0B0F5003F0FD115E0EA6DDAF8001079
:1051600021F4E0411143CAF80010E5E7B0F5802FC3
:105170000ED0B0F5A02F0BD001240AE00198012138
:1051800001F022FF03E00098012101F0ADFF044689
:1051900094B126462888C04340042AD4D5F8AC00F0
:1051A000B0F1405F23D010DC08B3B0F1805F14D0C1
:1051B000B0F1005F0FD115E02A6EDAF8001021F48B
:1051C000E0211143CAF80010E4E7B0F1804F0ED09F
:1051D000B0F1A04F0BD001240AE00198012101F0A9
:1051E000F3FE03E00098012101F07EFF044674B154
:1051F00026462888C04300041FD4E86ED8B1B0F119
:10520000805F0ED0B0F1005F10D0012414E0D5F81B
:10521000AC20D8F8001021F0E0411143C8F800108C
:10522000E7E7386840F40030386004E00198012175
:1052300001F0CAFE044674B126462868C043C00186
:105240001ED4A86CD0B101280ED0022811D003289A
:1052500014D0012413E0EA6EDAF8001021F0405176
:105260001143CAF80010E8E7386840F400303860AD
:1052700004E00198022101F0A7FE04466CB1264625
:105280002868C043400255D41F48016841F480712A
:105290000160FEF76BFC81460EE0AA6CDBF80010A3
:1052A00021F003011143CBF80010E9E7FEF75EFCA3
:1052B000A0EB090064283BD813480068C005F5D569
:1052C000BCBBDFF84090B5F8B01009F14409D9F83B
:1052D000000001F4407100F44070884211D0D9F808
:1052E0000010D9F8002021F4407142F48032C9F84E
:1052F0000020D9F8002022F48032C9F80020C9F833
:10530000001003E02C44025800480258D5F8B000C1
:10531000B0F5807F19D1FEF729FC029011E000BFA3
:10532000FEF724FC0299411A41F28830814208D9E3
:10533000032426462878DFF81494C043C00721D000
:105340003CE0D9F800008007EAD5D5F8B010C1F3E9
:1053500001200328FE480DD0016821F47C51016032
:10536000B5F8B020D9F80010C2F30B021143C9F808
:105370000010DFE7F74A036802EA111223F47C51B8
:105380001143ECE7A86F182816D005DCA0B1082857
:1053900008D0102804D10AE020280DD028280BD0EE
:1053A00001240AE00198012101F00EFE03E00098BB
:1053B000012101F099FE044664B126462878C043D5
:1053C00080071ED4686F062819D2DFE800F0160C9B
:1053D00011161616AA6FD9F8001021F038011143E2
:1053E000C9F80010EAE70198012101F0EDFD03E0A2
:1053F0000098012101F078FE04467CB100E0012410
:1054000026462878C04340071FD4D5F890000628C8
:1054100019D2DFE800F0160C111616166A6FD9F8CB
:10542000001021F007011143C9F80010E9E70198C5
:10543000012101F0C9FD03E00098012101F054FEB3
:105440000446A4B100E0012426462878C043800623
:105450002BD4D5F88C00B0F1405F24D011DC10B310
:10546000B0F1805F15D0B0F1005F10D116E0D5F833
:105470009020D8F8001021F007011143C8F800105F
:10548000E3E7B0F1804F0ED0B0F1A04F0BD0012474
:105490000AE00198002101F097FD03E00098022145
:1054A00001F022FE044694B126462878C043400607
:1054B0002BD4D5F89800B0F5406F24D011DC10B390
:1054C000B0F5806F15D0B0F5006F10D116E0D5F8AB
:1054D0008C20D9F8001021F0E0411143C9F80010E8
:1054E000E3E7B0F5805F0ED0B0F5A05F0BD00124EC
:1054F0000AE00198002101F067FD03E00098022115
:1055000001F0F2FD044694B126462878C043000617
:105510002BD4D5F89C00B0F5C04F24D011DC10B3CB
:10552000B0F5005F15D0B0F5804F10D116E0D5F87A
:105530009820D8F8001021F4E0511143C8F8001069
:10554000E3E7B0F5004F0ED0B0F5204F0BD00124AB
:105550000AE00198002101F037FD03E000980221E4
:1055600001F0C2FD044654B126462878C043000726
:105570001ED4D5F88000B0F5805F0AD00FE0D5F8D2
:105580009C20D8F8001021F460411143C8F80010A5
:10559000EBE70098022101F0A7FD00B10126D5F844
:1055A0008020D9F8001021F440511143C9F80010AF
:1055B0002878C043C00613D4D5F89400B0F5807F96
:1055C00005D10098022101F08FFD00B10126D5F828
:1055D0009420D8F8001021F440711143C8F800104D
:1055E0002868C043000316D4D5F8A00038B1B0F540
:1055F000803F09D0B0F5003F0BD001240AE00198AC
:10560000002101F0E1FC03E00098022101F06CFDB3
:1056100004468CB126462868C043400322D4D5F8FE
:105620008400B0F5801F11D0B0F5001F13D0B0F585
:10563000401F15D0012414E0D5F8A020D8F80010A0
:1056400021F440311143C8F80010E4E7386840F411
:105650000030386004E00098012101F045FD044667
:105660005CB126462868C043C0031CD4286D70B1C5
:10567000B0F5803F10D0012414E0D5F88420D9F88B
:10568000001021F440111143C9F80010EAE738680E
:1056900040F40030386004E00198022101F094FCED
:1056A0000446DCB126462868C043800005D4009833
:1056B000022101F019FD00B101262868C0438003D2
:1056C0001BD4E86FB8B1B0F5807F10D0B0F5007F83
:1056D00011D0B0F5407F0ED001240DE02A6DDBF82B
:1056E000001021F480311143CBF80010DBE738685B
:1056F00040F4003038607CB326462868C043C002BE
:1057000007D42A6FDAF8001021F000411143CAF8DB
:1057100000102868C043800207D4AA6EDAF800108F
:1057200021F080711143CAF800102868C04340007E
:1057300009D40748016821F4004101600168D5F8E7
:10574000B420114301602868C04306E05444025865
:1057500010440258CFFFFF001DE007D46A6DDBF84C
:10576000001021F040511143CBF800102868C043CD
:10577000000208D4D5F88820D9F8001021F440019F
:105780001143C9F8001028790024C04300F001003B
:10579000204309D00EE0EA6FD9F8001021F44071DF
:1057A0001143C9F80010A8E70198002101F00CFC92
:1057B00000B106462879C04300F00200204305D11D
:1057C0000198012101F000FC00B106462879C04390
:1057D00000F00400204305D10198022101F0F4FB00
:1057E00000B106462879C04300F00800204305D1E7
:1057F0000098002101F078FC00B106462879C043EA
:1058000000F01000204305D10098012101F06CFC4C
:1058100000B106462879C04300F02000044304D1BB
:105820000098022101F060FC00B916B10120BDE82A
:10583000FE8F0020FBE700002DE9F05F04000F461B
:105840007ED0DFF83882D8F8000000F00F00B842B0
:105850000CD2D8F8001021F00F013943C8F800101D
:10586000D8F8000000F00F00B84269D12078844DCC
:1058700040070AD52069296801F07001884204D9DF
:10588000296821F070010143296020787C4E361D83
:1058900000070AD56069316801F07001884204D9B7
:1058A000316821F07001014331602078C0060AD5CB
:1058B000A069316801F4E061884204D9316821F4BB
:1058C000E061014331602078DFF8B4B180060BF16C
:1058D000080B0CD5E1695846DBF8002002F0700295
:1058E000914204D9026822F070020A4302602078D3
:1058F00080070AD5E068296801F00F01884204D9C1
:10590000296821F00F01014329602078C0073ED0AB
:105910005B49A2682868183920F470601043286039
:105920006068022818D0032819D00968012819D006
:10593000490700294ADADFF848A1AAF1080A00E07D
:1059400044E0DAF8002022F007020243CAF80020FF
:10595000FEF70CF9814612E009688903E9E7096856
:105960008901E6E7C905E4E7FEF700F9A0EB0901C4
:1059700041F28830814202D90320BDE8F09F61687E
:10598000DAF8000000F03800B0EBC10FECD120785D
:1059900080070AD5E068296801F00F01884204D227
:1059A000296821F00F0101432960D8F80010404612
:1059B00001F00F01B9420BD9016821F00F01394301
:1059C0000160006800F00F00B84201D00120D4E768
:1059D000207840070AD52069296801F070018842C3
:1059E00004D2296821F07001014329602078000762
:1059F0000AD56069316801F07001884204D23168CB
:105A000021F07001014331602078C0060AD5A069F9
:105A1000316801F4E061884204D2316821F4E06128
:105A200001433160207880060CD5E1695846DBF8E7
:105A3000002002F07002914204D2026822F070024B
:105A40000A43026000F06CF80E492A682B68C2F322
:105A5000032203F00F038A5CC95C02F01F0201F00D
:105A60001F01D040084A20FA01F11160074908607F
:105A700007480068BDE8F05FFEF7B4B800200052A8
:105A800018440258F49B0008B4000024B00000241D
:105A90003800002030B500F043F80B4A0B490C4B9E
:105AA00015681468C5F3032204F00F048A5C095DCD
:105AB00002F01F0201F01F01D040064A20FA01F156
:105AC00019601060084630BD18440258F49B000865
:105AD000B4000024B000002400B5FFF7DBFF054947
