:020000040800F2
:1000000040120024E1030008B7440008F54200084C
:10001000B5440008631400083165000800000000C2
:10002000000000000000000000000000754800080B
:10003000D914000800000000334600088148000879
:10004000FB030008FB030008FB030008FB03000898
:10005000FB030008FB030008FB030008FB03000888
:10006000FB030008FB030008FB030008FB03000878
:10007000FB030008FB030008FB030008FB03000868
:10008000FB030008FB030008FB030008E114000861
:10009000FB030008ED140008FB030008FB03000845
:1000A000FB030008FB030008FB030008FB03000838
:1000B000FB030008FB030008FB030008FB03000828
:1000C000FB030008FB030008FB030008FB03000818
:1000D000FB030008FB030008FB030008FB03000808
:1000E000FB030008FB03000800000000FB030008FE
:1000F000FB030008FB030008FB030008FB030008E8
:10010000FB030008FB030008FB030008FB030008D7
:10011000FB030008FB030008FB030008FB030008C7
:10012000FB030008FB030008FB030008FB030008B7
:10013000FB030008FB030008FB030008FB030008A7
:1001400000000000000000000000000000000000AF
:10015000FB030008FB030008FB030008FB03000887
:10016000FB030008FB030008FB030008FB03000877
:10017000FB030008B9440008FB030008000000006E
:10018000FB030008FB030008FB030008FB03000857
:10019000FB030008FB030008FB030008FB03000847
:1001A000FB030008FB030008FB030008000000003D
:1001B000FB030008FB030008FB030008FB03000827
:1001C000FB030008FB030008000000000000000023
:1001D0000000000000000000FB0300080000000019
:1001E000000000000000000000000000000000000F
:1001F0000000000000000000FB030008FB030008F3
:10020000FB030008FB03000800000000FB030008DC
:10021000FB030008FB030008FB030008FB030008C6
:10022000FB03000800000000FB03000800000000C2
:10023000FB030008FB03000800000000FB030008AC
:10024000FB030008FB030008FB030008FB03000896
:10025000FB030008FB030008FB030008FB03000886
:10026000FB030008FB030008FB030008FB03000876
:10027000FB030008FB030008FB030008000000006C
:10028000FB030008FB030008FB030008FB03000856
:1002900000000000FB030008FB0300080000000052
:1002A00000000000FB030008FB030008FB0300083C
:1002B000FB030008FB030008FB030008FB03000826
:1002C000FB030008FB030008FB03000800F002F832
:1002D00000F077F80AA090E8000C82448344AAF169
:1002E0000107DA4501D100F06CF8AFF2090EBAE867
:1002F0000F0013F0010F18BFFB1A43F0010318475A
:100300009C680000DC6800000A444FF0000C10F804
:10031000013B13F0070408BF10F8014B1D1108BF83
:1003200010F8015B641E05D010F8016B641E01F823
:10033000016BF9D113F0080F1EBF10F8014BAD1C73
:100340000C1B09D16D1E58BF01F801CBFAD505E091
:1003500014F8016B01F8016B6D1EF9D59142D6D3EB
:1003600070470000103A24BF78C878C1FAD8520705
:1003700024BF30C830C144BF04680C60704700001F
:100380000023002400250026103A28BF78C1FBD89E
:10039000520728BF30C148BF0B607047662906F07E
:1003A0007A83002070471FB506F070FB00F028FB31
:1003B00004000020002106F053FBE0601FBD10B5D3
:1003C00010BD00F01DFC1146FFF7EDFF06F0E6F949
:1003D00000F03BFC03B4FFF7F2FF03BC00F072FC3B
:1003E0000948804709480047FEE7FEE7FEE7FEE7C9
:1003F000FEE7FEE7FEE7FEE7FEE7FEE70448054905
:10040000054A064B7047000021490008CD0200084C
:10041000400C002440120024400E0024400E002412
:100420000FB41CB5074B06AA7B446946009005989B
:1004300000F0CDFA0020694600F0DCFA1CBC5DF843
:1004400014FB0000C90500002DE9F0410E460446EA
:10045000002020622046E168884730B3252805D077
:10046000D4E901219047206A401CF2E7E168204668
:1004700000278847050018D0A5F14100192802D8A7
:1004800020354FF400673246294620462760FFF7A3
:1004900085FF40B1012804D0F61D26F00706083676
:1004A000D8E7361DD6E72846DAE7206ABDE8F081AE
:1004B00010B5431C02E010F8011B71B18107FAD19D
:1004C0004FF0013202C88C1A8C4314EAC211F9D0E1
:1004D000C01A0A0603D0C01E10BDC01A10BD0A04FF
:1004E00001D0801E10BD0902FCD0401E10BD10B509
:1004F000203AC0F00B80B1E81850203AA0E818501C
:10050000B1E81850A0E81850BFF4F5AF5FEA027CDC
:1005100024BFB1E81850A0E8185044BF18C918C04B
:10052000BDE810405FEA827C24BF51F8043B40F8EC
:10053000043B08BF7047D20728BF31F8023B48BFD1
:1005400011F8012B28BF20F8023B48BF00F8012B0F
:1005500070474FF0000200B5134694469646203986
:1005600022BFA0E80C50A0E80C50B1F12001BFF46C
:10057000F7AF090728BFA0E80C5048BF0CC05DF8D2
:1005800004EB890028BF40F8042B08BF704748BF20
:1005900020F8022B11F0804F18BF00F8012B704794
:1005A00070477047704770472DE9FF4F0C461E4655
:1005B0004FF0FF378BB0D2E90001DDF860800A9080
:1005C0008A46C1F30A5505B93D46002108464FF059
:1005D0000000BAF1000F00F4400005DA00EB8000E3
:1005E0004FF4400101EA50004FEA9059B9F1010F70
:1005F00000DDB9460A9850EA4A000ED044F6105081
:10060000A5F2FF3545432F14B8F1000F1ED07542F7
:10061000291E1EDDC9F100021CE0B8F1010F4FF0E8
:10062000000001D0302103E0F24305E02154401CDA
:10063000B042FBDB30460022002121540B99C1F867
:100640000880C1E900200FB0BDE8F08FBD1B6D1C14
:10065000DEE74A4600DA694206A800F05BFA06AB1C
:1006600093E8070003AB83E8070050460A9900F0BF
:1006700030FB8DE80700A0F500501F38009003986C
:10068000002D0ADD42F21F014A460844002303A957
:100690000390684600F099FD09E0A0F500504A4635
:1006A0001F38002303A90390684600F0A3FD8DE8DE
:1006B00007000004000C03D04FF0FF30410800E0B9
:1006C0001046B8F1000F03D00022009215461EE03C
:1006D000751E05D400F098F9303262556D1EF9D5BB
:1006E000B3460122084302D000227F1C04E0207898
:1006F000302801D100227F1E002A099784D01DE0F6
:10070000112D07DA00F080F9303262556D1C50EA85
:100710000102F5D1084302D00098C8B10EE00021D3
:10072000681E05E0235C625C63542254401E491C31
:100730008142F7DBAB46A81B401E0990002004F85D
:100740000B000B98099AC0F80880C0E9002B7AE7E3
:1007500011264FF0000857E72DE9F04F8846044670
:10076000D21D22F0070191B0D1E90001CDE90A01C3
:1007700005F0DFFE02460B98C00F01D02D2007E0E8
:100780002068810701D52B2002E0202101EAC0006A
:10079000032A099001D0072A05DB0346414620467B
:1007A00000F078F90BE12078800601D5E06900E0DF
:1007B0000620B8F1650F814606D0B8F1660F18D053
:1007C000B8F1670F70D131E00020B9F1110F00903E
:1007D00001DB112301E009F101030AAA01A90CA818
:1007E000FFF7E2FEDDE90C70002609F10105834602
:1007F00047E001204B4600904FF000470AAA01A9AC
:100800000CA8FFF7D1FEDDE90DB00C995D4600267E
:1008100010B909F101000D18B9EB050003D4C0F1BE
:10082000FF3609F10105A5EB09002BE0B9F1010F35
:1008300001DA4FF001090020B9F1110F009048468C
:1008400001DD112300E003460AAA01A90CA8FFF765
:10085000ABFEDDE90C704D4600268346207800078C
:100860000AD4AB4500DA5D4601A8012D04DD41192B
:1008700011F8011C302907D04F4502DA17F1040F97
:1008800004DA012082460FE06D1EEEE7002F02DC45
:10089000ED1B3E4403E0781CA84200DD7D1CB81B24
:1008A00000F1010A4FF000472078000703D4AA4561
:1008B00001DB4FF0FF3A0021B7F1004F0DF1430883
:1008C0008DF8431024D002202B23002F01DA7F4221
:1008D0002D230A21021EA0F1010000DC5FB197FB6D
:1008E000F1FC97FBF1F201FB1C7C17460CF1300C7C
:1008F00008F801CDEEE7A8F1010003702188090591
:1009000001D5452100E06521A0F1010800F8011C96
:1009100009980FA9A1EB0807FF1D00B1012041199B
:1009200001EBEA70A1693844081A401EA0612078E2
:10093000C00602D42046AFF30080099828B1D4E95C
:1009400001219047206A401C20622078C00622D5F1
:100950002046AFF300801EE0002E04DBB34502DD2D
:1009600001A8805D00E03020D4E901219047206A91
:10097000401C2062761CAAF101005FEA000A0AD13D
:1009800000F03EF8C0680168405CD4E9012190475E
:10099000206A401C2062281EA5F10105DCDC07E06E
:1009A000D4E9012118F8010B9047206A401C20620D
:1009B000381EA7F10107F3DC2046AFF300800320C7
:1009C00011B041E601694A1C02610878704700B520
:1009D0008FB0CDE901310021059105497944CDE978
:1009E000031011466846FFF72FFD0FB000BD000051
:1009F000E5FFFFFF0A6802F8010B0A60704700007C
:100A000000487047FC0B002430B5B0F10A024FEAF1
:100A1000900E71F100034EEA817EB0EB0E0061EBA7
:100A200091014FEA101E4EEA017E10EB0E0041EBE1
:100A300011114FEA102E4EEA016E10EB0E0041EB41
:100A400011214FEA104E4EEA014E10EB0E0041EB21
:100A50001141401841F100014FEAD00040EA4170D5
:100A60004FEAD10110EB80054FEA810444EA90740B
:100A700044EB01046D1944EB0404521BA3414FF0F5
:100A8000000348BF0A3200D530BD401C41F10001CF
:100A900030BD00002DE9F0411F46044603260168E1
:100AA000072A01F4006004DB08B116A505E016A5CD
:100AB00003E008B115A500E015A521F010002060A5
:100AC000A069C01EA0610FB1401EA0612046AFF317
:100AD00000804FB1D4E9012138469047206A401C7C
:100AE0002062C01C206206E0206AFAE7D4E90121F6
:100AF00015F8010B9047761EF8D22046AFF3008020
:100B0000BDE8F0814E414E006E616E00494E4600D8
:100B1000696E66002DE9F047814616468AB0354871
:100B200078440DC88DE80D0032487844801C03AC31
:100B30000DC884E80D0041F69B300844372190FB36
:100B4000F1F290FBF1F5A5F1800501FB12041B3CCD
:100B500002D56442012000E00020DFF898A0804622
:100B60000027FA44AAF1BE0A0EE0E0070AD0324696
:100B7000684607EB470101230AEB810100F03AFBCD
:100B80008DE8070064107F1C002CEED1194F7F44C4
:100B9000AE3F19E0E80715D007EB04100DF1180A75
:100BA00090E80E008AE80E00C068F04201D1981962
:100BB00008903246012306A903A800F01BFB03ABF3
:100BC00083E807006D10641C002DE3D14FF0010392
:100BD00032466946B8F1000F03A802D000F0F5FADA
:100BE00001E000F007FBC9E90001C9F808200AB0DC
:100BF000BDE8F0876060000000487047DC0B00240F
:100C00007546FFF7F9FFAE4605006946534620F0EA
:100C10000700854618B020B5FFF7F0FBBDE820407F
:100C20004FF000064FF000074FF000084FF0000BA8
:100C300021F00701AC46ACE8C009ACE8C009ACE85B
:100C4000C009ACE8C0098D46704710B50446AFF343
:100C500000802046BDE81040FFF7BCBB4FF0013CD0
:100C600050F8042B51F8043B9A4215D1A2EB0C0327
:100C7000934313EACC130BD150F8042B51F8043BE7
:100C80009A4209D1A2EB0C03934313EACC13E7D0A9
:100C90004FF00000704700BFD01A01BAB1FA81F1DD
:100CA00001F0180122FA01F0CB40C1F12001DBB2C2
:100CB000C0B2C01A2CFA01F3D11A914311EAC31140
:100CC000E6D1704701491820ABBEFEE726000200BE
:100CD00070475FEA400C08BF91F0000F4FEA8C2389
:100CE0004FEAC12243EA51514FEA1C5018BF00F5A8
:100CF000F0404FEA300018BF41F000415FEA6C5C01
:100D000000F02980BCF1FF3F08BF40F080407047F1
:100D1000130C06BF12044FF0100C4FF0000C130E12
:100D200004BF12020CF1080C130F04BF12010CF1E6
:100D3000040C930F04BF92000CF1020CD30F04BFFC
:100D400052000CF1010C11464FF00002A0F11F00FF
:100D5000A0EB0C00704711F0004F08BF704731F056
:100D600000413FF4D5AF0B0C06BF09044FF0100C47
:100D70004FF0000C0B0E04BF09020CF1080C0B0F16
:100D800004BF09010CF1040C8B0F04BF89000CF1A6
:100D9000020CCB0F04BF49000CF1010CCCF1200375
:100DA000A0EB0C0022FA03F302FA0CF241EA030171
:100DB00000F10100704720F07F4C80EA030023F02F
:100DC0007F47ACEB070303F57C5300F0004003F1D1
:100DD000FF032DE980494FEA154B09B44FEA14434C
:100DE00025EA0B4E24EA03480FF2042606EB1327EC
:100DF00049083E785FEA320203FB0667C7F5000741
:100E000007FB06F64FEA54374FEAD64606F10206CC
:100E100007FB066CCCF1005C4FEA1C472CEA074C40
:100E200007FB06F40CFB06F504EB15464FEA961695
:100E300034BF00204FF000404FEAD13706FB07FCDB
:100E40004FEA1C4C0CFB0BF7D21B03FB0CF761EBBE
:100E500007010CFB0EF7B0EB074072EB17420CFBDF
:100E600008F734BFA2EB0742B2EB074261EB174130
:100E70004FEA0C444FEA910706FB07FC4FEA1C4C73
:100E80000CFB0BF7B0EBC74072EB573203FB0CF7D0
:100E900034BFA2EBC742B2EBC74261EB57310CFB48
:100EA0000EF7B0EBC70072EB57720CFB08F734BFBC
:100EB000A2EBC702B2EBC70261EB5771039F4FEA87
:100EC000816141EA921104EBCC044FEAD1374FEA39
:100ED000826206FB07FC42EA90124FEA80604FEA0A
:100EE0001C4C0CFB0BF7D21B03FB0CF761EB07014F
:100EF0000CFB0EF7B0EB074072EB17420CFB08F748
:100F000034BFA2EB0742B2EB074261EB17414FEA55
:100F10008C554FEA910704EB9C2406FB07FC4FEA33
:100F20001C4C0CFB0BF7B0EBC74072EB573203FBCA
:100F30000CF734BFA2EBC742B2EBC74261EB5731AB
:100F40000CFB0EF7B0EBC70072EB57720CFB08F707
:100F500034BFA2EBC702B2EBC70261EB577115EBCE
:100F60004C254FEA816141EA92114FEA82624FEAD1
:100F7000D13742EA901206FB07FC44F100044FEA25
:100F800080604FEA1C4C0CFB0BF7D21B03FB0CF7E9
:100F900061EB07010CFB0EF7B0EB074072EB174259
:100FA0000CFB08F734BFA2EB0742B2EB074261EB40
:100FB000174115EB1C154FEA813141EA92414FEA86
:100FC000823242EA90424FEA80304FEA0C7644F196
:100FD000000448EA03434EEA0B484FF0000EB2EB20
:100FE000080C71EB030724BF624639464EEB0E0E28
:100FF0004FF0000B0018524149414BEB0B0BB2EB89
:10100000080C71EB03077BF1000B24BF62463946E5
:101010004EEB0E0E4FF0000B0018524149414BEBC6
:101020000B0BB2EB080C71EB03077BF1000B24BF39
:10103000624639464EEB0E0E51EA020718BF46F0E3
:10104000010616EB0E7655F1000254F1000103D5AE
:10105000BDE88901BDE80088BDE88901BDE8004818
:10106000B619524141EB0101A3F1010370478080A1
:101070007F7E7D7C7B7A79787776767574737271F2
:1010800071706F6E6E6D6C6C6B6A6A6968686766AA
:1010900066656464636362616160605F5F5E5E5D3C
:1010A0005D5C5C5B5B5A5A595958585757565655B0
:1010B00055555454535352525251515050504F4F12
:1010C0004F4E4E4D4D4D4C4C4C4B4B4B4A4A4A4962
:1010D00049494848484747474746464645454544A5
:1010E0004444444343434342424242414141002B32
:1010F0009C4630D477002BD01CB54FEA370703B499
:101100004FF010004FF01001BAF1000F06D0BCF103
:10111000000FDCBF40F0080040F008014FF0000075
:101120000FBCBDE810400BF1010BBBF1010F08BF74
:101130005FEA170722BF12F1010211F101014FF01E
:10114000004143F1000300F0004043EA0000704713
:10115000F9D35708D0E746EA064613F1400F4FEAA5
:1011600016461FDD13F1200FDFBF16430A4600218C
:1011700020335B42BED0C3F1200746EA064602FA9E
:1011800007F74FEA164646EA0706C3F1200722FA98
:1011900003F201FA07F721FA03F14FF0000342EAE4
:1011A0000702A7E746EA020646EA06464FEA16465F
:1011B00046EA0106BCBF46EA0646360C4FF000037D
:1011C0004FF000024FF0000194E72DE9804C9A4661
:1011D000934670B491E8380007C831EA400C48BF24
:1011E00034EA430C03D5FFF7E6FDFFF780FFF0BCC0
:1011F000BDE8008C2DE9804C9A46934670B491E886
:10120000380007C810F0804F08BF13F0804F03D19B
:1012100000F005F8FFF76BFFF0BCBDE8008C20F094
:101220007F4780EA030023F07F4C07EB0C03A3F514
:101230007C5300F00040A3F1FE0392F0000F00F099
:10124000B38095F0000F00F077802DE901494FEA57
:1012500011404FEA144621EA004800FB06FC24EA4C
:10126000064708FB06F607FB08F800FB07F718EB34
:1012700006484CEB164C4FEA124B18EB07484FEA66
:1012800015464CEB174022EA0B4E0BFB06FC25EAF9
:1012900006470EFB06F607FB0EFE0BFB07F71EEBE1
:1012A000064E4CEB164C4FF000061EEB074E4CEB77
:1012B000174B18EB0B0840F1000018EB0E0B58EB26
:1012C000000840F100008F1A4FF000013CBFC943F5
:1012D000661B14BFB5EB040C00213CBFC943F61BD1
:1012E0004FEA17444EEA8E0E27EA04454FEA1C47A0
:1012F00004FB07622CEA074C05FB07F70CFB05F61D
:1013000004FB0CFC16EB074642EB174216EB0C46AF
:1013100042EB1C421BEB060658EB0202414146EA37
:101320009E0601D5BDE80189B619524141EB010184
:10133000A3F10103BDE801894FEA14454FEA1147C3
:1013400024EA054621EA074C05FB07F406FB07F7EC
:101350000CFB06F105FB0CFC11EB074144EB1744B9
:101360004FEA124711EB0C4144EB1C4422EA074CB4
:1013700005FB07F206FB07F70CFB06F605FB0CFC6A
:1013800016EB074642EB174216EB0C4642EB1C45A8
:101390006A1854F1000148BF7047B619524141EB39
:1013A0000101A3F10103704795F0000F37D04FEA18
:1013B00011424FEA144721EA024624EA074C02FB95
:1013C00007F106FB07F70CFB06F402FB0CFC14EB21
:1013D000074441EB17414FEA154714EB0C4441EB2E
:1013E0001C4125EA074C02FB07F506FB07F70CFB3F
:1013F00006F602FB0CFC16EB074645EB174516EB11
:101400000C4645EB1C42121951F1000148BF7047D0
:10141000B619524141EB0101A3F1010370474FEAB4
:1014200014454FEA114724EA054621EA074C05FB1B
:1014300007F106FB07F70CFB06F24FF0000605FB71
:101440000CFC12EB074241EB174112EB0C4251EB43
:101450001C4148BF7047921841EB0101A3F1010301
:101460007047FEE7002070470020704705490022C2
:10147000054810B503F09AFC0449034803F089FCC1
:10148000002010BD340A0020D401002434020020C2
:101490000146044810B503F07CFC024803F052FCFE
:1014A000002010BDD401002400207047094A10B567
:1014B000D2F8BC22D2F814220AB1012010BD0A468B
:1014C0000146044803F072FCBDE81040014803F0F7
:1014D000E3BC0000D4010024704772B6FEE70000B0
:1014E000014800F0FDBA000034010024014800F07A
:1014F000F7BA000034010024F0B503684FF6FC7120
:101500006D4C426BD3F884508D4345EA8205C3F895
:101510008450036853F8845F068F25F47F0545EAFD
:1015200006451D60836B654D9F180268D2F88830B0
:101530008B4343EA8703C2F88830026852F8883F39
:10154000868F23F4FE0343EA06431360066856F8C9
:10155000A03FC26B8B4307EB420243EA8203336036
:10156000076857F8A03FB0F8406023F4FE0343EA51
:1015700006433B60D0E9103603FB06220368D3F82C
:10158000B0608E4346EA8206C3F8B0600368B0F8E4
:101590004860D3F8B07027F4FE0747EA0646C3F860
:1015A000B060D0E91267036806FB0722D3F8AC608D
:1015B0008E4346EA8206C3F8AC60D0E9146703683C
:1015C00006FB0722D3F8F0608E4346EA8206C3F892
:1015D000F0600368B0F85860D3F8F07027F47C1717
:1015E00047EA0646C3F8F0600368876D53F8C06F9A
:1015F00002EB47028E4346EA820119600168B0F8A7
:101600005C20D1F8C03023F47C1343EA0242C1F8D5
:10161000C020016890F86020D1F8C03023F07C53DE
:1016200043EA0262C1F8C020416B04EB8101C1664C
:10163000826B01EB82020267C36B02EBC30242675B
:10164000D0E91034634302EB83028267D0E912349D
:10165000634302EB8302C267D0E91434634302EBB5
:101660008302C0F88020836D02EBC303C0F884308E
:10167000C46D826E544303EB8403C0F88830046E5B
:10168000544303EB8402C0F89020AA420AD9D0F850
:101690009C20032142F02002C0F89C2080F8981082
:1016A0000120F0BD002200E004C1D0F890308B4250
:1016B000FAD80020F0BD000000AC0040FCD3004090
:1016C000F0B58E680C69D1E9005744EA0604DFB131
:1016D00045F080452C43866ED1E906C54F695E43CF
:1016E00091F8203045EA0C05D0F884E00020D1F8CC
:1016F0000CC047EA0363114F1D430EEB860345EA16
:101700000C05E3E8024511E044EA8544E3E71418D8
:10171000155CA67894F803C094F801E0360445EA15
:101720000C6446EA0E252C43001D10C3CC6807EB61
:10173000144424788442EAD8F0BD00009C6A000872
:1017400080B204F0A7BF000010B590F89830012BCC
:1017500009D0022B07D0D0F89C1041F00201C0F84C
:101760009C10012010BD03689C6D0C4203D1DC6D00
:1017700044F0010404E09C6D31EA04041FD003240A
:10178000DC658B0505D50368D3F8E0401443C3F846
:10179000E0404B0505D50368D3F8E4401443C3F893
:1017A000E4400068084A01EA0203446D074A1C430A
:1017B0004465106840EA91701060002010BDDC6D37
:1017C00044F00204DCE70000FFFFCF3F14A8004014
:1017D00070B5044690F89800022804D0D4F89C0014
:1017E00040F008000DE02068D0F8C03013F07C5FB6
:1017F0000BD0D0F8C4309B020CD5D4F89C0040F438
:101800000070C4F89C00012070BDD4F89C0040F02A
:101810002000F6E7D0F8C400C0F3044520462B466C
:10182000FFF74EFF21680120A840C1F8D000C4F89E
:101830009400002070BD704790F89830012B07D0BD
:10184000D0F89C1041F00401C0F89C1001207047B2
:1018500061B10068012913D0D0F8B01021F0FE4129
:1018600041EA0261C0F8B010002070470068D0F86B
:10187000F01021F07C5141EA0261C0F8F010F3E76A
:10188000D0F8A01021F0FE4141EA0261C0F8A0109A
:10189000EAE770B590F89820012A09D0022A07D00B
:1018A000D0F89C1041F00201C0F89C10012070BDDE
:1018B0000B68CA6883B10B69072A43EA427325D0D3
:1018C0000C7A4A6942EA84724968006F00EBC100F1
:1018D000C0E90032002070BD072A0DD00C7AD60670
:1018E0000D8A4B6943EA847246EA0543C06E496833
:1018F0001A4340F82120EDE70B8A4FF06055D1E9FB
:10190000062442EA034245EA0423EFE78A69DBE75B
:1019100030B590F89850039C012D07D0D0F89C105A
:1019200041F00401C0F89C10012030BD0D01016898
:1019300045EA820040EA43002043C1F880000020CD
:1019400030BD704770470000F0B590F89840002512
:10195000022C04D0D0F89C1041F008012BE0402963
:101960004FF0004605D0412929D0046D8C4219D989
:1019700042E00468D4F8A07017F4FE0F12D0D4F837
:10198000A4707F0613D0D4F8A470FF0105D5D4F855
:10199000A070B6EBD77F00D10125D4F8A470466FB4
:1019A000446C24E0D0F89C1041F0200103E0D0F812
:1019B0009C1041F48071C0F89C100120F0BD0468B7
:1019C000D4F8B07017F4FE0FECD0D4F8B4707F06E2
:1019D000EDD0D4F8B470FF0105D5D4F8B070B6EBF3
:1019E000D77F00D10125D4F8B470866FC46CC7F3DB
:1019F00005273D446C4302E0446DC66F4C4306EB43
:101A00008404266816F080465660266836D026F094
:101A100060461660D4F800C000262F4F0CF0005C22
:101A2000C2F808C0D4F800C00CF0004CC2F810C0D6
:101A3000B4F804C01FFA8CFCC2F81CC0D4F804C06F
:101A40000CF4702CC2F80CC0D4F804C00CF4801C48
:101A5000C2F814C0D4F804C00CF4001CC2F818C0BA
:101A6000D4F804C0CCF3066CC2F820C0D4F804C08B
:101A700008344FEADC7CC2F824C008E0C6F38A468A
:101A8000C7E700BF14F806C003F806C0761CD2F8FA
:101A90000CC007EB1C4C9CF800C0B445F2D84029A0
:101AA0000AD041290CD020294FF001020CD2006845
:101AB0008A40C0F898200DE00068C0F8A85009E0FE
:101AC0000068C0F8B85005E0006801F01F018A40C6
:101AD000C0F89C200020F0BD9C6A00087047000000
:101AE0002DE9FF5FDFF80CB304460BF10401DBF8CE
:101AF000000025680F68AA468007D5F85090696DE8
:101B0000D5F850806E6D2A6DD5F854C02B6D00EA63
:101B10008770009009F470496F6D286D01EA090122
:101B20000191DAF85410DAF85490DAF8505008F0CD
:101B30000F0806EA0806029602F0F00203F071535D
:101B40006FEA09061F4000F060700CEA020CCDF845
:101B50000CC0F20501EA00090CD4E843C00509D421
:101B600000214FF48073CAF85030CBF800102046A3
:101B7000FFF7B4FF700512D4E84340050FD4206886
:101B800000234FF48068D0F8DC20D0F8E410C0F8CF
:101B90005080CBF800301140204600F0D3FADFF837
:101BA00058A2009850B12268830F00EA0A0010651D
:101BB000CBF8003020460099FFF73DFE019850B168
:101BC0002268830F00EA0A001065CBF80030204637
:101BD000019900F0B9FA029850B12268830F00EA27
:101BE0000A001065CBF800302046029900F080FA18
:101BF000039850B12268830F00EA0A001065CBF801
:101C000000302046039900F07DFA30050CD4E843FB
:101C1000000509D4236800204FF400621A65CBF850
:101C20000000204600F091FAB00512D4E843800588
:101C30000FD4206800234FF40078D0F8D820D0F8D3
:101C4000E010C0F85080CBF800301140204600F082
:101C50007AFA30030CD4E843000309D42368002047
:101C60004FF400221A65CBF80000204600F03EFA3F
:101C7000F0030CD4E843C00309D4236800204FF4D8
:101C800080321A65CBF80000204600F05AFA700343
:101C90000CD4E843400309D4226800204FF4802389
:101CA0001365CBF80000204600F04AFAB0030FD4C9
:101CB000E84380030CD4236800204FF400321A65F7
:101CC000CBF80000D4F89C0040F08000C4F89C00E1
:101CD000B9F1000F0BD022684FEA997309EA0A00A4
:101CE0001065CBF8003049462046FFF72BFE5FB168
:101CF0002268BB0F07EA0A001065CBF80030D4F861
:101D00009C003843C4F89C003C492068884268D154
:101D1000606881468068800763D0D9F82060D9F870
:101D20002410D9F82080D9F82400D9F820C0D9F897
:101D30002470D9F82030D9F82450D9F8202003F4A1
:101D4000FC4306F00F0AD9F824601D40D9F824B0EE
:101D500008F030080CF4C07C02F4F02211EA0A0109
:101D600000EA080807EA0C0706EA0206D9F820A0EC
:101D700004D0C9F82010204600F0DFF9B8F10000C7
:101D800005D0616808624146204600F0D8F96FEA44
:101D90000B0040060ED46FEA0A0040060AD46068C1
:101DA0004021C36BC26B01622046190C02F03F0256
:101DB00000F0C4F92FB1606807623946204600F090
:101DC000BBF935B160680562D4F89C002843C4F8BB
:101DD0009C0036B160680662D4F89C003043C4F8B9
:101DE0009C00D4F89C00002802D02046FFF7A9FDF3
:101DF000BDE8FF9F10A80040FFFFCF3F00A00040BC
:101E00002DE9F04194B08D494C2204466846FEF716
:101E10006EFB64B18A4D2068A84202D100F5807043
:101E2000606094F898004FF0000820B108E00120AD
:101E300014B0BDE8F081204684F8998000F002F9E2
:101E40002068816921F01001816100F097FA032771
:101E5000064604E000F092FA801B0A2811D8206898
:101E600080690007F6D42068816941F00101816131
:101E700000F084FA06460DE000F080FA801B0A2884
:101E800008D9D4F89C0040F00100C4F89C0084F804
:101E90009870CCE720688069C007EDD02068816920
:101EA00041F002018161207C01282068816937D0DE
:101EB00041F040018161607C01282068816932D055
:101EC00021F480418161A07C0128206881692DD0A6
:101ED00041F4805181612068A268816921F44071D8
:101EE000114381612068816921F0A401816120682A
:101EF000016921F010010161E068012819D010B3D7
:101F000002281BD02068816941F08001816120682E
:101F1000016941F010010161E06803280ED012E070
:101F200021F04001C6E741F48041CBE721F4805124
:101F3000D0E72068816941F0040103E020688169ED
:101F400041F020018161207E6FF0FF02D4E9077328
:101F5000A68A1102400602EB0727A0F10070384361
:101F600027685B1E184301EB06463043F861A06802
:101F7000B0F5407F11D104F12800A68C6FF00F0C52
:101F800089C801EB0641401E02EB03221043226880
:101F90000CEB071318430843D060206E30B1206863
:101FA000626ED0F8C0101143C0F8C010D4E9171207
:101FB0006846D14209D02168A36E51F8C82F50F865
:101FC000233022F007021A430A60216C49B12168CC
:101FD000626C51F8BC3F50F8226023F00702324394
:101FE0000A60A16C51B12168E36C51F8BC2F50F824
:101FF000233022F0700242EA03120A60216D51B1CF
:102000002168626D51F8BC3F50F8220023F4E06271
:1020100042EA002008602068A84204D16068816814
:1020200021F003018160C4F894800121C4F89C80F0
:1020300084F898102046FFF75FFAF9E6AC6A0008CA
:1020400000A0004010B5B4B0044614212EA8FEF73D
:1020500080FAB8216846FEF77CFA21492068884258
:102060003CD100204FF40041CDE900104A036846FE
:102070001B9201F003F808B1FFF72FFA1948016825
:1020800041F480710160006800F48070339015485D
:102090000C38016841F00801016000680923032140
:1020A00000F00800339000202E9102222EA9CDE9E5
:1020B0002F20CDE931030C4800F048F8002213200E
:1020C000114600F021FA132000F010FA002215202A
:1020D000114600F019FA152000F008FA34B010BDCE
:1020E00000A00040EC440258000C02587047000069
:1020F000C90704D00249884201D104F003BB7047EC
:1021000034010024704790F89810012907D0D0F8C6
:102110009C1041F00401C0F89C100120704702217E
:1021200080F89810002201688B6923F001038B610D
:10213000C0F89C2010467047704770477047704742
:102140007047704770477047704770472DE9F84FE8
:1021500003247A4D00234FF001094FF0B04B4FF0AC
:102160000F0AE4E009FA03F6324078D00F7907F05D
:102170000307012F01D0022F1AD187684FEA430EBF
:10218000D1F80CC004FA0EF827EA08070CFA0EFC86
:102190004CEA070CC0F808C0476891F804C0B74380
:1021A000CCF3001C0CFA03FC4CEA070CC0F804C08A
:1021B0000E79F643B6070BD0C6684FEA43088F681E
:1021C00004FA08FC26EA0C0607FA08F73743C7604A
:1021D0000E7906F00306022E12D1DE080F694FEACF
:1021E000437C00EB8606B646366A4FEADC6C0AFA98
:1021F0000CF807FA0CF726EA08063743CEF82070E9
:102200000F7906684FEA430807F0030704FA08FC51
:1022100007FA08F726EA0C06374307604E6816F4FB
:10222000403F1CD0464E376847F00207376036689B
:102230009F0706F00206009623F0030606F1B0465B
:10224000B6463F0FD6F80864DFF8F8800AFA07FCB4
:10225000404526EA0C0603D14FF0000C3AE065E059
:10226000DFF8E4C0604502D14FF0010C32E0DFF846
:10227000DCC0604502D14FF0020C2BE0DFF8D0C08B
:10228000604502D14FF0030C24E0DFF8C8C0604580
:1022900002D14FF0040C1DE0DFF8BCC0604502D154
:1022A0004FF0050C16E0DFF8B4C0604502D14FF0E6
:1022B000060C0FE0DFF8A8C0604502D14FF0070C14
:1022C00008E0DFF8A0C0604502D14FF0090C01E042
:1022D0004FF00A0C0CFA07FC4CEA060CCEF808C4C6
:1022E0004F68DBF80060FF0226EA020600D51643BD
:1022F0005F46CBF80060D1F804C0DBF804605FEA09
:102300008C2C26EA020600D516437E606E684F6864
:1023100026EA0206BF0300D516436E602E684F689A
:1023200026EA0206FF0300D516432E605B1C0A68EE
:1023300032FA03F67FF416AFBDE8F88F800000583C
:10234000F4440258000002580004025800080258E1
:10235000000C0258001002580014025800180258CD
:10236000001C0258002402580069084000D00120D7
:1023700070470AB1816170470904FBE70148806832
:102380007047000020000020024881680278114454
:102390008160704720000020032010B500F0D4F8C1
:1023A00001F05AFC0F4A104914681368C4F3032261
:1023B00003F00F038A5CC95C02F01F0201F01F01E9
:1023C000D0400A4A20FA01F11160094908600F2043
:1023D00000F010F808B1012010BD00F079F80020DD
:1023E00010BD000018440258F86A000830000020B0
:1023F0002C00002070B50D4D04462878A0B14FF494
:102400007A71B1FBF0F00A490968B1FBF0F001F014
:102410005EFF48B9102C07D200222146501E00F062
:1024200073F800206C6070BD012070BD200000209A
:102430002C000020F0B5154C4378211D0A1D2360A7
:102440000378F3B143680B60057BC67A817A437BDE
:102450002D07847B45EA0665C77B90F809C0067A9C
:1024600090F800E045EAC14040EA834040EA444039
:1024700040EA074040EA0C2040EA460040EA0E00ED
:1024800001E0002008601060F0BD000098ED00E061
:10249000BFF35F8F044800210368034A23F48033AD
:1024A000036070321160704724ED00E0074A40F08D
:1024B0000100064970321060086840F480300860FE
:1024C000BFF34F8FBFF36F8F7047000024ED00E024
:1024D000054808B5016841F002010160006800F09C
:1024E0000200009008BD0000F4440258002809DBF7
:1024F000410900F01F028900012001F1E021904014
:10250000C1F80001704700000E4BF0B41B680D4687
:10251000C3F30223C3F10706042E00D90426191DB4
:10252000072901D2002300E0DB1E012404FA06F192
:102530009C40491E2940641E994014402143F0BC30
:1025400004F00FB80CED00E0064900F0070210B5EA
:102550004FF6FF040868044B204040EA022018436D
:10256000086010BD0CED00E00000FA0501680123D1
:10257000C0F80035002280F8F4248869044A40F04D
:1025800000608861486D1043486500207047000076
:102590000300001070470068416200207047F0B5EA
:1025A00003685D6A39B19F6A4C1E00204FF4827641
:1025B00005EB17450BE045EA0240986210E0471C26
:1025C00006EB800053F800C0F8B205EB1C45A042B2
:1025D000F5D34FF4807000EB810045EA02421A50B7
:1025E0000020F0BDD0F8080502F0EBBE01EBC102FF
:1025F00000EB8202D0F80805926C02F03EBE01EBBF
:10260000C10200EB8202D0F80805D2F8882202F05D
:1026100090BED0F8080502F0D6BE0A0601F00F0100
:1026200001EBC10100EB810101D53C3101E001F575
:102630001F71006803F0C2BD01F00F020B0670B5F8
:1026400002EBC20104464FF001004FF0000504EB1D
:10265000810103D581F83D003C3103E081F87D52D2
:1026600001F51F710A7094F8BC24012A08D084F87F
:10267000BC04206803F0BEFA002084F8BC5470BD8E
:10268000022070BD70B54268044601F00F00904210
:1026900001D9012070BD01F00F024FF000050B06BB
:1026A00002EBC2014FF0010204EB810103D581F876
:1026B0003D203C3103E081F87D5201F51F718D70A2
:1026C000087094F8BC04012808D084F8BC24206861
:1026D00003F000FC002084F8BC5470BD022070BDE3
:1026E00001F00F0101EBC10100EB8100D0F8900275
:1026F00070472DE9F04101F00F0604460D064FF03A
:10270000010006EBC6014FF0000504EB810103D583
:1027100081F83D003C3103E081F87D5201F51F71E5
:102720004F788A600B710E7007B14E83022B00D177
:102730004D7194F8BC24012A09D084F8BC042068A7
:1027400003F0A6F9284684F8BC54BDE8F0810220C5
:10275000FBE770B501F00F05002405EBC50100EBA8
:10276000810101F5227181E81C0001F80B4C01F890
:102770000C5DC368012B00D1CA61027B006803F0C5
:1027800001FC002070BD70B50D464168044605F09F
:102790000F00884201D9012070BD29064FF00006C4
:1027A0004FF0010207D500EBC00104EB810181F875
:1027B0003D203C3107E005EBC50104EB810181F8C8
:1027C0007D6201F51F718A70087094F8BC040128BD
:1027D00007D084F8BC24206803F0A8FB280702D0A7
:1027E00007E0022070BD217B04F2C442206803F0A0
:1027F00045FB002084F8BC6470BD70B501F00F0487
:10280000002504EBC401012600EB8101483181E879
:102810002C0001F80B6C01F80C4DC368012B00D1A2
:10282000CA61027B006803F0ADFB002070BD0000B0
:102830002DE9FC5F05680446284603F060FD00288A
:102840007ED1206803F087FD002879D0D5F80808EC
:10285000C0F30D20C4F8FC04206803F07CFD800761
:1028600004D52068416901F002014161206803F04C
:1028700072FDC10604F2C440009034D5206881691D
:1028800021F0100181612F6A07F00F01C7F3434067
:1028900001EBC101022804EB810606F51F7602D088
:1028A000062811D01AE047F6F070074216D0C7F399
:1028B0000A12F1681746284603F051FDF168706965
:1028C0003944F160384408E000990822284603F0B2
:1028D00046FD7069C7F30A11084470612068816978
:1028E00041F010018161206803F035FD00034FF0D5
:1028F000000A4FF0020B4FF001097CD5206800263A
:1029000003F008FD074674E0F80770D02068F1B2C4
:1029100003F019FD8046C00707D005EB4611C1F84A
:10292000089B3146204601F0CDFD5FEA087025D5B1
:1029300005EB46110820C1F8080BFC49206800E0AF
:1029400042E2026C00EB461001928A42D0F8081B6A
:1029500005D9090403D54FF40041C0F8081B2046EF
:1029600000F01AFBF1490198884207D9E068012874
:1029700004D120680121009A03F080FA5FEAC86060
:1029800004D505EB46111020C1F8080B5FEA8870EA
:102990001CD56869000605D5D5F8040840F48061A7
:1029A000C5F8041806EBC60004EB800090F87F120F
:1029B00000F51F70012905D180F803A02046F1B26F
:1029C00000F008FA05EB4611C1F808BB5FEA886021
:1029D00004D505EB46112020C1F8080B5FEA8840BA
:1029E00005D505EB46114FF40050C1F8080B7F08E0
:1029F000761C002F88D1206803F0ADFC40036FD512
:102A0000206803F080FC0026074667E0F80763D0E3
:102A10002068F1B203F085FC8046C00723D0D5F8CA
:102A2000342806F00F0C05EB461309FA0CF082432C
:102A3000C5F83428C3F80899E06801280FD106EBDF
:102A4000C60004EB8000D0E911121144816436B94C
:102A5000E06C20B920680121009A03F00FFA2046AB
:102A6000F1B2FFF7C3FD5FEA087004D505EB46112C
:102A70000820C1F808095FEAC86004D505EB4611D3
:102A80001020C1F808095FEA486004D505EB46113B
:102A90004020C1F808095FEA887016D531462846FB
:102AA00003F000FC06EBC60004EB800090F83F103A
:102AB0003C30012905D180F803A02046F1B200F096
:102AC00085F905EB4611C1F808B95FEA086003D53E
:102AD0003146204601F05CFD7F08761C002F95D121
:102AE000206803F038FC002811DAD5F8040820F03B
:102AF0000101C5F8041894F8F40401283BD02046DD
:102B000000F02EFA2068416901F00041416120681F
:102B100003F021FC00050BD5D5F80808C00702D04A
:102B2000204600F061FA2068416901F400614161CA
:102B3000206803F010FC00010AD52068416901F00B
:102B40000061416194F8F404E0B1204600F04CFAD1
:102B5000206803F000FCC00472D5D5F8040820F00A
:102B60000101C5F804182068102103F09BFB002127
:102B70004FF67F322DE00021204684F8F4A4FFF7C1
:102B800009FDBFE784F8F4942068406D0121C0F38B
:102B90008300C4F8F8042046FFF7FCFCD8E700BF28
:102BA00005EB4110C0F80829D0F8003923F40013D0
:102BB000C0F80039C0F8082BD0F8003B23F400130C
:102BC000C0F8003BD0F8003B43F00063C0F8003B86
:102BD000491C60688842E3D8D5F81C0840F0011110
:102BE000C5F81C18206B68B1D5F8840840F00B01BB
:102BF000C5F88418D5F8440840F00B012846C5F8FC
:102C000044180DE0D5F8140842F22B010843C5F82A
:102C10001408D5F8100840F00B012846C5F8101824
:102C2000D0F8000820F4FE61C5F80018217B206868
:102C3000009A03F023F92068416901F48051416151
:102C4000206803F088FB800417D5206802F060FF3D
:102C5000206803F047FB206100F0DCFF217C236843
:102C6000CAB20146184603F0DBFB204600F062F9C9
:102C70002068416901F400514161206803F06BFB59
:102C8000000707D5204600F06FF92068416901F080
:102C900008014161206803F05EFB000616D5A869B3
:102CA000012620F08001A9610DE000BF06EBC600FF
:102CB00004EB800090F87F02012803D12046F1B296
:102CC000FFF7ABFC761C6068B042EFD8206803F0D9
:102CD00042FBC00221D501264F4616E006EBC60195
:102CE00005EB461004EB8101D0F8000991F8402073
:102CF000012A09D1002807DAF0B281F83F7040F0CC
:102D000080012046FFF789FC761C6068B042E5D858
:102D10002068416901F480114161206803F01BFBC8
:102D2000800234D501204B4629E000000A30544F80
:102D300000EBC00205EB401104EB8202D1F8001B4E
:102D400092F88062012E19D1002917DA94F8FC64F8
:102D500001F4803106F00106B1420FD182F87F32D2
:102D6000A96941F08002AA616969090606D4D5F80B
:102D7000040840F40070C5F8040803E0401C6168D2
:102D80008142D5D82068416901F400114161206871
:102D900003F0E1FA400007D52046FFF723FC206846
:102DA000416901F080414161206803F0D4FA400795
:102DB0000AD520684568680702D52046FFF729FC38
:102DC0002068416829434160BDE8FC9FD0F80805B0
:102DD00002F052BBD0F8080502F062BB2DE9F041C9
:102DE00004008AB005D094F8BD040025266820B1FF
:102DF00008E001200AB0BDE8F081204684F8BC5408
:102E000000F066F8032084F8BD04F06BC00500D420
:102E1000E560206803F02CF804F1100168462822D0
:102E20008846FDF764FB94E80F0002F07FFE02275E
:102E3000D8BB2068002103F0B2FA0020012610E080
:102E400000EBC001421C04EB810181F83D6081F878
:102E500040504D648D64CD6481F83C00A1F856006B
:102E6000D0B261688142EBD8002011E000EBC001D4
:102E7000421C04EB810181F87D5281F88052C1F837
:102E80008452C1F88852C1F88C5281F87C02D0B2C9
:102E900061688142EAD8282241466846FDF727FB4F
:102EA00094E80F0002F028FF10B184F8BD74A0E789
:102EB000606A84F8385084F8BD64012802D1204645
:102EC000FFF754FB206802F009FF002092E70000A2
:102ED00010B5B0B00446B8216846FDF73AFB134977
:102EE0002068884220D100204FF480214FF4401206
:102EF0002192CDE90010684600F0C0F808B1FEF755
:102F0000ECFA00F0B3F80A48016841F00071016082
:102F100000680022114600F000702E904D20FFF74F
:102F2000F3FA4D20FFF7E2FA30B010BD0000044084
:102F3000D844025870B504460069012570B10228D2
:102F400001D0FEF7CAFAD4F80805294602F017FBAB
:102F5000D4F80805BDE8704002F0CBBA0025F2E7CE
:102F6000D0F8080502F0F4BAD0F8080502F0FABA71
:102F700010B5044690F8BC0401280BD0012084F859
:102F8000381084F8BC04206803F038FA002084F874
:102F9000BC0410BD022010BDD0F8082500F2C441C9
:102FA000104602F0F8BA10B590F8BC140446006858
:102FB000012909D0012184F8BC14C16BC90509D4C9
:102FC000A16A012902D005E0022010BD816B41F405
:102FD00080318163206803F040F9206802F070FEC0
:102FE000002084F8BC0410BD10B50446D0F80805D4
:102FF00002F013FB2068D0F8001E41F00101C0F878
:10300000001E206A002804D00248016841F0060131
:10301000016010BD10ED00E0134970B50A68D2439D
:10302000520705D5096801F00701814213D118E064
:103030000A6822F0070202430A60FFF79FF90A4D6F
:103040004FF47A760446083D07E000BFFFF796F993
:10305000001BB04201D9012070BD2868C043800424
:10306000F4D4002070BD00000C48025802480168EA
:1030700041F08071016070470C4802582DE9FE4F05
:103080000546DFF800A450F8081B0024FD4FC94393
:10309000019005F1280026460AF1240A0090080153
:1030A0001DD4686E50B1B0F5801F0CD0B0F5001F74
:1030B0000ED0B0F5401F1ED001240FE0386840F458
:1030C0000030386017E00198022101F0B3FA03E004
:1030D0000098022101F03EFB04000CD0264628880F
:1030E000C043C00523D4A86D05281ED2DFE800F038
:1030F0000C11161B1B006A6EDAF8001021F4401147
:103100001143CAF80010EAE7386840F4003038602C
:1031100009E00198002101F08DFA03E000980021F8
:1031200001F018FB0446C4B100E0012426462888BB
:10313000DFF85083C04308F12C0840052FD4D5F8A0
:10314000A400B0F5C00F28D010DCB8B1B0F5001F56
:1031500019D0B0F5800F0FD11AE0AA6DDAF800107F
:1031600021F007011143CAF80010E0E7B0F5000FA5
:1031700013D0B0F5200F10D001240FE0386840F4D0
:103180000030386009E00198002101F053FA03E0B3
:103190000098002101F0DEFA044694B12646288802
:1031A000C043000530D4D5F8A800B0F1407F29D045
:1031B00011DCC0B1B0F1807F1AD0B0F1007F10D126
:1031C0001BE0D5F8A420D8F8001021F460011143C9
:1031D000C8F80010E3E7B0F1806F13D0B0F1A06F32
:1031E00010D001240FE0386840F40030386009E066
:1031F0000198002101F01EFA03E00098002101F07F
:10320000A9FA044694B126462868DFF878B2C0438C
:103210000BF1200B80011FD4E86CD8B110280FD01F
:10322000202812D0302815D0012414E0D5F8A82089
:10323000D8F8001021F0E0611143C8F80010E3E76E
:10324000386840F40030386004E00198022101F051
:10325000F1F9044674B126462888C043C0042BD433
:10326000E86DB0F5005F20D00DDCA0B1B0F5805F57
:103270000FD115E0EA6CDBF8001021F030011143AA
:10328000CBF80010E8E7B0F5405F13D0B0F5804F01
:1032900010D001240FE0386840F40030386009E0B5
:1032A0000198002101F0C6F903E00098002101F027
:1032B00051FA04468CB126462888C043800429D49C
:1032C000286EB0F5403F23D010DC08B3B0F5803F46
:1032D00014D0B0F5003F0FD115E0EA6DDAF8001018
:1032E00021F4E0411143CAF80010E5E7B0F5802F62
:1032F0000ED0B0F5A02F0BD001240AE001980121D7
:1033000001F098F903E00098012101F023FA044646
:1033100094B126462888C04340042AD4D5F8AC008E
:10332000B0F1405F23D010DC08B3B0F1805F14D05F
:10333000B0F1005F0FD115E02A6EDAF8001021F429
:10334000E0211143CAF80010E4E7B0F1804F0ED03D
:10335000B0F1A04F0BD001240AE00198012101F047
:1033600069F903E00098012101F0F4F9044674B111
:1033700026462888C04300041FD4E86ED8B1B0F1B7
:10338000805F0ED0B0F1005F10D0012414E0D5F8BA
:10339000AC20D8F8001021F0E0411143C8F800102B
:1033A000E7E7386840F40030386004E00198012114
:1033B00001F040F9044674B126462868C043C001B4
:1033C0001ED4A86CD0B101280ED0022811D0032839
:1033D00014D0012413E0EA6EDAF8001021F0405115
:1033E0001143CAF80010E8E7386840F4003038604C
:1033F00004E00198022101F01DF904466CB1264653
:103400002868C043400255D41F48016841F48071C8
:103410000160FEF7B3FF81460EE0AA6CDBF80010F6
:1034200021F003011143CBF80010E9E7FEF7A6FFF6
:10343000A0EB090064283BD813480068C005F5D507
:10344000BCBBDFF84090B5F8B01009F14409D9F8D9
:10345000000001F4407100F44070884211D0D9F8A6
:103460000010D9F8002021F4407142F48032C9F8EC
:103470000020D9F8002022F48032C9F80020C9F8D1
:10348000001003E02C44025800480258D5F8B00060
:10349000B0F5807F19D1FEF771FF029011E000BFF7
:1034A000FEF76CFF0299411A41F28830814208D937
:1034B000032426462878DFF81494C043C00721D09F
:1034C0003CE0D9F800008007EAD5D5F8B010C1F388
:1034D00001200328FE480DD0016821F47C510160D1
:1034E000B5F8B020D9F80010C2F30B021143C9F8A7
:1034F0000010DFE7F74A036802EA111223F47C5157
:103500001143ECE7A86F182816D005DCA0B10828F5
:1035100008D0102804D10AE020280DD028280BD08C
:1035200001240AE00198012101F084F803E00098E9
:10353000012101F00FF9044664B126462878C04302
:1035400080071ED4686F062819D2DFE800F0160C39
:1035500011161616AA6FD9F8001021F03801114380
:10356000C9F80010EAE70198012101F063F803E0CF
:103570000098012101F0EEF804467CB100E001243E
:1035800026462878C04340071FD4D5F89000062867
:1035900019D2DFE800F0160C111616166A6FD9F86A
:1035A000001021F007011143C9F80010E9E7019864
:1035B000012101F03FF803E00098012101F0CAF871
:1035C0000446A4B100E0012426462878C0438006C2
:1035D0002BD4D5F88C00B0F1405F24D011DC10B3AF
:1035E000B0F1805F15D0B0F1005F10D116E0D5F8D2
:1035F0009020D8F8001021F007011143C8F80010FE
:10360000E3E7B0F1804F0ED0B0F1A04F0BD0012412
:103610000AE00198002101F00DF803E00098022172
:1036200001F098F8044694B126462878C043400635
:103630002BD4D5F89800B0F5406F24D011DC10B32E
:10364000B0F5806F15D0B0F5006F10D116E0D5F849
:103650008C20D9F8001021F0E0411143C9F8001086
:10366000E3E7B0F5805F0ED0B0F5A05F0BD001248A
:103670000AE00198002100F0DDFF03E0009802213C
:1036800001F068F8044694B126462878C043000645
:103690002BD4D5F89C00B0F5C04F24D011DC10B36A
:1036A000B0F5005F15D0B0F5804F10D116E0D5F819
:1036B0009820D8F8001021F4E0511143C8F8001008
:1036C000E3E7B0F5004F0ED0B0F5204F0BD001244A
:1036D0000AE00198002100F0ADFF03E0009802210C
:1036E00001F038F8044654B126462878C043000754
:1036F0001ED4D5F88000B0F5805F0AD00FE0D5F871
:103700009C20D8F8001021F460411143C8F8001043
:10371000EBE70098022101F01DF800B10126D5F871
:103720008020D9F8001021F440511143C9F800104D
:103730002878C043C00613D4D5F89400B0F5807F34
:1037400005D10098022101F005F800B10126D5F855
:103750009420D8F8001021F440711143C8F80010EB
:103760002868C043000316D4D5F8A00038B1B0F5DE
:10377000803F09D0B0F5003F0BD001240AE001984A
:10378000002100F057FF03E00098022100F0E2FF63
:1037900004468CB126462868C043400322D4D5F89D
:1037A0008400B0F5801F11D0B0F5001F13D0B0F524
:1037B000401F15D0012414E0D5F8A020D8F800103F
:1037C00021F440311143C8F80010E4E7386840F4B0
:1037D0000030386004E00098012100F0BBFF04468F
:1037E0005CB126462868C043C0031CD4286D70B164
:1037F000B0F5803F10D0012414E0D5F88420D9F82A
:10380000001021F440111143C9F80010EAE73868AC
:1038100040F40030386004E00198022100F00AFF13
:103820000446DCB126462868C043800005D40098D1
:10383000022100F08FFF00B101262868C0438003F9
:103840001BD4E86FB8B1B0F5807F10D0B0F5007F21
:1038500011D0B0F5407F0ED001240DE02A6DDBF8C9
:10386000001021F480311143CBF80010DBE73868F9
:1038700040F4003038607CB326462868C043C0025C
:1038800007D42A6FDAF8001021F000411143CAF87A
:1038900000102868C043800207D4AA6EDAF800102E
:1038A00021F080711143CAF800102868C04340001D
:1038B00009D40748016821F4004101600168D5F886
:1038C000B420114301602868C04306E05444025804
:1038D00010440258CFFFFF001DE007D46A6DDBF8EB
:1038E000001021F040511143CBF800102868C0436C
:1038F000000208D4D5F88820D9F8001021F440013E
:103900001143C9F8001028790024C04300F00100D9
:10391000204309D00EE0EA6FD9F8001021F440717D
:103920001143C9F80010A8E70198002100F082FEB9
:1039300000B106462879C04300F00200204305D1BB
:103940000198012100F076FE00B106462879C043B7
:1039500000F00400204305D10198022100F06AFE26
:1039600000B106462879C04300F00800204305D185
:103970000098002100F0EEFE00B106462879C04311
:1039800000F01000204305D10098012100F0E2FE74
:1039900000B106462879C04300F02000044304D15A
:1039A0000098022100F0D6FE00B916B10120BDE852
:1039B000FE8F0020FBE700002DE9F05F04000F46BA
:1039C0007ED0DFF83882D8F8000000F00F00B8424F
:1039D0000CD2D8F8001021F00F013943C8F80010BC
:1039E000D8F8000000F00F00B84269D12078844D6B
:1039F00040070AD52069296801F07001884204D97E
:103A0000296821F070010143296020787C4E361D21
:103A100000070AD56069316801F07001884204D955
:103A2000316821F07001014331602078C0060AD569
:103A3000A069316801F4E061884204D9316821F459
:103A4000E061014331602078DFF8B4B180060BF10A
:103A5000080B0CD5E1695846DBF8002002F0700233
:103A6000914204D9026822F070020A430260207871
:103A700080070AD5E068296801F00F01884204D95F
:103A8000296821F00F01014329602078C0073ED04A
:103A90005B49A2682868183920F4706010432860D8
:103AA0006068022818D0032819D00968012819D0A5
:103AB000490700294ADADFF848A1AAF1080A00E01C
:103AC00044E0DAF8002022F007020243CAF800209E
:103AD000FEF754FC814612E009688903E9E70968AA
:103AE0008901E6E7C905E4E7FEF748FCA0EB090118
:103AF00041F28830814202D90320BDE8F09F61681D
:103B0000DAF8000000F03800B0EBC10FECD12078FB
:103B100080070AD5E068296801F00F01884204D2C5
:103B2000296821F00F0101432960D8F800104046B0
:103B300001F00F01B9420BD9016821F00F0139439F
:103B40000160006800F00F00B84201D00120D4E706
:103B5000207840070AD52069296801F07001884261
:103B600004D2296821F07001014329602078000700
:103B70000AD56069316801F07001884204D2316869
:103B800021F07001014331602078C0060AD5A06998
:103B9000316801F4E061884204D2316821F4E061C7
:103BA00001433160207880060CD5E1695846DBF886
:103BB000002002F07002914204D2026822F07002EA
:103BC0000A43026000F048F80E492A682B68C2F3E5
:103BD000032203F00F038A5CC95C02F01F0201F0AC
:103BE0001F01D040084A20FA01F11160074908601E
:103BF00007480068BDE8F05FFEF7FCBB00200052FC
:103C000018440258F86A0008300000202C000020F8
:103C10002400002030B500F01FF80B4A0B490C4B74
:103C200015681468C5F3032204F00F048A5C095D6B
:103C300002F01F0201F01F01D040064A20FA01F1F4
:103C400019601060084630BD18440258F86A000830
:103C5000300000202C000020454970B54548096817
:103C6000434B103B11F0380208D00111082A03D051
:103C7000102A0BD0182A0BD0084670BD1968890687
:103C8000FBD51968C1F3C101C84070BD3A4870BD89
:103C90003749374D18310C1D24350A6809682668E4
:103CA0002D6802F0030406F00102C1F30511C5F30B
:103CB000CC0515FB02F200EE102AB8EE400AE9B37B
:103CC0002F4ADFED2E0AB7EE001A6CB1DFED2D1A88
:103CD000012C01D0022C43D002EE101A1068F8EE2D
:103CE000422A81EEA22A1EE01C68A40611D51B6898
:103CF00001EE901A1168C3F3C103F8EE612AD840AF
:103D000001EE900AC1F30800F8EE611A81EEA22AD2
:103D10000BE001EE901ADFED1C2A00BFF8EE611AED
:103D2000106882EEA12AC0F3080001EE900AF8EEB6
:103D3000611A40EE201A31EE810A00E015E022EE11
:103D4000000A1068C0F34620401C00EE900AF8EE0E
:103D5000600A80EE201ABCEEC10A10EE100A70BD97
:103D600001EE901ADFED092AD8E7002070BD0000AF
:103D7000104402580090D00300366E010000003954
:103D8000304402580024744A0024744C001BB74B82
:103D90002DE9F05F04007DD0FF4F2078FE4D1837ED
:103DA000DFF8F483103DC00748D0D8F80000396828
:103DB00000F03800102815D0182803D101F00300B6
:103DC00002280FD06068B0F5803F12D010B1B0F576
:103DD000A02F18D0286820F480302860286820F4AC
:103DE000802009E02868800328D560680028D2D0A8
:103DF00024E0286840F480302860606888B1FEF7CD
:103E0000BDFA064609E0286840F480202860F0E703
:103E1000FEF7B4FA801B64287ED828688003F7D5A3
:103E20000CE0FEF7ABFA064605E000BFFEF7A6FA87
:103E3000801B6428F0D828688003F7D42078800796
:103E400056D5D8F80000DFF85093396810F03800E4
:103E5000A9F10C090ED0182801D188070AD0E06812
:103E6000A8B3296821F0190101432960FEF786FAF9
:103E7000064628E02868400702D5E06800288AD076
:103E8000E168286820F0190008432860FEF776FAF8
:103E9000064606E0D2E000BFFEF770FA801B02285B
:103EA000BAD828684007F7D5217CD9F8002022F03D
:103EB000FE4242EA0161C9F8001019E0FEF75EFA1D
:103EC000801B0228A8D828684007F7D5ECE7FFE751
:103ED000286820F001002860FEF750FA064604E04A
:103EE000FEF74CFA801B022896D828684007F7D4C2
:103EF0002078C00646D5D8F80000DFF89C923968D3
:103F000000F03800A9F10409082812D0182805D1BA
:103F100001F00300012800E0CEE00AD0E0690028AB
:103F2000286820D040F080002860FEF727FA064677
:103F300015E02868C00502D5E06980287ED194F894
:103F40002010D9F8002022F07C5242EA0161C9F821
:103F5000001017E0FEF712FA801B0228A0D828688C
:103F6000C005F7D5EBE720F080002860FEF706FAE1
:103F7000064604E0FEF702FA801B022890D8286863
:103F8000C005F7D42078000729D5834861696430DB
:103F900000298146016811D041F001010160FEF75E
:103FA000EDF9064605E000BFFEF7E8F9801B0228A0
:103FB00088D8D9F800008007F6D510E021F001017B
:103FC0000160FEF7DBF9064605E000BFFEF7D6F913
:103FD000801B022870D8D9F800008007F6D420781A
:103FE000800623D5A0690028286810D040F48050AE
:103FF0002860FEF7C3F9064605E000BFFEF7BEF9EC
:10400000801B022858D828688004F7D50EE020F4D9
:1040100080502860FEF7B2F9064604E0FEF7AEF9DC
:10402000801B022848D828688004F7D420784007ED
:1040300051D5DFF86891D9F8001000E015E141F49E
:104040008071C9F80010FEF799F9064605E000BF37
:10405000FEF794F9801B64282ED8D9F80000C0051B
:10406000F6D54D4EA068603601280AD008B1052863
:1040700013D0306820F001003060306820F0040078
:1040800002E0306840F001003060A06841F2883AF8
:1040900098B1FEF773F981460AE0306840F00400F9
:1040A0003060EEE7FEF76AF9A0EB0901514503D84D
:1040B00030688007F6D50EE072E0FEF75FF98146C2
:1040C00006E000BFFEF75AF9A0EB0901514567D899
:1040D00030688007F6D4606A00287CD0DFF8B8A08A
:1040E000D8F800100AF1200A4FF6F87B0AF104080C
:1040F000C1F3C2010329AAF104096DD0022828687E
:1041000020F08070286003D0FEF738F9044681E083
:10411000FEF734F9064604E0FEF730F9801B02286A
:1041200075D828688001F7D4E26A40F2F331386824
:1041300054F8283F884340EA021018433860217B36
:104140004FF4FE0C22894FF0FE47208A4902267D5B
:10415000521E401EA1F5007189B2C2F3080211433C
:10416000761E0CEA00400143484607EA0662114306
:10417000CAF80010D9F8001021F00101C9F80010A8
:10418000D8F80030266A23EA0B0343EAC601C8F8D0
:104190000010D9F8001004E01044025800480258FA
:1041A00035E0A26921F00C011143C9F80010016843
:1041B000E26921F0020111430160016841F480319C
:1041C0000160016841F400310160016841F480211F
:1041D0000160016801E06CE020E041F00101016054
:1041E000286840F080702860FEF7C8F8044604E0B4
:1041F000FEF7C4F8001B022809D828688001F7D50B
:1042000057E000BFFEF7BAF8001B022802D90320CE
:10421000BDE8F09F28688001F4D44AE0396801289D
:10422000DAF8000021D0A26A01F0030393421CD106
:10423000E26AC1F305118A4217D1216BC0F308026B
:10424000491E8A4211D1616BC0F34622491E914238
:104250000BD1A16BC0F30642491E914205D1E16B1F
:10426000C0F30660491E814201D00120D0E7A16C55
:104270004646D8F80000C0F3CC00814219D0D9F8E6
:1042800000004D4620F00100C9F80000FEF776F866
:104290004FEA0007FEF772F8B842FBD0A26C306814
:1042A00020EA0B0040EAC2003060286840F00100BC
:1042B00028600020ACE704284FF0E020016903D01B
:1042C00021F004010161704741F00401FAE7401E4A
:1042D000B0F1807F10B501D3012010BD4FF0E02474
:1042E00060610F21601702F03CF90020A0610721F6
:1042F000216110BDFEE70000F0B500230A251C4631
:104300003026372711E000BFB5EB107F02D906EB4E
:10431000107C01E007EB107C01F813C001EB430CAB
:1043200000015B1C8CF80140DBB29342ECD3F0BD82
:104330001748002170B5154E0225816001220660E4
:104340001826C160202401740423417481744661DD
:10435000C0E90625C0E908528262C262C0E90C21A8
:104360000464C0E90E21C0E91131C0E91331C0E98C
:104370001531C0E91714C0E91913FDF741FD0028F4
:1043800003D0BDE87040FDF7A8B870BD00A00040A4
:10439000340100242DE9F04387B014216846FCF76E
:1043A000D8F82C48016841F004010160016801F06F
:1043B00004010591016841F080010160016801F08C
:1043C00080010591016841F010010160016801F070
:1043D00010010591016841F001010160016801F0DF
:1043E00001010591016841F00801016000684FF486
:1043F0004046DFF86480002200F008003146059056
:104400004046FDF7B6FFDFF854904FF40057002206
:1044100039464846FDF7ADFF002400960125694660
:104420004046CDE901540394FDF790FE68026946C9
:10443000CDE9000448460294FDF788FE00976946DE
:10444000CDE9015448460394FDF780FE07B0BDE86E
:10445000F0830000E044025800080258001002589F
:1044600010490122104810B500F0E2FE08B1FDF736
:1044700034F80E490C4801F0FBF808B1FDF72DF8AF
:104480000B49094800F07AFC08B1FDF726F8064808
:1044900001F074F908B1FDF720F8BDE81040FEF70F
:1044A000E5BD000000000020D4010024FC00002431
:1044B00090000024FEE7FEE70148FEF7B9B90000CE
:1044C000D00600242DE9F0410446C0680D4620279F
:1044D000236801284FF4004604F2C44203EB45115F
:1044E000D3F840C0D1F8080B09D0DFF89CE0F445C0
:1044F0003AD1020433D500BFC1F8086B40E0234B2A
:104500005FEA007E04D59C453AD90004F4D437E034
:104510005FEA806E02D5C1F8087B31E010F0280F09
:104520002ED19C4501D90004E6D4D1F8101B05EB2F
:10453000C50004EB8000C1F31201D0F89C32A3EB5C
:104540000101C0F8901200F51F70ADB903691BB1ED
:10455000C2681144C1600FE0206801210AE08006B2
:104560000AD5C1F8087B07E035B9D4F88C0218B930
:104570000021184601F082FC2046E9B2FEF73FF820
:104580000020BDE8F08100000A31544F0A30544F3A
:104590002DE9F84F0E460568814601EBC60100EB98
:1045A0008104D4E913203C34904202D90120BDE8B3
:1045B000F88FA168101A814200D20846C01C05EB92
:1045C000461887081BE000BFA268A0EB010A52450D
:1045D00000D2924699F80C100AF1030000911FFADC
:1045E0008AF3E16887082846F2B201F08DFFE1689E
:1045F00001EB0A00E060616901EB0A006061D8F834
:10460000180980B2B84205D3D4E90401814201D22D
:104610000028D9D1D4E90401884208D8D5F8341843
:10462000012006F00F0290408143C5F834180020A5
:10463000BDE770472DE9F047454D044689464FF0E8
:10464000000A2868C04380070AD0414E283E3068DF
:1046500020F080603060FDF791FE0746B04608E02C
:104660000120BDE8F08700BFFDF788FEC01B0228CF
:1046700067D8D8F800000001F6D4206829684FF404
:10468000FE0721F47C313E0241EA00302860207AA6
:10469000A389B4F804C040022D4D2D495B1E227C35
:1046A000ACF1010C1035091DA0F5007080B2521E4E
:1046B000CCF3080C07EA034340EA0C00184306EA6F
:1046C0000262104328600868626920F0C00010434D
:1046D00008600A68A06922F0200202430A60281DCF
:1046E0000A6822F010020A6002684FF6F873E46963
:1046F0009A4342EAC40202600868B9F1000F40F030
:1047000010020A6011D00868B9F1010F11D040F40D
:1047100000100860D8F80000444640F08060C8F8F7
:104720000000FDF72BFE05460DE0086840F4002070
:10473000EFE740F48010ECE7FDF720FE401B022875
:1047400001D903208DE720680001F5D5504688E7A0
:10475000284402582DE9F047454D044689464FF05C
:10476000000A2868C04380070AD0414E283E3068BE
:1047700020F080503060FDF701FE0746B04608E0AB
:104780000120BDE8F08700BFFDF7F8FDC01B02283F
:1047900067D8D8F800008000F6D4208829684FF444
:1047A000FE0721F07C713E0241EA00502860207A29
:1047B000A389B4F804C040022D4D2D495B1E227C14
:1047C000ACF1010C1835091DA0F5007080B2521E25
:1047D000CCF3080C07EA034340EA0C00184306EA4E
:1047E0000262104328600868626920F44060104348
:1047F00008600A68A06922F4007202430A60281D5A
:104800000A6822F480720A6002684FF6F873E4695D
:104810009A4342EAC40202600868B9F1000F40F40A
:1048200080720A6011D00868B9F1010F11D040F010
:1048300080700860D8F80000444640F08050C8F806
:104840000000FDF79BFD05460DE0086840F4800080
:10485000EFE740F40000ECE7FDF790FD401B022875
:1048600001D903208DE720688000F5D5504688E700
:104870002844025870470178407841EA0020704788
:10488000FDF782BD30B59DB04C216846FBF761FE57
:10489000202113A8FBF75DFE0220FEF7BDFB1F4899
:1048A000016821F4404101600168002401F44041A5
:1048B0001B9101688904FCD502200990282521223A
:1048C0000092C3030193012106910A900C23CDE9C4
:1048D0000B050FAD042285E8190012946846CDE956
:1048E0000D12FFF755FA08B172B6FEE740201A9094
:1048F00008230501CDE9163013ABCDE918053F219A
:10490000032283E8160013A81146FFF755F8002884
:1049100001D072B6FEE71DB030BD00001848025845
:104920002748F0B5274A016841F47001016010681A
:1049300000F00F00072804D2106820F00F00C01DFF
:10494000106021490020204C10340B681F4D43F0AB
:1049500001030B6020600B682B400B60136803F0B1
:104960000F03072B04D9136823F00F03DB1D13601B
:10497000154C174A1834174B261D371D2060124C52
:10498000154D28343060261D3860371D23603B1DCF
:1049900035601C1D3A60251D2E1D1860331D2260D8
:1049A0002860326018600A6843F2D204064B0B4D4F
:1049B00022F4802260330A6018602C60F0BD000091
:1049C00088ED00E000200052004402587FEDF6EA36
:1049D00080020101000202020000FF0100400052BB
:1049E0002DE9F0410C46D0F8D412D0F8C83200EBD3
:1049F0008101D1F8C01229B304F00F02002702EBA5
:104A0000820500EB8506B5694DB102EBC20203EBEE
:104A10008202526CB5FBF2F302FB1352A2B1C1F851
:104A20001472D0F8D42200EB8200D0F8C4020369DB
:104A30002BB1D1F8080201F50471224698470020F5
:104A4000BDE8F0810320FBE7002321461A46B76149
:104A500000F0F0FDF3E770B50546D0F8D40205EBA1
:104A60008000D0F8C04294B1284600F0BCFCC4F8E5
:104A70000C02D5F8D40205EB8000D0F8C412D4F8AB
:104A80000402CA6804F503719047002070BD03203A
:104A900070BD000070B5224D0446297800F0E4FB9B
:104AA0002878002600F00F0000EB800004EB800067
:104AB00086842046697800F0D7FB687800F00F0004
:104AC00000EB800004EB8000A0F864612046A97828
:104AD00000F0CAFBA87800F00F0000EB800004EBA8
:104AE00080008684C684D4F8D40204EB8000D0F819
:104AF000C01299B1D0F8C40240688047D4F8D402FB
:104B000004EB8000D0F8C00200F0BDFFD4F8D4025E
:104B100004EB8000C0F8C062C4F8BC62002070BD25
:104B2000A800002410B5D0F8D41200EB8100D0F812
:104B3000C04284B1D0F8C41259B194F80002FF28E1
:104B400007D08B68214694F801229847FF2084F80B
:104B50000002002010BD032010BD00000A210180CA
:104B600000487047AC00002470B5822106460D480D
:104B700000F092FA012105460A4800F08DFA8121E1
:104B80000446084800F088FA0DB11021A9714FF0D1
:104B9000400104B1A18000B18180432030800148F0
:104BA00070BD0000B800002470B5822106460D4893
:104BB00000F072FA012105460A4800F06DFA8121E1
:104BC0000446084800F068FA0DB11021A9714FF4AD
:104BD000007104B1A18000B1818043203080014880
:104BE00070BD0000B800002470B5822106460D4853
:104BF00000F052FA012105460A4800F04DFA8121E1
:104C00000446084800F048FA0DB11021A9714FF090
:104C1000400104B1A18000B181804320308001486F
:104C200070BD0000B80000242DE9F0474FF407756F
:104C30000446284600F028FF06004FF0000965D022
:104C40002946FBF786FCD4F8D40201273C4D4FF4EB
:104C5000007A4FF0100804EB8000C0F8C062C4F87E
:104C6000BC62207CF0B3297840230222204600F069
:104C70002BFC2878402300F00F0000EB800004EBB1
:104C80008000878402226978204600F01DFC697844
:104C900008230322204601F00F0101EB810104EB00
:104CA0008101A1F86471A97801F00F0101EB810184
:104CB00004EB8101A1F82680A97800F005FCA97811
:104CC000C84601F00F0101EB810104EB81018F84E3
:104CD000C6F80492D4F8D40204EB8000D0F8C402E1
:104CE000006800E01AE006F501768047C6F81080FB
:104CF000C6F8148032687AB1207CF8B14023697814
:104D0000204600F0EDFB0020BDE8F087D4F8D41277
:104D100004EB8101C1F8C0920220F5E72978022254
:104D20005346204600F0D0FB2878534600F00F0091
:104D300000EB800004EB80008784A3E75346DEE7A6
:104D4000A800002410B5D0F8D41200EB8101D1F8EE
:104D5000C01259B1027C084C002AD1F8042207D0B5
:104D60004023617800F0BCFB002010BD032010BD83
:104D70004FF40073F5E70000A800002439B1D0F823
:104D8000D42200EB8200C0F8C41200207047032038
:104D90007047D0F8D42200EB8200D0F8C00218B1DE
:104DA000C0F804120020704703207047D0F8D432B6
:104DB00000EB8300D0F8C00228B1C0F81022C0F880
:104DC000081200207047032070472DE9FC41064679
:104DD000D0F8D4020C46002106EB80000D46D0F836
:104DE000C0728DF80010ADF8041037B1217811F0C1
:104DF00060022CD0202A48D102E00320BDE8FC81CB
:104E0000E288E2B109060BD5D0F8C40239468368BE
:104E100060789847E288072A00D9072239462CE0B3
:104E2000607887F80002E088402800D340203946A7
:104E3000C2B2304687F8012200F07FF82AE0D0F8AD
:104E4000C4020022214683686078984722E0607897
:104E500030B101281ED00A2809D00B2815D110E046
:104E600096F89C02032810D1022201A905E096F8C9
:104E70009C02032809D101226946304600F077F8E8
:104E800008E096F89C02032804D02146304600F042
:104E900049F803252846B1E710B5D0F8D41200EB45
:104EA00081020121D2F8C0221AB1D2F8143213B112
:104EB00016E0032010BD0B490123C2F81432D2F8CA
:104EC0001032097801F00F0404EB840400EB840431
:104ED000A361D2F81032D2F8082200F0ABFB002117
:104EE000084610BDA800002410B5D0F8B822002450
:104EF0005268904700B10324204610BD002070473F
:104F00000020704713460A46002110B500F0E8FA69
:104F1000002010BD13460A46002110B500F08AFBA0
:104F2000002010BD10B58021044600F064FB20462F
:104F3000BDE81040002100F05EBB10B5C0F858215C
:104F40000323C0F89432C0F85C2113460A460021BE
:104F500000F0C6FA002010BD10B50521C0F894126B
:104F600000231A46194600F0BBFA002010BD10B508
:104F700082610223C0F89432C26113460A460021BE
:104F800000F058FB002010BD10B50421C0F89412A9
:104F900000231A46194600F04DFB002010BDF8B55D
:104FA00004460D460020ADF800004888010A062995
:104FB00047D006DC01290FD0022912D0032962D183
:104FC0001DE0072946D00F295DD1D4F8B402C2698B
:104FD00020E0694690473BE0D4F8B412207C0A6890
:104FE000F7E7207C02260028D4F8B80205D0C16A71
:104FF000684688470146467036E0816AF8E7C0B2E5
:10500000062840D2DFE800F003090D111519D4F885
:10501000B4024268B2B3207CDBE7D4F8B402826801
:10502000F8E7D4F8B402C268F4E7D4F8B40202692D
:10503000F0E7D4F8B4024269ECE7D4F8B40282692C
:10504000E8E7207CF0B9D4F8B802416B684688479D
:10505000014609E0207CA8B9D4F8B802016B684683
:105060008847014607204870EA888AB1BDF80000E9
:1050700040B1824200D902462046ADF80020FFF739
:1050800076FFF8BDFFE729462046FFF74BFFF8E71C
:105090002046FFF779FFF4E778B542880D4601789E
:1050A000002604468A4212D9ADF800100AE069468B
:1050B00000F00FF84178052904D181780646A9420D
:1050C00005D000266188BDF800209142EFD8304617
:1050D00078BD0A8803781A440A800178084470472A
:1050E00070B500284FF000051ED004462E4602E0A1
:1050F000761C641CF6B22378002BF9D1022404EB51
:105100004604148012786B1C03264A550024AA1CFE
:10511000CE5406E0551C8B54EAB2531C401C8C54F0
:10512000DAB20378002BF5D170BD01004FF000001A
:1051300004D0012901D0022901D0032070470120A9
:105140007047000004A00A46024910B5FFF7C8FFE7
:10515000004810BD3400002043444320436F6E6676
:10516000696700001220088000487047540000243E
:1051700004A00A46024910B5FFF7B2FF004810BD6F
:105180003400002043444320496E746572666163B5
:10519000650000000420088000487047500000248B
:1051A00004A00A46024910B5FFF79AFF004810BD57
:1051B0003400002053544D6963726F656C656374ED
:1051C000726F6E696373000004A00A46024910B54D
:1051D000FFF786FF004810BD3400002053544D33C4
:1051E00032205669727475616C20436F6D506F7216
:1051F0007400000010B51A2008800B480A490830D6
:10520000021F096800681468081809D007490822B5
:10521000FFF772F80549042220461031FFF76CF8B9
:105220000248801E10BD000000E8F11F7600002437
:1052300078B10023C0F8B832C0F8C432C0F8D03218
:1052400009B1C0F8B4120121027080F89C1200F07C
:10525000CFB80320704710B5D0F8C802FDF712FA96
:10526000BDE81040FFF761BF10B5D0F8C802FDF7E8
:10527000E3F9BDE81040FFF758BF2DE9F0411746AC
:1052800004464FF0000521B194F89C02032842D057
:105290004CE0D4F8941204F11400022935D1D0E97D
:1052A00002639E4206D9F21A394682602046FFF711
:1052B00031FE0FE0B34214D14068984211D3D4F8C4
:1052C000981288420DD2002220461146FFF722FE96
:1052D000C4F8985200231A461946204600F000F9F7
:1052E00013E094F89C02032808D1D4F8B802C168EE
:1052F00021B1C4F8D452C168204688478021204695
:1053000000F079F92046FFF727FE94F8A00268B173
:1053100084F8A0520AE0D4F8B802426932B1C4F865
:10532000D452426920469047002800D10020BDE8B1
:10533000F08170B5134604464FF0000221B194F895
:105340009C02032830D03AE0D4F8941204F5AA70F5
:10535000032934D1D0E902518D420AD96A1A8260F8
:105360000846824200D3024619462046FFF7CAFD8E
:1053700025E094F8AA0210F01F0003D0012802D003
:10538000022800D0002294F89C02032808D1D4F807
:10539000B802016921B1C4F8D422016920468847C6
:1053A0002046FFF7F1FD0AE0D4F8B802836933B173
:1053B000C4F8D422826920469047002800D10020FA
:1053C00070BD0020704710B5D0F8B812012280F8E7
:1053D0009C22002429B103794A68D9B2904700B1D0
:1053E0000324204610BDD0F8C802FDF779B90000AB
:1053F00070B50178012929D1154902230022154CE5
:105400000925C1F80805C0F8C8120846C1E90323F8
:10541000C1E906320A624A62CA620A634A63C1E9A2
:105420000045FDF7DBFC08B1FCF757F808484FF4DE
:105430000071FDF7B0F8064880220021FDF7AFF8B3
:10544000034801214FF4BA72FDF7A9F8002070BD9E
:10545000D006002400000440D0F8C82201F07F00EC
:105460000B0600EBC00002EB800002D590F83E0076
:10547000704790F87E02704710B5D0F8D42200EB48
:105480008202D2F8B82222B190F89C32032B02D0CB
:1054900004E0032010BD126A02B19047002010BD45
:1054A00010B5D0F8D42200EB8202D2F8B82222B193
:1054B00090F89C32032B02D004E0032010BD526A06
:1054C00002B19047002010BD10B51C46D0F8C802AC
:1054D00013462246FDF70DF9BDE81040FFF725BE43
:1054E00010B5D0F8C802FDF734F9BDE81040FFF759
:1054F0001CBE2DE9F041044601250020D4F8B81265
:10550000064684F89C52C4F894026060C4F8A40271
:1055100084F8A00231B14A6822B1002120469047A8
:1055200000B103262046002240231146FFF7CCFF9E
:105530004027A4F8645100223B4680212046C4F84D
:105540006071FFF7C1FFA58430462762BDE8F08196
:1055500090F89C12042903D190F89D1280F89C12B7
:105560000020704710B590F89C12032905D1D0F89F
:10557000B81211B1C96901B18847002010BD01748A
:105580000020704710B5D0F8C802FDF7F1FCBDE867
:105590001040FFF7CABD70B5044600F2AA200546C8
:1055A00000F051F894F8AA020123B4F8B01210F0F8
:1055B0001F02C4F89432C4F898120AD0012A0ED0FF
:1055C000022A12D000F080012046BDE8704000F0B1
:1055D00012B829462046BDE8704000F0D1B82946EF
:1055E0002046BDE8704000F014BA29462046BDE8C8
:1055F000704000F05CB910B5D0F8C802FDF7C3F8F0
:10560000BDE81040FFF791BD10B5D0F8C802FDF716
:10561000CAFCBDE81040FFF788BD90F89C12042931
:1056200003D090F89C1280F89D12042180F89C12FF
:105630000020704710B5D0F8C802FDF7DEF8BDE8CD
:105640001040FFF772BD70B5054608788C1C2870B5
:10565000487868702046FFF70EF9A41C6880204641
:10566000FFF709F9A880A01CFFF705F9E88070BDD5
:1056700038B504460020ADF80000A1B1C4F8B81256
:10568000D4F8D40204EB8000D0F8B802C16A19B192
:1056900068468847C4F8D002D4F8D802401CC4F841
:1056A000D802002038BD032038BDD0F8B8320246F9
:1056B0000020002B02D01B681046184770470000DE
:1056C0002DE9F0412C4E0446887800258846C1B269
:1056D0000129317006D941462046FFF723FC0320FB
:1056E000BDE8F08194F89C02022702280CD0032820
:1056F0001DD041462046FFF715FC31782046FFF7C4
:10570000F3FB03252846EBE789B320466160FFF7EA
:10571000CCFF050004D041462046FFF703FC1DE006
:105720002046FFF731FC032084F89C02EAE7C1B170
:10573000606888421BD0C1B22046FFF7D5FB3178A4
:1057400020466160FFF7B1FF050010D041462046BA
:10575000FFF7E8FB21792046FFF7C6FB84F89C722F
:10576000D0E7616084F89C722046FFF7BDFB2046BD
:10577000FFF70AFCC6E70000A4000024FFF744BFBF
:105780002DE9F0410A784FF0000512F060020CD0CC
:10579000202A01D0402A7DD1D0F8D42200EB820209
:1057A000D2F8B8229268904731E04B780022012667
:1057B0000A2B6FD2DFE803F041666E586E08056E63
:1057C0002D29FFF7ECFB67E004468888D8B9C88824
:1057D000C8B94888802816D294F89C2200F07F0728
:1057E000032A10D03946204684F89E72FFF7CAFE7D
:1057F0002046FFF7C9FB1FB1022084F89C024BE052
:1058000084F89C6248E0204644E0FFF759FF0546D3
:1058100042E0CB88012B3DD190F89C32012B04D083
:10582000022B02D0032B35D104E000F10801826085
:10583000012216E00122011D13E090F89C22012AAA
:1058400003D0022A01D0032A24D1CA88022A21D1F6
:10585000D0F8A412C66009B10321C160022200F190
:105860000C01FFF784FB17E04A88012A02D0022AC4
:1058700003D00FE0C0F8A46216E08988090A80F816
:10588000A01211E090F89C32012B08D0022B06D018
:10589000032B04D0FFF746FB2846BDE8F08149887A
:1058A0000129F9D1C0F8A422FFF76EFBF4E72DE936
:1058B000F0410A780E460979054612F060004FF073
:1058C0000008CCB20BD0202801D040286AD1214654
:1058D0002846FFF713FBFF2800D0D8B396E0707876
:1058E000C8B3012824D003285CD195F89C02022873
:1058F00002D0032856D10CE0002C53D0802C51D07C
:1059000021462846FFF777FE80212846FFF773FEE1
:105910007CE0708840B93CB1802C05D0F08818B983
:1059200021462846FFF767FE2846FFF72DFB6DE06E
:1059300095F89C020228DFD0032863D1708880BBD1
:10594000600603D021462846FFF785FC2846FFF76E
:105950001BFBBCE700E00AE0C5F8D402D5F8B802AA
:105960008268F2B131462846904780464EE095F86D
:105970009C020027022802D0032843D113E00CB177
:10598000802C3FD1200604F07F0000EB800005EB67
:10599000800101D5143101E001F5AA7102220F60E6
:1059A0002CE033E02EE0200604F00F0000EB800036
:1059B00005EB800009D5808C20B304F07F0000EB5C
:1059C000800005EB800614360AE0B0F86401C8B127
:1059D00004F07F0000EB800005EB800606F5AA7658
:1059E0004CB1802C07D021462846FFF735FD10B179
:1059F0000120306000E03760022231462846FFF780
:105A0000B6FA03E031462846FFF78CFA4046BDE877
:105A1000F08170B5054608780E464FF0000410F08E
:105A2000600003D0202801D0402827D195F89C029F
:105A3000012803D0022801D003281FD1B088C1B2A9
:105A400001291AD8C1B22846FFF75AFAFF280CD00C
:105A500058B9D5F8B8128A683AB1C5F8D4022846C0
:105A60008A6831469047044600E00324F0882043CA
:105A700007D12846FFF788FA03E031462846FFF7AA
:105A800051FA204670BD704700487047B0040024AA
:105A900070B54D7801230A78012D1C4C02F00F05DA
:105AA00003FA05F3D0F81C5817D000EB421245EA70
:105AB0000343C0F81C38D2F8000B00040BD40B8948
:105AC0000979D2F8000BC3F30A03184344EA814171
:105AD0000843C2F8000B002070BD9EB23543C0F8E9
