:020000040800F2
:10000000F0140024E102000859820008C97D0008AC
:10001000518200085105000891B600080000000058
:10002000000000000000000000000000C98400087B
:10003000410700080000000071820008D184000818
:10004000FB020008FB020008FB020008FB0200089C
:10005000FB020008FB020008FB020008FB0200088C
:10006000FB020008FB020008FB020008F90500087B
:1000700009060008FB020008FB020008FB0200085A
:10008000FB020008FB020008FB02000859070008F9
:10009000FB02000869070008FB020008FB020008D9
:1000A000FB020008FB020008FB020008FB0200083C
:1000B000FB02000859860008FB020008FB0200084A
:1000C000FB020008FB020008FB020008FB0200081C
:1000D000FB020008FB020008FB020008FB0200080C
:1000E000FB020008FB02000800000000FB02000801
:1000F000FB020008FB020008FB020008FB020008EC
:10010000FB020008FB020008FB020008FB020008DB
:10011000FB020008FB020008FB020008FB020008CB
:10012000FB020008FB020008FB020008FB020008BB
:10013000FB020008FB020008FB020008FB020008AB
:1001400000000000000000000000000000000000AF
:10015000FB020008FB020008FB020008FB0200088B
:10016000FB020008FB020008FB020008FB0200087B
:10017000FB02000861820008FB020008000000008A
:10018000FB020008FB020008E1870008FB020008F0
:10019000FB020008FB020008FB020008FB0200084B
:1001A000FB020008FB020008FB0200080000000040
:1001B000FB020008FB020008FB020008FB0200082B
:1001C000FB020008FB020008000000000000000025
:1001D0000000000000000000FB020008000000001A
:1001E000000000000000000000000000000000000F
:1001F0000000000000000000FB020008FB020008F5
:10020000FB020008FB02000800000000FB020008DF
:10021000FB020008FB020008FB020008FB020008CA
:10022000FB02000800000000FB02000800000000C4
:10023000FB020008FB02000800000000FB020008AF
:10024000FB020008FB020008FB020008FB0200089A
:10025000FB020008FB020008FB020008FB0200088A
:10026000FB020008FB020008FB020008FB0200087A
:10027000FB020008FB020008FB020008000000006F
:10028000FB020008FB020008FB020008FB0200085A
:1002900000000000FB020008FB0200080000000054
:1002A00000000000FB020008FB020008FB0200083F
:1002B000FB020008FB020008FB020008FB0200082A
:1002C000FB020008FB020008FB020008DFF80CD06C
:1002D00000F07AF800480047F9B90008F01400244B
:1002E0000648804706480047FEE7FEE7FEE7FEE7D0
:1002F000FEE7FEE7FEE7FEE7FEE7FEE7A98500086A
:10030000CD0200082DE9F05F0546002092469B468D
:1003100088460646814640241BE02846414647461B
:10032000224600F041F853465A46C01A914110D374
:1003300011461846224600F028F82D1A67EB0108EE
:100340004F4622460120002100F01FF817EB00095C
:100350004E41201EA4F10104DFDC484631462A4606
:100360004346BDE8F09FD2B201E000F8012B491EE0
:10037000FBD270470022F6E710B513460A46044642
:100380001946FFF7F0FF204610BD202A04DB203A73
:1003900000FA02F1002070479140C2F1200320FAD8
:1003A00003F3194390407047202A04DB203A21FAD6
:1003B00002F00021704721FA02F3D040C2F120027E
:1003C00091400843194670471CB5094800900948F8
:1003D00001900546009C06E0E06840F0010394E8C7
:1003E000070098471034AC42F6D3FFF773FF0000C4
:1003F0004CC000088CC0000870B58C1810F8015B68
:1004000015F0070301D110F8013B2A1106D110F8AD
:10041000012B03E010F8016B01F8016B5B1EF9D1B1
:100420002B0705D40023521E0DD401F8013BFAE737
:1004300010F8013BCB1A921C03E013F8015B01F8A2
:10044000015B521EF9D5A142D8D3002070BD000037
:1004500010B50446006842F2001140F48070C4F206
:100460000201884218D142F20830C4F2020000684A
:1004700010F4403F18D005F0C7FF6168B1F5803F28
:1004800005D0B1F5403F2BD0B1F5003F29D1090C83
:10049000B0FBF1F025E000BF46F20830C5F60200DF
:1004A000006810F4403FE6D14FF40020002104F032
:1004B00053FF6168A1F580224FEAB2420A2A10D8A0
:1004C000DFE802F0060606060606403E443C42000F
:1004D0006FF0010202EA5141B0FBF1F001E000BF10
:1004E00080084BF62141C0F2BE01884206D8206840
:1004F000816821F44071816010BD00BF47F6410161
:10050000C0F27D11884207D820680122816862F319
:100510000921816010BD00BF21684FF28102C0F245
:10052000FA229042886805D8022262F30920886086
:1005300010BD00BF40F44070886010BDC009D0E716
:100540004009CEE70009CCE7000ACAE78009C8E7FE
:10055000FEE70000000000000020704700000000DF
:10056000002070470000000010B540F6243440F22F
:100570005C31C2F20004C2F200410022204608F0C1
:10058000FFFF40F224312046C2F2000108F0E8FFEC
:10059000002010BD0000000010B540F624340146D4
:1005A000C2F20004204608F0DBFF204608F0B4FF4A
:1005B000002010BD00000000002070470000000077
:1005C00040F62432C2F20002D2F8BC22D2F8142241
:1005D000002A1CBF0120704710B540F624340A469B
:1005E000C2F200040146204608F0CAFF2046BDE8DA
:1005F000104009F049B8000040F6D030C2F2004087
:1006000001F0F2BB0000000040F60060C2F2000002
:1006100001F0EABB0000000040F20F42D0F800C039
:10062000C4F20202944511DC6F22C4F20202944526
:1006300022DC3F22C4F20202944539DC1022C4F2CB
:10064000020294455AD0282254E000BF40F26F4283
:10065000C4F2020294451BDC40F23F42C4F20202A3
:1006600094452DDC40F21042C4F20202944545D07C
:1006700040F228423EE000BF9F22C4F202029445AD
:1006800028DC7022C4F20202944537D0882231E07F
:1006900040F29F42C4F20202944523DC40F27042D1
:1006A000C4F20202944529D040F2884222E000BF01
:1006B0004022C4F20202944520D058221AE000BF22
:1006C00040F24042C4F20202944517D040F2584230
:1006D00010E000BFA022C4F2020294450ED0B8225E
:1006E00008E000BF40F2B842C4F20202944505D0CF
:1006F00040F2A042C4F20202944517D10CF0F80275
:100700004AF6AB23103ACAF6AA23A2FB03310AA386
:100710005F2AC1F302115B5C40F2FF312CEA010158
:10072000C36588BF04318165084670472CF0FF011E
:1007300081650846704700BF0006101600061016B7
:100740007047000000000000EFF3108072B600BF99
:10075000FEE700000000000040F64840C2F2004002
:1007600002F06ABD0000000040F64840C2F20040BE
:1007700002F062BD00000000B0B52DED0C8B40F220
:100780009C0040F21415C2F200409FEDFC3AC2F208
:10079000004540F2080490ED000A90ED011A30EE99
:1007A000030A90ED032A85ED000AB1EE410A85EDBA
:1007B000010AB1EE420A8068A86085ED030AC2F220
:1007C00000442868A86195ED000A95ED011A30EE05
:1007D000010A85ED070A95ED000A95ED011A30EE44
:1007E000010A95ED021A30EE010A85ED080A95ED31
:1007F000000A95ED011A30EE010A95ED021A30EE6D
:10080000010A95ED031A30EE010A85ED090A94ED0F
:10081000080A94ED099A94ED0A1A20EE01BA95EDB2
:10082000060A0BF027FA94ED0B1A94ED0C2AB0EEA1
:10083000408A95ED060A22EE01AA0BF01BFA2AEE79
:1008400000AA94ED0BCAABEE08AA94ED08BA95ED98
:10085000060A0BF00FFAB0EE408A94ED0ADA95ED35
:10086000070A0BF007FA2DEE000AACEE080A94ED29
:100870000CCAABEE00AA94ED0BBA95ED060A0BF08C
:10088000F9F9B0EE408A94ED0BDA95ED070A0BF01A
:10089000F1F92DEE000AABEE080A94ED08BAACEEC1
:1008A00000AA94ED0BCA95ED060A0BF0E3F9B0EE41
:1008B000408A94ED0BDA95ED070A0BF0DBF92DEE8B
:1008C00000DAACEE08DA94ED0A8A95ED080A0BF02E
:1008D000D1F9A8EE00DA94ED0CCAABEE0DAA94EDB6
:1008E0000BBA95ED060A0BF0C5F9B0EE408A94ED0F
:1008F0000BDA95ED070A0BF0BDF92DEE00DAABEE41
:1009000008DA94ED0B8A95ED080A0BF0B3F9A8EE1E
:1009100000DA94ED08BAACEE0DAA94ED0BCA95ED91
:10092000060A0BF0A7F9B0EE408A94ED0BDA95EDCC
:10093000070A0BF09FF92DEE00DAACEE08DA94ED21
:100940000B8A95ED080A0BF095F9A8EE00DA94ED04
:100950000A8A95ED090A0BF08DF9A8EE00DA94EDFC
:100960000DCAABEE0DAA94ED0BBA95ED060A0BF08D
:1009700081F9B0EE408A94ED0BDA95ED070A0BF0A1
:1009800079F92DEE00DAABEE08DA94ED0B8A95EDED
:10099000080A0BF06FF9A8EE00DA94ED0B0A94ED5B
:1009A0000E1A30EE018A95ED090A0BF063F9A8EEF4
:1009B00000DAACEE0DAA29EE0A0A85ED0C0A94EDD8
:1009C000080A94ED099A94ED0A1A20EE01BA95ED01
:1009D000070A0BF04FF994ED0B1A94ED0C2AB0EEC8
:1009E000408A95ED070A22EE01AA0BF043F92AEEA0
:1009F00000AA94ED0BCAABEE08AA94ED08BA95EDE7
:100A0000070A0BF037F9B0EE408A94ED0ADA95ED5B
:100A1000080A0BF02FF92DEE000AACEE080A94ED4F
:100A20000CCAABEE00AA94ED0BBA95ED070A0BF0D9
:100A300021F9B0EE408A94ED0BDA95ED080A0BF03F
:100A400019F92DEE000AABEE080A94ED08BAACEEE7
:100A500000AA94ED0BCA95ED070A0BF00BF9B0EE66
:100A6000408A94ED0BDA95ED080A0BF003F92DEEB0
:100A700000DAACEE08DA94ED0A8A95ED090A0BF07B
:100A8000F9F8A8EE00DA94ED0DCAABEE0DAA94EDDC
:100A90000BBA95ED070A0BF0EDF8B0EE408A94ED35
:100AA0000BDA95ED080A0BF0E5F82DEE00DA94ED7F
:100AB0000B0A94ED0E1AABEE08DA30EE018A95EDD2
:100AC000090A0BF0D7F8A8EE00DAACEE0DAA29EE71
:100AD0004A0A85ED0D0A94ED080A94ED09AA94EDF1
:100AE0000A1A20EE019A95ED080A0BF0C3F894ED6E
:100AF0000B1A94ED0C2AB0EE408A95ED080A22EE0E
:100B000001BA0BF0B7F82BEE00BA94ED0BCAA9EEC0
:100B100008BA94ED089A95ED080A0BF0ABF8B0EE20
:100B2000408A94ED0ADA95ED090A0BF0A3F82DEE50
:100B3000000AACEE080A94ED0DCAA9EE00BA94EDD5
:100B40000B9A95ED080A0BF095F894ED0B1A94EDBD
:100B50000E2AB0EE408A95ED090A31EE02DA0BF06A
:100B600089F82DEE000AA9EE080AACEE00BA2AEECA
:100B70000B0A85ED0E0A00F003B800BFC3F5C83FAD
:100B800094ED080A94ED09AA94ED0A1A20EE019A50
:100B900095ED090A0BF06EF894ED0B1A94ED0E2A00
:100BA00031EE021A94ED0D2AB0EE408A95ED090A55
:100BB00022EE01BA0BF05EF82BEE000A40F6484434
:100BC000C2F2004400212046A9EE080A9FED1F8AC8
:100BD000F0EE480AB0EE481AF0EE481A2AEE400A43
:100BE00085ED0F0AB0EE480A95ED0C2A0AF088FF51
:100BF000B0EE480AF0EE480AB0EE481AF0EE481A95
:100C000095ED0D2A012120460AF07AFFB0EE480A40
:100C1000F0EE480AB0EE481AF0EE481A95ED0E2AAA
:100C2000022120460AF06CFF95ED0F2A0321204691
:100C3000B0EE480AF0EE480AB0EE481AF0EE481A54
:100C4000BDEC0C8BBDE8B0400AF05ABF00000000BC
:100C500090F85C20012A01D102207047B0B582B023
:100C600042F2083200230193C4F202020093A2F57B
:100C700042740368A34227D14FF6006C4FF600552B
:100C8000CFF6FF7CCFF6FF7552F80C405359234343
:100C90005B0719D4D1F800E01368BEF1000F23F40C
:100CA00040441FD04B6823431360535952F80C50F3
:100CB0002B43DB0722D1136840F61F75AB438968CD
:100CC000194341EA0E0118E0016E41F0200101666E
:100CD0000121002280F85C2002B0BDE8B040084647
:100CE000704700BF1460515952F80C301943C907BE
:100CF00004D1116840F61F73994311600021E8E7A1
:100D00002DE9F04381B00022009290F85C20012A86
:100D100004D10221084601B0BDE8F0830368012236
:100D200080F85C209A68520700F10E8246F2083C77
:100D30000D68C5F6020C4FF6FF7EACF54278C0F2A6
:100D40000F0E43454FEA95640FD095FAA5F615EAC4
:100D50000E0FB6FA86F608BFAE0E06F01F05012686
:100D600006FA05F5DE693543DD614D681F2204F0A2
:100D70001F04C5F3012605F01F05AA4003EB8606F4
:100D8000AC40376B27EA0202224332639A689C68C0
:100D900002F0040204F00804121940F004810A6809
:100DA00007268D684345C2F34064C2F3045203EB47
:100DB000840406FA02F6676905FA02F227EA0606D3
:100DC00042EA0602626117D041F20002C5F6004213
:100DD000126802F07042B2F1805F73D14A69DC6838
:100DE0000E2505EA540402FA04F90C694F46042C56
:100DF00000F08280A8E000BF4FF60452CFF6FF72E9
:100E0000D1E90445042C5CF8026065D14FF65852D4
:100E1000CFF6FF725CF802201A6E0E68C2F384628D
:100E200016EA0E04C6F3846596FAA6F6B6FA86F6B6
:100E3000374608BF2F46BA420CD11A6E22F0004244
:100E40001A660A6802EA0E04C2F3846592FAA2F2F4
:100E5000B2FA82F65A6E37465A6E002C08BF2F46F9
:100E6000C2F38462BA420CD15A6E22F000425A6632
:100E70000A6802EA0E04C2F3846592FAA2F2B2FA98
:100E800082F69A6E37469A6E002C08BF2F46C2F340
:100E90008462BA420CD19A6E22F000429A660A68C5
:100EA00002EA0E04C2F3846592FAA2F2B2FA82F662
:100EB000DA6E002CDA6E08BF2E46C2F38462B242AC
:100EC0003AD070E0DA684C69DD68D2064FEA550521
:100ED0000AD405F00E0209E006224FF0004902EAAA
:100EE000960205FA02F72FE005F0080204FA02F96B
:100EF0000C694F46042C27D11A6E0C6802F0F84298
:100F0000A406A24240F082801A6E22F000421A66C5
:100F10005A6E02F0F842A24200F07E809A6E02F011
:100F2000F842A24203D19A6E22F000429A66DA6E2B
:100F300002F0F842A24236D1DA6E22F00042DA66BE
:100F40009A68D20733D0B8E003F160060A684345D7
:100F500002F0F84256F8245042EA090218BF05F0A0
:100F60000047434542EA070246F824200C695FD057
:100F700091F821200D7E56F8247027F00047012AB1
:100F800008BF07F100476A1EB2FA82F246F82470E1
:100F900052090C69D2021D6904F01F0425F4F045C2
:100FA000A2402A431A619A68D20740F08680ACF5C5
:100FB0001672434518BF03F1C002CD680C6805F0F6
:100FC0001805166804EA0E072EFA05F5BE432C40F4
:100FD000344314600024CA68C4F2FF74A24268D18A
:100FE0000C6814EA0E0F3FD094FAA4F2B2FA82F21F
:100FF000013202F01E07092F02F01F073DD801221F
:1010000007EB4706BA4042EA065742E05A6E02F042
:10101000F842A2427FF482AF5A6E22F000425A6632
:101020009A6E02F0F842A2423FF47DAF7FE700BF24
:10103000ACF52A72CD6952F8246026F080763543EB
:1010400042F824500C6991F8205052F82460012D88
:1010500026F0007608BF06F1007642F824609A6810
:10106000D207A4D029E000BF012202EB946202F073
:101070001E070A2F02F01F07C1D3012207EB470604
:10108000BA400027CFF6206707EB06573A4342F0F5
:101090000077C7F340620725C7F304578E6803EB58
:1010A0008202BD40546906FA07F724EA05052F437A
:1010B00057610E68B6F1FF3F02DD002149E000BF35
:1010C00042F2000142F20015C4F20201C4F202052C
:1010D00001F5807201F542779342624608BF3A46B5
:1010E0008B4208BF3A4643F48077AF42156823D15C
:1010F0008A68D1F808111143C90725D1002105F0EC
:10110000E074CCF252718E4208BF15F4000127D072
:101110000021CCF221318E4260D10021B1EB146F5D
:101120005CD1434515D1DCF8001021F0E07121437A
:1011300041F0807165E000BF4FF60051CFF6FF71BE
:101140005CF80110C907D9D0016E41F02001016699
:101150000121002280F85C20084601B0BDE8F08340
:101160004345AAD1DCF8001042F6635221F0E07149
:10117000C0F23E52214341F40001CCF8001040F28D
:101180000001C2F2004109688909A1FB021291091C
:10119000022202EB41010091009900298DD00099B3
:1011A00001390091009900293FF487AF0099013976
:1011B0000091009900293FF480AF00990139009116
:1011C000009900293FF479AF009901390091009905
:1011D00000294FF00001E2D1BBE700BF43454FF0CB
:1011E0000001B6D10022CCF68432964208BF15F435
:1011F0008002AED1DCF8001021F0E071214341F40F
:101200008001CCF800100021A3E7000000000000DE
:10121000F0B581B04FF00001009178B3016E39B99B
:10122000044600F07DF920460021616684F85C10D8
:1012300001688A6892004FF6C072C5F6FF7202D547
:101240008B6813408B608B68DB0032D48B6802F1B3
:1012500080521A4042F6635342F080528A6040F254
:101260000002C0F23E53C2F2004212689209A2FB91
:101270000323012202EB931206E000BF0124204663
:1012800001B0F0BD009A013A0092009A8AB1009A2A
:10129000013A0092009A62B1009A013A0092009AD3
:1012A000002A1FBF009A013A0092009A18BF002A34
:1012B000E8D18A68D20009D4026E012442F01002FB
:1012C0000266426E42F00102426600E000248A6833
:1012D000036E03F0100302F00402D218026E59D11B
:1012E00022F4817246F2100C023202668A68C5F658
:1012F000020CD20724D142F2001341F48072C4F2EE
:1013000002039A4242F20002C4F2020240F0F0806C
:101310009368D2F808512B43DB0711D102F5807393
:1013200002F5427599422B4618BF0CF53E73914267
:1013300008BF2B4642681D6825F47C152A431A60B5
:10134000427EC56BACF11006B14245EA423529D068
:1013500082682A4390F82050012D42EA054506D1C3
:10136000426A0023CFF6FE7303EB42421543826AC2
:1013700022B102F47872C36A1A431543B1421FD0F6
:101380004CF20303CA68CFF6F0731A402A43CA60CE
:1013900028E000BF42F0100101240166204601B0A0
:1013A000F0BD00BFD0E9022E082A00F0A9800C2A67
:1013B00000F0A4801C2A40F0A5801022A5E000BF08
:1013C00044F207035CF8042CCFF6F0731A402A436A
:1013D0004CF8042CDCF80020436B22F040621A43E6
:1013E000CCF800208A688B6802F0040203F008033E
:1013F000D2186AD1027EB1424FEA823226D0036B04
:10140000CF6844F20305AF433B431A43CA6090F8E8
:101410004420012A48D14FF61E030A69CFF6004343
:101420000125D0E912761A40CFF6FF7505EB074784
:101430003243066D3A43476D3243036C3A430A61C7
:101440000A6922F070421A430A613AE05CF8043CEF
:1014500090F8385044F2030E90F8447023EA0E03DB
:1014600043EA4503012F42EA03024CF8042C1BD146
:101470004FF61E02DCF80010CFF600421140D0E912
:1014800012231143026D1943436D1143026C19433A
:1014900041F00101CCF80010DCF8001021F070419F
:1014A0001143CCF8001010E00A69B14222F00102A9
:1014B0000A610A69036C22F0704242EA03020A617F
:1014C00003D00546FEF7C4FF2846016802690B6B8E
:1014D000012A23F00F0202D1C369013B1A430A63B8
:1014E0000122016E62F301010166204601B0F0BDE8
:1014F0005CF8083CDB073FF411AF21E7082204E069
:10150000002202E0182A18BF002242EA0E022A43F3
:1015100090F82050012D42EA05453FF421AF26E71F
:1015200070B5B6B0044602A8283090210025319548
:10153000CDE93455CDE93255FEF71CFF42F20001EA
:101540002068C4F20201884202D036B070BD00BFEC
:101550004FF4002002900220049010210395CDE961
:101560000510CDE90700C0200B95CDE9090502A8BB
:1015700004F0DEF808B1FFF7E7F844F2D84000269F
:10158000C5F60200016841F020010160016801F028
:10159000200101910199816841F001018160806819
:1015A00031A900F001000190019820203190032022
:1015B00032900020C5F60200339602F095FA40F60C
:1015C000D0351020C2F20045C4F202002860092084
:1015D000C5E901064FF4806028614FF4006068613E
:1015E0004FF40050A8614FF48070EE60C5E9070623
:1015F00028466E6201F004F808B1FFF7A5F8A5656A
:10160000AC6336B070BD00002DE9F041044602F035
:1016100047FB1CB3054694F83500022822D140F25E
:101620000F472668C4F2020740F26F48BE426FF0CF
:101630000E00C4F202081DDC6F21C4F202018E42CA
:101640002ADC3F21C4F202018E4241DC1021C4F2A7
:1016500002018E4263D028215CE000BF0120BDE87A
:10166000F08100BF802060650120002184F83410E3
:10167000BDE8F08146451BDC40F23F41C4F2020167
:101680008E422DDC40F21041C4F202018E4246D05F
:1016900040F228413EE000BF9F21C4F202018E4289
:1016A00028DC7021C4F202018E4238D0882131E05A
:1016B00040F29F41C4F202018E4223DC40F27041AD
:1016C000C4F202018E422AD040F2884122E000BFDB
:1016D0004021C4F202018E4221D058211AE000BFFD
:1016E00040F24041C4F202018E4218D040F258410B
:1016F00010E000BFA021C4F202018E420FD0B82139
:1017000008E000BF40F2B841C4F202018E4206D0A8
:1017100040F2A041C4F202018E42314607D1314667
:10172000306820F01E0041F8140B6FF080000A684A
:10173000464500EA020008601ADC9F20C4F202005D
:10174000864233DC5720C4F2020086425ADC102065
:10175000C4F20200864200F097802820C4F2020002
:10176000864200F091804020C4F202008AE000BF6F
:1017700045F22F40C5F6020086422DDC40F2B7400C
:10178000C4F2020086424BDC40F27040C4F2020018
:10179000864279D040F28840C4F20200864273D07B
:1017A00040F2A040C4F202006CE000BF40F22740CB
:1017B000C4F20200864243DCA020C4F2020086424A
:1017C00062D0B820C4F2020086425DD040F21040E0
:1017D000C4F2020056E000BF45F26B40C5F60200BD
:1017E00086423FDC45F23040C5F6020086424BD0CF
:1017F00045F24440C5F60200864245D045F25840C5
:101800003EE000BF5820C4F2020086423CD0702067
:10181000C4F20200864237D08820C4F2020031E0D0
:1018200040F2B840C4F2020086422DD045F2084092
:10183000C5F60200864227D045F21C4020E000BFDA
:1018400040F22840C4F2020086421DD040F24040DF
:10185000C4F20200864217D040F25840C4F202009F
:1018600010E000BF45F26C40C5F6020086420BD086
:1018700045F29440C5F60200864205D045F280400C
:10188000C5F60200864204D1206E016821F4807101
:101890000160306820F00100306000BF3068C00790
:1018A00010D002F0FDF9401B0628F7D32020606518
:1018B000032084F835000120002184F83410BDE8AD
:1018C000F08100BF20680821B8424FF03F0211DCD0
:1018D0006F23C4F2020398421EDC3F23C4F20203CA
:1018E000984235DC1023C4F20203984257D02823D3
:1018F00050E000BF40451BDC40F23F43C4F202030E
:1019000098422DDC40F21043C4F20203984246D0C4
:1019100040F228433EE000BF9F23C4F202039842F6
:1019200028DC7023C4F20203984238D0882331E0C7
:1019300040F29F43C4F20203984223DC40F270431A
:10194000C4F2020398422AD040F2884322E000BF4A
:101950004023C4F20203984221D058231AE000BF6A
:1019600040F24043C4F20203984218D040F2584378
:1019700010E000BFA023C4F2020398420FD0B823A6
:1019800008E000BF40F2A043C4F20203984206D030
:1019900040F2B843C4F20203984240F0C580D4E953
:1019A000163707F01F07404502FA07F25A5019DCB4
:1019B0009F21C4F20201884232DC5721C4F20201A5
:1019C000884259DC1021C4F20201884200F096805E
:1019D0002821C4F20201884200F090804021C4F224
:1019E000020189E045F22F41C5F6020188422DDC53
:1019F00040F2B741C4F2020188424BDC40F2704130
:101A0000C4F20201884279D040F28841C4F2020156
:101A1000884273D040F2A041C4F202016CE000BFE2
:101A200040F22741C4F20201884243DCA021C4F203
:101A30000201884262D0B821C4F2020188425DD01E
:101A400040F21041C4F2020156E000BF45F26B4182
:101A5000C5F6020188423FDC45F23041C5F602017D
:101A600088424BD045F24441C5F60201884245D038
:101A700045F258413EE000BF5821C4F202018842BD
:101A80003CD07021C4F20201884237D08821C4F2D0
:101A9000020131E040F2B841C4F2020188422DD087
:101AA00045F20841C5F60201884227D045F21C41A3
:101AB00020E000BF40F22841C4F2020188421DD05C
:101AC00040F24041C4F20201884217D040F258412E
:101AD000C4F2020110E000BF45F26C41C5F60201FC
:101AE00088420BD045F29441C5F60201884205D0E8
:101AF00045F28041C5F6020188420BD1616EA26EAB
:101B0000E06E4A6030B1016821F480710160D4E96F
:101B10001C014160012084F835000020002184F878
:101B20003410BDE8F08100BF0421012237E7000036
:101B3000F0B190F83510022918D180B540F20F426B
:101B40000168C4F20202914214DC6F23C4F2020362
:101B5000994225DC3F23C4F2020399423CDC102366
:101B6000C4F2020399425DD0282357E080214165E9
:101B70000120704740F26F43C4F2020399421BDC1C
:101B800040F23F43C4F2020399422DDC40F210437D
:101B9000C4F20203994245D040F228433EE000BF20
:101BA0009F23C4F20203994228DC7023C4F202038B
:101BB000994237D0882331E040F29F43C4F20203B8
:101BC000994223DC40F27043C4F20203994229D0C7
:101BD00040F2884322E000BF4023C4F2020399424E
:101BE00020D058231AE000BF40F24043C4F2020361
:101BF000994217D040F2584310E000BFA023C4F22E
:101C0000020399420ED0B82308E000BF40F2B84367
:101C1000C4F20203994205D040F2A043C4F2020389
:101C2000994275D191424FF0040280F8352011DCC1
:101C30006F20C4F20200814222DC3F20C4F2020085
:101C4000814239DC1020C4F20200814259D02820A0
:101C500054E000BF40F26F40C4F2020081421BDC3E
:101C600040F23F40C4F2020081422DDC40F21040BD
:101C7000C4F20200814244D040F228403EE000BF5E
:101C80009F20C4F20200814228DC7020C4F20200CE
:101C9000814236D0882031E040F29F40C4F20200F9
:101CA000814223DC40F27040C4F20200814228D01D
:101CB00040F2884022E000BF4020C4F2020081428E
:101CC0001FD058201AE000BF40F24040C4F202008A
:101CD000814216D040F2584010E000BFA020C4F26C
:101CE000020081420DD0B82008E000BF40F2B840A9
:101CF000C4F20200814204D040F2A040C4F20200CB
:101D00008142086820F001000860002080BD00BF0B
:101D10000A6822F00E020A6045F25742C5F6020236
:101D200091420A6822F001020A600FDC45F22F425C
:101D3000C5F60202914219DC45F20842C5F60202DC
:101D4000914229D045F21C4222E000BF45F27F4279
:101D5000C5F60202914213DC45F25842C5F6020272
:101D6000914219D045F26C4212E000BF45F2304278
:101D7000C5F6020291420FD045F2444208E000BF8E
:101D800045F29442C5F60202914205D045F28042E6
:101D9000C5F6020291421AD1D0E9181CD0E916E327
:101DA0000A6822F480720A6003F01F01012202FA1D
:101DB00001F1CEF80410816ECCF80410C16E31B17F
:101DC0000A6822F480720A60D0E91C124A6001217C
:101DD00080F83510016D0022002980F8342094D05D
:101DE0008847002080BD00002DE9F04782B0002127
:101DF000019140F2000148F2B513C2F20041C1F670
:101E00004E33856D40F26F490A680168C4F20209D9
:101E10002E68A2FB032849452A6815DC9F22C4F2DC
:101E2000020291422CDC5722C4F20202914251DCA0
:101E30001022C4F2020291427BD02822C4F2020294
:101E4000914276D040226FE045F22F43C5F602035F
:101E5000994229DC40F2B743C4F20203994245DCBF
:101E600040F27042C4F20202914262D040F28842D3
:101E7000C4F2020291425CD040F2A04254E000BFA2
:101E800040F22742C4F2020291423FDCA022C4F297
:101E9000020291424DD0B822C4F20202914248D0CF
:101EA00040F2104240E000BF45F26B43C5F602032A
:101EB000994275DC45F23043C5F60203994200F0C1
:101EC000828045F24443C5F6020399427BD045F235
:101ED000584373E05822C4F20202914229D0702282
:101EE000C4F20202914224D088221DE040F2B8439D
:101EF000C4F2020399421CD045F20843C5F602031E
:101F0000994260D045F21C4358E000BF40F228429D
:101F1000C4F2020291420CD040F24042C4F20202EA
:101F2000914206D040F25842C4F20202914240F07F
:101F30005383C26D082302F01F0240F20F4A934000
:101F4000C4F2020A334200F0DE8051454FF004042F
:101F500012DC6F27C4F20207B9426DDC3F27C4F2DE
:101F60000207B94200F39C801027C4F20207B9426D
:101F700000F0BD802827B5E0494569DC40F23F47C5
:101F8000C4F20207B94200F3938040F21047C4F252
:101F90000207B94200F0AB8040F22847A2E000BF40
:101FA00045F26C43C5F6020399420CD045F28043DA
:101FB000C5F60203994206D045F29443C5F60203E2
:101FC000994240F009830B68C76D07F01F0704268C
:101FD000BE40164218BF13F0040423D10226BE40AF
:101FE000164218BF13F0020442D1FA40120740F122
:101FF000F38213F0080200F0EF820A6822F00E026A
:102000000A60012101FA07F26A60416580F8351023
:10201000C16C00294FF0000280F8342040F0D882D3
:10202000DAE200BF1A046E6034D49A0636D40A6825
:1020300022F004020A6031E09F27C4F20207B9428D
:1020400040DC7027C4F20207B94250D0882749E02B
:1020500040F29F47C4F20207B9423BDC40F27047AE
:10206000C4F20207B94242D040F288473AE000BFCA
:102070001A046E6000F1B4829A0600F1B5820A6813
:1020800022F00A020A60012180F83510002180F850
:102090003410A9E2D90301D4816C98E2016C96E274
:1020A0004027C4F20207B94221D058271AE000BFE6
:1020B00040F24047C4F20207B94218D040F25847F4
:1020C00010E000BFA027C4F20207B9420FD0B82722
:1020D00008E000BF40F2A047C4F20207B94206D0B0
:1020E00040F2B847C4F20207B94218BF08240F688B
:1020F000274208D00F6827F004070F60AB60436DDC
:1021000043F0010343650123934033426FD05145AF
:1021100010DC6F27C4F20207B9421DDC3F27C4F26E
:102120000207B94234DC1027C4F20207B94256D084
:1021300028274FE049451BDC40F23F47C4F2020725
:10214000B9422DDC40F21047C4F20207B94246D032
:1021500040F228473EE000BF9F27C4F20207B94281
:1021600028DC7027C4F20207B94238D0882731E052
:1021700040F29F47C4F20207B94223DC40F27047A5
:10218000C4F20207B9422AD040F2884722E000BFD9
:102190004027C4F20207B94221D058271AE000BFF5
:1021A00040F24047C4F20207B94218D040F2584703
:1021B00010E000BFA027C4F20207B9420FD0B82731
:1021C00008E000BF40F2A047C4F20207B94206D0BF
:1021D00040F2B847C4F20207B94240F007824F69A3
:1021E0003F0604D5AB60436D43F00203436504230F
:1021F000934033426FD0514510DC6F27C4F2020781
:10220000B9421DDC3F27C4F20207B94234DC102773
:10221000C4F20207B94256D028274FE049451BDCDB
:1022200040F23F47C4F20207B9422DDC40F21047AA
:10223000C4F20207B94246D040F228473EE000BF50
:102240009F27C4F20207B94228DC7027C4F20207B4
:10225000B94238D0882731E040F29F47C4F20207E4
:10226000B94223DC40F27047C4F20207B9422AD0D7
:1022700040F2884722E000BF4027C4F20207B9427B
:1022800021D058271AE000BF40F24047C4F20207AD
:10229000B94218D040F2584710E000BFA027C4F25E
:1022A0000207B9420FD0B82708E000BF40F2A047AC
:1022B000C4F20207B94206D040F2B847C4F202079E
:1022C000B94240F09B810F68BF0704D5AB60436DF6
:1022D00043F004034365102303FA02F2324200F094
:1022E000828051454FF0080310DC6F27C4F20207CB
:1022F000B9421DDC3F27C4F20207B94234DC102783
:10230000C4F20207B94256D028274FE049451BDCEA
:1023100040F23F47C4F20207B9422DDC40F21047B9
:10232000C4F20207B94246D040F228473EE000BF5F
:102330009F27C4F20207B94228DC7027C4F20207C3
:10234000B94238D0882731E040F29F47C4F20207F3
:10235000B94223DC40F27047C4F20207B9422AD0E6
:1023600040F2884722E000BF4027C4F20207B9428A
:1023700021D058271AE000BF40F24047C4F20207BC
:10238000B94218D040F2584710E000BFA027C4F26D
:102390000207B9420FD0B82708E000BF40F2A047BB
:1023A000C4F20207B94206D040F2B847C4F20207AD
:1023B000B94218BF04230F681F4214D0AA600A68EC
:1023C00052030A6808D4D20508D40A6822F0080229
:1023D0000A60016C21B906E0110351D4016C11B1FE
:1023E000044688472046C16D01F01F02202101FAF2
:1023F00002F3334200F0AF8001681027514511DC31
:102400006F26C4F20206B1421EDC3F26C4F2020669
:10241000B14239DC1026C4F20206B1425BD0282654
:1024200054E000BF49451BDC40F23F46C4F20206BF
:10243000B14231DC40F21046C4F20206B1424AD049
:1024400040F2284642E000BF9F26C4F20206B14295
:102450002CDC7026C4F20206B1423CD0882635E05E
:1024600040F29F46C4F20206B14227DC40F27046B9
:10247000C4F20206B1422ED040F2884626E000BFE8
:10248000816C0029ACD1AEE74026C4F20206B1420D
:1024900021D058261AE000BF40F24046C4F202069E
:1024A000B14218D040F2584610E000BFA026C4F256
:1024B0000206B1420FD0B82608E000BF40F2A046A5
:1024C000C4F20206B14206D040F2B846C4F2020697
:1024D000B14218BF02270E683E423CD0AB6090F874
:1024E0003530042B0B681DD123F016030B604B69AC
:1024F00023F080034B61036C0BB9836C1BB10B6839
:1025000023F008030B603F219140A960012180F86E
:102510003510016D00294FF0000280F8342057D1AA
:102520005AE000BF5A030A680CD4D2050ED40A68D8
:1025300022F010020A60012180F83510002180F895
:10254000341003E0110301D4416C00E0C16B11B100
:10255000044688472046416D00293DD0416DC9079A
:1025600034D0042180F8351001684FEA98220B68B6
:1025700023F001030B60019B0133019393421AD8AE
:102580000B68DB0717D0019B01330193934212D8EC
:102590000B68DB070FD0019B0133019393420AD8EC
:1025A0000B68DB0707D0019B01330193934202D8EC
:1025B0000B68DB07DFD10968C9074FF0030108BFCB
:1025C000012180F83510002180F83410C16C19B158
:1025D00002B0BDE8F047084702B0BDE8F08700BF91
:1025E000D90301D4416CF2E7C16BF0E70B68042317
:1025F000934033427FF4FFAD6DE600BF0B686AE69F
:102600002DE9F041044601F04BFBFCB140F26F486C
:1026100005462068C4F2020840451BDC9F21C4F235
:102620000201884232DC5721C4F20201884259DC9F
:102630001021C4F20201884200F083802821C4F2F4
:102640000201884200F07D80402175E00120BDE854
:10265000F08100BF45F22F41C5F60201884229DC16
:1026600040F2B741C4F20201884247DC40F27041B7
:10267000C4F20201884264D040F28841C4F20201EF
:1026800088425ED040F2A04156E000BF40F22741B0
:10269000C4F20201884241DCA021C4F20201884256
:1026A0004FD0B821C4F2020188424AD040F2104112
:1026B00042E000BF45F26B41C5F60201884200F3DB
:1026C000D18045F23041C5F60201884200F0DD803C
:1026D00045F24441C5F60201884200F0D68045F239
:1026E0005841CDE05821C4F20201884229D070211E
:1026F000C4F20201884224D088211DE040F2B84192
:10270000C4F2020188421CD045F20841C5F602011C
:10271000884200F0BA8045F21C41B1E040F2284105
:10272000C4F2020188420CD040F24041C4F20201DE
:10273000884206D040F25841C4F20201884240F07B
:102740003981022184F83510002184F834100168A1
:1027500021F00101016000BF20680168C9070DD0A8
:1027600001F09EFA401B0628F6D320206065032066
:1027700084F835000120BDE8F08100BF48F23F0237
:1027800004F108060168CFF61062114065694CCE6D
:102790001143A2691943E3693143266A0D43616A13
:1027A0002B43042943EA060343EA020303D1D4E995
:1027B0000B652E4333436568A5F12906292E00F2E7
:1027C0003182DFE816F02B002B002B002B002B00B2
:1027D0002B002F022F022F022F022F022F022F0277
:1027E0002F022F022F022F022F022F022F022F0261
:1027F0002F022B002B002B002B002F022F022F0269
:102800002F022B002B002F022F022F022F022F024C
:102810002F022B002B002B002B0000BF43F4801352
:1028200003600429436923F0070341EA030140F0F0
:10283000DD80D4E90A53002B41EA050100F0D6807F
:10284000B2F5005F00F0B880002A40F0C180022D90
:1028500000F0C180012D00F0B580002D00F0BB809C
:10286000C4E000BF45F26C41C5F6020188420CD0BD
:1028700045F28041C5F60201884206D045F29441F6
:10288000C5F60201884240F0958004F1080E02214D
:1028900084F83510002184F834100168A3699EE89B
:1028A0000450A2F18005E769B5FA85F566696D09FE
:1028B000402A4FEA853543EA07026FF3101142EAD6
:1028C000060208BF102541EADC0142EA0E02236A33
:1028D000294341EAD20141EA131140F80819C0B274
:1028E000CD2148433C2101EA9020E0652046FDF7D8
:1028F00093FEE16D012201F01F0102FA01F1416036
:102900002068404500F381809F21C4F20201884283
:1029100014DC5721C4F20201884227DC1021C4F2E2
:102920000201884200F0C7802821C4F202018842D7
:1029300000F0C1804021C4F20201B9E040F2274119
:10294000C4F20201884221DCA021C4F202018842C3
:1029500000F0B180B821C4F20201884200F0AB80DF
:1029600040F21041C4F20201A2E000BF5821C4F2BB
:102970000201884200F09F807021C4F20201884267
:1029800000F099808821C4F2020191E040F22841D0
:10299000C4F20201884200F08E8040F24041C4F24D
:1029A0000201884200F0878040F25841C4F20201DF
:1029B0007EE000BF4020D9E6032D17D8DFE805F000
:1029C0000E0B0E02A3F1C072B2FA82F2520904E0B9
:1029D000032D03D30AD1C3F300623AB140206065EE
:1029E000012084F83500BDE8F08100BF4161204638
:1029F000FDF712FEE16D3F2201F01F0102FA01F125
:102A00008160206840457FF77FAF45F22F41C5F6D2
:102A10000201884216DC40F2B741C4F2020188424A
:102A200026DC40F27041C4F20201884243D040F2F9
:102A30008841C4F2020188423DD040F2A041C4F274
:102A4000020135E045F26B41C5F6020188421FDC08
:102A500045F23041C5F6020188422CD045F244418E
:102A6000C5F60201884226D045F258411EE000BF5B
:102A700040F2B841C4F2020188421CD045F208413C
:102A8000C5F60201884216D045F21C410EE000BF97
:102A900045F26C41C5F6020188420CD045F29441E2
:102AA000C5F60201884206D045F28041C5F6020112
:102AB000884240F0E18045F2574C45F6FC0EC5F6E1
:102AC000020CC5F6020E60450EDC45F22F41C5F63C
:102AD0000201884218DC45F20841C5F6020188422D
:102AE00028D045F21C4121E045F27F41C5F60201A4
:102AF000884213DC45F25841C5F60201884219D0DC
:102B000045F26C4112E000BF45F23041C5F60201CA
:102B100088420FD045F2444108E000BF45F294419D
:102B2000C5F60201884205D045F28041C5F6020192
:102B3000884247D100F0FC014CF6CD420839CCF672
:102B4000CC42A1FB0212AEF1FC05AEF17C061309EA
:102B5000A26803F01F01802A4FF0010205EB8305F4
:102B6000256602FA01F26666A26605D10020606061
:102B7000286072601EE000BF6368D9B25F1E072F35
:102B80002960726016D84E1E082E19D260450EF1CB
:102B9000440237DC45F22F41C5F60201884249DC88
:102BA00045F20841C5F60201884259D045F21C4160
:102BB00052E000BF00206067C4E91B005CE000BF7A
:102BC000E06E54E000F0F8014AF6AB221039CAF684
:102BD000AA22A1FB021240F20F43C4F2020308250D
:102BE0001109984203F1AA060B4688BF05EB1213A0
:102BF00040F60005B042C4F2020505F1800628BF88
:102C00000B46A5E745F27F41C5F6020188421BDC71
:102C100045F25841C5F60201884221D045F26C4187
:102C20001AE000BF25F00307742F08BF43F4801398
:102C3000F6E500BF45F23041C5F6020188420FD0EB
:102C400045F2444108E000BF45F28041C5F602016B
:102C5000884205D045F29441C5F60201884213D15D
:102C60000EEB83000121E066B1402267616700211D
:102C70000160D4E91C01416000206065012184F8F5
:102C80003510BDE8F08100BF40F60000C4F202003C
:102C900000F1FC0E00F5A072E2E700000000000069
:102CA00070B582B248F68901514340F2A80E1E2A3F
:102CB000C2F2000E4FEA11534FEA0316A6EB11566B
:102CC0004EF21801CEF20001A0EB460C2CD25FEAC6
:102CD0000C4008BF70BD4FF47A7051F8042C0CFB07
:102CE00000F051F8043CDEF80060CEF8043080B209
:102CF000002370430E6808E03344B542A3EB05039C
:102D00002E4628BF134483420CD20D68B542F3D13E
:102D10000D68B54204BF0D68B542EDD10D68B542EE
:102D2000F3D0E9E770BD00BFDEF8000047F2305293
:102D3000424301E0013BCAD051F8040C51F8044C65
:102D4000CEF8044000240D6809E000BF2C44AE42D8
:102D5000A4EB0604354628BF04449442EAD20E6828
:102D6000AE42F3D10E68AE4204BF0E68AE42EDD162
:102D70000E68AE42F3D0E9E790F89830013B012BA2
:102D80000ED80068836D0B4212D0836D0B408B42CE
:102D900032D1C36D43F00203C3658B050ED412E03C
:102DA00000F19C01012002220B681A430A6070475F
:102DB000C36D43F00103C3658B0504D5D0F8E03043
:102DC0001343C0F8E0304B0504D5D0F8E4301A4383
:102DD000C0F8E4204FF6FF72436DC3F6CF720A408D
:102DE0001A4342658A0F4AF614010020C4F200011A
:102DF0000B681A430A6070470323C3658B05DDD453
:102E0000E1E700000000000090F89830022B1BD191
:102E10002DE9F0410668D6F8C03013F07C5F1BD076
:102E2000D6F8C4309B0221D4D6F8C4300C69C3F361
:102E3000044CD1E90035002D8D6821D023432B436C
:102E400043F0804E20E000BFD0F89C1041F0080114
:102E5000C0F89C1001207047D0F89C1041F0200170
:102E6000C0F89C100120BDE8F08100BFD0F89C1094
:102E700041F40071C0F89C100120BDE8F08100BF52
:102E800044EA834343EA050E836E0D6AD1E9068462
:102E90000CFB03F744EA0563D0F884404D6943EA2C
:102EA000080343EA050804EB8703CD6844F827E0EC
:102EB00048EA05075F60CF68B7F5803F0FD34CF253
:102EC0002C05083303320024C0F60005171957F803
:102ED000037C1F51CF890434EF5DBC42F6D301213E
:102EE00001FA0CF1C6F8D010C0F894100020BDE82B
:102EF000F0810000000000007047000000000000AA
:102F000090F89830012B0FD1012900684FEA026236
:102F100012D0D9B9D0F8F01021F07C511143C0F88B
:102F2000F0100020704700BFD0F89C1041F0040161
:102F3000C0F89C1001207047D0F8A01021F0FE418D
:102F40001143C0F8A0100020704700BFD0F8B010A7
:102F500021F0FE411143C0F8B0100020704700007E
:102F600090F89820013A012A0CD880B50A68002A06
:102F7000CA680FD00B69072A43EA427E18D18B69D1
:102F80001BE000BFD0F89C1041F00201C0F89C107B
:102F900001207047072A19D10A69D1E906C3120432
:102FA00042EA032242EA0C0242F0605218E000BFFB
:102FB000D1F808C04B6943EA8C73006F496800EB95
:102FC000C10240F831E05360002080BD8B68D1E938
:102FD00004CE9B0743EAC26242EA0C4242EA0E0276
:102FE0004968C06E40F82120002080BD000000002C
:102FF00090F898C0BCF1010F0ED19200006842EA2F
:103000000111DDF800C041EA430141EA0C01C0F8BA
:1030100080100020704700BFD0F89C1041F00401E0
:10302000C0F89C10012070477047000000000000AD
:1030300070470000000000002DE9F04390F8987000
:10304000022F1DD1402925D10768D7F8A06016F4BA
:10305000FE0F00F0B180D7F8A460760600F0BE80C5
:10306000D7F8A46000F17405F60148BFD7F8A06056
:10307000D7F8A470C7F30526476CB44631E000BF0B
:10308000D0F89C1041F00801C0F89C100120BDE868
:10309000F08300BF41291BD10768D7F8B06016F450
:1030A000FE0F00F08980D7F8B460760600F09680B5
:1030B000D7F8B46000F17805F60148BFD7F8B060E2
:1030C000D7F8B470C7F30526C76CB44609E000BF53
:1030D000076D8F4270D900F17C05466D4FF0000CF2
:1030E0000F4607FB06F42D6805EB840E55F8247097
:1030F00017F08047576055F8247027F0604608BFE6
:10310000C7F38A46166055F8247007F00057976099
:1031100055F8244004F000441461BEF80440D46122
:10312000DEF8044014F47024D460DEF8044004F4A3
:1031300080145461DEF8044004F4001494619EF895
:10314000074004F07F041462DEF804404FEAD474B0
:10315000546228D04CF22C080024C0F600080EEB74
:103160000406651C377A1F55D78918F80770BD42C9
:1031700019D21F19757A7D70D58918F80590A51C8C
:103180004D453FBFB57ABD70D58918F805903CBF55
:10319000E51C4D4507D2F57A0434FD70D58918F841
:1031A0000550AC42DBD3402910D10068C0F8A8C05C
:1031B0000020BDE8F08300BFD0F89C1041F0200152
:1031C000C0F89C100120BDE8F08300BF41290FD159
:1031D0000068C0F8B8C00020BDE8F083D0F89C10AB
:1031E00041F48071C0F89C100120BDE8F08300BF5D
:1031F0001F2909D80068012202FA01F1C0F89810CD
:103200000020BDE8F08300BF006801F01F0101222B
:1032100002FA01F1C0F89C100020BDE8F083000024
:103220000068D0F8C40000F03F00704700000000C4
:1032300070470000000000002DE9F04F87B0044601
:103240004AF61000C4F2000001684AF61400C4F205
:103250000000026820680A40D0F850B0D0F85490BE
:10326000056D466D036D0293436D0193036D0693E7
:10327000436D0593036D0493436D0393D0F854A0FD
:10328000D0F850805FEACA5311D518F480710ED07F
:103290004FF4807101654AF610010020C4F200016C
:1032A000174608602046FFF7C3FF3A4620685FEAEA
:1032B0004A510BEA090B4FEA827740F14B814AF6FB
:1032C000100918F48061C4F2000910D0D0F8DC10A5
:1032D0000092D0F8E42011404FF480620265002093
:1032E000C9F80000204600F0EFFB009A206805EACC
:1032F00006050BF4704657B10021016502F003008A
:10330000C9F8000020463946FFF7F6FD2068DDE9E0
:10331000012101EA020705F00F0546B1066500200C
:10332000C9F800002046314600F0D6FB206807F0BF
:10333000F00645B105650020C9F800002046294681
:1033400000F07AFB206846B106650020C9F800004D
:103350002046314600F080FB20685FEA0A510CD518
:1033600018F4006109D04FF4006101650020C9F82C
:103370000000204600F0B4FB20685FEA8A5111D5B6
:1033800018F400710ED0D0F8D810D0F8E020114019
:103390004FF4007202650020C9F80000204600F0DA
:1033A00097FB20685FEA0A310CD518F4002109D098
:1033B0004FF4002101650020C9F80000204600F00C
:1033C00037FB20685FEACA310CD518F4803109D088
:1033D0004FF4803101650020C9F80000204600F05C
:1033E0006FFB20685FEA4A31DDE9032101EA02054B
:1033F0000CD518F4802109D04FF4802101650020FC
:10340000C9F80000204600F057FB20685FEA8A31C7
:10341000DDE9052102EA010205F060710ED518F41C
:1034200000330BD04FF4003303650023C9F800309C
:10343000D4F89C3043F08003C4F89C3002F07155FE
:1034400039B101650020C9F800002046FFF7F0FD02
:10345000206845B105650021C9F80010D4F89C101A
:103460002943C4F89C10A9F5016188420AD0D4F818
:103470009C0000286AD0204607B0BDE8F04FFFF757
:10348000D3BD00BF606881688907F0D0016A426AD5
:10349000036A476A114003EA070202F03005D0F8D8
:1034A0002080D0F82490D0F820B0466A026A0692B4
:1034B00011F00F01426A0592D0F824A0026A04922A
:1034C00003D00162204600F0EBFA08EA09072DB1AB
:1034D000606829460562204600F0EAFA5FEA4A6021
:1034E00006EA0B0607F4C0750ED5049810F04000EC
:1034F0000AD060684023C16BC26B090C02F03F0226
:103500000362204600F0D0FADDE9051000EA010769
:1035100006F4FC462DB1606829460562204600F09D
:10352000BBFA07F4F02036B161680E62D4F89C1043
:103530003143C4F89C10002899D061680862D4F81F
:103540009C100843C4F89C0091E700BF07B0BDE899
:10355000F08F00BF4AF61009C4F20009002F05EAF7
:1035600006050BF470467FF4C7AED0E600000000FD
:10357000F0B12DE9F04F83B04AF200080446C4F2DE
:1035800000080068404533D094F89810B9B38169B9
:1035900021F01001816100F083FB054620688169FC
:1035A000090707D500F07CFB401B0B28F6D312E07F
:1035B00001207047816941F00101816100F070FBD9
:1035C000054600BF20688169C90721D100F068FB6A
:1035D000401B0B28F6D30120D4F89C100843C4F8F4
:1035E0009C00032084F89800012003B0BDE8F08F10
:1035F00008F58071616094F898100029C7D1002007
:1036000084F89900204600F0B3F92068BFE700BFB6
:10361000816941F002018161217C826922F04002CE
:10362000012918BF40328261617C826922F48042A4
:10363000012908BF02F580428261A17C826922F4DF
:103640008052012918BF02F580528261816921F4FC
:103650004073D4E902120B438361836923F0A4030E
:103660008361036923F0100303619AB1012A0DD02D
:10367000022A09D08369032A43F080038361036926
:1036800043F01002026105D1202200E00422836988
:103690001A438261D4E90572E369561E6FF0FF0296
:1036A000256A02EB0323B1F5407F43EA4663A5F1A7
:1036B000010646EA030640F20003CFF6FF7303EB70
:1036C000074746EA0701C16110D1D4E90B65D4E987
:1036D0000917013F02EB06226FF00F063A4306EB93
:1036E00005173A4303EB01411143C160236E2BB12F
:1036F000616ED0F8C0201143C0F8C010E16DCDE973
:103700000113D9424BF67C71C0F6000109D0D0F804
:10371000C820A36E22F0070251F823301A43C0F8E4
:10372000C820D4F840C0BCF1000F09D0D0F8BC20AC
:10373000636C22F0070251F823301A43C0F8BC2012
:10374000D4F848B0BBF1000F0AD0D0F8BC20E36C2D
:1037500022F0700251F8233042EA0312C0F8BC2074
:10376000D4F850A0BAF1000F0AD0D0F8BC20636D95
:1037700022F4E06251F8231042EA0121C0F8BC10A3
:10378000404504D161688A6822F003028A60002102
:10379000C4F89410C4F89C10012184F8981004F126
:1037A0003409D0F884104FF6FC729143656C99E8A7
:1037B0000C02009541EA8201C0F88410D0F8841010
:1037C00021F47F0141EA0341C0F884109918D0F830
:1037D00088306FF38F0343EA8103C0F88830D0F854
:1037E000883023F4FE0343EA0943C0F8883001EB34
:1037F0004903D0F8A0606FF38F0646EA8306C0F84D
:10380000A060D0F8A06026F4FE0646EA0C46C0F898
:10381000A06005FB0C36D0F8B0306FF38F0343EA9D
:103820008603C0F8B030D0F8B03023F4FE0343EA8A
:103830000B43C0F8B030E36CD0F8AC506FF38F0599
:1038400003FB0B6645EA8605C0F8AC50D4F85480FB
:1038500008FB0A65D0F8F0606FF38F0646EA85062C
:10386000C0F8F060D0F8F0E0A66D2EF47C1747EABF
:103870000647C0F8F070F70007EB8507D0F8C05096
:103880006FF38F052F43C0F8C070D0F8C070009D53
:10389000DDF804E027F47C1705FB0CFC4AF2000578
:1038A00047EA0E47C0F8C070C4F2000503FB0BC323
:1038B00005F54067D0F8C05007EB820207EB8101A5
:1038C00025F07C57029D47EA0567C0F8C07001EB00
:1038D000C90008FB0A372167A16E00EB8C0C6067FA
:1038E00000EB8303E266C4E91EC30EFB01F300EBA9
:1038F00087006943C4F8800000EBC600C4F8840068
:1039000000EB8300C4F8880000EB81004DF2FC312D
:10391000C4F20001C4F89000884201D920205BE67F
:1039200082421FD21146002041F8040BD4F8903097
:103930009942BFF45AAE506002F10801D4F89030B9
:1039400099423FBF906002F10C01D4F89030994247
:10395000BFF44BAED0601032D4F890108A42E1D35D
:1039600043E600BF002003B0BDE8F08F0000000078
:10397000B0B5B6B0044602A80830B0210025319594
:10398000CDE93455CDE93255FCF7F4FC4AF200019B
:103990002068C4F20001884202D036B0B0BD00BF3A
:1039A0004FF4004002904FF080501D9002A8039504
:1039B00001F0BEFE08B1FCF7C7FE44F2E040C5F6D8
:1039C0000200C16841F48071C160C16801F4807176
:1039D00001910199016841F008010160006831A975
:1039E00000F00800019001980320319002203290ED
:1039F0000020CDE933000920359040F60040C5F69F
:103A0000020000F071F813200021002200F030FACB
:103A1000132000F019FA15200021002200F028FAE6
:103A2000152000F011FA36B0B0BD00000000000013
:103A3000704700000000000040F64842C2F2004219
:103A4000904205D111F0010008BF704707F008BF90
:103A500070470000000000007047000000000000F8
:103A600090F8981001290DD1022180F89810016872
:103A70008A6922F001028A610021C0F89C100020AE
:103A8000704700BFD0F89C1041F00401C0F89C10B2
:103A90000120704700000000704700000000000097
:103AA00070470000000000007047000000000000A8
:103AB0007047000000000000704700000000000098
:103AC0007047000000000000704700000000000088
:103AD0007047000000000000704700000000000078
:103AE00070470000000000002DE9F04F83B00F6820
:103AF000002F00F0C98000F1264642F2004506F191
:103B0000FF76C5F602050A22A8424FEAB62540F222
:103B1000040C08BF092200F120030093082DC5F60C
:103B2000000C38BF4FEAB622002400264FF00008F0
:103B300001920AE008F101080F6837FA08F206F16D
:103B4000020604F1040400F09F80012202FA08FE3C
:103B500017EA0E09EED0D1F804B003220BF00307E8
:103B6000B2407D1E6FEA020A012D11D88268CD682D
:103B700002EA0A02B5402A438260CBF3001542688C
:103B800022EA0E0205FA08F52A43426004E000BF6B
:103B9000032F01D103271FE0C2688D6802EA0A02E1
:103BA000B540022F42EA0502C26015D16FF0030250
:103BB00004F01C0502EA580B009A0F2352F80BE0A0
:103BC000AB400F692EEA0303AF403B4342F80B3092
:103BD000D1F804B00BF00307026807FA06F302EA13
:103BE0000A021BF4403F42EA03020260A2D044F200
:103BF000F44340F2084EC5F60203C5F6000E0F2549
:103C00001A6842F002021A601A6802F00202029276
:103C100028F00302029B04F00C0352F80E709D4042
:103C2000AF43019D05FA03F33B4342F80E304FF0DA
:103C3000B04EDEF800204B6842EA0907DD0258BFAB
:103C400022EA09079D02CEF80070DCF8002042EA63
:103C5000090758BF22EA09079D03CCF80070DCF879
:103C6000802042EA090758BF22EA0907DB03CCF8A3
:103C70008070DCF87C2042EA090758BF22EA090775
:103C8000CCF87C7056E700BF03B0BDE8F08F0000B1
:103C9000002A08BF0904816170470000000000008D
:103CA00041F2E800C2F200400068704700000000E6
:103CB00040F2040041F2E801C2F20000C2F2004109
:103CC00000780A6810440860704700000000000097
:103CD00080B5032000F0FCF802F01EFC44F218410D
:103CE0004BF6F073C5F60201C0F600030A68C2F392
:103CF00003229A5C096801F00F0102F01F02595C6F
:103D0000D04040F20402C2F2004201F01F0120FA4A
:103D100001F1116040F20001C2F200410860002090
:103D200000F00AF800281CBF012080BD00F07CF8DC
:103D3000002080BD00000000B0B540F20405C2F2D2
:103D400000052978F1B1044640F20000C2F20040BB
:103D50004FF47A72B2FBF1F10068B0FBF1F003F0BE
:103D600053F80F2C01464FF001000AD8002918BF64
:103D7000B0BD4FF0FF300022214600F079F800205E
:103D80006C60B0BD0120B0BDB0B502784EF69C5C51
:103D9000CEF2000C43784CF8043CFAB14368CCF8FE
:103DA0000030037BC17A90F80AE0457B447A42EA0E
:103DB0000372837B42EA0161C27B41EACE41007A11
:103DC00041EA854141EA434141EA024141EA042195
:103DD00041EA4000CCF80400B0BD00BF0020CCF8A0
:103DE0000000CCF80400B0BD4EF62450CEF2000026
:103DF000BFF35F8F016821F480310160002101670A
:103E000070470000000000004EF6245140F0010011
:103E1000CEF200010867086840F480300860BFF304
:103E20004F8FBFF36F8F704781B044F2F440C5F6F7
:103E30000200016841F002010160006800F0020028
:103E40000090009801B07047002848BF704700F00C
:103E50001F01012202FA01F14EF20012C0F34A10D2
:103E6000CEF2000242F8201070470000000000006F
:103E700070B54EF60C5C4FF0FF36CEF2000C00F140
:103E8000604505F56445DCF80030C3F3022E8EF082
:103E90000703042B28BF0423BEF1030406FA03F32F
:103EA00021EA030100F00F0338BF0024043B00287F
:103EB000634406FA04F048BF03F10C05A14022EA6E
:103EC000000008430001287070BD000000000000E1
:103ED0004EF60C514FF6FF03CEF200010A681A406D
:103EE00060F30A2242F0806040F0FD700860704785
:103EF00001680122C0F80025002280F8F4248869B6
:103F000040F000608861486D40F08052002042F02F
:103F100003024A657047000070470000000000007F
:103F200002680020516270472DE9F043D0F800800C
:103F3000D8F8243091B1D8F82870B1F1010C03EB16
:103F400017414FD05FFA8CF30CF0030E042B08F5E9
:103F500082730BD2002700242BE000BF002043EA2D
:103F60000241C8F82810BDE8F08300BF0CF0FC093E
:103F700008F1F406002400BF56F8107F44F0010059
:103F8000C0B244F00305EDB201EB174144F0020763
:103F900053F82000FFB2043401EB104053F827100F
:103FA00053F82550E7B200EB11404F4500EB1541A7
:103FB000E2D1BEF1000F15D053F82700BEF1010F7A
:103FC00001EB10410ED0601CBEF1020FC0B253F8DD
:103FD000200001EB104105D0A01CC0B253F8200016
:103FE00001EB104108EB8C0041EA0241C0F80411DA
:103FF0000020BDE8F0830000D0F8080505F074BE8D
:1040000001EBC10200EB8202D0F80805926C05F0CA
:10401000D7BD00000000000001EBC10200EB8202EE
:10402000D0F80805D2F8882205F026BE000000006E
:10403000D0F8080505F05CBE10B501F00F0E0A4679
:104040004FFA82FCD2090EEBCE01BCF1000F00EB5F
:10405000810303F51F7148BF03F13C0190F8BC34A4
:104060004A70012B81F800E002D1022010BD00BF90
:10407000012280F8BC2402680446104606F034FC95
:10408000002084F8BC0410BDB0B501F00F024368F5
:10409000934201D20120B0BD4CB202EBC2038C4668
:1040A000002C00EB830303F51F714FEADC1448BFBB
:1040B00003F13C0190F8BC344C700024012B8C704F
:1040C0000A7001D10220B0BD012280F8BC24026830
:1040D0000546104606F0E8FE204685F8BC44B0BD13
:1040E00001F00F0101EBC10100EB8100D0F890025B
:1040F000704700000000000010B54FFA81FCBCF1D1
:10410000000F01F00F0C0CEBCC0123D400EB810E5F
:1041100000218EF87D120EF51F718EF87CC2CEF84C
:1041200084228EF88032022B01D100224A7190F84D
:10413000BC24012A02D1022010BD00BF012280F858
:10414000BC2402680446104606F07AFA002084F87F
:10415000BC0410BD00EB81014FF0010E01F83CCF13
:1041600081F801E08A600B71A1F81AC0022BDCD043
:10417000DDE700000000000080B501F00F0C0CEB43
:10418000CC0100EB810E0021CEE9A331C3688EF88B
:104190007D120EF51F71CEF88822012B8EF87CC29D
:1041A00008BFCA61DAB2006806F0CAFE002080BD0E
:1041B000B0B501F00F04426894424FF001022DD8CF
:1041C0004FFA81FC01EBC10304EBC405BCF1000F05
:1041D00000EB830303F51F7300EB850548BF05F172
:1041E0003C0390F8BC54C9095970012D9A701C7099
:1041F00002D10220B0BD00BF012180F8BC140546E9
:104200000068194606F07CFE2CB9297B286805F267
:10421000C44206F019FE002285F8BC241046B0BD49
:1042200080B501F00F0CD0F80CE0BEF1010F0CEBE3
:10423000CC0100EB810101F83CCF4FF0000CC1E94B
:104240000323C1F814C04FF001034B7008BFCA61CB
:104250005FFA8EF2006806F073FE002080BD000059
:104260002DE9F04F87B005688246284607F074F8BC
:1042700010B107B0BDE8F08FDAF8000007F09CF845
:104280000028F6D0D5F80808C0F30D20CAF8FC04C1
:10429000DAF8000007F090F88007DAF8000003D59C
:1042A000416901F00201416105F50061059107F0E6
:1042B00083F8C006DAF80000069535D5816921F04B
:1042C000100181612C6A04F00F0000EBC001C4F3FF
:1042D00043400AEB8101062801F51F7512D0022820
:1042E0001BD147F6F07014EA000616D03409E968CD
:1042F0000698224607F064F8E86800EB1610E860BC
:1043000008E000BF0AF2C4410822069807F058F8F6
:10431000C4F30A14686920446861DAF8000081690E
:1043200041F010018161069D07F046F8000340F15D
:10433000F980DAF8000007F01BF8002800F0F2809E
:1043400006464FF4306800244FF0000B0AF2C440D8
:10435000049008E00BF1010B760808F1200804F145
:10436000240400F0DF80F007F4D05FFA8BF9DAF86C
:104370000000494607F018F80746C00761D005EB72
:10438000080001218160DAF8000008EB0001036CED
:104390008A68DAF80C50012D26D1150734D4950619
:1043A00000F1B88043F20B05C4F65475AB42069D8C
:1043B00002D312F4004231D10AEB0402D2F89C324B
:1043C00009696FF3DF41A3EB0101C2F89012A4BBAE
:1043D000D2F88C32002B00F0A380D2F88802084477
:1043E000C2F8880229E000BF43F20B05C4F65475F9
:1043F000FF35AB4218D11004069D0FD490061CD592
:104400002020886019E000BF43F20B00069DC4F62F
:104410005470834215D312F4004012D04FF4004080
:10442000886038070FD43DE0069D34B9DAF88C1265
:1044300019B90021049A06F007FD50464946FFF7D6
:10444000EBFD38072ED505EB08000821816043F20B
:104450000B01DAF80000C4F65471056C40448D423B
:1044600081680BD311F4004108D04FF40041816002
:10447000504600F019FD069D0AE000BF504600F0CE
:1044800013FD43F20B00C4F654708542069D09D318
:10449000DAF80C00012805D1DAF800000121049AAD
:1044A00006F0D2FCF80607D4B8070BD4B80624D41B
:1044B000B8047FF54FAF27E005EB080010218160BD
:1044C000B807F3D56869000604D50599486840F433
:1044D000806048600AEB040090F87F12012906D141
:1044E000002180F87F125046494600F085FB05EB1D
:1044F000080002218160B806DAD505EB080020210A
:104500008160B8047FF526AF05EB08004FF4005139
:1045100081601FE720208860069D380793D4C1E79B
:10452000012187E7DAF8000006F046FF400340F17A
:10453000E180DAF8000006F013FF002800F0DA80CE
:104540000646069800F5106900250AF13C00049023
:104550000AF2C4400290CDF80C9004E0760805F110
:10456000010500F0C780F007F8D0EFB2DAF80000DC
:10457000394606F005FF0446C0070BD1200735D4A5
:10458000E00639D460063DD4A00741D42006E5D525
:1045900058E000BF059B05F00F004FF0010C09EB40
:1045A00045120CFA00F0596B21EA00005863C2F87A
:1045B00008C0DAF80C00012812D105EBC5000499F7
:1045C00001EB8000D0E902121144C16045B90069D5
:1045D00030B9DAF800000121029A06F035FC00BF7C
:1045E00050463946FFF70CFD2007C9D509EB4510A9
:1045F00008218160E006C5D509EB451010218160D6
:104600006006C1D509EB451040218160A007BDD5EA
:104610000698294606F034FE05EBC500049901EB27
:10462000800010F8031F012905D1002101705046B8
:10463000394600F0DDFA09EB4510022181602006C1
:104640007FF58CAF05EBC500049901EB8008D8E934
:1046500004108142FFF482AFDAF800400A1AD8F859
:1046600008309A4238BF134604EB451203F1030C9D
:10467000D2F818399BB2B3EB9C0F2BD302F510691B
:10468000D8F81010814223D9081A9AF80C20D8E9DA
:1046900002B1584538BF8346009220461FFA8BF37B
:1046A0003A4606F0B9FFD8F80C00D8F81410584470
:1046B000C8F80C0001EB0B00C8F814000BF1030163
:1046C000D9F8182092B2B2EB910FD9D2D8F81010C5
:1046D000DDF80C9081423FF641AF05F00F0001215B
:1046E00001FA00F0D4F8341821EA0000C4F83408C4
:1046F00034E700BFDAF8000006F05EFE00280DD4B3
:10470000DAF80000069C06F057FE000526D4DAF819
:10471000000006F051FE000131D43CE005994868E4
:1047200020F0010048609AF8F404012808D1002024
:104730008AF8F40400215046FFF7EEFB03E000BFC7
:10474000504600F091FBDAF80000069C416901F048
:104750000041416106F030FE0005D8D5059880681B
:10476000C00702D0504600F0C7FBDAF800004169EC
:1047700001F40061416106F01FFE00010BD5DAF87B
:104780000000416901F0006141619AF8F41499B1A7
:10479000504600F0B1FBDAF8000006F00DFEC00450
:1047A0001BD4DAF8000006F007FE8004DAF80000F7
:1047B00000F114812DE100BF01218AF8F414406D4D
:1047C000C0F38300CAF8F8045046FFF7A5FBDAF8F7
:1047D000000006F0F1FDC004E3D50599486820F01B
:1047E00001004860DAF80000102106F049FDDAF80F
:1047F0000400002800F0C280042800F0030C01D25D
:1048000000216DE020F0030E04F536634FF6A0584A
:104810004FF6C0554FF6E0544FF6006000214FF6BA
:104820007F37CFF6FF78CFF6FF75CFF6FF74CFF660
:10483000FF7000BFA3F51872A3F5107604319760DE
:104840008E4553F8082022F4001243F8082043F85C
:10485000587C53F8602C22F4001243F8602C53F873
:10486000602C42F0006243F8602CB760A3F5087634
:104870005A5922F400125A5143F8387C53F8402C0C
:1048800022F4001243F8402C53F8402C42F000620E
:1048900043F8402CB760A3F500761A5922F40012B1
:1048A0001A5143F8187C53F8202C22F4001243F8D4
:1048B000202C53F8202C42F0006243F8202CB760E3
:1048C0001A5822F400121A509F601A6822F400123B
:1048D0001A601A6842F000621A6003F18003A9D1DD
:1048E000BCF1000F069849D000F5106200F5306069
:1048F00002EB41174FF67F334E01BCF1010FBB6055
:1049000000EB4115975927F400179751AB60875971
:1049100027F400178751875947F0006787512DD03A
:104920004F1CBCF1020F4FEA471502EB471600EB94
:104930004717B360565926F400165651BB604359C9
:1049400023F400134351435943F00063435115D0FE
:1049500002314FF67F364F0102EB411300EB41115C
:104960009E60D35923F40013D3518E60C15921F4B2
:104970000011C151C15941F00061C151059E84210E
:104980000B224423F06940F00110F061DAF83000A6
:10499000002808BF142104BF42F22B021023DAF8CA
:1049A000000077583A437250F1580AF2C44241F07D
:1049B0000B01F150316821F4FE6131609AF80C105E
:1049C00006F042FADAF80000416901F480514161D1
:1049D00006F0F2FC8004DAF800001AD505F074FE47
:1049E000DAF8000006F0A8FCCAF81000DAF8004077
:1049F00001F00AFD9AF810200146204606F080FDDD
:104A0000504600F019FADAF80000416901F400514B
:104A1000416106F0D1FC000706D4DAF8000006F088
:104A2000CBFC00060DD437E0504600F021FADAF84E
:104A30000000416901F00801416106F0BDFC00067B
:104A40002AD50699886920F080008861DAF8040088
:104A5000022821D30AF51F740AF13C05012640F211
:104A6000A32703E001362437864215D21AF807102F
:104A70000129F7D106F00F00320600EBC00005EB6C
:104A8000800158BF04EB8001DAF8000006F068FBF3
:104A9000DAF80400E6E700BFDAF8000006F08CFC64
:104AA000C0024FD4DAF8000006F086FC8002069DB2
:104AB00040F18080DAF8041002292AD305F532602B
:104AC00001390AF52972012306E000BF013900F11E
:104AD000200002F124021CD007681678012EF5D1BF
:104AE000B7F1FF3FF2DCDAF8FC6407F4803706F038
:104AF0000106B742EAD102F8013CAF6947F08007EE
:104B0000AF616F693F06E1D40599486840F40070D1
:104B10004860DAF80000416901F40011416106F0D3
:104B20004BFC40004CD55046FFF766FADAF800001F
:104B3000416901F08041416106F03EFC40077FF58C
:104B400098AB44E0DAF80400022827D306990AF16A
:104B50003C0401F512650AF163064FF001080127D4
:104B600006E000BF01372035874206F1240615D242
:104B700029687278012AF5D1B1F1FF3FF2DC07F024
:104B80000F0086F8008000EBC00004EB8001DAF82B
:104B9000000006F0E5FADAF80400E3E7DAF80000CE
:104BA000416901F48011416106F006FC8002069D16
:104BB0003FF580AFDAF8000006F0FEFB4000B2D40B
:104BC000DAF8000006F0F8FB40077FF552ABDAF8A0
:104BD00000004468610704D55046FFF729FADAF867
:104BE000000041682143416007B0BDE8F08F00003C
:104BF000D0F8080505F0E4B8D0F8080505F0F8B8D5
:104C0000002800F0C5802DE9F04F8BB08046056884
:104C100090F8BD0428B9002088F8BC04404600F094
:104C2000CFF8032088F8BD04E86BC00502D400204B
:104C3000C8F80C00D8F8000006F0FEF8D8F800001C
:104C40000A9008F1040ED8E908769EE82E58D8E9B3
:104C50000A9AD8E90C40CDE908400A988DE8205816
:104C6000CDE90476CDE9069A05F03EFD002840F036
:104C70008780D8F800000021002506F0F9FBD8F85D
:104C8000041000295DD008F13C004FF0010C002217
:104C9000002300BF02EBC20200EB820700F82230C3
:104CA000DAB201337A83DAB287F801C091423D71FA
:104CB000BD60FD603D61EDD808F51F700022002544
:104CC000002300BF05EBC50743F00105ECB200EB84
:104CD0008706A14200F8273072703271B260F2602C
:104CE00032612ED904EBC40700F8275043F00205C7
:104CF000ECB200EB8706A14272703271B260F260D2
:104D000032611ED904EBC40700F8275043F00305B5
:104D1000ECB200EB8706A14272703271B260F260B1
:104D200032610ED904EBC407043300EB870600F8A8
:104D30002750DDB2A94272703271B260F260326106
:104D4000C0D8D8F808000A9008F11C0ED8F8002046
:104D5000D8E90337D8E905659EE80058D8E90A9AEA
:104D6000D8E90C40CDE9084002A8CDE9007680E8FA
:104D7000205810460A9ACDE9069A05F015FE48B16A
:104D8000022088F8BD0401200BB0BDE8F08F00BF01
:104D900001207047002088F83800012088F8BD0401
:104DA000D8F82400012802D14046FFF7A1F8D8F82E
:104DB000000005F0E9FD00200BB0BDE8F08F000019
:104DC00010B5B0B002A9044601F10800B021FBF70C
:104DD000D1FA00212068C4F20401884202D030B028
:104DE00010BD00BF002003904FF4802002904FF4CC
:104DF0004010239002A800F09BFC08B1FBF7A4FC34
:104E000000F0BEF844F2D8400022C5F60200016866
:104E100041F0007101600068002100F00070019015
:104E200001984D20FFF724F84D20FFF70DF830B022
:104E300010BD00000000000010B50446006928B154
:104E4000022801D0FBF780FC012100E00021D4F80A
:104E5000080505F059F8D4F80805BDE8104005F03C
:104E600007B8000000000000D0F8080505F030B8D1
:104E7000D0F8080505F038B890F8BC24012A01D113
:104E80000220704710B5012280F8BC2480F8381049
:104E900004460268104606F01FFB002084F8BC049C
:104EA00010BD000000000000D0F8082500F2C44149
:104EB000104605F041B8000010B5044690F8BC0457
:104EC000012801D1022010BD2068012184F8BC1402
:104ED000C16BC90506D4A16A012903D1816B41F4D4
:104EE0008031816306F0C4F9206805F03DFD0020A3
:104EF00084F8BC0410BD000010B50446D0F80805C5
:104F000005F076F82068D0F8001E41F00101C0F8E5
:104F1000001E206A002808BF10BD4EF61050CEF2C9
:104F20000000016841F00601016010BD00000000B2
:104F3000B0B544F60C05C5F602052968490729688D
:104F400006D401F00701081A18BF0120B0BD00BF48
:104F500021F0070108432860FEF7A2FE044600BFC7
:104F600055F8080C800407D4FEF79AFE001BB0F534
:104F70007A7FF5D90120B0BD0020B0BD000000004F
:104F800044F60C00C5F60200016841F08071016032
:104F9000704700000000000080B501F035FA44F2CF
:104FA00020414BF6F072C5F60201C0F60002096816
:104FB000C1F30211515C01F01F01C84080BD000027
:104FC00080B544F2304EC5F6020E5EF8083C5EF83D
:104FD000081CC1F3051C5EF8041CBCF1000FDEF8D0
:104FE000042019D001F00101494201EAD20103F085
:104FF00003026FF35F31022A00EE101AB8EE400A86
:1050000014D0012A0ED01AB95EF8301C890611D4CA
:105010009FED361A1CE000BF00218160C0E900113D
:1050200080BD00BF9FED2F1A12E000BF9FED2E1A2A
:105030000EE000BF5EF8301C49F20002C0F2D03230
:10504000C1F3C10122FA01F101EE101AB8EE411AC2
:10505000DEF800109FED263A6FF35F2102EE101A82
:10506000DEF80010C1F34621B8EE422A00EE032A12
:1050700000EE10CAB7EE003AB8EE400A81EE000A20
:1050800032EE031A02EE101AB8EE422A20EE010A9E
:1050900032EE031A80EE011ABCEEC11A80ED001A3E
:1050A000DEF80010C1F3064101EE101AB8EE411A05
:1050B00031EE031A80EE011ABCEEC11A80ED011A1E
:1050C000DEF80010C1F3066101EE101AB8EE411AC5
:1050D00031EE031A80EE010ABCEEC00A10EE101A7F
:1050E000816080BD0024744A001BB74B0024744CBF
:1050F000000000390000000080B544F2384EC5F6CB
:10510000020E5EF8103C5EF8101C5EF80C2CC1F329
:10511000053CDEF80410BCF1000F15D0C908D2061A
:1051200001EAE2716FF35F3100EE101A03F0030140
:105130000229B8EE400A0DD081B95EF8381C890604
:1051400010D49FED361A1BE000218160C0E90011E8
:1051500080BD00BF9FED301A12E000BF9FED2D1AF9
:105160000EE000BF5EF8381C49F20002C0F2D032F7
:10517000C1F3C10122FA01F101EE101AB8EE411A91
:10518000DEF800109FED263A6FF35F2102EE101A51
:10519000DEF80010C1F34621B8EE422A00EE032AE1
:1051A00000EE10CAB7EE003AB8EE400A81EE000AEF
:1051B00032EE031A02EE101AB8EE422A20EE010A6D
:1051C00032EE031A80EE011ABCEEC11A80ED001A0D
:1051D000DEF80010C1F3064101EE101AB8EE411AD4
:1051E00031EE031A80EE011ABCEEC11A80ED011AED
:1051F000DEF80010C1F3066101EE101AB8EE411A94
:1052000031EE031A80EE010ABCEEC00A10EE101A4D
:10521000816080BD0024744A001BB74B0024744C8D
:10522000000000390000000080B544F2404EC5F691
:10523000020E5EF8183C5EF8181C5EF8142CC1F3E0
:10524000055CDEF80410BCF1000F15D0C908D205CA
:1052500001EAE2716FF35F3100EE101A03F003010F
:105260000229B8EE400A0DD081B95EF8401C8906CB
:1052700010D49FED361A1BE000218160C0E90011B7
:1052800080BD00BF9FED301A12E000BF9FED2D1AC8
:105290000EE000BF5EF8401C49F20002C0F2D032BE
:1052A000C1F3C10122FA01F101EE101AB8EE411A60
:1052B000DEF800109FED263A6FF35F2102EE101A20
:1052C000DEF80010C1F34621B8EE422A00EE032AB0
:1052D00000EE10CAB7EE003AB8EE400A81EE000ABE
:1052E00032EE031A02EE101AB8EE422A20EE010A3C
:1052F00032EE031A80EE011ABCEEC11A80ED001ADC
:10530000DEF80010C1F3064101EE101AB8EE411AA2
:1053100031EE031A80EE011ABCEEC11A80ED011ABB
:10532000DEF80010C1F3066101EE101AB8EE411A62
:1053300031EE031A80EE010ABCEEC00A10EE101A1C
:10534000816080BD0024744A001BB74B0024744C5C
:10535000000000390000000010B584B0024641F69C
:10536000FF7300209B1A70EB01032DDA47F6FF73E1
:105370009B1A70EB010380F2878082F400430B4399
:1053800000F0EA8082F480330B4300F0098182F45C
:105390000022114340F0918144F20040C5F6020022
:1053A000816D01F44031B1F5003F00F03781B1F576
:1053B000803F00F02981002940F01F810068000132
:1053C00000F1018119E100BF40F2FF739B1A70EBFD
:1053D00001032DDB82F480730B4300F0818082F4A3
:1053E0008062114340F0698144F20041C5F6020138
:1053F000886DC0F34252042A00F2FF8048F2000098
:10540000C0F2BB00DFE812F0A600DC00E6005901A4
:10541000060000BFC86C0A68520700F040520868D6
:1054200002D5002A00F05081C00500F10E810FE185
:1054300082F400630B4300F07B8082F480521143BE
:1054400040F03B8144F20041C5F60201086DC0F313
:105450000232042A00F2D18048F20000C0F2BB0000
:10546000DFE812F07800AE00B8002B01060000BFA4
:10547000C86C0A68520700F04052086840F1E380A7
:10548000002A00F02181DEE082F400530B4300F09B
:10549000738082F48042114340F00F8144F2004453
:1054A000C5F60204A06DC0F30270052800F2A580C5
:1054B000DFE810F00600F400E200EE00E000140166
:1054C00000F0A2FF216A4BF6F072C0F60002C1F3B1
:1054D0000211515C01F01F01C84004B010BD00BFB3
:1054E00044F20041C5F60201086D00F00702042AEB
:1054F00000F2838048F20000C0F2BB00DFE812F047
:105500002A0060006A00DD00060000BFC86C0A685F
:10551000520700F04052086802D5002A00F0D480FB
:10552000C00540F19580B2F1805F00F0E6808FE029
:1055300044F20041C5F60201886DC0F30262042AFC
:105540005BD848F20000C0F2BB00DFE802F003398C
:1055500043B6730008684EE044F20040C5F602000E
:10556000016D01F04051B1F1005F3DD0B1F1805FBC
:1055700040D000293CD040E044F20040C5F6020093
:10558000016DC1F30241052937D8DFE801F0032D91
:105590008F99773104B0BDE8104000F05DBF00BFC7
:1055A00044F20040C5F60200C16C0068C90322D570
:1055B000000122D501A8FFF79FFD039804B010BD9C
:1055C0000868000119D501A8FFF796FD019804B0FD
:1055D00010BD00BF086880000FD501A8FFF724FEAA
:1055E000019804B010BD00BF0068000105D558E067
:1055F000006874E00068800102D4002004B010BD8F
:1056000001A8FFF7DDFC57E000688000F5D501A890
:10561000FFF70AFE039804B010BD00BFC16C02681A
:10562000520701F04051026862D5002960D1C2F3EF
:10563000C1004BE0C86C0A68520700F0405208688D
:1056400001D5002A40D0C00502D5B2F1805F54D008
:105650000868B2F1005F00F400314FF0000004BFB1
:1056600043F20060C0F26E10002908BF084604B083
:1056700010BD00BF206802E0206818E0006840F616
:105680000011C005C0F23D0101EAE07004B010BD98
:1056900020684007B1D5206816E000BF20680001EF
:1056A000ABD501A8FFF728FD06E000BF0068800029
:1056B000A3D501A8FFF7B8FD029804B010BD00BF44
:1056C0000168490799D50068C0F3C10049F200019B
:1056D000C0F2D03121FA00F004B010BD206843F2CE
:1056E00000618003C0F26E1101EAE07004B010BDE9
:1056F000D20509D5B1F1805F06D140F60010C0F2A5
:105700003D0004B010BD00BF0068B1F1005F00F4BF
:1057100000324FF0000004BF43F20060C0F26E1090
:10572000002A08BF104604B010BD000000000000B1
:105730002DE9F0470446C07844F22C480007C5F62E
:10574000020828D5606E4FEA305103292AD8DFE8D5
:1057500001F0030B131B00BFD8F8001041F4003117
:10576000C8F8001010E000BF04F10800022102F0A8
:1057700083FD064680B906E004F12800022102F00C
:105780000FFE064640B9606ED8F8241021F440118F
:105790000843C8F8240000266078C00706D13546C3
:1057A0002FE000BF01266078C007F8D0A06D042864
:1057B0003ED83546DFE800F004140E0B0B0000BFA6
:1057C000D8F80000354640F40030C8F800002F46F5
:1057D000C5B90DE004F12800002102F0E1FD04E06C
:1057E00004F10800002102F047FD05462F464DB99F
:1057F000D8F82400A16D20F0070000250843C8F860
:1058000024003746607840073AD5D4F8A4004FEA20
:105810007050052818D8DFE800F0031D112323235A
:10582000D8F8000040F40030C8F8000018E000BFCD
:105830000125012760784007E7D421E004F1280022
:10584000002102F0ADFD0AE0012501266078000785
:105850001AD44FE004F10800002102F00DFD0546C6
:105860002E461DB1607800070ED443E0D8F82C0016
:10587000D4F8A41020F4600000250843C8F82C00D8
:105880003E466078000735D5D4F8A8004FEA30606E
:10589000052813D8DFE800F004180C1E1E1E00BFF8
:1058A000D8F8000040F40030C8F8000012E000BF53
:1058B00004F12800002102F073FD0AE00125012710
:1058C000E07880071AD434E004F10800002102F0E7
:1058D000D3FC05462F461DB1E07880070ED428E0A2
:1058E000D8F82C00D4F8A81020F0E0600025084378
:1058F000C8F82C003746E07880071AD5E06C4FEAEC
:105900003010032838D8DFE800F009032D0900BF64
:10591000D8F8000040F40030C8F800002E464DB919
:10592000D8F82000E16C20F0300000250843C8F8CA
:1059300020003E466078C00639D5E06D4FEA303031
:10594000042847D8DFE800F004221C0A0A0000BF40
:10595000D8F8000040F40030C8F800002F463DBBE6
:105960001CE000BF04F10800022102F085FC05469E
:10597000002D2E46DED1D3E701250126DAE700BF50
:1059800004F12800002102F00BFD04E004F10800FE
:10599000002102F071FC05462F464DB9D8F82400CD
:1059A000E16D20F4E04000250843C8F824003746A4
:1059B0006078800635D5206E4FEA3040052815D82E
:1059C000DFE800F0041A0E04040400BF2E46DDB91F
:1059D0001EE000BF0125012760788006EBD420E09F
:1059E00004F12800012102F0DBFC0AE00125012678
:1059F0006078400619D449E004F10800012102F062
:105A00003BFC05462E461DB1607840060DD43DE0B6
:105A1000D8F82400216E20F4E02000250843C8F8BF
:105A200024003E466078400630D5D4F8AC004FEAFA
:105A3000307005280ED8DFE800F0031307030303D6
:105A40002F46ADB918E000BF04F12800012102F093
:105A5000A7FC0AE001250127607800061AD43CE083
:105A600004F10800012102F007FC05462F461DB194
:105A7000607800060ED430E0D8F82C00D4F8AC10D2
:105A800020F0E04000250843C8F82C003746607835
:105A9000000622D5E06E58B1B0F1005F0CD0B0F135
:105AA000805F37D1D8F8000040F40030C8F800001B
:105AB0002E469DB908E000BF04F10800012102F064
:105AC000DBFB05462E464DB9D8F82400E16E20F0E8
:105AD000405000250843C8F824003E46E078C0073F
