:020000040800F2
:1000000040140024C90300085B690008E764000885
:1000100059690008090700086D91000800000000F8
:10002000000000000000000000000000196D000842
:100030008509000800000000D76A0008256D000847
:10004000E3030008E3030008E3030008E3030008F8
:10005000E3030008E3030008E3030008E3030008E8
:10006000E3030008E3030008E30300085507000862
:1000700061070008E3030008E3030008E303000846
:10008000E3030008E3030008E30300088D09000808
:10009000E303000899090008E3030008E3030008EC
:1000A000E3030008E3030008E3030008E303000898
:1000B000E3030008856E0008E3030008E30300087B
:1000C000E3030008E3030008E3030008E303000878
:1000D000E3030008E3030008E3030008E303000868
:1000E000E3030008E303000800000000E303000846
:1000F000E3030008E3030008E3030008E303000848
:10010000E3030008E3030008E3030008E303000837
:10011000E3030008E3030008E3030008E303000827
:10012000E3030008E3030008E3030008E303000817
:10013000E3030008E3030008E3030008E303000807
:1001400000000000000000000000000000000000AF
:10015000E3030008E3030008E3030008E3030008E7
:10016000E3030008E3030008E3030008E3030008D7
:10017000E30300085D690008E303000800000000D5
:10018000E3030008E3030008D96F0008E303000855
:10019000E3030008E3030008E3030008E3030008A7
:1001A000E3030008E3030008E30300080000000085
:1001B000E3030008E3030008E3030008E303000887
:1001C000E3030008E3030008000000000000000053
:1001D0000000000000000000E30300080000000031
:1001E000000000000000000000000000000000000F
:1001F0000000000000000000E3030008E303000823
:10020000E3030008E303000800000000E303000824
:10021000E3030008E3030008E3030008E303000826
:10022000E303000800000000E303000800000000F2
:10023000E3030008E303000800000000E3030008F4
:10024000E3030008E3030008E3030008E3030008F6
:10025000E3030008E3030008E3030008E3030008E6
:10026000E3030008E3030008E3030008E3030008D6
:10027000E3030008E3030008E303000800000000B4
:10028000E3030008E3030008E3030008E3030008B6
:1002900000000000E3030008E30300080000000082
:1002A00000000000E3030008E3030008E303000884
:1002B000E3030008E3030008E3030008E303000886
:1002C000E3030008E3030008E303000800F002F87A
:1002D00000F06AF80AA090E8000C82448344AAF176
:1002E0000107DA4501D100F05FF8AFF2090EBAE874
:1002F0000F0013F0010F18BFFB1A43F0010318475A
:10030000E0950000209600000A444FF0000C10F821
:10031000013B13F0070408BF10F8014B1D1108BF83
:1003200010F8015B641E05D010F8016B641E01F823
:10033000016BF9D113F0080F1EBF10F8014BAD1C73
:100340000C1B09D16D1E58BF01F801CBFAD505E091
:1003500014F8016B01F8016B6D1EF9D59142D6D3EB
:1003600070470000103A24BF78C878C1FAD8520705
:1003700024BF30C830C144BF04680C60704700001F
:100380000023002400250026103A28BF78C1FBD89E
:10039000520728BF30C148BF0B6070471FB509F036
:1003A0004BFA1FBD10B510BD00F006F91146FFF75E
:1003B000F5FF09F055F800F024F903B4FFF7F2FF58
:1003C00003BC00F027F900000948804709480047AE
:1003D000FEE7FEE7FEE7FEE7FEE7FEE7FEE7FEE7F5
:1003E000FEE7FEE704480549054A064B7047000052
:1003F000C56D0008CD020008400E00244014002402
:10040000401000244010002453EA020C00F06980E0
:100410002DE9F04B4FF00006002B1FBFB3FA83F518
:1004200003FA05F424FA05F65E4012BF1643B2FA49
:1004300082F502FA05F4C5F120051EBF22FA05FC7B
:1004400044EA0C04203556EA044C4FEA144418BF21
:10045000641C4FF000084FF00009904271EB030C50
:1004600039D3002919BFB1FA81F701FA07F6B0FABA
:1004700080F700FA07F6C7F120071EBF20FA07FC35
:1004800046EA0C062037B6FBF4FCA7EB0507103F45
:1004900007F01F0BCBF120060CFA0BFB2CFA06F62B
:1004A00044BFB3460026202FA4BF5E464FF0000B8A
:1004B0005BEA060C08BF4FF0010B19EB0B09ABFB15
:1004C000027C48EB0608C01B06FB02CC0BFB03CCEE
:1004D00071EB0C01C1E70B46024641464846BDE8B8
:1004E000F08B13B54FF000004FF00001AFF3008028
:1004F000BDE81C40704710B5203AC0F00B80B1E851
:100500001850203AA0E81850B1E81850A0E8185048
:10051000BFF4F5AF5FEA027C24BFB1E81850A0E851
:10052000185044BF18C918C0BDE810405FEA827C6B
:1005300024BF51F8043B40F8043B08BF7047D20782
:1005400028BF31F8023B48BF11F8012B28BF20F823
:10055000023B48BF00F8012B70474FF0000200B586
:10056000134694469646203922BFA0E80C50A0E8D6
:100570000C50B1F12001BFF4F7AF090728BFA0E884
:100580000C5048BF0CC05DF804EB890028BF40F850
:10059000042B08BF704748BF20F8022B11F0804F92
:1005A00018BF00F8012B7047704770477047000074
:1005B00000487047E00D00247546FFF7F9FFAE468E
:1005C00005006946534620F00700854618B020B55F
:1005D000FFF708FFBDE820404FF000064FF000078E
:1005E0004FF000084FF0000B21F00701AC46ACE8DB
:1005F000C009ACE8C009ACE8C009ACE8C0098D4648
:10060000704710B50446AFF300802046BDE81040A7
:10061000FFF7D3BE01491820ABBEFEE7260002005B
:100620007047000010B5324904460068884202D085
:10063000304A904202D1D1F8080302E02E48D0F8A7
:10064000080310F4403F10D004F0DEFD6168B1F5FE
:10065000803F06D0B1F5003F03D0B1F5403F26D131
:1006600001E0090C17E0800821E000214FF4002090
:1006700003F0B0FE61688A03920B18D18A140C2A29
:1006800015D2DFE802F0140606060606060B0D0F6B
:100690001113890C4900B0FBF1F008E0000906E0F5
:1006A000400904E0800902E0C00900E0000A1349A3
:1006B0004008884204D82068816821F4407108E02D
:1006C0000F49884207D82068816821F4407141F4BD
:1006D0008071816010BD0B4988422068816804D810
:1006E00021F4407141F40071F3E741F44071F0E707
:1006F000002002400021024000600258105E5F00AE
:1007000020BCBE0040787D01FEE70020704700203D
:100710007047000005490022054810B507F08CF924
:100720000449034807F07BF9002010BD400C00206D
:10073000D8030024400400200146044810B507F007
:100740006EF9024807F044F9002010BDD8030024D8
:1007500000207047014801F057BA0000F400002063
:10076000014801F051BA000060030024294A0168E1
:1007700091423AD0274A1832914236D0254A303237
:10078000914232D0234A483291422ED0214A6032DF
:1007900091422AD01F4A7832914226D01D4A903287
:1007A000914222D01B4AA83291421ED01A4A91424D
:1007B0001BD0194A1832914217D0174A3032914251
:1007C00013D0154A483291420FD0134A60329142F9
:1007D0000BD0114A7832914207D00F4A90329142A1
:1007E00003D00D4AA832914211D1CAB21823103A4F
:1007F000B2FBF3F26FF30901032A02F00703074A81
:10080000D25CC26500D9091D81650846704721F098
:10081000FF01F9E71000024010040240429800086E
:1008200030B5224A012301689142CAB21BD01F4C45
:100830001434A14217D01D4C2834A14213D01B4CB4
:100840003C34A1420FD0194C5034A1420BD0174C6C
:100850006434A14207D0154C7834A14203D0134C24
:100860008C34A1420CD11421114C083AB2FBF1F1A5
:100870000F4A803201F01F0504EB8101AB4010E00C
:100880000C4D1824103A0D44B2FBF4F1A82D00D8F9
:100890000831094A01F01F0402EB8101064AA34016
:1008A0008032603080E80E0030BD000008540258ED
:1008B00000580258F0FBFDBF0008024010B5027955
:1008C000531E072B2DD8174C0168A1421BD0154C85
:1008D0001434A14217D0134C2834A14213D0114C28
:1008E0003C34A1420FD00F4C5034A1420BD00D4CE0
:1008F0006434A14207D00B4C7834A14203D0094C98
:100900008C34A14203D10849074C443102E0074925
:10091000064C443104EB8202C0E91B2101219940BD
:10092000416710BD08540258FC580258FC080240A8
:1009300010B583694FF0C074826A0146002053B13C
:10094000B3F5005F15D072B1012A0CD0022A0AD08B
:10095000032A09D104E01AB1012A06D0022A03D1E0
:10096000C96AC90100D5012010BDC96AA142FAD0E7
:1009700010BD002AF7D0012AF2D0022AF3D0032AB0
:10098000F3D010BD704772B6FEE70000014802F0D8
:100990005DB800002C020024014802F057B80000A6
:1009A0002C020024F0B503684FF6FC716D4C426BCD
:1009B000D3F884508D4345EA8205C3F88450036818
:1009C00053F8845F068F25F47F0545EA06451D60D0
:1009D000836B654D9F180268D2F888308B4343EAD9
:1009E0008703C2F88830026852F8883F868F23F464
:1009F000FE0343EA06431360066856F8A03FC26B45
:100A00008B4307EB420243EA82033360076857F8DF
:100A1000A03FB0F8406023F4FE0343EA06433B6086
:100A2000D0E9103603FB06220368D3F8B0608E438A
:100A300046EA8206C3F8B0600368B0F84860D3F8AD
:100A4000B07027F4FE0747EA0646C3F8B060D0E965
:100A50001267036806FB0722D3F8AC608E4346EAB0
:100A60008206C3F8AC60D0E91467036806FB07226E
:100A7000D3F8F0608E4346EA8206C3F8F06003685C
:100A8000B0F85860D3F8F07027F47C1747EA0646B0
:100A9000C3F8F0600368876D53F8C06F02EB47023C
:100AA0008E4346EA820119600168B0F85C20D1F8F3
:100AB000C03023F47C1343EA0242C1F8C02001682D
:100AC00090F86020D1F8C03023F07C5343EA0262F2
:100AD000C1F8C020416B04EB8101C166826B01EB60
:100AE00082020267C36B02EBC3024267D0E9103493
:100AF000634302EB83028267D0E91234634302EB63
:100B00008302C267D0E91434634302EB8302C0F866
:100B10008020836D02EBC303C0F88430C46D826E05
:100B2000544303EB8403C0F88830046E544303EB52
:100B30008402C0F89020AA420AD9D0F89C20032150
:100B400042F02002C0F89C2080F898100120F0BDEF
:100B5000002200E004C1D0F890308B42FAD8002087
:100B6000F0BD000000AC0040FCD30040F0B58E6842
:100B70000C69D1E9005744EA0604DFB145F080452D
:100B80002C43866ED1E906C54F695E4391F820304B
:100B900045EA0C05D0F884E00020D1F80CC047EA03
:100BA0000363114F1D430EEB860345EA0C05E3E892
:100BB000024511E044EA8544E3E71418155CA67881
:100BC00094F803C094F801E0360445EA0C6446EA60
:100BD0000E252C43001D10C3CC6807EB1444247869
:100BE0008442EAD8F0BD00004C9800082DE9F04797
:100BF0000F4690F85C109CB0044601294FF00009A4
:100C000015D00026DFF8F880012084F85C001896E3
:100C10001996216841450ED13A4D0095284605F0B8
:100C20008DFC8246206805F089FC60B10EE0022050
:100C30001CB0BDE8F087206E84F85C6040F02000B6
:100C400020660120F4E7BAF1000F09D0216E4FF0C1
:100C5000010941F020002066484684F85C60E7E71F
:100C600020684146884201D0A84201D1264800E0D0
:100C7000264840F61F72D7F800C0254BBCF1000F84
:100C800023D0D0F808C0D7F804802CF4404C4CEAAC
:100C9000080CC0F808C0D4F800C08C4501D0AC45A1
:100CA00007D18968AB6801F0010103F00103194322
:100CB00002E0996801F001010029CDD1BD683968D1
:100CC000836829439343194317E0876827F4404713
:100CD000876027688F4201D0AF4207D18968AB682F
:100CE00001F0010103F00103194302E0996801F0EA
:100CF00001010029B0D1816891438160ACE7000017
:100D000000200240002102400023024000630258FC
:100D1000006002582DE9F84F4FF0000B0446FD4EDD
:100D20000D46CDF800B0DA4690F85C00FA4F012885
:100D300008D04FF0010984F85C90206805F0FAFBB8
:100D400018B152E20220BDE8F88F2068B0420DD001
:100D50002968C2690B0327D091FAA1F1B1FA81F198
:100D600001F01F0309FA03F10A43C261D5E9001239
:100D70004FF00C0C20681F23C1F384610CEA921C15
:100D800002F01F02604493409140026B9A430A4371
:100D90000263206805F0CEFB8046206805F0C6FBA4
:100DA00058EA000003D048E1C1F38461D8E7AA689B
:100DB0002968206805F0C6FB2068B04204D1C268EB
:100DC0006969C2F3C1020BE0D44A1268B9EB127F21
:100DD00002D0C168C90605D4C2686969C2F382023B
:100DE000520004E0C268696902F0100252089140A2
:100DF0002A69042A5AD02B6800EB8202B04202F121
:100E0000600207D103F0F8401368084340F0004047
:100E1000106008E0D2F800C003F0F84008430CF07E
:100E20000041014311602068B0421CD12A69E96980
:100E300000EB8200026E22F080720A43026695F88F
:100E4000201020682A6901290AD00021B042AAD1C5
:100E500000EB8200026E22F000720A430266ECE0B0
:100E60004FF00071F2E795F821102A69012917D097
:100E70005FF0000100EB8200026E22F000420A43A4
:100E80000266287E21682A6901280CD000200B699F
:100E900002F01F02904023F4F04202430A61CCE0CA
:100EA0004FF00041E6E74FF40060F0E7B04273D145
:100EB000002105F035FB000320684FF000016DD0E4
:100EC00005F02EFB90FAA0F0B0FA80F1286802033A
:100ED00069D090FAA0F0B0FA80F0814204D10022EB
:100EE0002068114605F03EFB2068012105F018FB43
:100EF000000320684FF0010158D005F011FB90FA73
:100F0000A0F0B0FA80F12868020354D090FAA0F063
:100F1000B0FA80F0814204D120680022012105F05E
:100F200021FB2068022105F0FBFA000320684FF046
:100F3000020143D005F0F4FA90FAA0F0B0FA80F183
:100F4000286802033FD090FAA0F0B0FA80F0814206
:100F500004D120680022022105F004FB206803214F
:100F600005F0DEFA000320684FF003012ED005F0F3
:100F7000D7FA90FAA0F0B0FA80F1286802032AD0DC
:100F800090FAA0F0B0FA80F0814256D12068002299
:100F9000032105F0E7FA50E020E0FFE705F0C0FA92
:100FA000C0F3846192E7C0F3846096E705F0B8FA75
:100FB000C0F38461A7E7C0F38460ABE705F0B0FA43
:100FC000C0F38461BCE7C0F38460C0E705F0A8FA11
:100FD000C0F38461D1E7C0F38460D5E7016E2A785D
:100FE00001F0F841B1EB826F03D1016E21F00041B5
:100FF000016620682978426E02F0F842B2EB816FF8
:1010000003D1416E21F00041416620682978826E4B
:1010100002F0F842B2EB816F03D1816E21F0004102
:10102000816620682978C26E02F0F842B2EB816FC7
:1010300003D1C16E21F00041C1662068816811F0C2
:10104000010F71D1364AB042EB6829680FD1D0F850
:10105000B0C003F01808C1F3130322FA08F20A40E3
:101060002CEA030C4CEA020CC0F8B0C00EE0D0F839
:10107000C0C003F01808C1F3130322FA08F20A40B3
:101080002CEA030C4CEA020CC0F8C0C02548E96801
:1010900081427DD1286801031BD090FAA0F1B1FAFA
:1010A00081F1491C01F01F0109294FEA00313CD8A8
:1010B000002911D090FAA0F1B1FA81F101F10101FA
:1010C00001F01F0109FA01F209D100BFC0F38461E8
:1010D00009E0C0F38461E4E7C0F38461EEE790FACD
:1010E000A0F1B1FA81F101F1010101F01F0142EA21
:1010F000816102D1C0F3846003E090FAA0F0B0FAFD
:1011000080F000F1010000F01F0000EB400041EA18
:10111000005140E000600258002102400010005CD5
:10112000FFFF0F000000FF4765E000290FD000BF60
:1011300090FAA0F1B1FA81F101F1010101F01F0172
:1011400009FA01F206D100BFC0F3846106E0C0F3E2
:101150008461F1E790FAA0F1B1FA81F101F10101A6
:1011600001F01F0142EA816102D1C0F3846003E013
:1011700090FAA0F0B0FA80F0434A00F1010000F0CC
:101180001F0000EB400002EB005041EA000100E0CC
:1011900005E041F00071AA68206805F0D3F9D5F8A0
:1011A00000C0BCF1000F26DA384B20683849DFF860
:1011B000E490984201D0B84201D10A4600E04A4684
:1011C0009268984202F0E07201D0B84209D19D685D
:1011D000D7F8088005F0010508F0010845EA080580
:1011E00002E0B56805F001054DB1216E4FF0010A2E
:1011F00041F020002066504684F85CB0A3E5264DFF
:10120000AC451CD115021AD4B042F4D1984202D098
:10121000B84200D049468B6842F4000023F0E072E7
:1012200002438A601E491D480968B1FBF0F0400086
:10123000801C00E0401E00900028FBD1DBE7194D28
:10124000AC450CD1D5010AD4B042D4D1984202D0D9
:10125000B84200D049468B6842F080700EE0124DD3
:10126000AC45C8D15502C6D4B042C4D1984202D0D0
:10127000B84200D049468B6842F4800023F0E07207
:1012800002438A60B7E70000000020FE0020024011
:101290000023024000630258000052C7400D0300C3
:1012A00028000020000021C3000084CB2DE9F84372
:1012B0004FF0000504002E46009502D0206E18B1B4
:1012C00008E00120BDE8F883204600F043F9656698
:1012D00084F85C5020688168C1F3407119B181685D
:1012E0008E4A1140816020688168C1F3007181B924
:1012F00081688B4A114041F0805181608A49894858
:101300000968B1FBF0F0401C00E0401E009000288E
:10131000FBD120688168C1F3007141B9216E0126BB
:1013200041F010012166616E41F00101616605F036
:1013300001F9216EC90600D420B1206E012640F0CB
:101340001000E0E0206E20F4807040F00200206683
:1013500020688168754D11F0010F1ED1744B754ADC
:10136000984201D0904207D19968976801F0010135
:1013700007F00107394302E0A96801F0010161B9F2
:10138000984201D0904201D16B4800E06B488268DE
:10139000616822F47C120A4382602168A9421FD14D
:1013A000637ED4E90207E26B5B033A43082805D069
:1013B0000C280FD01C280FD018280FD05FF0000089
:1013C00000F00C0794F8200043EA47031A4342EA6E
:1013D00000400FE00420F3E70820F1E71C20EFE7CE
:1013E000627E94F82030A768E06B520342EA034221
:1013F0003843104394F82020012A04D1A28C504B8A
:1014000003EB42421043A26A2AB1E36A02F4787203
:10141000024343EA0200CA68A9420BD1494B1A4071
:101420000243CA602068626B016921F04061114388
:10143000016103E0444B1A400243CA60206805F092
:1014400079F80746206805F071F807434ED1206807
:10145000A946484506D1217E94F83820890341EAFF
:10146000420103E0227E216B41EA8231C26844F2EC
:1014700003039A430A43C26094F844000128206899
:1014800003D0016921F0010122E048450ED1D4E9E1
:10149000121CD4E9143502692C4F41EA0C012B438C
:1014A0003A401943114341F0010111E0D4E9131707
:1014B000B4F848C0DFF89880636D026908EB0C4C03
:1014C000224D394343EA0C036D1E2A401943114350
:1014D00001612068236C026922F070421A430261A4
:1014E0002068484502D02046FFF79CF82069012873
:1014F00020680BD0016B21F00F010163206E20F0FA
:10150000020040F0010020663046DBE6E269016B34
:10151000521E21F00F011143EFE70000C0FFFF5FF3
:10152000C0FFFF7F400D030028000020006002582C
:1015300000200240002102400023024000630258C4
:101540000000FEFF0740F0FF03C0F0FF1FF800FCA3
:101550000100FFFFF0B5B5B0064614212EA8FEF736
:10156000FCFFB8216846FEF7F8FF29493068884239
:101570004CD1022000224FF400210091CDE901203E
:101580001023154606AACDE90330C024059082E851
:10159000310068460995289503F06AF808B1FFF70D
:1015A000F2F91C48016841F020010160006800F078
:1015B0002000339017480830016841F001010160B4
:1015C00000682EAA032100F001003390202082E859
:1015D000230011482EA901F06FFD104C092110487D
:1015E0004FF4807C021584E82300D700C4E903523D
:1015F000C3142046C4E907C56562C4E9053700F095
:1016000077FE08B1FFF7BFF9B465A66335B0F0BD4A
:1016100000200240D844025800000258F400002084
:10162000100002402DE9F84F044601F059FE0090E9
:101630003CB194F83500022806D080216165002075
:10164000E4E00120BDE8F88FC74DC74EC649183504
:1016500020683036DFF81483DFF814938842DFF80F
:1016600014A3DFF814B32ED0A8422CD0B0422AD055
:10167000404528D0484526D0504524D0584522D052
:10168000BD4A183290421ED0BC4A90421BD0BB4A81
:101690001832904217D0B94A3032904213D0B74A2C
:1016A000483290420FD0B54A603290420BD0B34AD4
:1016B0007832904207D0B14A9032904203D0AF4A7C
:1016C000A832904209D1026822F01E02026020680E
:1016D000426922F08002426103E0026822F00E02B9
:1016E000026027688F4238464DD0A8424BD0B042A6
:1016F00049D0404547D0484545D0504543D058454E
:1017000041D09D4A183290423DD09C4A90423AD0F6
:101710009A4A1832904236D0984A3032904232D0AB
:10172000964A483290422ED0944A603290422AD053
:10173000924A7832904226D0904A9032904222D0FB
:101740008E4AA83290421ED08D4A90421BD08C4ABD
:101750001432904217D08A4A2832904213D0884AD5
:101760003C3290420FD0864A503290420BD0844A8D
:101770006432904207D0824A7832904203D0804A45
:101780008C32974204D1206E026822F4807202608B
:1017900075492068884228D0A84226D0B04224D07B
:1017A000404522D0484520D050451ED058451CD039
:1017B00071491831884218D07049884215D06F4954
:1017C0001831884211D06D49303188420DD06B49B3
:1017D0004831884209D069496031884205D067495B
:1017E0007831884201D065499031016821F00101CA
:1017F00001600EE001F074FD0099401A052808D937
:10180000202262650321002084F8351084F834001A
:1018100017E73868C007EDD1534A0121206890428C
:101820002ED0A8422CD0B0422AD0404528D04845DE
:1018300026D0504524D0584522D04F4B18339842DB
:101840001ED04E4B98421BD04C4B1833984217D0A9
:101850004A4B3033984213D0484B483398420FD00C
:10186000464B603398420BD0444B7833984207D0B4
:10187000424B9033984203D0404BA833984208D152
:1018800094F85C703F23A06D07F01F07BB40836096
:1018900007E094F85C30A06D03F01F0301FA03F336
:1018A0004360206890424DD0A8424BD0B04249D00E
:1018B000404547D0484545D0504543D0584541D094
:1018C0002D4A183290423DD02C4A90423AD02B4AB1
:1018D0001832904236D0294A3032904232D0274ACC
:1018E000483290422ED0254A603290422AD0234A74
:1018F0007832904226D0214A9032904222D01F4A1C
:10190000A83290421ED01E4A90421BD01C4A14326C
:10191000904217D01A4A2832904213D0184A3C32CB
:1019200090420FD0164A503290420BD0144A643283
:10193000904207D0124A7832904203D0104A8C323B
:1019400090420BD1D4E919024260E06E30B10268D6
:1019500022F480720260D4E91C024260002084F804
:10196000351084F834006DE6100002405800024043
:101970007000024088000240A000024010040240B3
:10198000085402582DE9F05F28B190F8351002296B
:1019900004D0802141650120BDE8F09F904C904B20
:1019A0000168183C18338E4ADFF83C92A1428D4CF6
:1019B000DFF838E28E4FDFF83CB2DFF83CA28F4D03
:1019C0008F4E31D091422FD099422DD0A1422BD0B1
:1019D000494529D0714527D0B94225D0DFF810C23A
:1019E0000CF1180C61451FD0DFF808C2ACF1600C97
:1019F000614519D0DFF8FCC1ACF1480C614513D04A
:101A0000DFF8F0C1ACF1300C61450DD0DFF8E4C176
:101A1000ACF1180C614507D0594505D0514503D0AC
:101A2000A94201D0B1422CD1DFF8B4C14FF0040873
:101A300080F83580ACF1180C61451DD091421BD067
:101A4000994219D0A14217D0494515D0714513D0FC
:101A5000B94211D06648183081420DD065486038CF
:101A6000814209D063484838814205D06148303806
:101A7000814201D05F481838086820F001000860F2
:101A8000ABE0D1F800C02CF00E08DFF854C1C1F86B
:101A90000080ACF1180C0168614527D0914225D037
:101AA000994223D0A14221D049451FD071451DD074
:101AB000B9421BD0DFF838C10CF1180C614515D0C4
:101AC000DFF830C1ACF1600C61450FD0DFF824C104
:101AD000ACF1480C614509D0DFF818C1ACF1300C0D
:101AE000614503D0DFF80CC1ACF1180CD1F800C08F
:101AF0002CF0010CC1F800C0DFF8E4804FF0010CBD
:101B00000168A8F11808414546D0914244D0994255
:101B100042D0A14240D049453ED071453CD0B94267
:101B20003AD0334A1832914236D0324A603A914222
:101B300032D0304A483A91422ED02E4A303A914221
:101B40002AD02C4A183A914226D0594524D05145E2
:101B500022D0A94220D0B1421ED02A4A91421BD0A5
:101B6000284A1432914217D0264A2832914213D083
:101B7000244A3C3291420FD0224A503291420BD03B
:101B8000204A6432914207D01E4A7832914203D0F3
:101B90001C4A8C32914218D1016E0A6822F480727C
:101BA0000A6090F85C20816D02F01F020CFA02F2CC
:101BB0004A60D0E919124A60C16E31B10A6822F454
:101BC00080720A60D0E91C124A600022016D80F820
:101BD00035C080F8342001B188470020DCE60000E1
:101BE0002800024058000240700002408800024075
:101BF000A00002407004024088040240A004024099
:101C0000B8040240085402582DE9FC5F0446F74E20
:101C10000020DFF8D88300904FF41652F44808F102
:101C20001808A56DDFF8C493DFF8C0A3016809F1B7
:101C3000300920680AF1480AB1FBF2F1B042019183
:101C40002F68D5F800C0DFF8ACB335D041468842E4
:101C500032D0484530D050452ED058452CD0E5499B
:101C60001831884228D0E3493031884224D0E149F4
:101C70004831884220D0E04988421DD0DE491831E1
:101C8000884219D0DC493031884215D0DA494831D0
:101C9000884211D0DFF860E30EF1600E70450BD082
:101CA000D54A7832904207D0D34B9033984203D034
:101CB000D149A83188427DD194F85C20082102F0F6
:101CC0001F0201FA02F23A424AD0B04232D04045F5
:101CD00030D048452ED050452CD058452AD0C54A42
:101CE0001832904226D0C34A3032904222D0C14AA4
:101CF000483290421ED0C04A90421BD0BE4A183291
:101D0000904217D0BC4A3032904213D0BA4A48327F
:101D100090420FD0B84A603290420BD0B64A783227
:101D2000904207D0B44A9032904203D0B24AA832CF
:101D3000904203D1026802F0040202E0026802F05D
:101D400008026AB1026822F00402026094F85C00A2
:101D500000F01F008140A960606D40F001006065E7
:101D600094F85C00012100F01F008140394240D00E
:101D70002068B04234D0404532D0484530D050453C
:101D80002ED058452CD09B4A1832904228D0994AE0
:101D90003032904224D0974A4832904220D0964A1E
:101DA00090421DD0944A1832904219D0924A303253
:101DB000904200E0AFE113D08F4A483290420FD0FA
:101DC0008D4A603290420BD08B4A7832904207D0D5
:101DD000894A9032904203D0874AA83290427DD1FE
:101DE000406910F0800F04D0A960606D40F00200DF
:101DF000606594F85C00042100F01F0081403942C6
:101E00003ED02068B04232D0404530D048452ED038
:101E100050452CD058452AD0764A1832904226D0C8
:101E2000744A3032904222D0724A483290421ED0D8
:101E3000714A90421BD0704A1832904217D06E4AB5
:101E40003032904213D06C4A483290420FD06A4AE6
:101E5000603290420BD0684A7832904207D0664A8E
:101E60009032904203D0644AA83290424ED100682A
:101E700010F0020F04D0A960606D40F004006065AE
:101E800094F85C00102100F01F008140394258D0C6
:101E90002068B04234D0404532D0484530D050451B
:101EA0002ED058452CD0534A1832904228D0514A4F
:101EB0003032904224D04F4A4832904220D04E4A8D
:101EC00090421DD04C4A1832904219D04A4A3032C2
:101ED000904215D0484A4832904200E014E00FD0BA
:101EE000454A603290420BD0434A7832904207D044
:101EF000414A9032904203D03F4AA832904207D1E3
:101F0000006800F0080006E0006872E70068B7E7C4
:101F1000006800F00400A0B1A960206801684903CE
:101F200004D50068000308D5A16C07E00168C90565
:101F300003D4016821F008010160216C09B1204639
:101F4000884794F85C00202100F01F00814039424E
:101F500079D02068B04232D0404530D048452ED0AC
:101F600050452CD058452AD0224A1832904226D0CB
:101F7000204A3032904222D01E4A483290421ED02F
:101F80001D4A90421BD01C4A1832904217D01A4A60
:101F90003032904213D0184A483290420FD0164A3D
:101FA000603290420BD0144A7832904207D0124AE5
:101FB0009032904203D0104AA832904203D1006878
:101FC00000F0100002E0006800F00200B0B3A96069
:101FD00094F835000428206801680FD049037ED5A5
:101FE000006800032BD4616C2AE00000100002405E
:101FF00028000020700002401004024021F0160169
:1020000001602068416921F080014161206C08B9BC
:10201000A06C20B12068016821F00801016094F8EB
:102020005C303F21012003F01F0300229940A9608A
:1020300084F8350084F83420216D65E003E0E16B1D
:1020400009B120468847606D00287DD0606DC007CB
:1020500059D02068042184F83510B0422BD0404577
:1020600029D0484527D0504525D0584523D09D49F3
:10207000884220D09B49183188421CD09949303180
:10208000884218D09849884215D09749183188421B
:1020900011D09549303188420DD09349483188425A
:1020A00009D091496031884205D08F497831884202
:1020B00001D08D499031016821F001010160206853
:1020C0000099019A491C0091914202D80168C90700
:1020D000F6D10068C00710D003200FE0FFE70168C9
:1020E000C905ACD403680121002223F0100303606A
:1020F00084F8351084F83420A1E7012084F83500F5
:10210000002084F83400E16C00291DD002B0204684
:10211000BDE8F05F0847754988421DD07349143106
:10212000884219D071492831884215D06F493C3115
:10213000884211D06D49503188420DD06B496431CD
:10214000884209D0694900E084E07831884203D0B0
:1021500066498C3188427DD194F85C8004270168FF
:1021600008F01F0807FA08F717EA0C0F009746D087
:102170004F0744D500980F04686003D5C8033CD4CA
:10218000A16CC1E7880638D42068B0422DD05549EB
:102190006039884229D0484527D0504525D0584538
:1021A00023D05049884220D04E49183188421CD053
:1021B0004C493031884218D04B49884215D04A49A1
:1021C0001831884211D04849303188420DD04649F3
:1021D0004831884209D0704507D0904205D09842D6
:1021E00003D04149A831884203D1016821F0080198
:1021F00002E0016821F004010160216C84E70227FC
:1022000007FA08F717EA0C0F00974ED08F074CD546
:1022100000980F04686003D5C80344D4616C73E769
:10222000880640D42068B0422FD02E4960398842B9
:102230002BD0484529D0504527D0584525D029498D
:10224000884222D02749183188421ED02549303192
:10225000884200E044E018D02349884215D0224942
:102260001831884211D02049303188420DD01E49A2
:102270004831884209D0704507D0904205D0984235
:1022800003D01949A831884203D1016821F0140113
:1022900002E0016821F00A010160012184F8351093
:1022A000002084F83400E16B2EE7082202FA08F2DD
:1022B00012EA0C0F14D0090712D5016821F00E01A3
:1022C000016094F85C100120002201F01F0100FA67
:1022D00001F16960606584F8350084F8342012E704
:1022E000BDE8FC9F880002401004024008540258D8
:1022F0002DE9F05F044600F0F3FF002C07467DD087
:10230000E24E022120684FF00308DFF884934FF07B
:102310000005DFF880A3B042DFF87CB334D0DB4A9D
:102320001832904230D048452ED050452CD05845D8
:102330002AD0D94A1832904226D0D74A3032904219
:1023400022D0D54A483290421ED0D44A90421BD067
:10235000D24A1832904217D0D04A3032904213D02D
:10236000CE4A483290420FD0CC4A603290420BD0D5
:10237000CA4A7832904207D0C84A9032904203D07D
:10238000C64AA83290427DD184F83510B04284F814
:1023900034502ED0BD49183188422AD0484528D023
:1023A000504526D0584524D0BB491831884220D00A
:1023B000B949303188421CD0B7494831884218D0D9
:1023C000B649884215D0B5491831884211D0B34971
:1023D000303188420DD0B1494831884209D0AF49E7
:1023E0006031884205D0AD497831884201D0AB498F
:1023F0009031016821F00101016008E025E100BF92
:1024000000F06EFFC01B052801D920211AE12068C9
:102410000068C007F4D1D4E90203216810341843DE
:102420008E4694E88410D4E9033809683A4310438F
:102430009B4A40EA0C00676918431140103C40EA8F
:102440000800042F40EA010003D1D4E90B12114324
:1024500008436168A1F12902052A0BD9163A032A1B
:1024600008D9083A012A05D9083A032A02D9743949
:10247000032901D840F48010CEF800002068676A74
:10248000406900E020E0042F20F0070047EA000741
:102490000DD1D4E90A01074349B12046FEF748FAB5
:1024A00028B140206065012184F83510CDE0206816
:1024B00047612046FEF75AF994F85C203F2102F06C
:1024C0001F029140816055E0764A90421BD0754BC7
:1024D0001433984217D0734B2833984213D0714B62
:1024E0003C3398420FD06F4B503398420BD06D4B1A
:1024F0006433984207D06B4B7833984203D0694BD2
:102500008C3398427ED184F8351084F83450664B71
:102510000168A26801EA030E402A74D0802A73D0B1
:102520005FF00002D4E90378D4E9053142EAD7022A
:1025300042EAD8085B4AD4E9077C48EAD30848EA6B
:10254000D10141EAD701524241EA1C11142341EA68
:102550000E01016020681044B0FBF3F08000E065DC
:102560002046FEF703F994F85C20012102F01F02D7
:10257000914041602068B04257D0444918318842A8
:1025800053D0484551D050454FD058454DD0424981
:102590001831884249D040493031884245D03E49BF
:1025A0004831884241D03D4988423ED03B491831AC
:1025B00088423AD039493031884236D0374948319B
:1025C000884232D03549603188422ED03349783143
:1025D00088422AD031499031884226D02F49A831EB
:1025E000884222D02F4988421FD02E491431884278
:1025F0001BD02C492831884217D02A493C318842C7
:1026000013D002E01DE017E018E02649503188425F
:102610000BD024496431884207D02249783188425E
:1026200003D020498C31884229D12046FEF7F8F8A2
:10263000A06880280CD00CE0102273E74FF4804291
:1026400070E74021616584F835800120BDE8F09F86
:102650006560216E20790860D4E9190141606068E5
:10266000401E072808D82046FEF728F9E06E0560CE
:10267000D4E91C01416002E0E56625676567012039
:10268000656584F835000020E0E700001000024096
:102690004000024058000240700002401004024016
:1026A0003F8010FE085402580F00FEFF80B206F073
:1026B000A9BD000010B590F89830012B09D0022B6D
:1026C00007D0D0F89C1041F00201C0F89C10012006
:1026D00010BD03689C6D0C4203D1DC6D44F0010415
:1026E00004E09C6D31EA04041FD00324DC658B05F3
:1026F00005D50368D3F8E0401443C3F8E0404B0528
:1027000005D50368D3F8E4401443C3F8E4400068F7
:10271000084A01EA0203446D074A1C4344651068F5
:1027200040EA91701060002010BDDC6D44F002049E
:10273000DCE70000FFFFCF3F14A8004070B504465F
:1027400090F89800022804D0D4F89C0040F00800CB
:102750000DE02068D0F8C03013F07C5F0BD0D0F8CB
:10276000C4309B020CD5D4F89C0040F40070C4F82F
:102770009C00012070BDD4F89C0040F02000F6E7DA
:10278000D0F8C400C0F3044520462B46FEF7EEF90E
:1027900021680120A840C1F8D000C4F894000020AE
:1027A00070BD704790F89830012B07D0D0F89C107E
:1027B00041F00401C0F89C100120704761B100682D
:1027C000012913D0D0F8B01021F0FE4141EA026196
:1027D000C0F8B010002070470068D0F8F01021F069
:1027E0007C5141EA0261C0F8F010F3E7D0F8A01084
:1027F00021F0FE4141EA0261C0F8A010EAE770B59D
:1028000090F89820012A09D0022A07D0D0F89C100D
:1028100041F00201C0F89C10012070BD0B68CA682D
:1028200083B10B69072A43EA427325D00C7A4A69BF
:1028300042EA84724968006F00EBC100C0E90032CF
:10284000002070BD072A0DD00C7AD6060D8A4B6980
:1028500043EA847246EA0543C06E49681A4340F869
:102860002120EDE70B8A4FF06055D1E9062442EABA
:10287000034245EA0423EFE78A69DBE730B590F8C5
:102880009850039C012D07D0D0F89C1041F0040112
:10289000C0F89C10012030BD0D01016845EA82009E
:1028A00040EA43002043C1F88000002030BD70475B
:1028B00070470000F0B590F898400025022C04D035
:1028C000D0F89C1041F008012BE040294FF0004661
:1028D00005D0412929D0046D8C4219D942E0046801
:1028E000D4F8A07017F4FE0F12D0D4F8A4707F06AD
:1028F00013D0D4F8A470FF0105D5D4F8A070B6EBBE
:10290000D77F00D10125D4F8A470466F446C24E031
:10291000D0F89C1041F0200103E0D0F89C1041F465
:102920008071C0F89C100120F0BD0468D4F8B0702C
:1029300017F4FE0FECD0D4F8B4707F06EDD0D4F8C5
:10294000B470FF0105D5D4F8B070B6EBD77F00D1D5
:102950000125D4F8B470866FC46CC7F305273D44D5
:102960006C4302E0446DC66F4C4306EB840426685A
:1029700016F080465660266836D026F0604616600F
:10298000D4F800C000262F4F0CF0005CC2F808C03D
:10299000D4F800C00CF0004CC2F810C0B4F804C069
:1029A0001FFA8CFCC2F81CC0D4F804C00CF4702CC4
:1029B000C2F80CC0D4F804C00CF4801CC2F814C0D7
:1029C000D4F804C00CF4001CC2F818C0D4F804C039
:1029D000CCF3066CC2F820C0D4F804C008344FEA27
:1029E000DC7CC2F824C008E0C6F38A46C7E700BF13
:1029F00014F806C003F806C0761CD2F80CC007EB2A
:102A00001C4C9CF800C0B445F2D840290AD041299A
:102A10000CD020294FF001020CD200688A40C0F887
:102A200098200DE00068C0F8A85009E00068C0F8E0
:102A3000B85005E0006801F01F018A40C0F89C20F2
:102A40000020F0BD4C980008704700002DE9FF5FA2
:102A5000DFF80CB304460BF10401DBF80000256835
:102A60000F68AA468007D5F85090696DD5F8508058
:102A70006E6D2A6DD5F854C02B6D00EA87700090FA
:102A800009F470496F6D286D01EA09010191DAF8C6
:102A90005410DAF85490DAF8505008F00F0806EAAB
:102AA0000806029602F0F00203F071536FEA09067D
:102AB0001F4000F060700CEA020CCDF80CC0F2056B
:102AC00001EA00090CD4E843C00509D400214FF401
:102AD0008073CAF85030CBF800102046FFF7B4FFDF
:102AE000700512D4E84340050FD4206800234FF44A
:102AF0008068D0F8DC20D0F8E410C0F85080CBF823
:102B000000301140204600F0D3FADFF858A20098B8
:102B100050B12268830F00EA0A001065CBF800303C
:102B200020460099FFF73DFE019850B12268830FBF
:102B300000EA0A001065CBF800302046019900F049
:102B4000B9FA029850B12268830F00EA0A001065B2
:102B5000CBF800302046029900F080FA039850B17B
:102B60002268830F00EA0A001065CBF80030204687
:102B7000039900F07DFA30050CD4E843000509D430
:102B8000236800204FF400621A65CBF8000020464D
:102B900000F091FAB00512D4E84380050FD4206804
:102BA00000234FF40078D0F8D820D0F8E010C0F817
:102BB0005080CBF800301140204600F07AFA300304
:102BC0000CD4E843000309D4236800204FF400220A
:102BD0001A65CBF80000204600F03EFAF0030CD452
:102BE000E843C00309D4236800204FF480321A65FB
:102BF000CBF80000204600F05AFA70030CD4E843EA
:102C0000400309D4226800204FF480231365CBF8D9
:102C10000000204600F04AFAB0030FD4E8438003D6
:102C20000CD4236800204FF400321A65CBF8000062
:102C3000D4F89C0040F08000C4F89C00B9F1000F6B
:102C40000BD022684FEA997309EA0A001065CBF8A5
:102C5000003049462046FFF72BFE5FB12268BB0FCC
:102C600007EA0A001065CBF80030D4F89C0038431E
:102C7000C4F89C003C492068884268D1606881465D
:102C80008068800763D0D9F82060D9F82410D9F87B
:102C90002080D9F82400D9F820C0D9F82470D9F8B8
:102CA0002030D9F82450D9F8202003F4FC4306F052
:102CB0000F0AD9F824601D40D9F824B008F0300874
:102CC0000CF4C07C02F4F02211EA0A0100EA0808C0
:102CD00007EA0C0706EA0206D9F820A004D0C9F8D2
:102CE0002010204600F0DFF9B8F1000005D061683F
:102CF00008624146204600F0D8F96FEA0B00400612
:102D00000ED46FEA0A0040060AD460684021C36B03
:102D1000C26B01622046190C02F03F0200F0C4F9B8
:102D20002FB1606807623946204600F0BBF935B123
:102D300060680562D4F89C002843C4F89C0036B152
:102D400060680662D4F89C003043C4F89C00D4F854
:102D50009C00002802D02046FFF7A9FDBDE8FF9F98
:102D600010A80040FFFFCF3F00A000402DE9F04138
:102D700094B08D494C2204466846FDF7BCFB64B113
:102D80008A4D2068A84202D100F58070606094F8F6
:102D900098004FF0000820B108E0012014B0BDE811
:102DA000F081204684F8998000F002F9206881695A
:102DB00021F01001816100F093FA0327064604E038
:102DC00000F08EFA801B0A2811D82068806900075D
:102DD000F6D42068816941F00101816100F080FA38
:102DE00006460DE000F07CFA801B0A2808D9D4F8CA
:102DF0009C0040F00100C4F89C0084F89870CCE777
:102E000020688069C007EDD02068816941F0020127
:102E10008161207C01282068816937D041F0400120
:102E20008161607C01282068816932D021F4804171
:102E30008161A07C0128206881692DD041F48051F6
:102E400081612068A268816921F440711143816128
:102E50002068816921F0A40181612068016921F065
:102E600010010161E068012819D010B302281BD0BD
:102E70002068816941F0800181612068016941F029
:102E800010010161E06803280ED012E021F040013A
:102E9000C6E741F48041CBE721F48051D0E72068B8
:102EA000816941F0040103E02068816941F020015B
:102EB0008161207E6FF0FF02D4E90773A68A1102B8
:102EC000400602EB0727A0F10070384327685B1E1D
:102ED000184301EB06463043F861A068B0F5407F27
:102EE00011D104F12800A68C6FF00F0C89C801EBFA
:102EF0000641401E02EB0322104322680CEB07132D
:102F000018430843D060206E30B12068626ED0F85C
:102F1000C0101143C0F8C010D4E917126846D1425E
:102F200009D02168A36E51F8C82F50F8233022F041
:102F300007021A430A60216C49B12168626C51F89A
:102F4000BC3F50F8226023F0070232430A60A16CB4
:102F500051B12168E36C51F8BC2F50F8233022F0B6
:102F6000700242EA03120A60216D51B12168626D5C
:102F700051F8BC3F50F8220023F4E06242EA0020FE
:102F800008602068A84204D16068816821F00301CC
:102F90008160C4F894800121C4F89C8084F8981062
:102FA0002046FDF7FFFCF9E65C98000800A0004011
:102FB00010B5B4B0044614212EA8FDF7CEFAB821FE
:102FC0006846FDF7CAFA2149206888423CD10020B2
:102FD0004FF40041CDE900104A0368461B9201F00E
:102FE00047FB08B1FDF7CFFC1948016841F4807137
:102FF0000160006800F48070339015480C38016857
:1030000041F00801016000680923032100F0080075
:10301000339000202E9102222EA9CDE92F20CDE958
:1030200031030C4800F048F800221320114600F04C
:103030001DFA132000F00CFA00221520114600F0B2
:1030400015FA152000F004FA34B010BD00A00040BD
:10305000EC440258000C025870470000C90704D025
:103060000249884201D106F005B970472C020024BC
:10307000704790F89810012907D0D0F89C1041F0C3
:103080000401C0F89C1001207047022180F89810BC
:10309000002201688B6923F001038B61C0F89C203A
:1030A00010467047704770477047704770477047C9
:1030B00070477047704770472DE9F84F03247A4DE9
:1030C00000234FF001094FF0B04B4FF00F0AE4E03E
:1030D00009FA03F6324078D00F7907F00307012F81
:1030E00001D0022F1AD187684FEA430ED1F80CC0E5
:1030F00004FA0EF827EA08070CFA0EFC4CEA070C53
:10310000C0F808C0476891F804C0B743CCF3001C6E
:103110000CFA03FC4CEA070CC0F804C00E79F64325
:10312000B6070BD0C6684FEA43088F6804FA08FC5C
:1031300026EA0C0607FA08F73743C7600E7906F04F
:103140000306022E12D1DE080F694FEA437C00EB22
:103150008606B646366A4FEADC6C0AFA0CF807FABD
:103160000CF726EA08063743CEF820700F79066878
:103170004FEA430807F0030704FA08FC07FA08F7C8
:1031800026EA0C06374307604E6816F4403F1CD011
:10319000464E376847F00207376036689F0706F0EB
:1031A0000206009623F0030606F1B046B6463F0F2E
:1031B000D6F80864DFF8F8800AFA07FC404526EAEA
:1031C0000C0603D14FF0000C3AE065E0DFF8E4C0F4
:1031D000604502D14FF0010C32E0DFF8DCC0604501
:1031E00002D14FF0020C2BE0DFF8D0C0604502D1D5
:1031F0004FF0030C24E0DFF8C8C0604502D14FF067
:10320000040C1DE0DFF8BCC0604502D14FF0050C96
:1032100016E0DFF8B4C0604502D14FF0060C0FE0B5
:10322000DFF8A8C0604502D14FF0070C08E0DFF8D6
:10323000A0C0604502D14FF0090C01E04FF00A0C2C
:103240000CFA07FC4CEA060CCEF808C44F68DBF811
:103250000060FF0226EA020600D516435F46CBF85F
:103260000060D1F804C0DBF804605FEA8C2C26EA29
:10327000020600D516437E606E684F6826EA020695
:10328000BF0300D516436E602E684F6826EA02061B
:10329000FF0300D516432E605B1C0A6832FA03F662
:1032A0007FF416AFBDE8F88F80000058F444025850
:1032B000000002580004025800080258000C02588E
:1032C000001002580014025800180258001C02583E
:1032D000002402580AB1816170470904FBE700002D
:1032E0000148806870470000C801002402488168D6
:1032F0000278114481607047C8010024032010B592
:1033000000F0D4F801F0C6FF0F4A104914681368A2
:10331000C4F3032203F00F038A5CC95C02F01F02AE
:1033200001F01F01D0400A4A20FA01F11160094959
:103330000860002000F010F808B1012010BD00F076
:1033400079F8002010BD000018440258D0980008F9
:103350002C0000202800002070B50D4D0446287870
:10336000A0B14FF47A71B1FBF0F00A490968B1FBE2
:10337000F0F002F0DFFB48B9102C07D20022214602
:10338000501E00F073F800206C6070BD012070BD0D
:10339000C801002428000020F0B5154C4378211DF9
:1033A0000A1D23600378F3B143680B60057BC67A7E
:1033B000817A437B2D07847B45EA0665C77B90F8BD
:1033C00009C0067A90F800E045EAC14040EA83402F
:1033D00040EA444040EA074040EA0C2040EA460008
:1033E00040EA0E0001E0002008601060F0BD00001F
:1033F00098ED00E0BFF35F8F044800210368034AA3
:1034000023F48033036070321160704724ED00E0D4
:10341000074A40F00100064970321060086840F425
:1034200080300860BFF34F8FBFF36F8F704700008D
:1034300024ED00E0054808B5016841F00201016093
:10344000006800F00200009008BD0000F44402583B
:10345000002809DB410900F01F028900012001F169
:10346000E0219040C1F80001704700000E4BF0B41D
:103470001B680D46C3F30223C3F10706042E00D9CF
:103480000426191D072901D2002300E0DB1E0124B8
:1034900004FA06F19C40491E2940641E99401440DC
:1034A0002143F0BC05F063BE0CED00E0064900F0DE
:1034B000070210B54FF6FF040868044B204040EAAD
:1034C00002201843086010BD0CED00E00000FA0572
:1034D00001680123C0F80035002280F8F4248869CF
:1034E000044A40F000608861486D10434865002040
:1034F0007047000003000010704700684162002020
:103500007047F0B503685D6A39B19F6A4C1E0020B0
:103510004FF4827605EB17450BE045EA02409862CE
:1035200010E0471C06EB800053F800C0F8B205EB32
:103530001C45A042F5D34FF4807000EB810045EAB2
:1035400002421A500020F0BDD0F8080504F057BD23
:1035500001EBC10200EB8202D0F80805926C04F086
:10356000AABC01EBC10200EB8202D0F80805D2F838
:10357000882204F0FCBCD0F8080504F042BD0A061D
:1035800001F00F0101EBC10100EB810101D53C31DC
:1035900001E001F51F71006805F02EBC01F00F027B
:1035A0000B0670B502EBC20104464FF001004FF06C
:1035B000000504EB810103D581F83D003C3103E0B7
:1035C00081F87D5201F51F710A7094F8BC24012A1C
:1035D00008D084F8BC04206805F02AF9002084F89B
:1035E000BC5470BD022070BD70B54268044601F045
:1035F0000F00904201D9012070BD01F00F024FF081
:1036000000050B0602EBC2014FF0010204EB810141
:1036100003D581F83D203C3103E081F87D5201F56E
:103620001F718D70087094F8BC04012808D084F8CC
:10363000BC24206805F06CFA002084F8BC5470BDEE
:10364000022070BD01F00F0101EBC10100EB810010
:10365000D0F8900270472DE9F04101F00F060446C2
:103660000D064FF0010006EBC6014FF0000504EB1C
:10367000810103D581F83D003C3103E081F87D52A2
:1036800001F51F714F788A600B710E7007B14E8380
:10369000022B00D14D7194F8BC24012A09D084F882
:1036A000BC04206805F012F8284684F8BC54BDE834
:1036B000F0810220FBE770B501F00F05002405EB57
:1036C000C50100EB810101F5227181E81C0001F8C0
:1036D0000B4C01F80C5DC368012B00D1CA61027B61
:1036E000006805F06DFA002070BD70B50D464168A8
:1036F000044605F00F00884201D9012070BD29065B
:103700004FF000064FF0010207D500EBC00104EBBB
:10371000810181F83D203C3107E005EBC50104EB58
:10372000810181F87D6201F51F718A70087094F83B
:10373000BC04012807D084F8BC24206805F014FAE2
:10374000280702D007E0022070BD217B04F2C442AA
:10375000206805F0B1F9002084F8BC6470BD70B534
:1037600001F00F04002504EBC401012600EB8101E8
:10377000483181E82C0001F80B6C01F80C4DC3684E
:10378000012B00D1CA61027B006805F019FA002004
:1037900070BD00002DE9FC5F05680446284605F071
:1037A000CCFB00287ED1206805F0F3FB002879D0FF
:1037B000D5F80808C0F30D20C4F8FC04206805F013
:1037C000E8FB800704D52068416901F002014161EE
:1037D000206805F0DEFBC10604F2C440009034D539
:1037E0002068816921F0100181612F6A07F00F01C3
:1037F000C7F3434001EBC101022804EB810606F543
:103800001F7602D0062811D01AE047F6F070074262
:1038100016D0C7F30A12F1681746284605F0BDFB1B
:10382000F16870693944F160384408E00099082271
:10383000284605F0B2FB7069C7F30A1108447061AD
:103840002068816941F010018161206805F0A1FBC9
:1038500000034FF0000A4FF0020B4FF001097CD536
:103860002068002605F074FB074674E0F80770D066
:103870002068F1B205F085FB8046C00707D005EB54
:103880004611C1F8089B3146204603F06DF85FEA07
:10389000087025D505EB46110820C1F8080BFC4936
:1038A000206800E042E2026C00EB461001928A427E
:1038B000D0F8081B05D9090403D54FF40041C0F81E
:1038C000081B204600F01AFBF1490198884207D9ED
:1038D000E068012804D120680121009A05F0ECF885
:1038E0005FEAC86004D505EB46111020C1F8080B4B
:1038F0005FEA88701CD56869000605D5D5F804080C
:1039000040F48061C5F8041806EBC60004EB8000A3
:1039100090F87F1200F51F70012905D180F803A0EF
:103920002046F1B200F008FA05EB4611C1F808BBD9
:103930005FEA886004D505EB46112020C1F8080B2A
:103940005FEA884005D505EB46114FF40050C1F8F9
:10395000080B7F08761C002F88D1206805F019FB22
:1039600040036FD5206805F0ECFA0026074667E0B3
:10397000F80763D02068F1B205F0F1FA8046C0077D
:1039800023D0D5F8342806F00F0C05EB461309FABE
:103990000CF08243C5F83428C3F80899E068012880
:1039A0000FD106EBC60004EB8000D0E911121144E0
:1039B000816436B9E06C20B920680121009A05F0D5
:1039C0007BF82046F1B2FFF7C3FD5FEA087004D52B
:1039D00005EB46110820C1F808095FEAC86004D564
:1039E00005EB46111020C1F808095FEA486004D5CC
:1039F00005EB46114020C1F808095FEA887016D52A
:103A00003146284605F06CFA06EBC60004EB800050
:103A100090F83F103C30012905D180F803A02046E2
:103A2000F1B200F085F905EB4611C1F808B95FEA7B
:103A3000086003D53146204602F0FCFF7F08761C63
:103A4000002F95D1206805F0A4FA002811DAD5F8E6
:103A5000040820F00101C5F8041894F8F4040128C2
:103A60003BD0204600F02EFA2068416901F0004169
:103A70004161206805F08DFA00050BD5D5F80808DE
:103A8000C00702D0204600F061FA2068416901F4C5
:103A900000614161206805F07CFA00010AD52068C8
:103AA000416901F00061416194F8F404E0B12046FD
:103AB00000F04CFA206805F06CFAC00472D5D5F815
:103AC000040820F00101C5F804182068102105F051
:103AD00007FA00214FF67F322DE00021204684F8BE
:103AE000F4A4FFF709FDBFE784F8F4942068406D63
:103AF0000121C0F38300C4F8F8042046FFF7FCFC62
:103B0000D8E700BF05EB4110C0F80829D0F800390C
:103B100023F40013C0F80039C0F8082BD0F8003B9C
:103B200023F40013C0F8003BD0F8003B43F00063DF
:103B3000C0F8003B491C60688842E3D8D5F81C08EF
:103B400040F00111C5F81C18206B68B1D5F8840845
:103B500040F00B01C5F88418D5F8440840F00B017B
:103B60002846C5F844180DE0D5F8140842F22B0198
:103B70000843C5F81408D5F8100840F00B01284692
:103B8000C5F81018D0F8000820F4FE61C5F8001838
:103B9000217B2068009A04F08FFF2068416901F4BE
:103BA00080514161206805F0F4F9800417D5206840
:103BB00004F0CCFD206805F0B3F9206101F024FB8E
:103BC000217C2368CAB20146184605F047FA204610
:103BD00000F062F92068416901F4005141612068F8
:103BE00005F0D7F9000707D5204600F06FF92068E7
:103BF000416901F008014161206805F0CAF9000639
:103C000016D5A869012620F08001A9610DE000BF4A
:103C100006EBC60004EB800090F87F02012803D178
:103C20002046F1B2FFF7ABFC761C6068B042EFD8DB
:103C3000206805F0AEF9C00221D501264F4616E0F6
:103C400006EBC60105EB461004EB8101D0F8000934
:103C500091F84020012A09D1002807DAF0B281F852
:103C60003F7040F080012046FFF789FC761C6068B9
:103C7000B042E5D82068416901F4801141612068B3
:103C800005F087F9800234D501204B4629E0000079
:103C90000A30544F00EBC00205EB401104EB8202E6
:103CA000D1F8001B92F88062012E19D1002917DA91
:103CB00094F8FC6401F4803106F00106B1420FD1A2
:103CC00082F87F32A96941F08002AA616969090618
:103CD00006D4D5F8040840F40070C5F8040803E0E1
:103CE000401C61688142D5D82068416901F4001107
:103CF0004161206805F04DF9400007D52046FFF7E7
:103D000023FC2068416901F080414161206805F091
:103D100040F940070AD520684568680702D5204663
:103D2000FFF729FC2068416829434160BDE8FC9FFA
:103D3000D0F8080504F0BEB9D0F8080504F0CEB9F3
:103D40002DE9F04104008AB005D094F8BD040025A7
:103D5000266820B108E001200AB0BDE8F0812046C5
:103D600084F8BC5400F066F8032084F8BD04F06BBE
:103D7000C00500D4E560206804F098FE04F110014D
:103D8000684628228846FCF7B6FB94E80F0004F04A
:103D9000EBFC0227D8BB2068002105F01EF90020AB
:103DA000012610E000EBC001421C04EB810181F808
:103DB0003D6081F840504D648D64CD6481F83C00D5
:103DC000A1F85600D0B261688142EBD8002011E022
:103DD00000EBC001421C04EB810181F87D5281F8A7
:103DE0008052C1F88452C1F88852C1F88C5281F8CF
:103DF0007C02D0B261688142EAD8282241466846F6
:103E0000FCF779FB94E80F0004F094FD10B184F8FE
:103E1000BD74A0E7606A84F8385084F8BD64012856
:103E200002D12046FFF754FB206804F075FD002006
:103E300092E7000010B5B0B00446B8216846FCF720
:103E40008CFB13492068884220D100204FF4802148
:103E50004FF440122192CDE90010684600F008FCB2
:103E600008B1FCF790FD00F0B3F80A48016841F092
:103E70000071016000680022114600F000702E9071
:103E80004D20FFF7F3FA4D20FFF7E2FA30B010BDF6
:103E900000000440D844025870B50446006901256A
:103EA00070B1022801D0FCF76EFDD4F80805294650
:103EB00004F083F9D4F80805BDE8704004F037B980
:103EC0000025F2E7D0F8080504F060B9D0F808053D
:103ED00004F066B910B5044690F8BC0401280BD074
:103EE000012084F8381084F8BC04206805F0A4F898
:103EF000002084F8BC0410BD022010BDD0F80825B5
:103F000000F2C441104604F064B910B590F8BC1436
:103F100004460068012909D0012184F8BC14C16B52
:103F2000C90509D4A16A012902D005E0022010BD0B
:103F3000816B41F480318163206804F0ACFF20681C
:103F400004F0DCFC002084F8BC0410BD10B504466D
:103F5000D0F8080504F07FF92068D0F8001E41F081
:103F60000101C0F8001E206A002804D00248016840
:103F700041F00601016010BD10ED00E0134970B57D
:103F80000A68D243520705D5096801F0070181424A
:103F900013D118E00A6822F0070202430A60FFF713
:103FA0009FF90A4D4FF47A760446083D07E000BFBA
:103FB000FFF796F9001BB04201D9012070BD2868B7
:103FC000C0438004F4D4002070BD00000C480258A7
:103FD0000248016841F08071016070470C48025846
:103FE00010B501F011F905490968054AC1F302113C
:103FF000515C01F01F01C84010BD00002044025870
:10400000D09800084A4930B5494C0B1D0A680C3459
:1040100009681D68246802F0030305F00102C1F37A
:104020000511C4F3CC04002914FB02F200EE102A9F
:10403000F8EE400A76D0414A9FED3E1ADFED3E1A77
:10404000B7EE000A23B1012B5AD0022B18D15CE045
:10405000374C283C23689B0612D5394B246801EE67
:10406000901A1168C4F3C104F8EE612AE34001EE2E
:10407000903AC1F30801F8EE611A81EEA22A07E036
:1040800002EE101A1168F8EE422A81EEA22A45E0EB
:1040900001EE901A1168F8EE611A40EE811A71EE85
:1040A000800A62EE200AC1F3462101EE101AB8EE32
:1040B000411A31EE001AC0EE811ABCEEE11A80ED11
:1040C000001A1168C1F3064101EE101AB8EE411A48
:1040D00031EE001AC0EE811ABCEEE11A80ED011A31
:1040E0001168C1F3066101EE101AB8EE411A31EE03
:1040F000000A80EE801ABCEEC10A80ED020A30BDD3
:1041000001EE901ADFED0F2A03E001EE901ADFEDC9
:104110000E2A1168F8EE611A82EEA12AC1F3080195
:10412000B6E7FFE7002101604160816030BD00001B
:1041300028440258000000390024744C30440258CE
:104140000090D0030024744A001BB74B494930B596
:10415000484C0B1D0A68143409681D68246802F075
:104160000303C5F30012C1F30531C4F3CC040029E5
:1041700014FB02F200EE102AF8EE400A75D03F4A16
:104180009FED3D1AB7EE000A6BB1DFED3D1A012B32
:1041900001D0022B64D002EE101A1168F8EE422A08
:1041A00081EEA22A21E0334C283C23689B0612D5DD
:1041B000344B246801EE901A1168C4F3C104F8EE80
:1041C000612AE34001EE903AC1F30801F8EE611A6A
:1041D00081EEA22A0BE001EE901ADFED2B2A00BF40
:1041E000F8EE611A116882EEA12AC1F3080101EE0E
:1041F000901A1168F8EE611A40EE811A71EE800A89
:1042000062EE200AC1F3462101EE101AB8EE411AFF
:1042100031EE001AC0EE811ABCEEE11A80ED001AF0
:104220001168C1F3064101EE101AB8EE411A31EEE1
:10423000001AC0EE811ABCEEE11A80ED011A116875
:10424000C1F3066101EE101AB8EE411A31EE000A10
:1042500080EE801ABCEEC10A80ED020A30BD04E097
:1042600001EE901ADFED092ABAE7002101604160F2
:104270008160F3E7284402580000003938440258AE
:104280000024744A0090D0030024744C001BB74BE8
:10429000494930B5484C0B1D0A681C3409681D6833
:1042A000246802F00303C5F30022C1F30551C4F3EF
:1042B000CC04002914FB02F200EE102AF8EE400AAA
:1042C00075D03F4A9FED3D1AB7EE000A6BB1DFEDA6
:1042D0003D1A012B01D0022B64D002EE101A116896
:1042E000F8EE422A81EEA22A21E0334C283C2368D2
:1042F0009B0612D5344B246801EE901A1168C4F362
:10430000C104F8EE612AE34001EE903AC1F30801DE
:10431000F8EE611A81EEA22A0BE001EE901ADFEDB1
:104320002B2A00BFF8EE611A116882EEA12AC1F3B0
:10433000080101EE901A1168F8EE611A40EE811A38
:1043400071EE800A62EE200AC1F3462101EE101AD6
:10435000B8EE411A31EE001AC0EE811ABCEEE11A35
:1043600080ED001A1168C1F3064101EE101AB8EE93
:10437000411A31EE001AC0EE811ABCEEE11A80ED4E
:10438000011A1168C1F3066101EE101AB8EE411A64
:1043900031EE000A80EE801ABCEEC10A80ED020AFE
:1043A00030BD04E001EE901ADFED092ABAE70021E2
:1043B000016041608160F3E7284402580000003941
:1043C000404402580024744A0090D0030024744CE6
:1043D000001BB74B2DE9F04FA14A0546DFF87CA240
:1043E00080F48070DFF8809289B013119F4C0843ED
:1043F0009C48AAF104064FF0805C4FF0005828D08A
:10440000DFF858B285F480670F430BF1080B4FD0EB
:1044100085F400670F4360D085F480570F4372D056
:1044200085F400570F434FF480394FF4003E69D0B4
:1044300085F400270F4373D085F480370F4370D085
:1044400085F480460E436DD085F400420A436AD05D
:104450002AE0DAF8001001F00701052924D2DFE88C
:1044600001F0F9AA6A259F0006A8FFF7CBFD07987F
:1044700009B0BDE8F08F6846FFF768FE0098F7E7DF
:1044800003A8FFF705FF0398F2E72068C0F3C10017
:1044900022FA00F0ECE72268D2056ED561456CD1B6
:1044A0001846E5E74145E3D00020E1E74846DFE76D
:1044B000DBF8001001F46001B1F5800F3BD005DCA2
:1044C00000294AD0B1F5001FEED174E0B1F5C00F5C
:1044D000ECD0B1F5000FE7D162E0DBF8001001F09D
:1044E000E061B1F1007F26D004DCB1B3B1F1807F8F
:1044F000DAD160E0B1F1407FD8D0B1F1806FD3D193
:104500004EE000E01BE0DAF8001001F4E041B1F504
:10451000005F10D008DC01B3B1F5805FC4D14AE080
:1045200035E058E065E088E0B1F5405FBED0B1F518
:10453000804FB9D134E020688000B5D5A0E7DAF823
:10454000001001F4E021B1F5403F6DD006DC61B10F
:1045500049457BD07145A7D158E07BE0B1F5802F6C
:1045600066D0B1F5A02F9FD10DE000F06FFE7FE780
:104570006846FFF7EBFD01987AE728E003A8FFF70C
:1045800087FE049874E7216889038AD48CE7DBF8F6
:10459000001011F440310ED0494510D0714583D13F
:1045A0003168256801F040516D077FF574AF00292F
:1045B0007FF471AF69E720680001E7D55BE7206809
:1045C0008000E3D503A8FFF763FE059850E7226853
:1045D0009203DBD566E7306810F480303AD0484566
:1045E000D4D120680001D1D56846FFF7AFFD02980D
:1045F0003EE7DBF8001001F0E041B1F1405F13D07D
:1046000008DC71B1614521D04145BFD120688000EF
:10461000B4D449E7B1F1804F0AD0B1F1A04FB2D084
:1046200042E7FFF7DDFC23E720684007AED52CE723
:104630002068C005AAD533E708E0DAF8001011F0C9
:104640004051A0D0614505D041459FD1206800016F
:104650008ED429E72068800198D505E75044025898
:104660000090D00300366E010080BB000044025869
:104670002DE9FE4F0546DFF800A450F8081B002482
:10468000FD4FC943019005F1280026460AF1240A8E
:10469000009008011DD4686E50B1B0F5801F0CD099
:1046A000B0F5001F0ED0B0F5401F1ED001240FE062
:1046B000386840F40030386017E00198022102F0B9
:1046C0000BFA03E00098022102F096FA04000CD0E5
:1046D00026462888C043C00523D4A86D05281ED2CD
:1046E000DFE800F00C11161B1B006A6EDAF80010F0
:1046F00021F440111143CAF80010EAE7386840F489
:104700000030386009E00198002102F0E5F903E08B
:104710000098002102F070FA0446C4B100E00124C0
:1047200026462888DFF85083C04308F12C0840054E
:104730002FD4D5F8A400B0F5C00F28D010DCB8B144
:10474000B0F5001F19D0B0F5800F0FD11AE0AA6D97
:10475000DAF8001021F007011143CAF80010E0E771
:10476000B0F5000F13D0B0F5200F10D001240FE0EA
:10477000386840F40030386009E00198002102F008
:10478000ABF903E00098002102F036FA044694B138
:1047900026462888C043000530D4D5F8A800B0F1DB
:1047A000407F29D011DCC0B1B0F1807F1AD0B0F1C8
:1047B000007F10D11BE0D5F8A420D8F8001021F418
:1047C00060011143C8F80010E3E7B0F1806F13D027
:1047D000B0F1A06F10D001240FE0386840F4003031
:1047E000386009E00198002102F076F903E00098B2
:1047F000002102F001FA044694B126462868DFF849
:1048000078B2C0430BF1200B80011FD4E86CD8B103
:1048100010280FD0202812D0302815D0012414E001
:10482000D5F8A820D8F8001021F0E0611143C8F8AD
:104830000010E3E7386840F40030386004E0019885
:10484000022102F049F9044674B126462888C04383
:10485000C0042BD4E86DB0F5005F20D00DDCA0B112
:10486000B0F5805F0FD115E0EA6CDBF8001021F0A5
:1048700030011143CBF80010E8E7B0F5405F13D0EA
:10488000B0F5804F10D001240FE0386840F40030BC
:10489000386009E00198002102F01EF903E0009859
:1048A000002102F0A9F904468CB126462888C043AD
:1048B000800429D4286EB0F5403F23D010DC08B323
:1048C000B0F5803F14D0B0F5003F0FD115E0EA6D90
:1048D000DAF8001021F4E0411143CAF80010E5E7CE
:1048E000B0F5802F0ED0B0F5A02F0BD001240AE038
:1048F0000198012102F0F0F803E00098012102F094
:104900007BF9044694B126462888C04340042AD443
:10491000D5F8AC00B0F1405F23D010DC08B3B0F1A3
:10492000805F14D0B0F1005F0FD115E02A6EDAF885
:10493000001021F4E0211143CAF80010E4E7B0F1BF
:10494000804F0ED0B0F1A04F0BD001240AE00198A7
:10495000012102F0C1F803E00098012102F04CF9B6
:10496000044674B126462888C04300041FD4E86E6C
:10497000D8B1B0F1805F0ED0B0F1005F10D001244B
:1049800014E0D5F8AC20D8F8001021F0E041114334
:10499000C8F80010E7E7386840F40030386004E0F9
:1049A0000198012102F098F8044674B1264628685F
:1049B000C043C0011ED4A86CD0B101280ED002287B
:1049C00011D0032814D0012413E0EA6EDAF80010A5
:1049D00021F040511143CAF80010E8E7386840F46C
:1049E0000030386004E00198022102F075F80446B6
:1049F0006CB126462868C043400255D41F48016860
:104A000041F480710160FEF76BFC81460EE0AA6CF8
:104A1000DBF8001021F003011143CBF80010E9E7A7
:104A2000FEF75EFCA0EB090064283BD81348006841
:104A3000C005F5D5BCBBDFF84090B5F8B01009F162
:104A40004409D9F8000001F4407100F44070884234
:104A500011D0D9F80010D9F8002021F4407142F4A7
:104A60008032C9F80020D9F8002022F48032C9F839
:104A70000020C9F8001003E02C44025800480258F6
:104A8000D5F8B000B0F5807F19D1FEF729FC02906F
:104A900011E000BFFEF724FC0299411A41F2883070
:104AA000814208D9032426462878DFF81494C043AD
:104AB000C00721D03CE0D9F800008007EAD5D5F83E
:104AC000B010C1F301200328FE480DD0016821F485
:104AD0007C510160B5F8B020D9F80010C2F30B0288
:104AE0001143C9F80010DFE7F74A036802EA111220
:104AF00023F47C511143ECE7A86F182816D005DC8D
:104B0000A0B1082808D0102804D10AE020280DD030
:104B100028280BD001240AE00198012101F0DCFFD4
:104B200003E00098012102F067F8044664B12646CC
:104B30002878C04380071ED4686F062819D2DFE8A2
:104B400000F0160C11161616AA6FD9F8001021F0F5
:104B500038011143C9F80010EAE70198012101F07A
:104B6000BBFF03E00098012102F046F804467CB147
:104B700000E0012426462878C04340071FD4D5F81A
:104B80009000062819D2DFE800F0160C1116161650
:104B90006A6FD9F8001021F007011143C9F800101D
:104BA000E9E70198012101F097FF03E00098012156
:104BB00002F022F80446A4B100E001242646287839
:104BC000C04380062BD4D5F88C00B0F1405F24D0D0
:104BD00011DC10B3B0F1805F15D0B0F1005F10D1DF
:104BE00016E0D5F89020D8F8001021F00701114305
:104BF000C8F80010E3E7B0F1804F0ED0B0F1A04F3D
:104C00000BD001240AE00198002101F065FF03E0C8
:104C10000098022101F0F0FF044694B1264628785E
:104C2000C04340062BD4D5F89800B0F5406F24D08F
:104C300011DC10B3B0F5806F15D0B0F5006F10D156
:104C400016E0D5F88C20D9F8001021F0E04111438E
:104C5000C9F80010E3E7B0F5805F0ED0B0F5A05FB3
:104C60000BD001240AE00198002101F035FF03E098
:104C70000098022101F0C0FF044694B1264628782E
:104C8000C04300062BD4D5F89C00B0F5C04F24D00B
:104C900011DC10B3B0F5005F15D0B0F5804F10D126
:104CA00016E0D5F89820D8F8001021F4E05111430F
:104CB000C8F80010E3E7B0F5004F0ED0B0F5204F74
:104CC0000BD001240AE00198002101F005FF03E068
:104CD0000098022101F090FF044654B1264628783E
:104CE000C04300071ED4D5F88000B0F5805F0AD01D
:104CF0000FE0D5F89C20D8F8001021F46041114352
:104D0000C8F80010EBE70098022101F075FF00B130
:104D10000126D5F88020D9F8001021F44051114324
:104D2000C9F800102878C043C00613D4D5F8940001
:104D3000B0F5807F05D10098022101F05DFF00B140
:104D40000126D5F89420D8F8001021F440711143C1
:104D5000C8F800102868C043000316D4D5F8A00096
:104D600038B1B0F5803F09D0B0F5003F0BD0012439
:104D70000AE00198002101F0AFFE03E00098022153
:104D800001F03AFF04468CB126462868C043400330
:104D900022D4D5F88400B0F5801F11D0B0F5001FE3
:104DA00013D0B0F5401F15D0012414E0D5F8A02091
:104DB000D8F8001021F440311143C8F80010E4E79E
:104DC000386840F40030386004E00098012101F0B8
:104DD00013FF04465CB126462868C043C0031CD4B8
:104DE000286D70B1B0F5803F10D0012414E0D5F8E3
:104DF0008420D9F8001021F440111143C9F80010A3
:104E0000EAE7386840F40030386004E00198022195
:104E100001F062FE0446DCB126462868C0438000EB
:104E200005D40098022101F0E7FE00B101262868B0
:104E3000C04380031BD4E86FB8B1B0F5807F10D0B9
:104E4000B0F5007F11D0B0F5407F0ED001240DE009
:104E50002A6DDBF8001021F480311143CBF80010EB
:104E6000DBE7386840F4003038607CB326462868B9
:104E7000C043C00207D42A6FDAF8001021F00041C5
:104E80001143CAF800102868C043800207D4AA6EF4
:104E9000DAF8001021F080711143CAF80010286878
:104EA000C043400009D40748016821F40041016073
:104EB0000168D5F8B420114301602868C04306E0BA
:104EC0005444025810440258CFFFFF001DE007D49D
:104ED0006A6DDBF8001021F040511143CBF800104F
:104EE0002868C043000208D4D5F88820D9F80010FB
:104EF00021F440011143C9F8001028790024C0436F
:104F000000F00100204309D00EE0EA6FD9F800104C
:104F100021F440711143C9F80010A8E7019800215D
:104F200001F0DAFD00B106462879C04300F0020026
:104F3000204305D10198012101F0CEFD00B10646C4
:104F40002879C04300F00400204305D101980221D4
:104F500001F0C2FD00B106462879C04300F0080008
:104F6000204305D10098002101F046FE00B106461D
:104F70002879C04300F01000204305D1009801219A
:104F800001F03AFE00B106462879C04300F0200047
:104F9000044304D10098022101F02EFE00B916B19D
:104FA0000120BDE8FE8F0020FBE700002DE9F05F47
:104FB00004000F467ED0DFF83882D8F8000000F0F9
:104FC0000F00B8420CD2D8F8001021F00F0139437D
:104FD000C8F80010D8F8000000F00F00B84269D1FE
:104FE0002078844D40070AD52069296801F07001B6
:104FF000884204D9296821F0700101432960207892
:105000007C4E361D00070AD56069316801F07001D9
:10501000884204D9316821F0700101433160207861
:10502000C0060AD5A069316801F4E061884204D95C
:10503000316821F4E061014331602078DFF8B4B1D8
:1050400080060BF1080B0CD5E1695846DBF800200F
:1050500002F07002914204D9026822F070020A4301
:105060000260207880070AD5E068296801F00F0106
:10507000884204D9296821F00F0101432960207872
:10508000C0073ED05B49A2682868183920F47060D8
:10509000104328606068022818D0032819D00968D6
:1050A000012819D0490700294ADADFF848A1AAF1F6
:1050B000080A00E044E0DAF8002022F00702024388
:1050C000CAF80020FEF70CF9814612E0096889034E
:1050D000E9E709688901E6E7C905E4E7FEF700F9B1
:1050E000A0EB090141F28830814202D90320BDE8DA
:1050F000F09F6168DAF8000000F03800B0EBC10FF3
:10510000ECD1207880070AD5E068296801F00F010A
:10511000884204D2296821F00F0101432960D8F8A0
:105120000010404601F00F01B9420BD9016821F08F
:105130000F0139430160006800F00F00B84201D050
:105140000120D4E7207840070AD52069296801F0BA
:105150007001884204D2296821F07001014329605E
:10516000207800070AD56069316801F07001884233
:1051700004D2316821F07001014331602078C0060B
:105180000AD5A069316801F4E061884204D231682F
:1051900021F4E06101433160207880060CD5E1699B
:1051A0005846DBF8002002F07002914204D20268F7
:1051B00022F070020A43026000F06CF80E492A687F
:1051C0002B68C2F3032203F00F038A5CC95C02F070
:1051D0001F0201F01F01D040084A20FA01F11160BE
:1051E0000749086007480068BDE8F05FFEF7B4B8FB
:1051F0000020005218440258D09800082C000020CB
:1052000028000020CC01002430B500F043F80B4A00
:105210000B490C4B15681468C5F3032204F00F0406
:105220008A5C095D02F01F0201F01F01D040064AAE
:1052300020FA01F119601060084630BD1844025888
:10524000D09800082C0000202800002000B5FFF7AF
:10525000DBFF05490968054AC1F30211515C01F001
:105260001F01C84000BD00001C440258D09800082F
:1052700000B5FFF7C9FF05490968054AC1F30221D6
:10528000515C01F01F01C84000BD00001C440258E1
:10529000D0980008454970B545480968434B103B14
:1052A00011F0380208D00111082A03D0102A0BD0BF
:1052B000182A0BD0084670BD19688906FBD51968F5
:1052C000C1F3C101C84070BD3A4870BD3749374D80
:1052D00018310C1D24350A68096826682D6802F00B
:1052E000030406F00102C1F30511C5F3CC0515FB5B
:1052F00002F200EE102AB8EE400AE9B32F4ADFEDC1
:105300002E0AB7EE001A6CB1DFED2D1A012C01D078
:10531000022C43D002EE101A1068F8EE422A81EEF9
:10532000A22A1EE01C68A40611D51B6801EE901A83
:105330001168C3F3C103F8EE612AD84001EE900A68
:10534000C1F30800F8EE611A81EEA22A0BE001EE2B
:10535000901ADFED1C2A00BFF8EE611A106882EE89
:10536000A12AC0F3080001EE900AF8EE611A40EE9F
:10537000201A31EE810A00E015E022EE000A1068E2
:10538000C0F34620401C00EE900AF8EE600A80EE62
:10539000201ABCEEC10A10EE100A70BD01EE901A80
:1053A000DFED092AD8E7002070BD00001044025844
:1053B0000090D00300366E010000003930440258DE
:1053C0000024744A0024744C001BB74B2DE9F05F95
:1053D00004007DD0FF4F2078FE4D1837DFF8F483AE
:1053E000103DC00748D0D8F80000396800F03800F8
:1053F000102815D0182803D101F0030002280FD07F
:105400006068B0F5803F12D010B1B0F5A02F18D071
:10541000286820F480302860286820F4802009E083
:105420002868800328D560680028D2D024E0286846
:1054300040F480302860606888B1FDF751FF06466F
:1054400009E0286840F480202860F0E7FDF748FF75
:10545000801B64287ED828688003F7D50CE0FDF710
:105460003FFF064605E000BFFDF73AFF801B6428BA
:10547000F0D828688003F7D42078800756D5D8F86C
:105480000000DFF85093396810F03800A9F10C09DA
:105490000ED0182801D188070AD0E068A8B329687F
:1054A00021F0190101432960FDF71AFF064628E0A3
:1054B0002868400702D5E06800288AD0E16828689B
:1054C00020F0190008432860FDF70AFF064606E0B1
:1054D000D2E000BFFDF704FF801B0228BAD828687D
:1054E0004007F7D5217CD9F8002022F0FE4242EA9D
:1054F0000161C9F8001019E0FDF7F2FE801B0228D7
:10550000A8D828684007F7D5ECE7FFE7286820F01F
:1055100001002860FDF7E4FE064604E0FDF7E0FE2A
:10552000801B022896D828684007F7D42078C00648
:1055300046D5D8F80000DFF89C92396800F03800B2
:10554000A9F10409082812D0182805D101F0030098
:10555000012800E0CEE00AD0E0690028286820D0C9
:1055600040F080002860FDF7BBFE064615E0286885
:10557000C00502D5E06980287ED194F82010D9F8C2
:10558000002022F07C5242EA0161C9F8001017E0C5
:10559000FDF7A6FE801B0228A0D82868C005F7D515
:1055A000EBE720F080002860FDF79AFE064604E055
:1055B000FDF796FE801B022890D82868C005F7D416
:1055C0002078000729D58348616964300029814625
:1055D000016811D041F001010160FDF781FE06462E
:1055E00005E000BFFDF77CFE801B022888D8D9F8B3
:1055F00000008007F6D510E021F001010160FDF701
:105600006FFE064605E000BFFDF76AFE801B02281C
:1056100070D8D9F800008007F6D42078800623D50A
:10562000A0690028286810D040F480502860FDF759
:1056300057FE064605E000BFFDF752FE801B02281C
:1056400058D828688004F7D50EE020F480502860F0
:10565000FDF746FE064604E0FDF742FE801B0228E9
:1056600048D828688004F7D42078400751D5DFF85F
:105670006891D9F8001000E015E141F48071C9F893
:105680000010FDF72DFE064605E000BFFDF728FEE1
:10569000801B64282ED8D9F80000C005F6D54D4EE1
:1056A000A068603601280AD008B1052813D03068F8
:1056B00020F001003060306820F0040002E0306823
:1056C00040F001003060A06841F2883A98B1FDF7DF
:1056D00007FE81460AE0306840F004003060EEE7E3
:1056E000FDF7FEFDA0EB0901514503D830688007A6
:1056F000F6D50EE072E0FDF7F3FD814606E000BF4F
:10570000FDF7EEFDA0EB0901514567D83068800731
:10571000F6D4606A00287CD0DFF8B8A0D8F8001072
:105720000AF1200A4FF6F87B0AF10408C1F3C2011E
:105730000329AAF104096DD00228286820F080709E
:10574000286003D0FDF7CCFD044681E0FDF7C8FDDD
:10575000064604E0FDF7C4FD801B022875D82868C2
:105760008001F7D4E26A40F2F331386854F8283FF8
:10577000884340EA021018433860217B4FF4FE0C46
:1057800022894FF0FE47208A4902267D521E401E84
:10579000A1F5007189B2C2F308021143761E0CEA2A
:1057A00000400143484607EA06621143CAF8001068
:1057B000D9F8001021F00101C9F80010D8F8003024
:1057C000266A23EA0B0343EAC601C8F80010D9F899
:1057D000001004E0104402580048025835E0A26965
:1057E00021F00C011143C9F800100168E26921F0B1
:1057F000020111430160016841F4803101600168D8
:1058000041F400310160016841F4802101600168C8
:1058100001E06CE020E041F001010160286840F007
:1058200080702860FDF75CFD044604E0FDF758FD3C
:10583000001B022809D828688001F7D557E000BF6F
:10584000FDF74EFD001B022802D90320BDE8F09FA2
:1058500028688001F4D44AE039680128DAF80000A9
:1058600021D0A26A01F0030393421CD1E26AC1F382
:1058700005118A4217D1216BC0F30802491E8A42E2
:1058800011D1616BC0F34622491E91420BD1A16B2D
:10589000C0F30642491E914205D1E16BC0F3066098
:1058A000491E814201D00120D0E7A16C4646D8F8BC
:1058B0000000C0F3CC00814219D0D9F800004D4659
:1058C00020F00100C9F80000FDF70AFD4FEA0007CB
:1058D000FDF706FDB842FBD0A26C306820EA0B0051
:1058E00040EAC2003060286840F0010028600020D3
:1058F000ACE700002DE9F047040029D0594A4FF0E9
:1059000000092068584B594D9042C4F8289006D0A1
:10591000984204D0A84202D0E1680F2918D8E16863
:105920004FF0010AE76B0831C9080AEB57167143BB
:10593000904205D0984203D0A84201D0082907D848
:10594000904203D0984201D0A84204D1102902D934
:105950000120BDE8F08794F8810020B9204684F842
:10596000809000F085F8022084F8810020680168AA
:1059700021F0010101602068A1698268B1F1806FA6
:1059800002F4F81110D16268B2F5800F01D01AB19B
:105990000AE0A26B22B107E0A26BB2F1805F03D1F3
:1059A000026842F4805202606068400209D5E068F3
:1059B000072806D32068236D026822F480721A43F8
:1059C00003E02068026822F480720260A66AE0693F
:1059D000E26B25683043E3680A4310431843A8602C
:1059E000D4E90D02D4E90581636A25691843D4F826
:1059F00020C00A43266810432843A56DD4E90172EC
:105A0000D4E9123140EA080040EA0C003843084368
:105A1000104318432843F060606868B920688168C3
:105A200021F4C05141F4006181602068816821F453
:105A3000C06141F4806181602068016D21F0010145
:105A400001656068400206D52068626DC16821F07A
:105A500000411143C160C4F8849084F881A0002003
:105A600077E700000030014000380040003C004073
:105A700070B5B4B0044614212EA8FAF76EFDB82113
:105A80006846FAF76AFD2149206888423CD18114B2
:105A9000002017900446CDE900106846FEF7E8FDA7
:105AA00008B1FAF770FF1A48016841F480510160AB
:105AB000006800F48050339015481038016841F0B8
:105AC00008010160016801F008013391016841F0AB
:105AD0000201016000680526022500F002003390F3
