:020000040800F2
:10000000E0130024E1030008237F0008617A000860
:10001000217F00082D170008FDA700080000000040
:10002000000000000000000000000000E182000865
:10003000C91B0008000000009F800008ED82000836
:10004000FB030008FB030008FB030008FB03000898
:10005000FB030008FB030008FB030008FB03000888
:10006000FB030008FB030008FB03000879170008E6
:1000700085170008FB030008FB030008FB030008CA
:10008000FB030008FB030008FB030008D11B00086A
:10009000FB030008DD1B0008FB030008FB0300084E
:1000A000FB030008FB030008FB030008FB03000838
:1000B000FB0300084D840008FB030008FB03000855
:1000C000FB030008FB030008FB030008FB03000818
:1000D000FB030008FB030008FB030008FB03000808
:1000E000FB030008FB03000800000000FB030008FE
:1000F000FB030008FB030008FB030008FB030008E8
:10010000FB030008FB030008FB030008FB030008D7
:10011000FB030008FB030008FB030008FB030008C7
:10012000FB030008FB030008FB030008FB030008B7
:10013000FB030008FB030008FB030008FB030008A7
:1001400000000000000000000000000000000000AF
:10015000FB030008FB030008FB030008FB03000887
:10016000FB030008FB030008FB030008FB03000877
:10017000FB030008257F0008FB03000800000000C7
:10018000FB030008FB030008A1850008FB0300082F
:10019000FB030008FB030008FB030008FB03000847
:1001A000FB030008FB030008FB030008000000003D
:1001B000FB030008FB030008FB030008FB03000827
:1001C000FB030008FB030008000000000000000023
:1001D0000000000000000000FB0300080000000019
:1001E000000000000000000000000000000000000F
:1001F0000000000000000000FB030008FB030008F3
:10020000FB030008FB03000800000000FB030008DC
:10021000FB030008FB030008FB030008FB030008C6
:10022000FB03000800000000FB03000800000000C2
:10023000FB030008FB03000800000000FB030008AC
:10024000FB030008FB030008FB030008FB03000896
:10025000FB030008FB030008FB030008FB03000886
:10026000FB030008FB030008FB030008FB03000876
:10027000FB030008FB030008FB030008000000006C
:10028000FB030008FB030008FB030008FB03000856
:1002900000000000FB030008FB0300080000000052
:1002A00000000000FB030008FB030008FB0300083C
:1002B000FB030008FB030008FB030008FB03000826
:1002C000FB030008FB030008FB03000800F002F832
:1002D00000F077F80AA090E8000C82448344AAF169
:1002E0000107DA4501D100F06CF8AFF2090EBAE867
:1002F0000F0013F0010F18BFFB1A43F0010318475A
:10030000C8AB000008AC00000A444FF0000C10F825
:10031000013B13F0070408BF10F8014B1D1108BF83
:1003200010F8015B641E05D010F8016B641E01F823
:10033000016BF9D113F0080F1EBF10F8014BAD1C73
:100340000C1B09D16D1E58BF01F801CBFAD505E091
:1003500014F8016B01F8016B6D1EF9D59142D6D3EB
:1003600070470000103A24BF78C878C1FAD8520705
:1003700024BF30C830C144BF04680C60704700001F
:100380000023002400250026103A28BF78C1FBD89E
:10039000520728BF30C148BF0B60704766290AF07A
:1003A000F884002070471FB50AF0EEFC00F01AFC3C
:1003B0000400002000210AF0D1FCE0601FBD10B550
:1003C00010BD00F00FFD1146FFF7EDFF0AF054FBE2
:1003D00000F02DFD03B4FFF7F2FF03BC00F064FD55
:1003E0000948804709480047FEE7FEE7FEE7FEE7C9
:1003F000FEE7FEE7FEE7FEE7FEE7FEE70448054905
:10040000054A064B704700008D830008CD020008A6
:10041000E00D0024E0130024E00F0024E00F00248E
:1004200053EA020C00F069802DE9F04B4FF0000612
:10043000002B1FBFB3FA83F503FA05F424FA05F67F
:100440005E4012BF1643B2FA82F502FA05F4C5F116
:1004500020051EBF22FA05FC44EA0C04203556EAAA
:10046000044C4FEA144418BF641C4FF000084FF0CE
:100470000009904271EB030C39D3002919BFB1FA7E
:1004800081F701FA07F6B0FA80F700FA07F6C7F12C
:1004900020071EBF20FA07FC46EA0C062037B6FBF1
:1004A000F4FCA7EB0507103F07F01F0BCBF120066C
:1004B0000CFA0BFB2CFA06F644BFB3460026202F9D
:1004C000A4BF5E464FF0000B5BEA060C08BF4FF07E
:1004D000010B19EB0B09ABFB027C48EB0608C01BB8
:1004E00006FB02CC0BFB03CC71EB0C01C1E70B4606
:1004F000024641464846BDE8F08B13B54FF0000078
:100500004FF00001AFF30080BDE81C4070470000D1
:100510000FB41CB5074B06AA7B44694600900598AA
:1005200000F047FB0020694600F056FB1CBC5DF85C
:1005300014FB0000BD06000070B504468569006824
:10054000C10601D5302600E02026C00707D070BDC7
:10055000D4E9012130469047206A401C20626D1E7C
:10056000F6D570BD70B5044685690078C00707D11F
:1005700070BDD4E9012120209047206A401C2062F0
:100580006D1EF6D570BD2DE9F0474FF0000A894683
:100590000446C0F820A02046E1688847002876D0AD
:1005A000252806D0D4E901219047206A401C20620A
:1005B000F1E7E168204600258847C4F81CA00646FC
:1005C0000027C4F818A02A2E09D030460AF040F9B6
:1005D00038B304EB8708303EC8F8186019E059F8C2
:1005E000041B204604EB87029161E1688847012FD4
:1005F000064618D1E069002820DA25F020051DE024
:10060000D8F8180000EB800006EB40003038C8F83E
:1006100018002046E168884706460AF019F90028C4
:10062000EED1012F0AD02E2E08D12046E16888474E
:100630007F1C0646022F45F02005C4DBA069002878
:1006400003DA404245F00105A061E80701D025F03A
:100650001005B6B1A6F14100192802D8203645F49C
:1006600000654A463146204625604D46FFF796FE16
:1006700058B1012806D0ED1D25F0070000F108094A
:1006800089E704E005F1040985E730468AE7206A36
:10069000BDE8F08710B5431C02E010F8011B71B1F2
:1006A0008107FAD14FF0013202C88C1A8C4314EA48
:1006B000C211F9D0C01A0A0603D0C01E10BDC01A5C
:1006C00010BD0A0401D0801E10BD0902FCD0401EDE
:1006D00010BD10B5203AC0F00B80B1E81850203A98
:1006E000A0E81850B1E81850A0E81850BFF4F5AFD2
:1006F0005FEA027C24BFB1E81850A0E8185044BF5C
:1007000018C918C0BDE810405FEA827C24BF51F8C8
:10071000043B40F8043B08BF7047D20728BF31F8BC
:10072000023B48BF11F8012B28BF20F8023B48BF0D
:1007300000F8012B70474FF0000200B513469446B5
:100740009646203922BFA0E80C50A0E80C50B1F129
:100750002001BFF4F7AF090728BFA0E80C5048BF3D
:100760000CC05DF804EB890028BF40F8042B08BFDB
:10077000704748BF20F8022B11F0804F18BF00F8D7
:10078000012B704770477047704770472DE9FF4F46
:100790000C461E464FF0FF378BB0D2E90001DDF862
:1007A00060800A908A46C1F30A5505B93D4600218A
:1007B00008464FF00000BAF1000F00F4400005DADF
:1007C00000EB80004FF4400101EA50004FEA9059DD
:1007D000B9F1010F00DDB9460A9850EA4A000ED07F
:1007E00044F61050A5F2FF3545432F14B8F1000F21
:1007F0001ED07542291E1EDDC9F100021CE0B8F1B1
:10080000010F4FF0000001D0302103E0F24305E07A
:100810002154401CB042FBDB304600220021215411
:100820000B99C1F80880C1E900200FB0BDE8F08F36
:10083000BD1B6D1CDEE74A4600DA694206A800F0DF
:100840005BFA06AB93E8070003AB83E8070050466A
:100850000A9900F030FB8DE80700A0F500501F3822
:1008600000900398002D0ADD42F21F014A46084419
:10087000002303A90390684600F099FD09E0A0F564
:1008800000504A461F38002303A90390684600F031
:10089000A3FD8DE807000004000C03D04FF0FF30EB
:1008A000410800E01046B8F1000F03D0002200928A
:1008B00015461EE0751E05D400F098F930326255D9
:1008C0006D1EF9D5B3460122084302D000227F1CD9
:1008D00004E02078302801D100227F1E002A0997E9
:1008E00084D01DE0112D07DA00F080F93032625516
:1008F0006D1C50EA0102F5D1084302D00098C8B13E
:100900000EE00021681E05E0235C625C6354225403
:10091000401E491C8142F7DBAB46A81B401E0990D4
:10092000002004F80B000B98099AC0F80880C0E971
:10093000002B7AE711264FF0000857E72DE9F04F1A
:1009400088460446D21D22F0070191B0D1E900018A
:10095000CDE90A0109F053FF02460B98C00F01D000
:100960002D2007E02068810701D52B2002E02021FF
:1009700001EAC000032A099001D0072A05DB0346DB
:100980004146204600F078F90BE12078800601D539
:10099000E06900E00620B8F1650F814606D0B8F1A5
:1009A000660F18D0B8F1670F70D131E00020B9F1AF
:1009B000110F009001DB112301E009F101030AAAE4
:1009C00001A90CA8FFF7E2FEDDE90C70002609F191
:1009D0000105834647E001204B4600904FF0004759
:1009E0000AAA01A90CA8FFF7D1FEDDE90DB00C9908
:1009F0005D46002610B909F101000D18B9EB05009C
:100A000003D4C0F1FF3609F10105A5EB09002BE085
:100A1000B9F1010F01DA4FF001090020B9F1110F0E
:100A20000090484601DD112300E003460AAA01A90F
:100A30000CA8FFF7ABFEDDE90C704D46002683469F
:100A4000207800070AD4AB4500DA5D4601A8012DE5
:100A500004DD411911F8011C302907D04F4502DA95
:100A600017F1040F04DA012082460FE06D1EEEE755
:100A7000002F02DCED1B3E4403E0781CA84200DDA1
:100A80007D1CB81B00F1010A4FF0004720780007D9
:100A900003D4AA4501DB4FF0FF3A0021B7F1004F24
:100AA0000DF143088DF8431024D002202B23002F92
:100AB00001DA7F422D230A21021EA0F1010000DC91
:100AC0005FB197FBF1FC97FBF1F201FB1C7C174631
:100AD0000CF1300C08F801CDEEE7A8F1010003702D
:100AE0002188090501D5452100E06521A0F1010813
:100AF00000F8011C09980FA9A1EB0807FF1D00B120
:100B00000120411901EBEA70A1693844081A401E1E
:100B1000A0612078C00602D42046FFF70DFD099899
:100B200028B1D4E901219047206A401C2062207836
:100B3000C00622D52046FFF7FFFC1EE0002E04DB96
:100B4000B34502DD01A8805D00E03020D4E9012139
:100B50009047206A401C2062761CAAF101005FEADF
:100B6000000A0AD100F03EF8C0680168405CD4E990
:100B700001219047206A401C2062281EA5F1010532
:100B8000DCDC07E0D4E9012118F8010B9047206A6A
:100B9000401C2062381EA7F10107F3DC2046FFF756
:100BA000E1FC032011B041E601694A1C02610878AA
:100BB000704700B58FB0CDE901310021059105499D
:100BC0007944CDE9031011466846FFF7DCFC0FB00D
:100BD00000BD0000E5FFFFFF0A6802F8010B0A6094
:100BE00070470000004870479C0D002430B5B0F1FC
:100BF0000A024FEA900E71F100034EEA817EB0EBDB
:100C00000E0061EB91014FEA101E4EEA017E10EBDF
:100C10000E0041EB11114FEA102E4EEA016E10EB5F
:100C20000E0041EB11214FEA104E4EEA014E10EB3F
:100C30000E0041EB1141401841F100014FEAD00094
:100C400040EA41704FEAD10110EB80054FEA810480
:100C500044EA907444EB01046D1944EB0404521B04
:100C6000A3414FF0000348BF0A3200D530BD401CFD
:100C700041F1000130BD00002DE9F0411F4604465E
:100C800003260168072A01F4006004DB08B116A5F9
:100C900005E016A503E008B115A500E015A521F0B3
:100CA00010002060A069C01EA0610FB1401EA061AD
:100CB0002046FFF741FC4FB1D4E901213846904767
:100CC000206A401C2062C01C206206E0206AFAE70D
:100CD000D4E9012115F8010B9047761EF8D2204681
:100CE000FFF740FCBDE8F0814E414E006E616E00A2
:100CF000494E4600696E66002DE9F047814616466A
:100D00008AB0354878440DC88DE80D0032487844E3
:100D1000801C03AC0DC884E80D0041F69B300844EC
:100D2000372190FBF1F290FBF1F5A5F1800501FB75
:100D300012041B3C02D56442012000E00020DFF8D1
:100D400098A080460027FA44AAF1BE0A0EE0E00708
:100D50000AD03246684607EB470101230AEB8101BE
:100D600000F03AFB8DE8070064107F1C002CEED1E8
:100D7000194F7F44AE3F19E0E80715D007EB041088
:100D80000DF1180A90E80E008AE80E00C068F042E3
:100D900001D1981908903246012306A903A800F052
:100DA0001BFB03AB83E807006D10641C002DE3D12F
:100DB0004FF0010332466946B8F1000F03A802D094
:100DC00000F0F5FA01E000F007FBC9E90001C9F8FD
:100DD00008200AB0BDE8F087A8A1000000487047CD
:100DE0007C0D00247546FFF7F9FFAE460500694605
:100DF000534620F00700854618B020B5FFF7FEFAED
:100E0000BDE820404FF000064FF000074FF000080B
:100E10004FF0000B21F00701AC46ACE8C009ACE88C
:100E2000C009ACE8C009ACE8C0098D46704710B5F0
:100E30000446AFF300802046BDE81040FFF7CABA71
:100E40004FF0013C50F8042B51F8043B9A4215D165
:100E5000A2EB0C03934313EACC130BD150F8042BF1
:100E600051F8043B9A4209D1A2EB0C03934313EAD5
:100E7000CC13E7D04FF00000704700BFD01A01BA82
:100E8000B1FA81F101F0180122FA01F0CB40C1F171
:100E90002001DBB2C0B2C01A2CFA01F3D11A91437F
:100EA00011EAC311E6D1704701491820ABBEFEE735
:100EB0002600020070475FEA400C08BF91F0000F67
:100EC0004FEA8C234FEAC12243EA51514FEA1C50AA
:100ED00018BF00F5F0404FEA300018BF41F0004164
:100EE0005FEA6C5C00F02980BCF1FF3F08BF40F076
:100EF00080407047130C06BF12044FF0100C4FF0E7
:100F0000000C130E04BF12020CF1080C130F04BFE7
:100F100012010CF1040C930F04BF92000CF1020CAF
:100F2000D30F04BF52000CF1010C11464FF0000228
:100F3000A0F11F00A0EB0C00704711F0004F08BF9C
:100F4000704731F000413FF4D5AF0B0C06BF0904E8
:100F50004FF0100C4FF0000C0B0E04BF09020CF107
:100F6000080C0B0F04BF09010CF1040C8B0F04BF1C
:100F700089000CF1020CCB0F04BF49000CF1010CED
:100F8000CCF12003A0EB0C0022FA03F302FA0CF2DE
:100F900041EA030100F10100704720F07F4C80EA34
:100FA000030023F07F47ACEB070303F57C5300F00D
:100FB000004003F1FF032DE980494FEA154B09B4C6
:100FC0004FEA144325EA0B4E24EA03480FF20426A5
:100FD00006EB132749083E785FEA320203FB0667F7
:100FE000C7F5000707FB06F64FEA54374FEAD64627
:100FF00006F1020607FB066CCCF1005C4FEA1C47C9
:101000002CEA074C07FB06F40CFB06F504EB15462F
:101010004FEA961634BF00204FF000404FEAD13718
:1010200006FB07FC4FEA1C4C0CFB0BF7D21B03FB27
:101030000CF761EB07010CFB0EF7B0EB074072EB0E
:1010400017420CFB08F734BFA2EB0742B2EB074292
:1010500061EB17414FEA0C444FEA910706FB07FC8E
:101060004FEA1C4C0CFB0BF7B0EBC74072EB57324E
:1010700003FB0CF734BFA2EBC742B2EBC74261EBF4
:1010800057310CFB0EF7B0EBC70072EB57720CFB3D
:1010900008F734BFA2EBC702B2EBC70261EB57718E
:1010A000039F4FEA816141EA921104EBCC044FEABD
:1010B000D1374FEA826206FB07FC42EA90124FEA00
:1010C00080604FEA1C4C0CFB0BF7D21B03FB0CF7A8
:1010D00061EB07010CFB0EF7B0EB074072EB174218
:1010E0000CFB08F734BFA2EB0742B2EB074261EBFF
:1010F00017414FEA8C554FEA910704EB9C2406FBFD
:1011000007FC4FEA1C4C0CFB0BF7B0EBC74072EB33
:10111000573203FB0CF734BFA2EBC742B2EBC74216
:1011200061EB57310CFB0EF7B0EBC70072EB577257
:101130000CFB08F734BFA2EBC702B2EBC70261EBAE
:10114000577115EB4C254FEA816141EA92114FEA44
:1011500082624FEAD13742EA901206FB07FC44F163
:1011600000044FEA80604FEA1C4C0CFB0BF7D21BCB
:1011700003FB0CF761EB07010CFB0EF7B0EB07402C
:1011800072EB17420CFB08F734BFA2EB0742B2EB3D
:10119000074261EB174115EB1C154FEA813141EA1B
:1011A00092414FEA823242EA90424FEA80304FEA5F
:1011B0000C7644F1000448EA03434EEA0B484FF032
:1011C000000EB2EB080C71EB030724BF62463946F0
:1011D0004EEB0E0E4FF0000B0018524149414BEB05
:1011E0000B0BB2EB080C71EB03077BF1000B24BF78
:1011F000624639464EEB0E0E4FF0000B001852417E
:1012000049414BEB0B0BB2EB080C71EB03077BF185
:10121000000B24BF624639464EEB0E0E51EA020720
:1012200018BF46F0010616EB0E7655F1000254F198
:10123000000103D5BDE88901BDE80088BDE889014A
:10124000BDE80048B619524141EB0101A3F1010389
:10125000704780807F7E7D7C7B7A79787776767523
:101260007473727171706F6E6E6D6C6C6B6A6A699B
:101270006868676666656464636362616160605F35
:101280005F5E5E5D5D5C5C5B5B5A5A5959585857AE
:101290005756565555555454535352525251515016
:1012A00050504F4F4F4E4E4D4D4D4C4C4C4B4B4B69
:1012B0004A4A4A49494948484847474747464646AF
:1012C00045454544444444434343434242424241EA
:1012D0004141002B9C4630D477002BD01CB54FEAFF
:1012E000370703B44FF010004FF01001BAF1000FB0
:1012F00006D0BCF1000FDCBF40F0080040F0080150
:101300004FF000000FBCBDE810400BF1010BBBF12A
:10131000010F08BF5FEA170722BF12F1010211F1A6
:1013200001014FF0004143F1000300F0004043EAA7
:1013300000007047F9D35708D0E746EA064613F194
:10134000400F4FEA16461FDD13F1200FDFBF164393
:101350000A46002120335B42BED0C3F1200746EA93
:10136000064602FA07F74FEA164646EA0706C3F1B1
:10137000200722FA03F201FA07F721FA03F14FF0EE
:10138000000342EA0702A7E746EA020646EA0646E3
:101390004FEA164646EA0106BCBF46EA0646360C48
:1013A0004FF000034FF000024FF0000194E72DE9E9
:1013B000804C9A46934670B491E8380007C831EAE9
:1013C000400C48BF34EA430C03D5FFF7E6FDFFF7B6
:1013D00080FFF0BCBDE8008C2DE9804C9A46934616
:1013E00070B491E8380007C810F0804F08BF13F0C0
:1013F000804F03D100F005F8FFF76BFFF0BCBDE8AC
:10140000008C20F07F4780EA030023F07F4C07EB3D
:101410000C03A3F57C5300F00040A3F1FE0392F00F
:10142000000F00F0B38095F0000F00F077802DE9F9
:1014300001494FEA11404FEA144621EA004800FBF7
:1014400006FC24EA064708FB06F607FB08F800FB43
:1014500007F718EB06484CEB164C4FEA124B18EB0B
:1014600007484FEA15464CEB174022EA0B4E0BFBA0
:1014700006FC25EA06470EFB06F607FB0EFE0BFBF5
:1014800007F71EEB064E4CEB164C4FF000061EEB1A
:10149000074E4CEB174B18EB0B0840F1000018EB14
:1014A0000E0B58EB000840F100008F1A4FF00001BE
:1014B0003CBFC943661B14BFB5EB040C00213CBF05
:1014C000C943F61B4FEA17444EEA8E0E27EA04453D
:1014D0004FEA1C4704FB07622CEA074C05FB07F7A1
:1014E0000CFB05F604FB0CFC16EB074642EB17421F
:1014F00016EB0C4642EB1C421BEB060658EB0202B5
:10150000414146EA9E0601D5BDE80189B61952411E
:1015100041EB0101A3F10103BDE801894FEA144544
:101520004FEA114724EA054621EA074C05FB07F478
:1015300006FB07F70CFB06F105FB0CFC11EB074162
:1015400044EB17444FEA124711EB0C4144EB1C44A7
:1015500022EA074C05FB07F206FB07F70CFB06F631
:1015600005FB0CFC16EB074642EB174216EB0C464C
:1015700042EB1C456A1854F1000148BF7047B61988
:10158000524141EB0101A3F10103704795F0000FB7
:1015900037D04FEA11424FEA144721EA024624EAC3
:1015A000074C02FB07F106FB07F70CFB06F402FBF6
:1015B0000CFC14EB074441EB17414FEA154714EBC1
:1015C0000C4441EB1C4125EA074C02FB07F506FBE6
:1015D00007F70CFB06F602FB0CFC16EB074645EB87
:1015E000174516EB0C4645EB1C42121951F1000150
:1015F00048BF7047B619524141EB0101A3F1010305
:1016000070474FEA14454FEA114724EA054621EA9C
:10161000074C05FB07F106FB07F70CFB06F24FF042
:10162000000605FB0CFC12EB074241EB174112EBE5
:101630000C4251EB1C4148BF7047921841EB01012D
:10164000A3F101037047000010B532490446006859
:10165000884202D0304A904202D1D1F8080302E019
:101660002E48D0F8080310F4403F10D005F040F8A1
:101670006168B1F5803F06D0B1F5003F03D0B1F508
:10168000403F26D101E0090C17E0800821E000214D
:101690004FF4002004F012F961688A03920B18D10C
:1016A0008A140C2A15D2DFE802F014060606060694
:1016B000060B0D0F1113890C4900B0FBF1F008E087
:1016C000000906E0400904E0800902E0C00900E0EA
:1016D000000A13494008884204D82068816821F430
:1016E000407108E00F49884207D82068816821F4DA
:1016F000407141F48071816010BD0B4988422068BF
:10170000816804D821F4407141F40071F3E741F499
:101710004071F0E7002002400021024000600258C2
:10172000105E5F0020BCBE0040787D01FEE7002017
:10173000704700207047000005490022054810B599
:1017400007F0C2FC0449034807F0B1FC002010BDBB
:10175000DC0B002074030024DC0300200146044855
:1017600010B507F0A4FC024807F07AFC002010BD79
:101770007403002400207047014801F067BB00009B
:10178000F0010024014801F061BB0000FC020024CC
:10179000294A016891423AD0274A1832914236D0FC
:1017A000254A3032914232D0234A483291422ED0DB
:1017B000214A603291422AD01F4A7832914226D083
:1017C0001D4A9032914222D01B4AA83291421ED02B
:1017D0001A4A91421BD0194A1832914217D0174A1F
:1017E0003032914213D0154A483291420FD0134AF9
:1017F000603291420BD0114A7832914207D00F4AA1
:101800009032914203D00D4AA832914211D1CAB20E
:101810001823103AB2FBF3F26FF30901032A02F026
:101820000703074AD25CC26500D9091D81650846D5
:10183000704721F0FF01F9E7100002401004024058
:1018400096AD000830B5224A012301689142CAB220
:101850001BD01F4C1434A14217D01D4C2834A14278
:1018600013D01B4C3C34A1420FD0194C5034A14230
:101870000BD0174C6434A14207D0154C7834A142E8
:1018800003D0134C8C34A1420CD11421114C083AD2
:10189000B2FBF1F10F4A803201F01F0504EB810128
:1018A000AB4010E00C4D1824103A0D44B2FBF4F19B
:1018B000A82D00D80831094A01F01F0402EB81016C
:1018C000064AA3408032603080E80E0030BD000040
:1018D0000854025800580258F0FBFDBF00080240AF
:1018E00010B50279531E072B2DD8174C0168A14261
:1018F0001BD0154C1434A14217D0134C2834A142EC
:1019000013D0114C3C34A1420FD00F4C5034A142A3
:101910000BD00D4C6434A14207D00B4C7834A1425B
:1019200003D0094C8C34A14203D10849074C4431FF
:1019300002E00749064C443104EB8202C0E91B2156
:1019400001219940416710BD08540258FC580258C3
:10195000FC08024010B583694FF0C074826A0146EA
:10196000002053B1B3F5005F15D072B1012A0CD03D
:10197000022A0AD0032A09D104E01AB1012A06D0AA
:10198000022A03D1C96AC90100D5012010BDC96A64
:10199000A142FAD010BD002AF7D0012AF2D0022AC3
:1019A000F3D0032AF3D010BD2DE9F04F804E804FC5
:1019B000DFF8FC911836DFF8F8A148370468856D28
:1019C0000AF1300ADFF8ECB14C45DFF8ECC1DFF882
:1019D000ECE16DD0B4426BD0544569D0BC4267D0C5
:1019E000DFF8D081A8F11808444561D05C455FD08C
:1019F00064455DD074455BD0DFF8C481444557D061
:101A0000DFF8BC8108F11808444551D0DFF8B081F7
:101A100008F1300844454BD0DFF8A48108F14808AC
:101A2000444545D0DFF8988108F1600844453FD02F
:101A3000DFF88C8108F17808444539D0DFF88081DF
:101A400008F19008444533D0DFF8748108F1A80804
:101A500044452DD0DFF86C81444529D0DFF86481FE
:101A600008F11408444523D0DFF8588108F128080C
:101A700044451DD0DFF84C8108F13C08444517D09F
:101A8000DFF8408108F15008444511D0DFF8348177
:101A900008F1640844450BD0DFF8288108F1780884
:101AA000444505D0DFF81C8108F18C08444509D174
:101AB000D0E91948C4F80480C46E1CB1D0E91C48B0
:101AC000C4F8048004684C452ED0B4422CD0544550
:101AD0002AD0BC4228D0374E183EB44224D05C45B0
:101AE00022D0644520D074451ED0354EB4421BD060
:101AF000334E1836B44217D0314E3036B44213D07C
:101B00002F4E4836B4420FD02D4E6036B4420BD023
:101B10002B4E7836B44207D0294E9036B44203D0CB
:101B2000274EA836B44215D190F85C603F2406F0E9
:101B30001F06B440AC600468256825F48025256044
:101B40002EE09A600068C160BDE8F08F996000687F
:101B5000C260F9E71B4EB4421BD01A4E1436B44291
:101B600017D0184E2836B44213D0164E3C36B44225
:101B70000FD0144E5036B4420BD0124E6436B442DD
:101B800007D0104E7836B44203D00E4E8C36B44295
:101B9000DAD190F85C60012406F01F06B4406C6056
:101BA000046863608368402B0368CFD1C9E70000F5
:101BB0001000024088000240A0000240B80002402D
:101BC0001004024008540258704772B6FEE7000045
:101BD000014802F0ABB9000068000020014802F0A3
:101BE000A5B9000068000020F0B503684FF6FC714D
:101BF0006D4C426BD3F884508D4345EA8205C3F89F
:101C00008450036853F8845F068F25F47F0545EA06
:101C100006451D60836B654D9F180268D2F88830B9
:101C20008B4343EA8703C2F88830026852F8883F42
:101C3000868F23F4FE0343EA06431360066856F8D2
:101C4000A03FC26B8B4307EB420243EA820333603F
:101C5000076857F8A03FB0F8406023F4FE0343EA5A
:101C600006433B60D0E9103603FB06220368D3F835
:101C7000B0608E4346EA8206C3F8B0600368B0F8ED
:101C80004860D3F8B07027F4FE0747EA0646C3F869
:101C9000B060D0E91267036806FB0722D3F8AC6096
:101CA0008E4346EA8206C3F8AC60D0E91467036845
:101CB00006FB0722D3F8F0608E4346EA8206C3F89B
:101CC000F0600368B0F85860D3F8F07027F47C1720
:101CD00047EA0646C3F8F0600368876D53F8C06FA3
:101CE00002EB47028E4346EA820119600168B0F8B0
:101CF0005C20D1F8C03023F47C1343EA0242C1F8DF
:101D0000C020016890F86020D1F8C03023F07C53E7
:101D100043EA0262C1F8C020416B04EB8101C16655
:101D2000826B01EB82020267C36B02EBC302426764
:101D3000D0E91034634302EB83028267D0E91234A6
:101D4000634302EB8302C267D0E91434634302EBBE
:101D50008302C0F88020836D02EBC303C0F8843097
:101D6000C46D826E544303EB8403C0F88830046E64
:101D7000544303EB8402C0F89020AA420AD9D0F859
:101D80009C20032142F02002C0F89C2080F898108B
:101D90000120F0BD002200E004C1D0F890308B4259
:101DA000FAD80020F0BD000000AC0040FCD3004099
:101DB000F0B58E680C69D1E9005744EA0604DFB13A
:101DC00045F080452C43866ED1E906C54F695E43D8
:101DD00091F8203045EA0C05D0F884E00020D1F8D5
:101DE0000CC047EA0363114F1D430EEB860345EA1F
:101DF0000C05E3E8024511E044EA8544E3E71418E2
:101E0000155CA67894F803C094F801E0360445EA1E
:101E10000C6446EA0E252C43001D10C3CC6807EB6A
:101E2000144424788442EAD8F0BD0000A0AD000834
:101E30002DE9F0470F4690F85C109CB0044601294C
:101E40004FF0000915D00026DFF8F880012084F853
:101E50005C0018961996216841450ED13A4D0095BF
:101E6000284605F04FFE8246206805F04BFE60B123
:101E70000EE002201CB0BDE8F087206E84F85C60A4
:101E800040F0200020660120F4E7BAF1000F09D0ED
:101E9000216E4FF0010941F020002066484684F889
:101EA0005C60E7E720684146884201D0A84201D142
:101EB000264800E0264840F61F72D7F800C0254BA0
:101EC000BCF1000F23D0D0F808C0D7F804802CF460
:101ED000404C4CEA080CC0F808C0D4F800C08C454F
:101EE00001D0AC4507D18968AB6801F0010103F06E
:101EF0000103194302E0996801F001010029CDD1E5
:101F0000BD683968836829439343194317E087689C
:101F100027F44047876027688F4201D0AF4207D13E
:101F20008968AB6801F0010103F00103194302E085
:101F3000996801F001010029B0D181689143816065
:101F4000ACE70000002002400021024000230240D4
:101F500000630258006002582DE9F84F4FF0000B63
:101F60000446FD4E0D46CDF800B0DA4690F85C0010
:101F7000FA4F012808D04FF0010984F85C902068DE
:101F800005F0BCFD18B152E20220BDE8F88F2068D0
:101F9000B0420DD02968C2690B0327D091FAA1F194
:101FA000B1FA81F101F01F0309FA03F10A43C2619A
:101FB000D5E900124FF00C0C20681F23C1F3846197
:101FC0000CEA921C02F01F02604493409140026BA5
:101FD0009A430A430263206805F090FD804620681A
:101FE00005F088FD58EA000003D048E1C1F38461A0
:101FF000D8E7AA682968206805F088FD2068B04203
:1020000004D1C2686969C2F3C1020BE0D44A126804
:10201000B9EB127F02D0C168C90605D4C2686969EC
:10202000C2F38202520004E0C268696902F0100241
:10203000520891402A69042A5AD02B6800EB820288
:10204000B04202F1600207D103F0F8401368084380
:1020500040F00040106008E0D2F800C003F0F84003
:1020600008430CF00041014311602068B0421CD1CC
:102070002A69E96900EB8200026E22F080720A434D
:10208000026695F8201020682A6901290AD00021EB
:10209000B042AAD100EB8200026E22F000720A4325
:1020A0000266ECE04FF00071F2E795F821102A6922
:1020B000012917D05FF0000100EB8200026E22F0D0
:1020C00000420A430266287E21682A6901280CD052
:1020D00000200B6902F01F02904023F4F0420243FB
:1020E0000A61CCE04FF00041E6E74FF40060F0E712
:1020F000B04273D1002105F0F7FC000320684FF0D7
:1021000000016DD005F0F0FC90FAA0F0B0FA80F17B
:102110002868020369D090FAA0F0B0FA80F08142FA
:1021200004D100222068114605F000FD206801213D
:1021300005F0DAFC000320684FF0010158D005F0EB
:10214000D3FC90FAA0F0B0FA80F12868020354D0D2
:1021500090FAA0F0B0FA80F0814204D12068002209
:10216000012105F0E3FC2068022105F0BDFC00031D
:1021700020684FF0020143D005F0B6FC90FAA0F0C1
:10218000B0FA80F1286802033FD090FAA0F0B0FACC
:1021900080F0814204D120680022022105F0C6FCB3
:1021A0002068032105F0A0FC000320684FF0030124
:1021B0002ED005F099FC90FAA0F0B0FA80F12868D2
:1021C00002032AD090FAA0F0B0FA80F0814256D1F2
:1021D00020680022032105F0A9FC50E020E0FFE781
:1021E00005F082FCC0F3846192E7C0F3846096E757
:1021F00005F07AFCC0F38461A7E7C0F38460ABE725
:1022000005F072FCC0F38461BCE7C0F38460C0E7F2
:1022100005F06AFCC0F38461D1E7C0F38460D5E7C0
:10222000016E2A7801F0F841B1EB826F03D1016EA3
:1022300021F00041016620682978426E02F0F842E0
:10224000B2EB816F03D1416E21F0004141662068FD
:102250002978826E02F0F842B2EB816F03D1816E71
:1022600021F00041816620682978C26E02F0F842B0
:10227000B2EB816F03D1C16E21F00041C1662068CD
:10228000816811F0010F71D1364AB042EB682968BC
:102290000FD1D0F8B0C003F01808C1F3130322FA2D
:1022A00008F20A402CEA030C4CEA020CC0F8B0C059
:1022B0000EE0D0F8C0C003F01808C1F3130322FAEF
:1022C00008F20A402CEA030C4CEA020CC0F8C0C029
:1022D0002548E96881427DD1286801031BD090FA26
:1022E000A0F1B1FA81F1491C01F01F0109294FEA5F
:1022F00000313CD8002911D090FAA0F1B1FA81F157
:1023000001F1010101F01F0109FA01F209D100BF39
:10231000C0F3846109E0C0F38461E4E7C0F3846141
:10232000EEE790FAA0F1B1FA81F101F1010101F0BB
:102330001F0142EA816102D1C0F3846003E090FA98
:10234000A0F0B0FA80F000F1010000F01F0000EBF7
:10235000400041EA005140E0006002580021024084
:102360000010005CFFFF0F000000FF4765E0002940
:102370000FD000BF90FAA0F1B1FA81F101F1010193
:1023800001F01F0109FA01F206D100BFC0F3846118
:1023900006E0C0F38461F1E790FAA0F1B1FA81F1AF
:1023A00001F1010101F01F0142EA816102D1C0F394
:1023B000846003E090FAA0F0B0FA80F0434A00F1A4
:1023C000010000F01F0000EB400002EB005041EA6A
:1023D000000100E005E041F00071AA68206805F006
:1023E00095FBD5F800C0BCF1000F26DA384B206809
:1023F0003849DFF8E490984201D0B84201D10A464A
:1024000000E04A469268984202F0E07201D0B84279
:1024100009D19D68D7F8088005F0010508F001088A
:1024200045EA080502E0B56805F001054DB1216EE9
:102430004FF0010A41F020002066504684F85CB05D
:10244000A3E5264DAC451CD115021AD4B042F4D1F7
:10245000984202D0B84200D049468B6842F400004E
:1024600023F0E07202438A601E491D480968B1FBEF
:10247000F0F04000801C00E0401E00900028FBD1DE
:10248000DBE7194DAC450CD1D5010AD4B042D4D10B
:10249000984202D0B84200D049468B6842F0807022
:1024A0000EE0124DAC45C8D15502C6D4B042C4D1DD
:1024B000984202D0B84200D049468B6842F480006E
:1024C00023F0E07202438A60B7E70000000020FEBC
:1024D000002002400023024000630258000052C75F
:1024E000400D030028000020000021C3000084CB21
:1024F0002DE9F8434FF0000504002E46009502D068
:10250000206E18B108E00120BDE8F883204600F0F5
:1025100043F9656684F85C5020688168C1F34071B6
:1025200019B181688E4A1140816020688168C1F3C9
:10253000007181B981688B4A114041F080518160FE
:102540008A4989480968B1FBF0F0401C00E0401E50
:1025500000900028FBD120688168C1F3007141B967
:10256000216E012641F010012166616E41F00101EA
:10257000616605F0C3FA216EC90600D420B1206E51
:10258000012640F01000E0E0206E20F4807040F062
:102590000200206620688168754D11F0010F1ED180
:1025A000744B754A984201D0904207D19968976858
:1025B00001F0010107F00107394302E0A96801F0C9
:1025C000010161B9984201D0904201D16B4800E00D
:1025D0006B488268616822F47C120A438260216839
:1025E000A9421FD1637ED4E90207E26B5B033A4341
:1025F000082805D00C280FD01C280FD018280FD081
:102600005FF0000000F00C0794F8200043EA470355
:102610001A4342EA00400FE00420F3E70820F1E704
:102620001C20EFE7627E94F82030A768E06B52032D
:1026300042EA03423843104394F82020012A04D18F
:10264000A28C504B03EB42421043A26A2AB1E36AC8
:1026500002F47872024343EA0200CA68A9420BD12D
:10266000494B1A400243CA602068626B016921F03D
:1026700040611143016103E0444B1A400243CA60C8
:10268000206805F03BFA0746206805F033FA074357
:102690004ED12068A946484506D1217E94F83820BD
:1026A000890341EA420103E0227E216B41EA823143
:1026B000C26844F203039A430A43C26094F8440098
:1026C0000128206803D0016921F0010122E048457A
:1026D0000ED1D4E9121CD4E9143502692C4F41EA19
:1026E0000C012B433A401943114341F0010111E021
:1026F000D4E91317B4F848C0DFF89880636D026915
:1027000008EB0C4C224D394343EA0C036D1E2A4062
:102710001943114301612068236C026922F0704261
:102720001A4302612068484502D02046FEF78CFF1C
:102730002069012820680BD0016B21F00F01016393
:10274000206E20F0020040F0010020663046DBE6FB
:10275000E269016B521E21F00F011143EFE7000007
:10276000C0FFFF5FC0FFFF7F400D03002800002077
:102770000060025800200240002102400023024075
:10278000006302580000FEFF0740F0FF03C0F0FFA7
:102790001FF800FC0100FFFFF0B5B5B0064614219C
:1027A0002EA8FDF7C8FFB8216846FDF7C4FF2949E8
:1027B000306888424CD1022000224FF40021009161
:1027C000CDE901201023154606AACDE90330C02427
:1027D000059082E8310068460995289503F0BCF918
:1027E00008B1FFF7F2F91C48016841F020010160CF
:1027F000006800F02000339017480830016841F06D
:102800000101016000682EAA032100F0010033904D
:10281000202082E8230011482EA901F0BDFE104CB3
:10282000092110484FF4807C021584E82300D7006A
:10283000C4E90352C3142046C4E907C56562C4E96C
:10284000053700F077FE08B1FFF7BFF9B465A6635E
:1028500035B0F0BD00200240D844025800000258B4
:10286000F0010024100002402DE9F84F044601F069
:10287000ABFF00903CB194F83500022806D08021CF
:1028800061650020E4E00120BDE8F88FC74DC74E28
:10289000C649183520683036DFF81483DFF8149302
:1028A0008842DFF814A3DFF814B32ED0A8422CD04E
:1028B000B0422AD0404528D0484526D0504524D0A3
:1028C000584522D0BD4A183290421ED0BC4A904290
:1028D0001BD0BB4A1832904217D0B94A30329042CE
:1028E00013D0B74A483290420FD0B54A6032904276
:1028F0000BD0B34A7832904207D0B14A903290421E
:1029000003D0AF4AA832904209D1026822F01E02D9
:1029100002602068426922F08002426103E002689E
:1029200022F00E02026027688F4238464DD0A8423E
:102930004BD0B04249D0404547D0484545D050459E
:1029400043D0584541D09D4A183290423DD09C4AD0
:1029500090423AD09A4A1832904236D0984A303251
:10296000904232D0964A483290422ED0944A6032F9
:1029700090422AD0924A7832904226D0904A9032A1
:10298000904222D08E4AA83290421ED08D4A904268
:102990001BD08C4A1432904217D08A4A2832904277
:1029A00013D0884A3C3290420FD0864A503290422F
:1029B0000BD0844A6432904207D0824A78329042E7
:1029C00003D0804A8C32974204D1206E026822F4F0
:1029D0008072026075492068884228D0A84226D0BB
:1029E000B04224D0404522D0484520D050451ED08A
:1029F00058451CD071491831884218D07049884216
:102A000015D06F491831884211D06D493031884254
:102A10000DD06B494831884209D0694960318842FC
:102A200005D067497831884201D065499031016805
:102A300021F0010101600EE001F0C6FE0099401A8C
:102A4000052808D9202262650321002084F835106A
:102A500084F8340017E73868C007EDD1534A0121E4
:102A6000206890422ED0A8422CD0B0422AD04045B7
:102A700028D0484526D0504524D0584522D04F4B29
:102A8000183398421ED04E4B98421BD04C4B1833F3
:102A9000984217D04A4B3033984213D0484B4833B2
:102AA00098420FD0464B603398420BD0444B78335A
:102AB000984207D0424B9033984203D0404BA83302
:102AC000984208D194F85C703F23A06D07F01F076F
:102AD000BB40836007E094F85C30A06D03F01F03F7
:102AE00001FA03F34360206890424DD0A8424BD0D6
:102AF000B04249D0404547D0484545D0504543D0E5
:102B0000584541D02D4A183290423DD02C4A90422F
:102B10003AD02B4A1832904236D0294A303290426D
:102B200032D0274A483290422ED0254A6032904215
:102B30002AD0234A7832904226D0214A90329042BD
:102B400022D01F4AA83290421ED01E4A90421BD06B
:102B50001C4A1432904217D01A4A2832904213D09D
:102B6000184A3C3290420FD0164A503290420BD055
:102B7000144A6432904207D0124A7832904203D00D
:102B8000104A8C3290420BD1D4E919024260E06EB7
:102B900030B1026822F480720260D4E91C02426003
:102BA000002084F8351084F834006DE610000240EF
:102BB000580002407000024088000240A00002401D
:102BC00010040240085402582DE9F05F28B190F833
:102BD0003510022904D0802141650120BDE8F09F15
:102BE000904C904B0168183C18338E4ADFF83C92A9
:102BF000A1428D4CDFF838E28E4FDFF83CB2DFF8AF
:102C00003CA28F4D8F4E31D091422FD099422DD082
:102C1000A1422BD0494529D0714527D0B94225D0B2
:102C2000DFF810C20CF1180C61451FD0DFF808C2A4
:102C3000ACF1600C614519D0DFF8FCC1ACF1480C77
:102C4000614513D0DFF8F0C1ACF1300C61450DD017
:102C5000DFF8E4C1ACF1180C614507D0594505D047
:102C6000514503D0A94201D0B1422CD1DFF8B4C103
:102C70004FF0040880F83580ACF1180C61451DD088
:102C800091421BD0994219D0A14217D0494515D085
:102C9000714513D0B94211D06648183081420DD029
:102CA00065486038814209D063484838814205D080
:102CB00061483038814201D05F481838086820F0F8
:102CC00001000860ABE0D1F800C02CF00E08DFF87E
:102CD00054C1C1F80080ACF1180C0168614527D0DF
:102CE000914225D0994223D0A14221D049451FD0FD
:102CF00071451DD0B9421BD0DFF838C10CF1180C5A
:102D0000614515D0DFF830C1ACF1600C61450FD0E2
:102D1000DFF824C1ACF1480C614509D0DFF818C1D7
:102D2000ACF1300C614503D0DFF80CC1ACF1180CEC
:102D3000D1F800C02CF0010CC1F800C0DFF8E4802D
:102D40004FF0010C0168A8F11808414546D09142A6
:102D500044D0994242D0A14240D049453ED071452D
:102D60003CD0B9423AD0334A1832914236D0324A36
:102D7000603A914232D0304A483A91422ED02E4A9F
:102D8000303A91422AD02C4A183A914226D05945DD
:102D900024D0514522D0A94220D0B1421ED02A4A87
:102DA00091421BD0284A1432914217D0264A283229
:102DB000914213D0244A3C3291420FD0224A5032E1
:102DC00091420BD0204A6432914207D01E4A783299
:102DD000914203D01C4A8C32914218D1016E0A688C
:102DE00022F480720A6090F85C20816D02F01F026C
:102DF0000CFA02F24A60D0E919124A60C16E31B190
:102E00000A6822F480720A60D0E91C124A6000222B
:102E1000016D80F835C080F8342001B1884700206A
:102E2000DCE600002800024058000240700002402A
:102E300088000240A0000240700402408804024062
:102E4000A0040240B8040240085402582DE9FC5F77
:102E50000446F74E0020DFF8D88300904FF4165256
:102E6000F44808F11808A56DDFF8C493DFF8C0A393
:102E7000016809F1300920680AF1480AB1FBF2F152
:102E8000B04201912F68D5F800C0DFF8ACB335D05F
:102E90004146884232D0484530D050452ED0584522
:102EA0002CD0E5491831884228D0E3493031884296
:102EB00024D0E1494831884220D0E04988421DD0E1
:102EC000DE491831884219D0DC493031884215D0AA
:102ED000DA494831884211D0DFF860E30EF1600E24
:102EE00070450BD0D54A7832904207D0D34B9033FF
:102EF000984203D0D149A83188427DD194F85C2012
:102F0000082102F01F0201FA02F23A424AD0B0420E
:102F100032D0404530D048452ED050452CD0584571
:102F20002AD0C54A1832904226D0C34A3032904245
:102F300022D0C14A483290421ED0C04A90421BD093
:102F4000BE4A1832904217D0BC4A3032904213D059
:102F5000BA4A483290420FD0B84A603290420BD001
:102F6000B64A7832904207D0B44A9032904203D0A9
:102F7000B24AA832904203D1026802F0040202E091
:102F8000026802F008026AB1026822F004020260DC
:102F900094F85C0000F01F008140A960606D40F073
:102FA0000100606594F85C00012100F01F00814081
:102FB000394240D02068B04234D0404532D04845F4
:102FC00030D050452ED058452CD09B4A18329042D4
:102FD00028D0994A3032904224D0974A48329042C1
:102FE00020D0964A90421DD0944A1832904219D06F
:102FF000924A3032904200E0AFE113D08F4A48321B
:1030000090420FD08D4A603290420BD08B4A78327A
:10301000904207D0894A9032904203D0874AA83222
:1030200090427DD1406910F0800F04D0A960606D9E
:1030300040F00200606594F85C00042100F01F007D
:10304000814039423ED02068B04232D0404530D035
:1030500048452ED050452CD058452AD0764A1832B3
:10306000904226D0744A3032904222D0724A48327E
:1030700090421ED0714A90421BD0704A1832904242
:1030800017D06E4A3032904213D06C4A4832904288
:103090000FD06A4A603290420BD0684A7832904230
:1030A00007D0664A9032904203D0644AA8329042D8
:1030B0004ED1006810F0020F04D0A960606D40F09E
:1030C0000400606594F85C00102100F01F0081404E
:1030D000394258D02068B04234D0404532D04845BB
:1030E00030D050452ED058452CD0534A18329042FB
:1030F00028D0514A3032904224D04F4A4832904230
:1031000020D04E4A90421DD04C4A1832904219D0DD
:103110004A4A3032904215D0484A4832904200E044
:1031200014E00FD0454A603290420BD0434A7832C7
:10313000904207D0414A9032904203D03F4AA83291
:10314000904207D1006800F0080006E0006872E7CE
:103150000068B7E7006800F00400A0B1A96020682B
:103160000168490304D50068000308D5A16C07E095
:103170000168C90503D4016821F008010160216CD0
:1031800009B12046884794F85C00202100F01F0018
:103190008140394279D02068B04232D0404530D0A9
:1031A00048452ED050452CD058452AD0224A1832B6
:1031B000904226D0204A3032904222D01E4A4832D5
:1031C00090421ED01D4A90421BD01C4A1832904299
:1031D00017D01A4A3032904213D0184A48329042DF
:1031E0000FD0164A603290420BD0144A7832904287
:1031F00007D0124A9032904203D0104AA83290422F
:1032000003D1006800F0100002E0006800F0020046
:10321000B0B3A96094F835000428206801680FD085
:1032200049037ED5006800032BD4616C2AE00000BE
:1032300010000240280000207000024010040240EC
:1032400021F0160101602068416921F0800141618F
:10325000206C08B9A06C20B12068016821F0080139
:10326000016094F85C303F21012003F01F0300222D
:103270009940A96084F8350084F83420216D65E018
:1032800003E0E16B09B120468847606D00287DD0DE
:10329000606DC00759D02068042184F83510B04211
:1032A0002BD0404529D0484527D0504525D05845FA
:1032B00023D09D49884220D09B49183188421CD098
:1032C00099493031884218D09849884215D0974999
:1032D0001831884211D09549303188420DD0934938
:1032E0004831884209D091496031884205D08F49E0
:1032F0007831884201D08D499031016821F0010177
:10330000016020680099019A491C0091914202D8FD
:103310000168C907F6D10068C00710D003200FE08C
:10332000FFE70168C905ACD403680121002223F03E
:103330001003036084F8351084F83420A1E70120DD
:1033400084F83500002084F83400E16C00291DD099
:1033500002B02046BDE8F05F0847754988421DD09D
:1033600073491431884219D071492831884215D0E7
:103370006F493C31884211D06D49503188420DD09F
:103380006B496431884209D0694900E084E07831B2
:10339000884203D066498C3188427DD194F85C80A4
:1033A0000427016808F01F0807FA08F717EA0C0F4E
:1033B000009746D04F0744D500980F04686003D5A6
:1033C000C8033CD4A16CC1E7880638D42068B04259
:1033D0002DD055496039884229D0484527D05045DD
:1033E00025D0584523D05049884220D04E49183125
:1033F00088421CD04C493031884218D04B49884211
:1034000015D04A491831884211D048493031884294
:103410000DD046494831884209D0704507D09042C6
:1034200005D0984203D04149A831884203D10168B0
:1034300021F0080102E0016821F004010160216C23
:1034400084E7022707FA08F717EA0C0F00974ED017
:103450008F074CD500980F04686003D5C80344D487
:10346000616C73E7880640D42068B0422FD02E49A3
:10347000603988422BD0484529D0504527D058453F
:1034800025D02949884222D02749183188421ED0A8
:1034900025493031884200E044E018D02349884271
:1034A00015D022491831884211D020493031884244
:1034B0000DD01E494831884209D0704507D090424E
:1034C00005D0984203D01949A831884203D1016838
:1034D00021F0140102E0016821F00A0101600121DC
:1034E00084F83510002084F83400E16B2EE70822C0
:1034F00002FA08F212EA0C0F14D0090712D501687B
:1035000021F00E01016094F85C100120002201F00E
:103510001F0100FA01F16960606584F8350084F8E4
:10352000342012E7BDE8FC9F8800024010040240EE
:10353000085402582DE9F05F044601F045F9002CCB
:1035400007467DD0E24E022120684FF00308DFF8E5
:1035500084934FF00005DFF880A3B042DFF87CB31E
:1035600034D0DB4A1832904230D048452ED05045F6
:103570002CD058452AD0D94A1832904226D0D74A62
:103580003032904222D0D54A483290421ED0D44A9E
:1035900090421BD0D24A1832904217D0D04A3032D3
:1035A000904213D0CE4A483290420FD0CC4A60327B
:1035B00090420BD0CA4A7832904207D0C84A903223
:1035C000904203D0C64AA83290427DD184F835108B
:1035D000B04284F834502ED0BD49183188422AD0E8
:1035E000484528D0504526D0584524D0BB491831ED
:1035F000884220D0B949303188421CD0B74948317F
:10360000884218D0B649884215D0B5491831884249
:1036100011D0B349303188420DD0B1494831884288
:1036200009D0AF496031884205D0AD497831884230
:1036300001D0AB499031016821F00101016008E03F
:1036400025E100BF01F0C0F8C01B052801D92021E9
:103650001AE120680068C007F4D1D4E902032168A8
:10366000103418438E4694E88410D4E9033809686E
:103670003A4310439B4A40EA0C00676918431140E3
:10368000103C40EA0800042F40EA010003D1D4E9CD
:103690000B12114308436168A1F12902052A0BD9D5
:1036A000163A032A08D9083A012A05D9083A032A02
:1036B00002D97439032901D840F48010CEF80000F3
:1036C0002068676A406900E020E0042F20F00700CE
:1036D00047EA00070DD1D4E90A01074349B1204662
:1036E000FEF738F928B140206065012184F83510D3
:1036F000CDE0206847612046FEF74AF894F85C2048
:103700003F2102F01F029140816055E0764A9042CD
:103710001BD0754B1433984217D0734B2833984203
:1037200013D0714B3C3398420FD06F4B50339842BB
:103730000BD06D4B6433984207D06B4B7833984273
:1037400003D0694B8C3398427ED184F8351084F8CD
:103750003450664B0168A26801EA030E402A74D017
:10376000802A73D05FF00002D4E90378D4E90531F0
:1037700042EAD70242EAD8085B4AD4E9077C48EA21
:10378000D30848EAD10141EAD701524241EA1C116B
:10379000142341EA0E01016020681044B0FBF3F0ED
:1037A0008000E0652046FDF7F3FF94F85C200121DE
:1037B00002F01F02914041602068B04257D0444956
:1037C0001831884253D0484551D050454FD05845C4
:1037D0004DD042491831884249D040493031884261
:1037E00045D03E494831884241D03D4988423ED08B
:1037F0003B49183188423AD039493031884236D075
:1038000037494831884232D03549603188422ED01C
:103810003349783188422AD031499031884226D0C4
:103820002F49A831884222D02F4988421FD02E49E3
:10383000143188421BD02C492831884217D02A499C
:103840003C31884213D002E01DE017E018E0264921
:10385000503188420BD024496431884207D0224934
:103860007831884203D020498C31884229D12046C2
:10387000FDF7E8FFA06880280CD00CE0102273E769
:103880004FF4804270E74021616584F83580012063
:10389000BDE8F09F6560216E20790860D4E91901C8
:1038A00041606068401E072808D82046FEF718F8D7
:1038B000E06E0560D4E91C01416002E0E566256721
:1038C00065670120656584F835000020E0E70000A9
:1038D00010000240400002405800024070000240C8
:1038E000100402403F8010FE085402580F00FEFFF3
:1038F0002DE9F84F04008C464FF00000009014D0E2
:1039000094F83400012812D094F835500120002199
:1039100084F83400012D0CD0C002606501200090B5
:1039200084F834100098BDE8F88F0120FBE70220EE
:10393000F9E78C4D0226206884F83560A8428A4D4C
:1039400061658A4E8A4FDFF82C82DFF82C92DFF80F
:103950002CA2DFF82CB226D0A84224D0B04222D02C
:10396000B84220D040451ED048451CD050451AD002
:10397000584518D08349884215D082491831884269
:1039800011D08049303188420DD07E49483188427B
:1039900009D07C496031884205D07A497831884223
:1039A00001D078499031016821F001010160614640
:1039B0002046FDF7F9FF6B49206888422CD0A842C9
:1039C0002AD0B04228D0B84226D0404524D048451D
:1039D00022D0504520D058451ED06A4A90421BD074
:1039E000684A1832904217D0664A3032904213D05B
:1039F000644A483290420FD0624A603290420BD003
:103A0000604A7832904207D05E4A9032904203D0AA
:103A10005C4AA83290420CD1026822F01E0242F0A9
:103A200016020260206C88B12068026842F0080229
:103A30000BE0026822F00E0242F00A020260206CE3
:103A400020B12068026842F00402026020688842C7
:103A50004BD0A84249D0B04247D0B84245D04045AB
:103A600043D0484541D050453FD058453DD0454AC8
:103A700090423AD0434A1832904236D0414A3032CE
:103A8000904232D03F4A483290422ED03D4A603276
:103A900090422AD03B4A7832904226D0394A90321E
:103AA000904222D0374AA83290421ED0364A9042E5
:103AB0001BD0354A1432904217D0334A28329042F4
:103AC00013D0314A3C3290420FD02F4A50329042AC
:103AD0000BD02D4A6432904207D02B4A7832904264
:103AE00003D0294A8C3290420DD1206E0268D20355
:103AF00003D5026842F480720260E06E18B1026879
:103B000042F4807202602068884226D0A84224D005
:103B1000B04222D0B84220D040451ED048451CD0EB
:103B200050451AD0584518D01649884215D0154925
:103B30001831884211D01349303188420DD01149D3
:103B40004831884209D00F496031884205D00D497B
:103B50007831884201D00B499031016841F0010170
:103B60000160DFE6100002402800024040000240F1
:103B7000580002407000024088000240A00002404D
:103B8000B8000240100402400854025880B206F007
:103B9000EFBE000010B590F89830012B09D0022B31
:103BA00007D0D0F89C1041F00201C0F89C10012011
:103BB00010BD03689C6D0C4203D1DC6D44F0010420
:103BC00004E09C6D31EA04041FD00324DC658B05FE
:103BD00005D50368D3F8E0401443C3F8E0404B0533
:103BE00005D50368D3F8E4401443C3F8E440006803
:103BF000084A01EA0203446D074A1C434465106801
:103C000040EA91701060002010BDDC6D44F00204A9
:103C1000DCE70000FFFFCF3F14A8004070B504466A
:103C200090F89800022804D0D4F89C0040F00800D6
:103C30000DE02068D0F8C03013F07C5F0BD0D0F8D6
:103C4000C4309B020CD5D4F89C0040F40070C4F83A
:103C50009C00012070BDD4F89C0040F02000F6E7E5
:103C6000D0F8C400C0F3044520462B46FEF7A0F868
:103C700021680120A840C1F8D000C4F894000020B9
:103C800070BD704790F89830012B07D0D0F89C1089
:103C900041F00401C0F89C100120704761B1006838
:103CA000012913D0D0F8B01021F0FE4141EA0261A1
:103CB000C0F8B010002070470068D0F8F01021F074
:103CC0007C5141EA0261C0F8F010F3E7D0F8A0108F
:103CD00021F0FE4141EA0261C0F8A010EAE770B5A8
:103CE00090F89820012A09D0022A07D0D0F89C1019
:103CF00041F00201C0F89C10012070BD0B68CA6839
:103D000083B10B69072A43EA427325D00C7A4A69CA
:103D100042EA84724968006F00EBC100C0E90032DA
:103D2000002070BD072A0DD00C7AD6060D8A4B698B
:103D300043EA847246EA0543C06E49681A4340F874
:103D40002120EDE70B8A4FF06055D1E9062442EAC5
:103D5000034245EA0423EFE78A69DBE730B590F8D0
:103D60009850039C012D07D0D0F89C1041F004011D
:103D7000C0F89C10012030BD0D01016845EA8200A9
:103D800040EA43002043C1F88000002030BD704766
:103D900070470000F0B590F898400025022C04D040
:103DA000D0F89C1041F008012BE040294FF000466C
:103DB00005D0412929D0046D8C4219D942E004680C
:103DC000D4F8A07017F4FE0F12D0D4F8A4707F06B8
:103DD00013D0D4F8A470FF0105D5D4F8A070B6EBC9
:103DE000D77F00D10125D4F8A470466F446C24E03D
:103DF000D0F89C1041F0200103E0D0F89C1041F471
:103E00008071C0F89C100120F0BD0468D4F8B07037
:103E100017F4FE0FECD0D4F8B4707F06EDD0D4F8D0
:103E2000B470FF0105D5D4F8B070B6EBD77F00D1E0
:103E30000125D4F8B470866FC46CC7F305273D44E0
:103E40006C4302E0446DC66F4C4306EB8404266865
:103E500016F080465660266836D026F0604616601A
:103E6000D4F800C000262F4F0CF0005CC2F808C048
:103E7000D4F800C00CF0004CC2F810C0B4F804C074
:103E80001FFA8CFCC2F81CC0D4F804C00CF4702CCF
:103E9000C2F80CC0D4F804C00CF4801CC2F814C0E2
:103EA000D4F804C00CF4001CC2F818C0D4F804C044
:103EB000CCF3066CC2F820C0D4F804C008344FEA32
:103EC000DC7CC2F824C008E0C6F38A46C7E700BF1E
:103ED00014F806C003F806C0761CD2F80CC007EB35
:103EE0001C4C9CF800C0B445F2D840290AD04129A6
:103EF0000CD020294FF001020CD200688A40C0F893
:103F000098200DE00068C0F8A85009E00068C0F8EB
:103F1000B85005E0006801F01F018A40C0F89C20FD
:103F20000020F0BDA0AD0008704700002DE9FF5F44
:103F3000DFF80CB304460BF10401DBF80000256840
:103F40000F68AA468007D5F85090696DD5F8508063
:103F50006E6D2A6DD5F854C02B6D00EA8770009005
:103F600009F470496F6D286D01EA09010191DAF8D1
:103F70005410DAF85490DAF8505008F00F0806EAB6
:103F80000806029602F0F00203F071536FEA090688
:103F90001F4000F060700CEA020CCDF80CC0F20576
:103FA00001EA00090CD4E843C00509D400214FF40C
:103FB0008073CAF85030CBF800102046FFF7B4FFEA
:103FC000700512D4E84340050FD4206800234FF455
:103FD0008068D0F8DC20D0F8E410C0F85080CBF82E
:103FE00000301140204600F0D3FADFF858A20098C4
:103FF00050B12268830F00EA0A001065CBF8003048
:1040000020460099FFF73DFE019850B12268830FCA
:1040100000EA0A001065CBF800302046019900F054
:10402000B9FA029850B12268830F00EA0A001065BD
:10403000CBF800302046029900F080FA039850B186
:104040002268830F00EA0A001065CBF80030204692
:10405000039900F07DFA30050CD4E843000509D43B
:10406000236800204FF400621A65CBF80000204658
:1040700000F091FAB00512D4E84380050FD420680F
:1040800000234FF40078D0F8D820D0F8E010C0F822
:104090005080CBF800301140204600F07AFA30030F
:1040A0000CD4E843000309D4236800204FF4002215
:1040B0001A65CBF80000204600F03EFAF0030CD45D
:1040C000E843C00309D4236800204FF480321A6506
:1040D000CBF80000204600F05AFA70030CD4E843F5
:1040E000400309D4226800204FF480231365CBF8E5
:1040F0000000204600F04AFAB0030FD4E8438003E2
:104100000CD4236800204FF400321A65CBF800006D
:10411000D4F89C0040F08000C4F89C00B9F1000F76
:104120000BD022684FEA997309EA0A001065CBF8B0
:10413000003049462046FFF72BFE5FB12268BB0FD7
:1041400007EA0A001065CBF80030D4F89C00384329
:10415000C4F89C003C492068884268D16068814668
:104160008068800763D0D9F82060D9F82410D9F886
:104170002080D9F82400D9F820C0D9F82470D9F8C3
:104180002030D9F82450D9F8202003F4FC4306F05D
:104190000F0AD9F824601D40D9F824B008F030087F
:1041A0000CF4C07C02F4F02211EA0A0100EA0808CB
:1041B00007EA0C0706EA0206D9F820A004D0C9F8DD
:1041C0002010204600F0DFF9B8F1000005D061684A
:1041D00008624146204600F0D8F96FEA0B0040061D
:1041E0000ED46FEA0A0040060AD460684021C36B0F
:1041F000C26B01622046190C02F03F0200F0C4F9C4
:104200002FB1606807623946204600F0BBF935B12E
:1042100060680562D4F89C002843C4F89C0036B15D
:1042200060680662D4F89C003043C4F89C00D4F85F
:104230009C00002802D02046FFF7A9FDBDE8FF9FA3
:1042400010A80040FFFFCF3F00A000402DE9F04143
:1042500094B08D494C2204466846FCF73AFA64B1A2
:104260008A4D2068A84202D100F58070606094F801
:1042700098004FF0000820B108E0012014B0BDE81C
:10428000F081204684F8998000F002F92068816965
:1042900021F01001816100F097FA0327064604E03F
:1042A00000F092FA801B0A2811D820688069000764
:1042B000F6D42068816941F00101816100F084FA3F
:1042C00006460DE000F080FA801B0A2808D9D4F8D1
:1042D0009C0040F00100C4F89C0084F89870CCE782
:1042E00020688069C007EDD02068816941F0020133
:1042F0008161207C01282068816937D041F040012C
:104300008161607C01282068816932D021F480417C
:104310008161A07C0128206881692DD041F4805101
:1043200081612068A268816921F440711143816133
:104330002068816921F0A40181612068016921F070
:1043400010010161E068012819D010B302281BD0C8
:104350002068816941F0800181612068016941F034
:1043600010010161E06803280ED012E021F0400145
:10437000C6E741F48041CBE721F48051D0E72068C3
:10438000816941F0040103E02068816941F0200166
:104390008161207E6FF0FF02D4E90773A68A1102C3
:1043A000400602EB0727A0F10070384327685B1E28
:1043B000184301EB06463043F861A068B0F5407F32
:1043C00011D104F12800A68C6FF00F0C89C801EB05
:1043D0000641401E02EB0322104322680CEB071338
:1043E00018430843D060206E30B12068626ED0F868
:1043F000C0101143C0F8C010D4E917126846D1426A
:1044000009D02168A36E51F8C82F50F8233022F04C
:1044100007021A430A60216C49B12168626C51F8A5
:10442000BC3F50F8226023F0070232430A60A16CBF
:1044300051B12168E36C51F8BC2F50F8233022F0C1
:10444000700242EA03120A60216D51B12168626D67
:1044500051F8BC3F50F8220023F4E06242EA002009
:1044600008602068A84204D16068816821F00301D7
:104470008160C4F894800121C4F89C8084F898106D
:104480002046FDF7B1FBF9E6B0AD000800A0004002
:1044900010B5B4B0044614212EA8FCF74CF9B8218D
:1044A0006846FCF748F92149206888423CD1002041
:1044B0004FF40041CDE900104A0368461B9201F019
:1044C0004BFB08B1FDF781FB1948016841F480718D
:1044D0000160006800F48070339015480C38016862
:1044E00041F00801016000680923032100F0080081
:1044F000339000202E9102222EA9CDE92F20CDE964
:1045000031030C4800F048F800221320114600F057
:1045100021FA132000F010FA00221520114600F0B5
:1045200019FA152000F008FA34B010BD00A00040C0
:10453000EC440258000C025870470000C90704D030
:104540000249884201D106F04BBA7047680000204A
:10455000704790F89810012907D0D0F89C1041F0CE
:104560000401C0F89C1001207047022180F89810C7
:10457000002201688B6923F001038B61C0F89C2045
:1045800010467047704770477047704770477047D4
:1045900070477047704770472DE9F84F03247A4DF4
:1045A00000234FF001094FF0B04B4FF00F0AE4E049
:1045B00009FA03F6324078D00F7907F00307012F8C
:1045C00001D0022F1AD187684FEA430ED1F80CC0F0
:1045D00004FA0EF827EA08070CFA0EFC4CEA070C5E
:1045E000C0F808C0476891F804C0B743CCF3001C7A
:1045F0000CFA03FC4CEA070CC0F804C00E79F64331
:10460000B6070BD0C6684FEA43088F6804FA08FC67
:1046100026EA0C0607FA08F73743C7600E7906F05A
:104620000306022E12D1DE080F694FEA437C00EB2D
:104630008606B646366A4FEADC6C0AFA0CF807FAC8
:104640000CF726EA08063743CEF820700F79066883
:104650004FEA430807F0030704FA08FC07FA08F7D3
:1046600026EA0C06374307604E6816F4403F1CD01C
:10467000464E376847F00207376036689F0706F0F6
:104680000206009623F0030606F1B046B6463F0F39
:10469000D6F80864DFF8F8800AFA07FC404526EAF5
:1046A0000C0603D14FF0000C3AE065E0DFF8E4C0FF
:1046B000604502D14FF0010C32E0DFF8DCC060450C
:1046C00002D14FF0020C2BE0DFF8D0C0604502D1E0
:1046D0004FF0030C24E0DFF8C8C0604502D14FF072
:1046E000040C1DE0DFF8BCC0604502D14FF0050CA2
:1046F00016E0DFF8B4C0604502D14FF0060C0FE0C1
:10470000DFF8A8C0604502D14FF0070C08E0DFF8E1
:10471000A0C0604502D14FF0090C01E04FF00A0C37
:104720000CFA07FC4CEA060CCEF808C44F68DBF81C
:104730000060FF0226EA020600D516435F46CBF86A
:104740000060D1F804C0DBF804605FEA8C2C26EA34
:10475000020600D516437E606E684F6826EA0206A0
:10476000BF0300D516436E602E684F6826EA020626
:10477000FF0300D516432E605B1C0A6832FA03F66D
:104780007FF416AFBDE8F88F80000058F44402585B
:10479000000002580004025800080258000C025899
:1047A000001002580014025800180258001C025849
:1047B000002402580069084000D0012070470AB167
:1047C000816170470904FBE7014880687047000079
:1047D0001C010024024881680278114481607047FE
:1047E0001C010024032010B500F0D4F801F0C6FF2E
:1047F0000F4A104914681368C4F3032203F00F032F
:104800008A5CC95C02F01F0201F01F01D0400A4A15
:1048100020FA01F1116009490860002000F010F849
:1048200008B1012010BD00F079F8002010BD000093
:104830001844025824AE00082C0000202800002054
:1048400070B50D4D04462878A0B14FF47A71B1FBD4
:10485000F0F00A490968B1FBF0F002F0DFFB48B95B
:10486000102C07D200222146501E00F073F80020C1
:104870006C6070BD012070BD1C0100242800002068
:10488000F0B5154C4378211D0A1D23600378F3B160
:1048900043680B60057BC67A817A437B2D07847B56
:1048A00045EA0665C77B90F809C0067A90F800E0F3
:1048B00045EAC14040EA834040EA444040EA0740BC
:1048C00040EA0C2040EA460040EA0E0001E00020E9
:1048D00008601060F0BD000098ED00E0BFF35F8F4E
:1048E000044800210368034A23F4803303607032D4
:1048F0001160704724ED00E0074A40F001000649CE
:1049000070321060086840F480300860BFF34F8F49
:10491000BFF36F8F7047000024ED00E0054808B535
:10492000016841F002010160006800F0020000909F
:1049300008BD0000F4440258002809DB410900F0DA
:104940001F028900012001F1E0219040C1F800011F
:10495000704700000E4BF0B41B680D46C3F30223F2
:10496000C3F10706042E00D90426191D072901D218
:10497000002300E0DB1E012404FA06F19C40491EDE
:104980002940641E994014402143F0BC05F04FBFFC
:104990000CED00E0064900F0070210B54FF6FF04E9
:1049A0000868044B204040EA02201843086010BD0C
:1049B0000CED00E00000FA0501680123C0F80035A5
:1049C000002280F8F4248869044A40F0006088617D
:1049D000486D104348650020704700000300001038
:1049E00070470068416200207047F0B503685D6A57
:1049F00039B19F6A4C1E00204FF4827605EB1745B3
:104A00000BE045EA0240986210E0471C06EB80008C
:104A100053F800C0F8B205EB1C45A042F5D34FF4A3
:104A2000807000EB810045EA02421A500020F0BD80
:104A3000D0F8080504F02BBE01EBC10200EB8202A6
:104A4000D0F80805926C04F07EBD01EBC10200EBCA
:104A50008202D0F80805D2F8882204F0D0BDD0F840
:104A6000080504F016BE0A0601F00F0101EBC101B2
:104A700000EB810101D53C3101E001F51F710068B7
:104A800005F002BD01F00F020B0670B502EBC2018A
:104A900004464FF001004FF0000504EB810103D5FF
:104AA00081F83D003C3103E081F87D5201F51F7132
:104AB0000A7094F8BC24012A08D084F8BC04206849
:104AC00005F0FEF9002084F8BC5470BD022070BDD2
:104AD00070B54268044601F00F00904201D90120F0
:104AE00070BD01F00F024FF000050B0602EBC20192
:104AF0004FF0010204EB810103D581F83D203C31E8
:104B000003E081F87D5201F51F718D70087094F8F3
:104B1000BC04012808D084F8BC24206805F040FBC0
:104B2000002084F8BC5470BD022070BD01F00F015C
:104B300001EBC10100EB8100D0F8900270472DE934
:104B4000F04101F00F0604460D064FF0010006EBA0
:104B5000C6014FF0000504EB810103D581F83D004B
:104B60003C3103E081F87D5201F51F714F788A6076
:104B70000B710E7007B14E83022B00D14D7194F86A
:104B8000BC24012A09D084F8BC04206805F0E6F8AA
:104B9000284684F8BC54BDE8F0810220FBE770B5DC
:104BA00001F00F05002405EBC50100EB810101F5C3
:104BB000227181E81C0001F80B4C01F80C5DC36800
:104BC000012B00D1CA61027B006805F041FB002087
:104BD00070BD70B50D464168044605F00F0088426F
:104BE00001D9012070BD29064FF000064FF00102E7
:104BF00007D500EBC00104EB810181F83D203C3179
:104C000007E005EBC50104EB810181F87D6201F548
:104C10001F718A70087094F8BC04012807D084F8CA
:104C2000BC24206805F0E8FA280702D007E002203B
:104C300070BD217B04F2C442206805F085FA002093
:104C400084F8BC6470BD70B501F00F04002504EB5E
:104C5000C401012600EB8101483181E82C0001F8F4
:104C60000B6C01F80C4DC368012B00D1CA61027BAB
:104C7000006805F0EDFA002070BD00002DE9FC5F32
:104C800005680446284605F0A0FC00287ED120686F
:104C900005F0C7FC002879D0D5F80808C0F30D202E
:104CA000C4F8FC04206805F0BCFC800704D520682B
:104CB000416901F002014161206805F0B2FCC106C2
:104CC00004F2C440009034D52068816921F01001BD
:104CD00081612F6A07F00F01C7F3434001EBC10167
:104CE000022804EB810606F51F7602D0062811D0B3
:104CF0001AE047F6F070074216D0C7F30A12F168BF
:104D00001746284605F091FCF16870693944F16056
:104D1000384408E000990822284605F086FC7069AE
:104D2000C7F30A11084470612068816941F01001DD
:104D30008161206805F075FC00034FF0000A4FF018
:104D4000020B4FF001097CD52068002605F048FCD5
:104D5000074674E0F80770D02068F1B205F059FCFE
:104D60008046C00707D005EB4611C1F8089B3146C5
:104D7000204603F0DDF85FEA087025D505EB461103
:104D80000820C1F8080BFC49206800E042E2026CF0
:104D900000EB461001928A42D0F8081B05D909049D
:104DA00003D54FF40041C0F8081B204600F01AFB61
:104DB000F1490198884207D9E068012804D12068A8
:104DC0000121009A05F0C0F95FEAC86004D505EB3F
:104DD00046111020C1F8080B5FEA88701CD568697D
:104DE000000605D5D5F8040840F48061C5F804181C
:104DF00006EBC60004EB800090F87F1200F51F70F0
:104E0000012905D180F803A02046F1B200F008FA8C
:104E100005EB4611C1F808BB5FEA886004D505EBD5
:104E200046112020C1F8080B5FEA884005D505EB44
:104E300046114FF40050C1F8080B7F08761C002F74
:104E400088D1206805F0EDFB40036FD5206805F0A0
:104E5000C0FB0026074667E0F80763D02068F1B280
:104E600005F0C5FB8046C00723D0D5F8342806F0EE
:104E70000F0C05EB461309FA0CF08243C5F83428F1
:104E8000C3F80899E06801280FD106EBC60004EBCF
:104E90008000D0E911121144816436B9E06C20B968
:104EA00020680121009A05F04FF92046F1B2FFF782
:104EB000C3FD5FEA087004D505EB46110820C1F870
:104EC00008095FEAC86004D505EB46111020C1F857
:104ED00008095FEA486004D505EB46114020C1F897
:104EE00008095FEA887016D53146284605F040FB70
:104EF00006EBC60004EB800090F83F103C3001291F
:104F000005D180F803A02046F1B200F085F905EB49
:104F10004611C1F808B95FEA086003D5314620465A
:104F200003F06CF87F08761C002F95D1206805F0FF
:104F300078FB002811DAD5F8040820F00101C5F843
:104F4000041894F8F40401283BD0204600F02EFA0F
:104F50002068416901F000414161206805F061FB72
:104F600000050BD5D5F80808C00702D0204600F090
:104F700061FA2068416901F400614161206805F02F
:104F800050FB00010AD52068416901F000614161D0
:104F900094F8F404E0B1204600F04CFA206805F0E3
:104FA00040FBC00472D5D5F8040820F00101C5F813
:104FB00004182068102105F0DBFA00214FF67F323B
:104FC0002DE00021204684F8F4A4FFF709FDBFE797
:104FD00084F8F4942068406D0121C0F38300C4F884
:104FE000F8042046FFF7FCFCD8E700BF05EB4110B2
:104FF000C0F80829D0F8003923F40013C0F80039AC
:10500000C0F8082BD0F8003B23F40013C0F8003B95
:10501000D0F8003B43F00063C0F8003B491C6068D7
:105020008842E3D8D5F81C0840F00111C5F81C18D7
:10503000206B68B1D5F8840840F00B01C5F88418DE
:10504000D5F8440840F00B012846C5F844180DE097
:10505000D5F8140842F22B010843C5F81408D5F816
:10506000100840F00B012846C5F81018D0F80008C9
:1050700020F4FE61C5F80018217B2068009A05F035
:1050800063F82068416901F480514161206805F0AE
:10509000C8FA800417D5206804F0A0FE206805F047
:1050A00087FA206101F024FB217C2368CAB2014603
:1050B000184605F01BFB204600F062F920684169A4
:1050C00001F400514161206805F0ABFA000707D5F3
:1050D000204600F06FF92068416901F00801416144
:1050E000206805F09EFA000616D5A869012620F072
:1050F0008001A9610DE000BF06EBC60004EB800053
:1051000090F87F02012803D12046F1B2FFF7ABFCF3
:10511000761C6068B042EFD8206805F082FAC002C1
:1051200021D501264F4616E006EBC60105EB4610D9
:1051300004EB8101D0F8000991F84020012A09D13F
:10514000002807DAF0B281F83F7040F08001204675
:10515000FFF789FC761C6068B042E5D82068416999
:1051600001F480114161206805F05BFA800234D5BA
:1051700001204B4629E000000A30544F00EBC002EA
:1051800005EB401104EB8202D1F8001B92F880621B
:10519000012E19D1002917DA94F8FC6401F480314A
:1051A00006F00106B1420FD182F87F32A96941F0C1
:1051B0008002AA616969090606D4D5F8040840F49A
:1051C0000070C5F8040803E0401C61688142D5D82E
:1051D0002068416901F400114161206805F021FA5D
:1051E000400007D52046FFF723FC2068416901F005
:1051F00080414161206805F014FA40070AD5206813
:105200004568680702D52046FFF729FC20684168F9
:1052100029434160BDE8FC9FD0F8080504F092BA2C
:10522000D0F8080504F0A2BA2DE9F04104008AB0D4
:1052300005D094F8BD040025266820B108E00120BF
:105240000AB0BDE8F081204684F8BC5400F066F84E
:10525000032084F8BD04F06BC00500D4E56020682D
:1052600004F06CFF04F11001684628228846FBF721
:1052700030FA94E80F0004F0BFFD0227D8BB206885
:10528000002105F0F2F90020012610E000EBC0013A
:10529000421C04EB810181F83D6081F840504D646F
:1052A0008D64CD6481F83C00A1F85600D0B26168ED
:1052B0008142EBD8002011E000EBC001421C04EB5E
:1052C000810181F87D5281F88052C1F88452C1F881
:1052D0008852C1F88C5281F87C02D0B26168814258
:1052E000EAD8282241466846FBF7F3F994E80F0014
:1052F00004F068FE10B184F8BD74A0E7606A84F819
:10530000385084F8BD64012802D12046FFF754FBD1
:10531000206804F049FE002092E7000010B5B0B00C
:105320000446B8216846FBF706FA1349206888420C
:1053300020D100204FF480214FF440122192CDE97A
:105340000010684600F008FC08B1FCF73EFC00F0D5
:10535000B3F80A48016841F000710160006800225A
:10536000114600F000702E904D20FFF7F3FA4D200B
:10537000FFF7E2FA30B010BD00000440D8440258F4
:1053800070B504460069012570B1022801D0FCF710
:105390001CFCD4F80805294604F057FAD4F808058F
:1053A000BDE8704004F00BBA0025F2E7D0F808051C
:1053B00004F034BAD0F8080504F03ABA10B504463F
:1053C00090F8BC0401280BD0012084F8381084F830
:1053D000BC04206805F078F9002084F8BC0410BDF6
:1053E000022010BDD0F8082500F2C441104604F098
:1053F00038BA10B590F8BC1404460068012909D0E9
:10540000012184F8BC14C16BC90509D4A16A012922
:1054100002D005E0022010BD816B41F48031816330
:10542000206805F080F8206804F0B0FD002084F8C2
:10543000BC0410BD10B50446D0F8080504F053FABA
:105440002068D0F8001E41F00101C0F8001E206A5B
:10545000002804D00248016841F00601016010BD37
:1054600010ED00E0134970B50A68D243520705D524
:10547000096801F00701814213D118E00A6822F09F
:10548000070202430A60FFF79FF90A4D4FF47A764C
:105490000446083D07E000BFFFF796F9001BB04245
:1054A00001D9012070BD2868C0438004F4D40020D5
:1054B00070BD00000C4802580248016841F080713C
:1054C000016070470C48025810B501F011F9054908
:1054D0000968054AC1F30211515C01F01F01C8407F
:1054E00010BD00002044025824AE00084A4930B5DF
:1054F000494C0B1D0A680C3409681D68246802F0C9
:10550000030305F00102C1F30511C4F3CC04002923
:1055100014FB02F200EE102AF8EE400A76D0414A5F
:105520009FED3E1ADFED3E1AB7EE000A23B1012BC4
:105530005AD0022B18D15CE0374C283C23689B06DC
:1055400012D5394B246801EE901A1168C4F3C104D6
:10555000F8EE612AE34001EE903AC1F30801F8EE5B
:10556000611A81EEA22A07E002EE101A1168F8EE25
:10557000422A81EEA22A45E001EE901A1168F8EE67
:10558000611A40EE811A71EE800A62EE200AC1F3C0
:10559000462101EE101AB8EE411A31EE001AC0EEA3
:1055A000811ABCEEE11A80ED001A1168C1F30641C0
:1055B00001EE101AB8EE411A31EE001AC0EE811A4F
:1055C000BCEEE11A80ED011A1168C1F3066101EE2B
:1055D000101AB8EE411A31EE000A80EE801ABCEEC5
:1055E000C10A80ED020A30BD01EE901ADFED0F2AEC
:1055F00003E001EE901ADFED0E2A1168F8EE611A51
:1056000082EEA12AC1F30801B6E7FFE7002101609D
:105610004160816030BD000028440258000000391C
:105620000024744C304402580090D0030024744A83
:10563000001BB74B494930B5484C0B1D0A68143460
:1056400009681D68246802F00303C5F30012C1F362
:105650000531C4F3CC04002914FB02F200EE102A39
:10566000F8EE400A75D03F4A9FED3D1AB7EE000AAA
:105670006BB1DFED3D1A012B01D0022B64D002EE9D
:10568000101A1168F8EE422A81EEA22A21E0334C6A
:10569000283C23689B0612D5344B246801EE901AEF
:1056A0001168C4F3C104F8EE612AE34001EE903AB8
:1056B000C1F30801F8EE611A81EEA22A0BE001EEB7
:1056C000901ADFED2B2A00BFF8EE611A116882EE06
:1056D000A12AC1F3080101EE901A1168F8EE611ACF
:1056E00040EE811A71EE800A62EE200AC1F3462173
:1056F00001EE101AB8EE411A31EE001AC0EE811A0E
:10570000BCEEE11A80ED001A1168C1F3064101EE0A
:10571000101AB8EE411A31EE001AC0EE811ABCEE32
:10572000E11A80ED011A1168C1F3066101EE101A49
:10573000B8EE411A31EE000A80EE801ABCEEC10AC2
:1057400080ED020A30BD04E001EE901ADFED092A77
:10575000BAE70021016041608160F3E72844025804
:1057600000000039384402580024744A0090D003E5
:105770000024744C001BB74B494930B5484C0B1DF5
:105780000A681C3409681D68246802F00303C5F325
:105790000022C1F30551C4F3CC04002914FB02F22A
:1057A00000EE102AF8EE400A75D03F4A9FED3D1AF0
:1057B000B7EE000A6BB1DFED3D1A012B01D0022BD1
:1057C00064D002EE101A1168F8EE422A81EEA22A85
:1057D00021E0334C283C23689B0612D5344B2468C7
:1057E00001EE901A1168C4F3C104F8EE612AE34097
:1057F00001EE903AC1F30801F8EE611A81EEA22A97
:105800000BE001EE901ADFED2B2A00BFF8EE611AD3
:10581000116882EEA12AC1F3080101EE901A116805
:10582000F8EE611A40EE811A71EE800A62EE200AEB
:10583000C1F3462101EE101AB8EE411A31EE001AFA
:10584000C0EE811ABCEEE11A80ED001A1168C1F3B6
:10585000064101EE101AB8EE411A31EE001AC0EE00
:10586000811ABCEEE11A80ED011A1168C1F30661DC
:1058700001EE101AB8EE411A31EE000A80EE801ADD
:10588000BCEEC10A80ED020A30BD04E001EE901AC0
:10589000DFED092ABAE70021016041608160F3E78A
:1058A0002844025800000039404402580024744A39
:1058B0000090D0030024744C001BB74B2DE9F04F2F
:1058C000A14A0546DFF87CA280F48070DFF8809260
:1058D00089B013119F4C08439C48AAF104064FF06D
:1058E000805C4FF0005828D0DFF858B285F480670C
:1058F0000F430BF1080B4FD085F400670F4360D0C6
:1059000085F480570F4372D085F400570F434FF44E
:1059100080394FF4003E69D085F400270F4373D0DF
:1059200085F480370F4370D085F480460E436DD0E8
:1059300085F400420A436AD02AE0DAF8001001F048
:105940000701052924D2DFE801F0F9AA6A259F00A2
:1059500006A8FFF7CBFD079809B0BDE8F08F6846B1
:10596000FFF768FE0098F7E703A8FFF705FF039825
:10597000F2E72068C0F3C10022FA00F0ECE72268E9
:10598000D2056ED561456CD11846E5E74145E3D0B7
:105990000020E1E74846DFE7DBF8001001F4600192
:1059A000B1F5800F3BD005DC00294AD0B1F5001FCE
:1059B000EED174E0B1F5C00FECD0B1F5000FE7D136
:1059C00062E0DBF8001001F0E061B1F1007F26D069
:1059D00004DCB1B3B1F1807FDAD160E0B1F1407F96
:1059E000D8D0B1F1806FD3D14EE000E01BE0DAF8FF
:1059F000001001F4E041B1F5005F10D008DC01B304
:105A0000B1F5805FC4D14AE035E058E065E088E058
:105A1000B1F5405FBED0B1F5804FB9D134E0206818
:105A20008000B5D5A0E7DAF8001001F4E021B1F567
:105A3000403F6DD006DC61B149457BD07145A7D1AF
:105A400058E07BE0B1F5802F66D0B1F5A02F9FD153
:105A50000DE000F06FFE7FE76846FFF7EBFD019871
:105A60007AE728E003A8FFF787FE049874E7216827
:105A700089038AD48CE7DBF8001011F440310ED092
:105A8000494510D0714583D13168256801F04051F6
:105A90006D077FF574AF00297FF471AF69E7206867
:105AA0000001E7D55BE720688000E3D503A8FFF796
:105AB00063FE059850E722689203DBD566E73068FD
:105AC00010F480303AD04845D4D120680001D1D5B7
:105AD0006846FFF7AFFD02983EE7DBF8001001F0E3
