:020000040800F2
:10000000A0130024E102000821DE0008E1D300086B
:1000100019DE0008B90D000839450108000000008C
:1000200000000000000000000000000071E7000870
:10003000291400080000000039E2000809E800085F
:10004000FB020008FB020008FB020008FB0200089C
:10005000FB020008FB020008FB020008FB0200088C
:10006000FB020008FB020008FB020008A10E0008CA
:10007000B10E0008FB020008FB020008FB020008AA
:10008000FB020008FB020008FB0200084114000804
:10009000FB02000851140008FB020008FB020008E4
:1000A000FB020008FB020008FB020008FB0200083C
:1000B000FB02000821EA0008FB020008FB0200081E
:1000C000FB020008FB020008FB020008FB0200081C
:1000D000FB020008FB020008FB020008FB0200080C
:1000E000FB020008FB02000800000000FB02000801
:1000F000FB020008FB020008FB020008FB020008EC
:10010000FB020008FB020008FB020008FB020008DB
:10011000FB020008FB020008FB020008FB020008CB
:10012000FB020008FB020008FB020008FB020008BB
:10013000FB020008FB020008FB020008FB020008AB
:1001400000000000000000000000000000000000AF
:10015000FB020008FB020008FB020008FB0200088B
:10016000FB020008FB020008FB020008FB0200087B
:10017000FB02000899DE0008FB02000800000000F6
:10018000FB020008FB02000801ED0008FB0200086A
:10019000FB020008FB020008FB020008FB0200084B
:1001A000FB020008FB020008FB0200080000000040
:1001B000FB020008FB020008FB020008FB0200082B
:1001C000FB020008FB020008000000000000000025
:1001D0000000000000000000FB020008000000001A
:1001E000000000000000000000000000000000000F
:1001F0000000000000000000FB020008FB020008F5
:10020000FB020008FB02000800000000FB020008DF
:10021000FB020008FB020008FB020008FB020008CA
:10022000FB02000800000000FB02000800000000C4
:10023000FB020008FB02000800000000FB020008AF
:10024000FB020008FB020008FB020008FB0200089A
:10025000FB020008FB020008FB020008FB0200088A
:10026000FB020008FB020008FB020008FB0200087A
:10027000FB020008FB020008FB020008000000006F
:10028000FB020008FB020008FB020008FB0200085A
:1002900000000000FB020008FB0200080000000054
:1002A00000000000FB020008FB020008FB0200083F
:1002B000F1070108FB020008FB020008FB0200082E
:1002C000FB020008FB020008FB020008DFF80CD06C
:1002D00000F05AFB00480047994A0108A013002487
:1002E0000648804706480047FEE7FEE7FEE7FEE7D0
:1002F000FEE7FEE7FEE7FEE7FEE7FEE7E1E80008CF
:10030000CD0200082DE9F05F0546002092469B468D
:1003100088460646814640241BE02846414647461B
:10032000224600F06BF853465A46C01A914110D34A
:1003300011461846224600F052F82D1A67EB0108C4
:100340004F4622460120002100F049F817EB000932
:100350004E41201EA4F10104DFDC484631462A4606
:100360004346BDE8F09F0000004870471451010863
:1003700010B50446FFF7F8FF0068005D00F00100CB
:1003800010BD40EA01039B0703D009E008C9121F12
:1003900008C0042AFAD203E011F8013B00F8013B3F
:1003A000521EF9D27047D2B201E000F8012B491E6B
:1003B000FBD270470022F6E710B513460A46044602
:1003C0001946FFF7F0FF204610BDCAB2401E10F8D4
:1003D000011F8A4202D00029F9D100207047202A4B
:1003E00004DB203A00FA02F1002070479140C2F18C
:1003F000200320FA03F3194390407047202A04DBBE
:10040000203A21FA02F00021704721FA02F3D0408D
:10041000C2F1200291400843194670472DE9FF4F71
:10042000087883B09946FF2805D0491C2D2804D0B0
:100430000024002008E000200BE00124F9E700EB95
:10044000800003EB4000491C0B78FF2BF7D104B16F
:10045000404200230293147819461D462D2C01D0EA
:100460002B2C04D1521C2D2C13D000240294AA460C
:100470001478FF2C0FD00A25A3FB057801FB05811A
:100480004FF0000C03FB0C11521CE3194AEB010165
:10049000EEE70124EAE7814453EA010002D019F5AE
:1004A000C87F06DA03980021C0E9001107B0BDE853
:1004B000F08F0025AE4E2F46DFF8B882184600F0C8
:1004C0002CFBCDE90001B9F1000002DAC9F100040A
:1004D00000E004460023A74A1AEB030B42EB045A40
:1004E00012E0E00707D02A4633463846414600F07E
:1004F00069F9074688462A4633461046194600F0F1
:1005000061F905460E466410002CEAD1DDE90001D0
:10051000B9F1000F5A46534606DA00F0C5F93A46DB
:10052000434600F0C1F905E000F04CF93A46434675
:1005300000F048F9029A0AB181F00041039AC2E939
:100540000001B3E72DE9FF4F1F468DB0D7E9014603
:100550004FF0FF382E2045464FF000090B90B96947
:100560006D1C0E988847396A824688470028F6D164
:10057000BAF1FF3F0AD024F4D064002E11DDBAF1A5
:100580002B0F08D0BAF12D0F0BD102E0404611B06D
:100590008DE744F48064B9696D1C0E9888478246E3
:1005A000761E6946600501D52D2000E02B208DF8D0
:1005B000000001F1010B0DF1200809E0B9696D1C83
:1005C0000E98884782460F9844F40074761E0560A2
:1005D000002E02DDBAF1300FF0D00B998A453ED1E2
:1005E00044F0800406E00F99681CA9F1010944F465
:1005F00000740860B9696D1C761E0E9888478246A3
:100600003028F0D02BE00B998A4505D1200603D481
:1006100044F08004761E18E0504614F032FD08B312
:100620000DF11302761EAAF1300044F400749345D4
:1006300006D20BF8010B200607D5A9F1010003E053
:10064000200602D409F101008146A00502D50F99C8
:10065000681C0860B9696D1C0E9888478246002E98
:10066000D1DC53E0002E51DDBAF1650F02D0BAF1B2
:10067000450F4BD1A00549D5B9696D1C24F44074D0
:10068000761E0E9888478246002E0CDD2B2804D05B
:10069000BAF12D0F07D144F48074B9696D1C0E981E
:1006A00088478246761EE00501D52D2100E02B21EA
:1006B00008F8011BCDF82C8021E00DF12901761EF0
:1006C00044F4007488450CD2AAF1300010F0FF0009
:1006D00088F8000002D10B99884509D908F1010872
:1006E00006E0E00501D5244801E042F20F708146A2
:1006F000B9696D1C0E98884782460F980560002ED8
:1007000004DD504614F0BDFC0028D6D1F9690E98DE
:100710008847FF208BF8000088F800000020069032
:1007200007904B466A4608A906A8FFF777FEA00582
:1007300002D46FF001002AE714F0240F0AD0E0077A
:1007400014D1DDE906123868031D3B600068C0E97A
:1007500000120BE0DDE9060100F0EBF90146E007CD
:1007600004D13868021D3A600068016028460EE72F
:10077000000014400000F03FF1D8FFFF426842B192
:10078000016811F8013B23B1521EC0E9001218465E
:1007900070470121C160881E704742685AB1C36822
:1007A000016843B983688B4205D0491E521CC0E9D9
:1007B0000012002070474FF0FF30704700230360A5
:1007C00000F019B92DE9FE4F81EA030404F000445A
:1007D00021F0004100944FF0000B23F0004350EA59
:1007E00001045ED052EA03045BD0C3F30A54C1F3A0
:1007F0000A552C44A4F2F3340194A0FB0254C1F333
:10080000130141F48011C3F3130343F4801301FB7C
:10081000024400FB034E840A970A44EA815447EAE3
:100820008357A4FB076802958D0A05FB07854FEAED
:10083000932C04FB0C542705029D4FEA065847EA07
:100840001637B5EB08056EEB070C870E920E47EADC
:10085000811742EA8312A7FB0201B6EB0B0164EB9E
:1008600000042B0D43EA0C335E1844EB1C50DA46AF
:100870005146E7FB0201C5F313044FEA0B3343EA89
:1008800014534FEA0432019C43EA0603A4F10C041A
:100890000294009CCDE900B400F0F1F803B0BDE88B
:1008A000F08F00200146F9E72DE9F04D81EA0304BD
:1008B00004F0004B21F0004514464FF0000A23F0ED
:1008C000004150EA050220D054EA01021DD0C5F3D0
:1008D0000A570246C5F31303C1F31300C1F30A56C6
:1008E00040F4801543F48013A7EB0608101BD6468E
:1008F00008F2FD3873EB050002D308F1010801E0AE
:1009000092185B41B8F1000F03DA00200146BDE800
:10091000F08D00204FF48011064684460EE0171B30
:1009200073EB050705D3121B63EB050306434CEA83
:10093000010C49084FEA300092185B4150EA010768
:10094000EDD152EA030012D082EA040083EA0501E5
:10095000084305D0101BAB4106D20122002306E05C
:1009600000224FF0004302E06FF0010253101AEB37
:1009700006004CEB085110EB0A0041EB0B01BDE8FF
:10098000F04D00F06DB800001CB509480090094812
:1009900001900546009C06E0E06840F0010394E801
:1009A000070098471034AC42F6D3FFF793FC0000E1
:1009B0000C5201084C5201080FB40B0010B58AB05C
:1009C0000FA900910E994FF00004234ACC60214CEE
:1009D000CDE9064200D004236FF00042CDE9013298
:1009E0001E4A089202466B460020FFF7ABFD0AB094
:1009F00010BC5DF814FBF0B585B007464FF0FF3032
:100A00000091CDE901011E46002015460C460490D8
:100A10003B466A46314604A8FFF7CEFF04990346D9
:100A2000601825B109B1024600E022462A6000297B
:100A30000ED0002B02DD0099814209D00094001BEA
:100A4000CDE901043B466A46314604A8FFF7B4FFEE
:100A500005B0F0BD7D0700089B0700087103000882
:100A600010B5141E73F1000408DA401C41F10001B6
:100A700092185B411A4301D120F0010010BD2DE90D
:100A8000F04D92469B4611B1B1FA81F202E0B0FA04
:100A900080F220329046FFF7A2FC04460F4640EA5F
:100AA0000A0041EA0B0153465A46084313D0114647
:100AB00053EA010019D0C8F140025046FFF79EFCEE
:100AC00005460E46504659464246FFF788FC084305
:100AD00005D0012004E020463946BDE8F08D002015
:100AE000054346EAE0762C4337430A986305E40A57
:100AF000A0EB08000022FD0A44EA47540A3002D560
:100B000000200146E9E7010510196941DDE90845C2
:100B100000196941BDE8F04DA2E70EB540F233423D
:100B200002920022CDE900221346FFF7A8FF03B08E
:100B300000BD01F0004330B421F0004150EA010251
:100B400006D00A0DA2F56072C1F31301002A02DC7F
:100B500030BC00207047440F44EAC104C100E018D3
:100B600030BC00EBC250AFF300800029A8BF704733
:100B7000401C490008BF20F00100704710B4B0FAD3
:100B800080FC00FA0CF050EA010404BF10BC70476E
:100B900049B1CCF1200421FA04F411FA0CF118BF88
:100BA000012121430843A3EB0C01CB1D4FEA006157
:100BB0004FEA102042BF002010BC704700EBC3502A
:100BC00010440029A4BF10BC7047401C490008BF56
:100BD00020F0010010BC704780B584B003900398EA
:100BE000006842F20001C4F20201884209D0FFE726
:100BF0000398006842F20011C4F20201884209D150
:100C0000FFE742F20830C4F20200006810F4403FEF
:100C100009D129E046F20830C5F60200006810F458
:100C2000403F21D0FFE70AF0CBF8029003984068DC
:100C30000190B0F5803F0AD0FFE70198B0F5003F82
:100C400005D0FFE70198B0F5403F07D00AE00398D0
:100C5000C1880298B0FBF1F0029004E0029880088D
:100C6000029000E0FFE75FE04FF40020002108F071
:100C7000F7F80290039840680090B0F5802F32D0CA
:100C8000FFE70098B0F5002F2DD0FFE70098B0F5F2
:100C9000402F28D0FFE70098B0F5801F23D0FFE752
:100CA0000098B0F5A01F1ED0FFE70098B0F5C01F58
:100CB00019D0FFE70098B0F5E01F1FD0FFE70098BC
:100CC000B0F5001F1ED0FFE70098B0F5101F1DD033
:100CD000FFE70098B0F5201F1CD0FFE70098B0F5A3
:100CE000301F1BD01EE0039841686FF0010000EA3E
:100CF00051410298B0FBF1F0029014E00298000913
:100D0000029010E00298400902900CE002988009DD
:100D1000029008E00298C009029004E00298000ADC
:100D2000029000E0FFE7FFE7029840080290029877
:100D300045F61061C0F25F01884209D8FFE70398C9
:100D40000068806820F440700399096888602EE08C
:100D500002984BF62041C0F2BE0188420AD8FFE754
:100D6000039800688068012161F3092003990968EC
:100D700088601BE0029847F64001C0F27D1188426E
:100D80000AD8FFE7039800688068022161F3092010
:100D900003990968886008E003980068806840F457
:100DA0004070039909688860FFE7FFE7FFE704B038
:100DB00080BD000000000000FFE7FEE7000000002B
:100DC00084B08DF80F000291ADF806209DF80F0059
:100DD0000146009123281DD80099DFE801F0121385
:100DE0001415161B1B1B1B1B1B1B1B1B1B1B1B1B65
:100DF0001B1B1B1B1B1B1B1B1B1B1B1B1B1B17184A
:100E0000191A08E007E006E005E004E003E002E06C
:100E100001E000E0FFE7002004B0704700000000A0
:100E2000002070470000000080B582B040F6A0208E
:100E3000C2F20040009040F29021C2F20041002234
:100E4000019210F0F1F8009840F29921C2F20001ED
:100E500010F0CAF8019802B080BD00000000000048
:100E600080B584B003900291039940F6A020C2F2AD
:100E70000040019010F0B8F8019810F059F80020E7
:100E800004B080BD0000000083B0029001918DF895
:100E9000032000208DF802009DF9020003B0704786
:100EA00080B540F62030C2F2000002F005FF80BDA0
:100EB00080B540F67C50C2F2004002F0FDFE80BDDD
:100EC00083B002900298016801201022C4F202024D
:100ED0009142009000F0A380FFE702980168012092
:100EE0002822C4F202029142009000F09880FFE7AD
:100EF0000298016801204022C4F20202914200904F
:100F000000F08D80FFE70298016801205822C4F2AA
:100F100002029142009000F08280FFE7029801688F
:100F200001207022C4F202029142009077D0FFE7C4
:100F30000298016801208822C4F2020291420090C6
:100F40006DD0FFE7029801680120A022C4F20202DE
:100F50009142009063D0FFE7029801680120B82217
:100F6000C4F202029142009059D0FFE70298016852
:100F7000012040F21042C4F20202914200904ED091
:100F8000FFE702980168012040F22842C4F2020201
:100F90009142009043D0FFE702980168012040F29F
:100FA0004042C4F202029142009038D0FFE702981A
:100FB0000168012040F25842C4F2020291420090BE
:100FC0002DD0FFE702980168012040F27042C4F280
:100FD00002029142009022D0FFE7029801680120AE
:100FE00040F28842C4F202029142009017D0FFE71B
:100FF00002980168012040F2A042C4F2020291422C
:1010000000900CD0FFE7029800684FF64831CBF60D
:10101000FD710844B0FA80F040090090FFE70098A5
:10102000C00740B3FFE70298007810384AF6AB21BA
:10103000CAF6AA21A0FB011000090190019800F056
:10104000070145F28410C0F60100405C0299C865B2
:101050000198042807D3FFE702990868042262F385
:101060000900886506E00299086840F2FF32904363
:101070008865FFE705E00299086820F0FF008865B1
:10108000FFE70298806D03B0704700000000000089
:1010900084B00390039800680190039801680120D0
:1010A00045F20842C5F60202914200904ED0FFE799
:1010B00003980168012045F21C42C5F602029142E4
:1010C000009043D0FFE703980168012045F23042C9
:1010D000C5F602029142009038D0FFE703980168FC
:1010E000012045F24442C5F60202914200902DD003
:1010F000FFE703980168012045F25842C5F6020255
:101100009142009022D0FFE703980168012045F248
:101110006C42C5F602029142009017D0FFE7039897
:101120000168012045F28042C5F60202914200901A
:101130000CD0FFE7039800684AF66C31CAF2FD71E3
:101140000844B0FA80F040090090FFE70098C0071B
:1011500010B3FFE70398007808384CF6CD41CCF681
:10116000CC41A0FB011000090290029945F6000055
:10117000C5F6020000EB810003990866039945F665
:101180008000C5F602004866029800F01F010120A9
:1011900088400399886635E00398007810384AF64D
:1011A000AB21CAF6AA21A0FB011000090290019808
:1011B00040F2B841C4F2020188420CD8FFE701981E
:1011C00040F21041C4F20201884204D3FFE70298C2
:1011D00008300290FFE7029940F60000C4F20200D6
:1011E00000EB810003990866039940F68000C4F281
:1011F00002004866029800F01F0101208840039910
:101200008866FFE704B0704783B0029002980079C7
:1012100001900198002800F08A80FFE701980828D3
:1012200000F28580FFE702980168012045F208423C
:10123000C5F60202914200904ED0FFE70298016885
:10124000012045F21C42C5F602029142009043D0B3
:10125000FFE702980168012045F23042C5F602021C
:101260009142009038D0FFE702980168012045F2D2
:101270004442C5F60202914200902DD0FFE7029849
:101280000168012045F25842C5F6020291420090E1
:1012900022D0FFE702980168012045F26C42C5F6B2
:1012A00002029142009017D0FFE7029801680120E6
:1012B00045F28042C5F60202914200900CD0FFE751
:1012C000029800684AF66C31CAF2FD710844B0FA1F
:1012D00080F040090090FFE70098C00780B1FFE769
:1012E000019945F6FC00C5F6020000EB8100029969
:1012F000C866029945F64010C5F6020008670FE07F
:10130000019940F6FC00C4F2020000EB8100029952
:10131000C866029940F64010C4F202000867FFE771
:101320000198411E0120884002994867FFE703B0F9
:10133000704700000000000085B0049000208DF888
:101340000F000498806918BBFFE70498806A029038
:1013500003281BD80299DFE801F0020D0218049857
:1013600090F82F00C00720B1FFE701208DF80F0093
:10137000FFE70CE00498C06AB0F1C07F04D1FFE73A
:1013800001208DF80F00FFE701E000E0FFE747E0F4
:1013900004988069B0F5005F26D1FFE70498806A61
:1013A000019003281ED80199DFE801F0020602111E
:1013B00001208DF80F0016E0049890F82F00C00768
:1013C00020B1FFE701208DF80F00FFE70BE0049844
:1013D000C06AB0F1C07F04D1FFE701208DF80F0093
:1013E000FFE700E0FFE71AE00498806A0090032816
:1013F00004D3FFE70098032804D00EE001208DF805
:101400000F000BE0049890F82F00C00720B1FFE711
:1014100001208DF80F00FFE700E0FFE7FFE7FFE79F
:101420009DF80F0005B070477047000000000000F5
:1014300081B0EFF3108072B60090FFE7FEE7000086
:1014400080B540F69830C2F2000004F06DFD80BD1A
:1014500080B540F69830C2F2000004F065FD80BD12
:1014600084B002900298406B009002980068D0F817
:1014700084004FF6FC718843009940EA810002998C
:101480000968C1F8840002980068D0F8840020F44C
:101490007F00029A1168926B40EA0240C1F8840012
:1014A0000298816B00980844009002980068D0F878
:1014B00088006FF38F00009940EA81000299096863
:1014C000C1F8880002980068D0F8880020F4FE0077
:1014D000029A1168D26B40EA0240C1F88800029873
:1014E000C16B009800EB4100009002980068D0F8B2
:1014F000A0006FF38F00009940EA8100029909680B
:10150000C1F8A00002980068D0F8A00020F4FE0006
:10151000029A1168126C40EA0240C1F8A0000299D8
:10152000086C496C009A00FB01200090029800684A
:10153000D0F8B0006FF38F00009940EA8100029963
:101540000968C1F8B00002980068D0F8B00020F433
:10155000FE00029A1168926C40EA0240C1F8B000A5
:101560000299886CC96C009A00FB012000900298D7
:101570000068D0F8AC006FF38F00009940EA81005A
:1015800002990968C1F8AC000299086D496D009A8A
:1015900000FB0120009002980068D0F8F0006FF383
:1015A0008F00009940EA810002990968C1F8F000B3
:1015B00002980068D0F8F00020F47C10029A1168BC
:1015C000926D40EA0240C1F8F0000298816D0098E7
:1015D00000EB4100009002980068D0F8C0006FF363
:1015E0008F00009940EA810002990968C1F8C000A3
:1015F00002980068D0F8C00020F47C10029A1168AC
:10160000D26D40EA0240C1F8C00002980068D0F8EC
:10161000C00020F07C50029A1168126E40EA02600D
:10162000C1F8C00002994A6B4AF60040C4F20000BB
:1016300000EB8200C86602998A6BC86E00EB8200DC
:1016400008670299CA6B086F00EBC20048670299ED
:101650000A6C4B6C486F5A4300EB82008867029912
:101660008A6CCB6C886F5A4300EB8200C867029982
:101670000A6D4B6DC86F5A4300EB8200C1F88000C1
:1016800002998A6DD1F8800000EBC200C1F8840095
:101690000299CA6D8B6ED1F884005A4300EB820028
:1016A000C1F8880002990A6E8B6ED1F888005A43FF
:1016B00000EB8200C1F890000298D0F890004DF243
:1016C000FD31C4F2000188420FD3FFE70299D1F83F
:1016D0009C0040F02000C1F89C000299032081F892
:1016E000980001208DF80F0017E00298C06E01905D
:1016F000FFE701980299D1F89010884208D2FFE7DD
:10170000019900200860FFE7019804300190F0E79C
:10171000FFE700208DF80F00FFE79DF80F0004B0F1
:10172000704700000000000088B007900691059205
:1017300004930698406848B9FFE7069801688268F4
:101740000069104340EA8140039009E0069801686F
:10175000826800691043084340F080400390FFE72F
:101760000698D0F820C0C16842698369C06940EA20
:101770000C6018431043084302900798826ED0F81B
:1017800084000499514300EB810001900398019972
:10179000086001980430019002980199086001984E
:1017A0000430019000200090FFE700980699CA8954
:1017B00045F27411C0F60101895C88420DD2FFE741
:1017C00005980099405801990860019804300190EB
:1017D000FFE7009804300090E7E708B0704700008A
:1017E00080B584B04EF60000C1F6F1700068039039
:1017F0004EF60400C1F6F170006802904EF6080043
:10180000C1F6F170006801900199039808440390B3
:10181000039888B1FFE7039840F27401C2F20041D7
:101820000091023108220BF0DFFD0099029812317D
:1018300004220BF0D9FDFFE704B080BD00000000DA
:1018400080B5AAB02890279100208DF89B0027989A
:10185000006808B1FFE7FFE7FFE7289890F85C0011
:10186000012804D1FFE702208DF8A7002DE1289977
:10187000012081F85C00FFE7FFE700202190229023
:101880002898006842F20001C4F20201884206D1A1
:10189000FFE742F20010C4F20200099002E00020CB
:1018A0000990FFE7099878B9FFE72899086E40F09A
:1018B00020000866FFE72899002081F85C00FFE718
:1018C00001208DF8A70000E109980BF031FE089087
:1018D000289800680BF02CFE002840F0E280FFE71B
:1018E0000898002840F0DD80FFE728980168012073
:1018F00042F20002C4F20202914207900CD0FFE7CC
:10190000289800684DF60071CBF6FD710844B0FAD6
:1019100080F040090790FFE70798C10746F20030C2
:10192000C5F6020000291CBF42F20030C4F20200DA
:1019300025902798006800285ED0FFE725988068EA
:1019400020F44040279949680843259988602898E1
:101950000168012042F20002C4F2020291420690A4
:101960000CD0FFE7289800684DF60071CBF6FD71AA
:101970000844B0FA80F040090690FFE70698C107D6
:1019800046F20030C5F6020000291CBF42F20030CA
:10199000C4F2020042F20031C4F20201884212D1C4
:1019A000FFE742F20000C4F202000BF0A9FD049030
:1019B00042F20010C4F202000BF0A2FD01460498AE
:1019C0000843059007E046F20000C5F602000BF060
:1019D00097FD0590FFE7059868B9FFE725988068AF
:1019E00040F61F718843279A116892681143084393
:1019F00025998860FFE753E02599886820F44040E6
:101A0000886028980168012042F20002C4F20202B4
:101A1000914203900CD0FFE7289800684DF60071C2
:101A2000CBF6FD710844B0FA80F040090390FFE75F
:101A30000398C10746F20030C5F6020000291CBF1A
:101A400042F20030C4F2020042F20031C4F202015C
:101A5000884212D1FFE742F20000C4F202000BF00C
:101A60004FFD019042F20010C4F202000BF048FD5D
:101A7000014601980843029007E046F20000C5F6CF
:101A800002000BF03DFD0290FFE7029838B9FFE736
:101A90002599886840F61F7290438860FFE7FFE74A
:101AA00008E02899086E40F02000086601208DF8B3
:101AB0009B00FFE7FFE72899002081F85C00FFE723
:101AC0009DF89B008DF8A700FFE79DF8A7002AB0BE
:101AD00080BD00000000000080B5CCB02A902991A4
:101AE00000208DF8A30025902A9890F84400012842
:101AF00001D1FFE70BE02A98006846F20001C5F625
:101B00000201884201D1FFE700E0FFE7FFE72998E3
:101B1000C0680021C4F2FF71884201D0FFE71EE0D7
:101B20002A98006842F20001C4F20201884201D101
:101B3000FFE7FFE72A98006842F20011C4F20201B1
:101B4000884201D1FFE7FFE72A98006846F20001CA
:101B5000C5F60201884201D1FFE7FFE7FFE7FFE793
:101B60002A9890F85C00012805D1FFE702208DF843
:101B7000AF0000F076BD2A99012081F85C00FFE7F4
:101B8000FFE72A9800680BF0CBFC002840F0558551
:101B9000FFE72A98006846F20001C5F60201884274
:101BA0002DD0FFE729980068000330B9FFE7299896
:101BB0000068C0F38460229015E02998006890FACC
:101BC000A0F04A904A9820B9FFE720208DF82F0115
:101BD00005E04A98B0FA80F08DF82F01FFE79DF8F4
:101BE0002F012290FFE7229800F01F01012000FA48
:101BF00001F22A980168C8691043C861FFE72A9872
:101C0000006829990A6849680BF09AFC2A980068CC
:101C10000BF086FC24902A9800680BF059FC239066
:101C20002498002840F05A82FFE72398002840F0CB
:101C30005582FFE72A980068299A116892680BF08C
:101C40009FFC2A98006846F20001C5F6020188420E
:101C50000BD1FFE7299840692A990968C96801F002
:101C6000180189088840279038E041F20000C5F645
:101C70000040006800F07040B0F1805F0BD1FFE7DA
:101C8000299840692A990968C96801F01C01490826
:101C9000884021901FE02A980068C068C00600288C
:101CA0000BD4FFE7299840692A990968C96801F0AF
:101CB0001C014908884020900AE0299840692A9927
:101CC0000968C96801F01001490888402090FFE7C1
:101CD00020982190FFE721982790FFE72998006935
:101CE000042841D0FFE72A98006829990A68096901
:101CF000279B0BF0CDFC2A98006846F20001C5F640
:101D00000201884215D1FFE72A980068299A1169D3
:101D1000D2690BF00DFD2A980068299A116992F892
:101D20002020013AB2FA82F2520952060BF0E0FC8E
:101D300019E02A980068299A116992F82120013A3D
:101D4000B2FA82F25209D2070BF012FD2A9800680B
:101D5000299A1169127E013AB2FA82F25209D2022C
:101D60000BF082FCFFE7B8E12A98006846F2000118
:101D7000C5F60201884240F06681FFE72A980068B4
:101D800000210BF095FB000348B9FFE72A98006893
:101D900000210BF08DFBC0F384601F9018E02A989F
:101DA000006800210BF084FB90FAA0F0489048985E
:101DB00020B9FFE720208DF8270105E04898B0FA08
:101DC00080F08DF82701FFE79DF827011F90FFE7BE
:101DD0001F981E9029980068000330B9FFE72998E2
:101DE0000068C0F384601D9015E02998006890FA9F
:101DF000A0F04690469820B9FFE720208DF81F01FB
:101E000005E04698B0FA80F08DF81F01FFE79DF8D5
:101E10001F011D90FFE71E981D99884207D1FFE71B
:101E20002A980068002211460BF0C2FCFFE72A98AE
:101E3000006801210BF03CFB000348B9FFE72A983A
:101E4000006801210BF034FBC0F384601C9018E0A3
:101E50002A98006801210BF02BFB90FAA0F0449027
:101E6000449820B9FFE720208DF8170105E0449839
:101E7000B0FA80F08DF81701FFE79DF817011C906C
:101E8000FFE71C981B9029980068000330B9FFE712
:101E900029980068C0F384601A9015E029980068BA
:101EA00090FAA0F04290429820B9FFE720208DF8E8
:101EB0000F0105E04298B0FA80F08DF80F01FFE7BE
:101EC0009DF80F011A90FFE71B981A99884207D1D5
:101ED000FFE72A980068012100220BF069FCFFE768
:101EE0002A98006802210BF0E3FA000348B9FFE7E3
:101EF0002A98006802210BF0DBFAC0F38460199085
:101F000018E02A98006802210BF0D2FA90FAA0F0AB
:101F10004090409820B9FFE720208DF8070105E0A8
:101F20004098B0FA80F08DF80701FFE79DF80701AF
:101F30001990FFE71998189029980068000330B9A4
:101F4000FFE729980068C0F38460179015E029988E
:101F5000006890FAA0F03E903E9820B9FFE720205C
:101F60008DF8FF0005E03E98B0FA80F08DF8FF0094
:101F7000FFE79DF8FF001790FFE718981799884230
:101F800007D1FFE72A980068022100220BF010FC1D
:101F9000FFE72A98006803210BF08AFA000348B98A
:101FA000FFE72A98006803210BF082FAC0F38460EF
:101FB000169018E02A98006803210BF079FA90FA3D
:101FC000A0F03C903C9820B9FFE720208DF8F70066
:101FD00005E03C98B0FA80F08DF8F700FFE79DF837
:101FE000F7001690FFE716981590299800680003EF
:101FF00030B9FFE729980068C0F38460149015E0B9
:102000002998006890FAA0F03A903A9820B9FFE732
:1020100020208DF8EF0005E03A98B0FA80F08DF8B6
:10202000EF00FFE79DF8EF001490FFE71598149973
:10203000884207D1FFE72A980068032100220BF0AD
:10204000B7FBFFE748E02A980068006E00F0F84010
:1020500029990968B0EB816F07D1FFE72A980168D9
:10206000086E20F000400866FFE72A980068406E7E
:1020700000F0F84029990968B0EB816F07D1FFE7BC
:102080002A980168486E20F000404866FFE72A98C9
:102090000068806E00F0F84029990968B0EB816F04
:1020A00007D1FFE72A980168886E20F00040886613
:1020B000FFE72A980068C06E00F0F8402999096887
:1020C000B0EB816F07D1FFE72A980168C86E20F056
:1020D0000040C866FFE7FFE7FFE7FFE72A980068D0
:1020E0000BF006FA002840F0A782FFE72A98006864
:1020F000299A1168D2680BF05FFA2998C06800210C
:10210000C4F2FF71884240F03381FFE72A980068EB
:10211000139029980068000330B9FFE729980068F8
:10212000C0F38460129015E02998006890FAA0F03E
:102130003890389820B9FFE720208DF8E70005E0B7
:102140003898B0FA80F08DF8E700FFE79DF8E700D7
:102150001290FFE71298013000F01F0009287DD887
:10216000FFE729980068000330B9FFE72998006865
:10217000C0F38460119015E02998006890FAA0F0EF
:102180003690369820B9FFE720208DF8DF0005E073
:102190003698B0FA80F08DF8DF00FFE79DF8DF0099
:1021A0001190FFE71198013000F01F008006109099
:1021B00029980068000330B9FFE729980068C0F348
:1021C00084600F9015E02998006890FAA0F0349090
:1021D000349820B9FFE720208DF8D70005E0349827
:1021E000B0FA80F08DF8D700FFE79DF8D7000F9088
:1021F000FFE710980F99013101F01F020121914072
:1022000008430E9029980068000330B9FFE7299829
:102210000068C0F384600D9015E02998006890FA7A
:10222000A0F03290329820B9FFE720208DF8CF003F
:1022300005E03298B0FA80F08DF8CF00FFE79DF806
:10224000CF000D90FFE70E980D99013101F01F01AD
:1022500001EB410140EA01500C9082E029980068AE
:10226000000330B9FFE729980068C0F384600B9041
:1022700015E02998006890FAA0F03090309820B9C5
:10228000FFE720208DF8C70005E03098B0FA80F015
:102290008DF8C700FFE79DF8C7000B90FFE70B988C
:1022A000013000F01F0080060A90299800680003A2
:1022B00030B9FFE729980068C0F38460099015E001
:1022C0002998006890FAA0F02E902E9820B9FFE788
:1022D00020208DF8BF0005E02E98B0FA80F08DF830
:1022E000BF00FFE79DF8BF000990FFE70A98099932
:1022F000013101F01F020121914008430890299803
:102300000068000330B9FFE729980068C0F38460D3
:10231000079015E02998006890FAA0F02C902C986E
:1023200020B9FFE720208DF8B70005E02C98B0FA1F
:1023300080F08DF8B700FFE79DF8B7000790FFE742
:1023400008990798013000F01F0000EB40020020C0
:10235000CFF6206000EB0250084340F000700C9074
:10236000FFE713980C99299A92680BF009F9FFE797
:102370002998C0780006002840F15D81FFE72A987F
:102380000168012042F20002C4F20202914206906A
:102390000CD0FFE72A9800684DF60071CBF6FD716E
:1023A0000844B0FA80F040090690FFE70698C1079C
:1023B00046F20030C5F6020000291CBF42F2003090
:1023C000C4F202000BF06CF826902A9801684FF0D6
:1023D000010042F20002C4F20202914205900CD0C8
:1023E000FFE72A9800684DF60071CBF6FD710844AE
:1023F000B0FA80F040090590FFE70598C10746F262
:102400000030C5F6020000291CBF42F20030C4F2C1
:10241000020042F20031C4F20201884212D1FFE709
:1024200042F20000C4F202000BF062F8039042F2A4
:102430000010C4F202000BF05BF801460398084359
:10244000049007E046F20000C5F602000BF050F8D9
:102450000490FFE70498002840F0E380FFE7299804
:1024600000680021CCF25271884255D1FFE79DF8F7
:102470009A00000600284FD4FFE72A98006846F229
:102480000001C5F60201884245D1FFE72A9801689C
:10249000012042F20002C4F20202914202900CD0EA
:1024A000FFE72A9800684DF60071CBF6FD710844ED
:1024B000B0FA80F040090290FFE70298C10746F2A7
:1024C0000030C5F6020000291CBF42F20030C4F201
:1024D0000200269941F400010BF0B6F840F2240006
:1024E000C2F2000000684FEA901042F66351C0F259
:1024F0003E51A0FB01104FEA90114FF0020000EB9B
:1025000041002590FFE7259820B1FFE72598013885
:102510002590F8E7FFE783E0299800680021CCF2D6
:102520002131884238D1FFE79DF89B00C00798BB56
:10253000FFE72A98006846F20001C5F602018842CA
:1025400029D1FFE72A980168012042F20002C4F273
:102550000202914201900CD0FFE72A9800684DF6E4
:102560000071CBF6FD710844B0FA80F0400901908B
:10257000FFE70198C10746F20030C5F602000029C6
:102580001CBF42F20030C4F20200269941F0807173
:102590000BF05AF8FFE742E0299800680021CCF6DA
:1025A0008431884239D1FFE79DF89A00400600281F
:1025B00033D4FFE72A98006846F20001C5F602010D
:1025C000884229D1FFE72A980168012042F20002DF
:1025D000C4F20202914200900CD0FFE72A980068F2
:1025E0004DF60071CBF6FD710844B0FA80F0400959
:1025F0000090FFE70098C10746F20030C5F60200E0
:1026000000291CBF42F20030C4F20200269941F4B6
:1026100080010BF019F8FFE700E0FFE7FFE7FFE7B5
:1026200008E02A99086E40F02000086601208DF825
:10263000A300FFE7FFE7FFE708E02A99086E40F0F4
:102640002000086601208DF8A300FFE7FFE72A9924
:10265000002081F85C00FFE79DF8A3008DF8AF0033
:10266000FFE79DF8AF004CB080BD00000000000007
:1026700010B590B00E9000208DF837000A900E989B
:1026800020B9FFE701208DF83F006EE20E98006947
:1026900040B1FFE70E9890F82000012801D1FFE734
:1026A000FFE7FFE70E98006E50B9FFE70E9800F0C5
:1026B00063FA0E99002048660E9981F85C00FFE7E6
:1026C0000E9800680AF00CFF28B1FFE70E9800682A
:1026D0000AF0CAFEFFE70E9800680AF019FFE8B991
:1026E000FFE70E9800680AF0CBFE40F22400C2F229
:1026F00000000068800942F66351C0F23E51A0FB21
:102700000101012000EB91100A90FFE70A9820B127
:10271000FFE70A9801380A90F8E7FFE70E9800688B
:102720000AF0F6FE70B9FFE70E99086E40F010004F
:1027300008660E99486E40F00100486601208DF849
:102740003700FFE70E9800680AF0EAFE0B900E983B
:10275000006EC006002800F1FA81FFE70B98002800
:1027600040F0F581FFE70E98006E40F0020020F483
:1027700080700E9908660E9800680AF0B9FE00286D
:1027800070D1FFE70E980168012042F20002C4F206
:102790000202914207900CD0FFE70E9800684DF6B8
:1027A0000071CBF6FD710844B0FA80F04009079043
:1027B000FFE70798C10746F20030C5F6020000297E
:1027C0001CBF42F20030C4F2020042F20031C4F2F7
:1027D0000201884212D1FFE742F20000C4F2020077
:1027E0000AF086FE059042F20010C4F202000AF0E0
:1027F0007FFE014605980843069007E046F2000078
:10280000C5F602000AF074FE0690FFE7069840BB8A
:10281000FFE70E980168012042F20002C4F20202B2
:10282000914204900CD0FFE70E9800684DF60071BD
:10283000CBF6FD710844B0FA80F040090490FFE740
:102840000498C10746F20030C5F6020000291CBFFB
:1028500042F20030C4F202000E9949680AF0E4FE28
:10286000FFE7FFE70E98006846F20001C5F6020197
:1028700088423AD1FFE70E9A517ED06B40EA41314F
:102880009068D26811430391082803D1FFE7002024
:1028900002901DE00E9880680C2803D1FFE7042009
:1028A000019012E00E9880681C2803D1FFE70820F1
:1028B000009007E00E9881680020182908BF1C20AE
:1028C0000090FFE700980190FFE701980290FFE772
:1028D0000398029901F00C0140EA41000E9991F829
:1028E000201040EA01400C900CE00E994A7EC86B23
:1028F00040EA42308A68104391F8201040EA0140D3
:102900000C90FFE70E9890F8200001280BD1FFE70C
:102910000E98416A0020CFF6FE7000EB41410C9802
:1029200008430C90FFE70E98806A50B1FFE70E99BC
:10293000886AC96A00F4787001430C9808430C90C7
:10294000FFE70E98006846F20001C5F602018842D2
:1029500018D1FFE70E980068C06844F20701CFF66F
:10296000F07108400C9908430E990968C8600E98E8
:102970000068006920F040600E9A1168526B1043A5
:1029800008610DE00E980068C0684CF20301CFF6B4
:10299000F07108400C9908430E990968C860FFE778
:1029A0000E9800680AF0BCFD09900E9800680AF0C5
:1029B0008FFD08900998002840F0A880FFE708984C
:1029C000002840F0A380FFE70E98006846F200015F
:1029D000C5F60201884209D1FFE70E99087E91F8F9
:1029E0003810800340EA41000C9006E00E98017E0A
:1029F000006B40EA81300C90FFE70E980068C068D9
:102A000044F2030188430C9908430E990968C86091
:102A10000E9890F84400012859D1FFE70E980068FD
:102A200046F20001C5F60201884201D1FFE700E04D
:102A3000FFE70E98806A20B1FFE70E98C06A08B9D8
:102A4000FFE7FFE70E98006846F20001C5F60201B5
:102A500088421BD1FFE70E98006800694FF61E01FF
:102A6000CFF6004100EA01020E9B1968986CD3F87A
:102A70004CE0D3F850C040EA0E0040EA0C005B6D19
:102A80001843104340F0010008611FE00E980068F1
:102A900000694FF61E01CFF6004100EA01020E9BCD
:102AA00019689C6CD3F84CE0D3F850C00020CFF6E6
:102AB000FF7000EB044040EA0E0040EA0C005B6D42
:102AC0001843104340F001000861FFE706E00E984C
:102AD0000168086920F001000861FFE70E980068AE
:102AE000006920F070400E9A1168126C1043086162
:102AF0000E98006846F20001C5F60201884204D033
:102B0000FFE70E98FEF768F8FFE7FFE70E98006909
:102B100001280CD1FFE70E980068006B20F00F0031
:102B20000E9A1168D269013A1043086306E00E98C4
:102B30000168086B20F00F000863FFE70E98006E35
:102B400040F0010020F002000E99086608E00E999E
:102B5000086E40F01000086601208DF83700FFE78E
:102B60009DF837008DF83F00FFE79DF83F0010B05B
:102B700010BD00000000000080B5B8B03790002004
:102B80003690359034903390329004A8B821FDF7F8
:102B900011FC3798006842F20001C4F20201884239
:102BA00072D1FFE7002005904FF40021049102212B
:102BB000069110220792089109910A91C0210B9168
:102BC0000C900D902C9004A806F0B6FE18B1FFE70B
:102BD000FEF72EFCFFE7FFE744F2D840C5F60200FF
:102BE000016841F020010160006800F020000390BE
:102BF0000398FFE7FFE744F2E040C5F602000168F2
:102C000041F001010160006800F0010002900298AB
:102C1000FFE7202032900320339000200090349072
:102C20000020C5F6020032A903F05EFF009940F6CD
:102C30002030C2F2000001901022C4F202020260B1
:102C4000092242608160C1604FF4806202614FF4EA
:102C5000006242614FF4005282614FF48072C2619F
:102C60000162416202F008F918B1FFE7FEF7E0FBEC
:102C7000FFE7FFE7379840F62031C2F20001816597
:102C800037988863FFE7FFE738B080BD0000000099
:102C900080B58AB0089004F013F90490089828B918
:102CA000FFE701208DF8270000F0AABC089890F8F3
:102CB000350002280ED0FFE7089980204865FFE71D
:102CC0000899002081F83400FFE701208DF82700E3
:102CD00000F096BC0898016801201022C4F202029C
:102CE0009142039000F0A380FFE70898016801205B
:102CF0002822C4F202029142039000F09880FFE77C
:102D00000898016801204022C4F202029142039017
:102D100000F08D80FFE70898016801205822C4F276
:102D200002029142039000F08280FFE70898016858
:102D300001207022C4F202029142039077D0FFE793
:102D40000898016801208822C4F20202914203908F
:102D50006DD0FFE7089801680120A022C4F20202AA
:102D60009142039063D0FFE7089801680120B822E0
:102D7000C4F202029142039059D0FFE7089801681B
:102D8000012040F21042C4F20202914203904ED060
:102D9000FFE708980168012040F22842C4F20202CD
:102DA0009142039043D0FFE708980168012040F268
:102DB0004042C4F202029142039038D0FFE70898E3
:102DC0000168012040F25842C4F20202914203908D
:102DD0002DD0FFE708980168012040F27042C4F24C
:102DE00002029142039022D0FFE708980168012077
:102DF00040F28842C4F202029142039017D0FFE7EA
:102E000008980168012040F2A042C4F202029142F7
:102E100003900CD0FFE7089800684FF64831CBF6D6
:102E2000FD710844B0FA80F040090390FFE7039871
:102E3000C00780B1FFE708980168086820F01E000D
:102E4000086008980168486920F080004861089887
:102E50000068059009E008980168086820F00E00F5
:102E60000860089800680590FFE70898016801204D
:102E70001022C4F202029142029000F00381FFE7A7
:102E80000898016801202822C4F2020291420290AF
:102E900000F0F880FFE70898016801204022C4F2A2
:102EA00002029142029000F0ED80FFE7089801686D
:102EB00001205822C4F202029142029000F0E28006
:102EC000FFE70898016801207022C4F202029142D3
:102ED000029000F0D780FFE708980168012088225F
:102EE000C4F202029142029000F0CC80FFE7089801
:102EF00001680120A022C4F202029142029000F077
:102F0000C180FFE7089801680120B822C4F20202DC
:102F10009142029000F0B680FFE708980168012016
:102F200040F21042C4F202029142029000F0AA80E4
:102F3000FFE708980168012040F22842C4F202022B
:102F40009142029000F09E80FFE7089801680120FE
:102F500040F24042C4F202029142029000F092809C
:102F6000FFE708980168012040F25842C4F20202CB
:102F70009142029000F08680FFE7089801680120E6
:102F800040F27042C4F20202914202907AD0FFE70E
:102F900008980168012040F28842C4F2020291427E
:102FA00002906FD0FFE708980168012040F2A0422C
:102FB000C4F202029142029064D0FFE708980168CF
:102FC000012040F2B842C4F202029142029059D06C
:102FD000FFE708980168012045F20842C5F60202A1
:102FE000914202904ED0FFE708980168012045F217
:102FF0001C42C5F602029142029043D0FFE70898B6
:103000000168012045F23042C5F602029142029069
:1030100038D0FFE708980168012045F24442C5F620
:103020000202914202902DD0FFE70898016801202A
:1030300045F25842C5F602029142029022D0FFE7C3
:1030400008980168012045F26C42C5F602029142DF
:10305000029017D0FFE708980168012045F28042EE
:10306000C5F60202914202900CD0FFE70898006872
:103070004AF66C31CAF2FD710844B0FA80F040099A
:103080000290FFE70298C00738B1FFE70898016E89
:10309000086820F480700860FFE708980068102135
:1030A000C4F20201884200F08180FFE708980068BE
:1030B0002821C4F20201884278D0FFE7089800680E
:1030C0004021C4F20201884270D0FFE708980068EE
:1030D0005821C4F20201884268D0FFE708980068CE
:1030E0007021C4F20201884260D0FFE708980068AE
:1030F0008821C4F20201884258D0FFE7089800688E
:10310000A021C4F20201884250D0FFE7089800686D
:10311000B821C4F20201884248D0FFE7089800684D
:1031200040F21041C4F2020188423FD0FFE7089804
:10313000006840F22841C4F20201884236D0FFE71D
:103140000898006840F24041C4F2020188422DD044
:10315000FFE70898006840F25841C4F20201884233
:1031600024D0FFE70898006840F27041C4F20201E1
:1031700088421BD0FFE70898006840F28841C4F2FB
:103180000201884212D0FFE70898006840F2A0418F
:10319000C4F20201884209D0FFE70898006840F2B3
:1031A000B841C4F20201884207D1FFE708980168DC
:1031B000086820F00100086006E0089801680868C7
:1031C00020F001000860FFE7FFE705980068C007EE
:1031D000C8B1FFE703F074FE0499401A062811D322
:1031E000FFE70899202048650899032081F83500F9
:1031F000FFE70899002081F83400FFE701208DF8EF
:103200002700FDE1E1E70898016801201022C4F2DF
:1032100002029142019000F0A380FFE70898016844
:1032200001202822C4F202029142019000F098800D
:10323000FFE70898016801204022C4F2020291428F
:10324000019000F08D80FFE7089801680120582266
:10325000C4F202029142019000F08280FFE70898D8
:10326000016801207022C4F202029142019077D0DD
:10327000FFE70898016801208822C4F20202914207
:1032800001906DD0FFE7089801680120A022C4F2E8
:1032900002029142019063D0FFE708980168012083
:1032A000B822C4F202029142019059D0FFE7089877
:1032B0000168012040F21042C4F2020291420190E2
:1032C0004ED0FFE708980168012040F22842C4F27E
:1032D00002029142019043D0FFE708980168012063
:1032E00040F24042C4F202029142019038D0FFE71E
:1032F00008980168012040F25842C4F2020291424B
:1033000001902DD0FFE708980168012040F270423B
:10331000C4F202029142019022D0FFE708980168AE
:10332000012040F28842C4F202029142019017D07B
:10333000FFE708980168012040F2A042C4F20202AF
:10334000914201900CD0FFE7089800684FF6483191
:10335000CBF6FD710844B0FA80F040090190FFE718
:103360000198C00760B1FFE70898806D0790089842
:10337000C06D00F01F013F208840079988600BE076
:103380000898806D06900898C06D00F01F0101201C
:10339000884006994860FFE70898016801201022DC
:1033A000C4F202029142009000F00381FFE7089806
:1033B000016801202822C4F202029142009000F02C
:1033C000F880FFE70898016801204022C4F2020259
:1033D0009142009000F0ED80FFE70898016801201D
:1033E0005822C4F202029142009000F0E280FFE70E
:1033F0000898016801207022C4F2020291420090F4
:1034000000F0D780FFE70898016801208822C4F205
:1034100002029142009000F0CC80FFE7089801681A
:103420000120A022C4F202029142009000F0C1806B
:10343000FFE7089801680120B822C4F20202914215
:10344000009000F0B680FFE708980168012040F284
:103450001042C4F202029142009000F0AA80FFE7FD
:1034600008980168012040F22842C4F20202914209
:10347000009000F09E80FFE708980168012040F26C
:103480004042C4F202029142009000F09280FFE7B5
:1034900008980168012040F25842C4F202029142A9
:1034A000009000F08680FFE708980168012040F254
:1034B0007042C4F20202914200907AD0FFE708986D
:1034C0000168012040F28842C4F202029142009059
:1034D0006FD0FFE708980168012040F2A042C4F2D3
:1034E00002029142009064D0FFE708980168012031
:1034F00040F2B842C4F202029142009059D0FFE774
:1035000008980168012045F20842C5F6020291427E
:1035100000904ED0FFE708980168012045F21C4258
:10352000C5F602029142009043D0FFE70898016877
:10353000012045F23042C5F602029142009038D097
:10354000FFE708980168012045F24442C5F60202EF
:10355000914200902DD0FFE708980168012045F2C4
:103560005842C5F602029142009022D0FFE7089827
:103570000168012045F26C42C5F6020291420090BA
:1035800017D0FFE708980168012045F28042C5F690
:103590000202914200900CD0FFE7089800684AF6BA
:1035A0006C31CAF2FD710844B0FA80F04009009015
:1035B000FFE70098C007A0B1FFE70898416E806E52
:1035C00048600898C06E58B1FFE70898C16E086857
:1035D00020F4807008600898016F406F4860FFE732
:1035E000FFE70899012081F83500FFE708990020DE
:1035F00081F83400FFE7FFE700208DF82700FFE7A0
:103600009DF827000AB080BD80B586B0049004986C
:1036100020B9FFE701208DF8170046E3049890F8E1
:103620003500022807D0FFE7049980204865012073
:103630008DF8170039E30498016801201022C4F2C4
:1036400002029142029000F0A380FFE70498016813
:1036500001202822C4F202029142029000F09880D8
:10366000FFE70498016801204022C4F2020291425F
:10367000029000F08D80FFE7049801680120582235
:10368000C4F202029142029000F08280FFE70498A7
:10369000016801207022C4F202029142029077D0A8
:1036A000FFE70498016801208822C4F202029142D7
:1036B00002906DD0FFE7049801680120A022C4F2B7
:1036C00002029142029063D0FFE704980168012052
:1036D000B822C4F202029142029059D0FFE7049846
:1036E0000168012040F21042C4F2020291420290AD
:1036F0004ED0FFE704980168012040F22842C4F24E
:1037000002029142029043D0FFE704980168012031
:1037100040F24042C4F202029142029038D0FFE7E8
:1037200004980168012040F25842C4F2020291421A
:1037300002902DD0FFE704980168012040F270420A
:10374000C4F202029142029022D0FFE7049801687D
:10375000012040F28842C4F202029142029017D046
:10376000FFE704980168012040F2A042C4F202027F
:10377000914202900CD0FFE7049800684FF6483160
:10378000CBF6FD710844B0FA80F040090290FFE7E3
:103790000298C007002800F09D80FFE704990420EC
:1037A00081F83500049800681021C4F202018842B3
:1037B00000F08180FFE7049800682821C4F202012C
:1037C000884278D0FFE7049800684021C4F20201E3
:1037D000884270D0FFE7049800685821C4F20201C3
:1037E000884268D0FFE7049800687021C4F20201A3
:1037F000884260D0FFE7049800688821C4F2020183
:10380000884258D0FFE704980068A021C4F2020162
:10381000884250D0FFE704980068B821C4F2020142
:10382000884248D0FFE70498006840F21041C4F293
:10383000020188423FD0FFE70498006840F2284127
:10384000C4F20201884236D0FFE70498006840F2D3
:103850004041C4F2020188422DD0FFE7049800687D
:1038600040F25841C4F20201884224D0FFE7049894
:10387000006840F27041C4F2020188421BD0FFE7A9
:103880000498006840F28841C4F20201884212D0D4
:10389000FFE70498006840F2A041C4F202018842A8
:1038A00009D0FFE70498006840F2B841C4F2020171
:1038B000884207D1FFE704980168086820F00100FA
:1038C000086006E004980168086820F001000860BC
:1038D000FFE7E5E104980168086820F00E00086041
:1038E000049800681021C4F20201884200F081802F
:1038F000FFE7049800682821C4F20201884278D0CA
:10390000FFE7049800684021C4F20201884270D0A9
:10391000FFE7049800685821C4F20201884268D089
:10392000FFE7049800687021C4F20201884260D069
:10393000FFE7049800688821C4F20201884258D049
:10394000FFE704980068A021C4F20201884250D029
:10395000FFE704980068B821C4F20201884248D009
:10396000FFE70498006840F21041C4F20201884267
:103970003FD0FFE70498006840F22841C4F20201FA
:10398000884236D0FFE70498006840F24041C4F214
:10399000020188422DD0FFE70498006840F25841A8
:1039A000C4F20201884224D0FFE70498006840F284
:1039B0007041C4F2020188421BD0FFE704980068FE
:1039C00040F28841C4F20201884212D0FFE7049815
:1039D000006840F2A041C4F20201884209D0FFE72A
:1039E0000498006840F2B841C4F20201884207D14D
:1039F000FFE704980168086820F00100086006E00D
:103A000004980168086820F001000860FFE7049846
:103A1000016801201022C4F202029142019000F0DC
:103A20000381FFE70498016801202822C4F2020202
:103A30009142019000F0F880FFE7049801680120AE
:103A40004022C4F202029142019000F0ED80FFE7B3
:103A50000498016801205822C4F2020291420190A8
:103A600000F0E280FFE70498016801207022C4F2B0
:103A700002029142019000F0D780FFE704980168AC
:103A800001208822C4F202029142019000F0CC8011
:103A9000FFE7049801680120A022C4F202029142CB
:103AA000019000F0C180FFE7049801680120B8226E
:103AB000C4F202029142019000F0B680FFE7049840
:103AC0000168012040F21042C4F2020291420190CA
:103AD00000F0AA80FFE704980168012040F2284224
:103AE000C4F202029142019000F09E80FFE7049828
:103AF0000168012040F24042C4F20202914201906A
:103B000000F09280FFE704980168012040F25842DB
:103B1000C4F202029142019000F08680FFE704980F
:103B20000168012040F27042C4F202029142019009
:103B30007AD0FFE704980168012040F28842C4F27D
:103B40000202914201906FD0FFE7049801680120C2
:103B500040F2A042C4F202029142019064D0FFE719
:103B600004980168012040F2B842C4F20202914276
:103B7000019059D0FFE704980168012045F20842FE
:103B8000C5F60202914201904ED0FFE70498016809
:103B9000012045F21C42C5F602029142019043D039
:103BA000FFE704980168012045F23042C5F60202A1
:103BB0009142019038D0FFE704980168012045F256
:103BC0004442C5F60202914201902DD0FFE70498CD
:103BD0000168012045F25842C5F602029142019067
:103BE00022D0FFE704980168012045F26C42C5F637
:103BF00002029142019017D0FFE70498016801206A
:103C000045F28042C5F60202914201900CD0FFE7D6
:103C1000049800684AF66C31CAF2FD710844B0FAA3
:103C200080F040090190FFE70198C00728B3FFE743
:103C30000498016E086820F4807008600498806D14
:103C400003900498C06D00F01F0101208840039983
:103C500048600498416E806E48600498C06E58B108
:103C6000FFE70498C16E086820F48070086004982B
:103C7000016F406F4860FFE7FFE70499012081F87A
:103C80003500FFE70499002081F83400FFE704982D
:103C9000006D20B1FFE70498016D8847FFE7FFE75B
:103CA000FFE700208DF81700FFE79DF8170006B02A
:103CB00080BD00000000000080B590B00F90002093
:103CC0000B9040F22400C2F20000006848F2B511E7
:103CD000C1F64E31A0FB0110800A0A900F98806D4A
:103CE00009900F98806D0890099800680E900898C8
:103CF00000680D900F98016801201022C4F20202A2
:103D00009142079000F0A380FFE70F98016801201F
:103D10002822C4F202029142079000F09880FFE747
:103D20000F98016801204022C4F2020291420790DC
:103D300000F08D80FFE70F98016801205822C4F23F
:103D400002029142079000F08280FFE70F9801681D
:103D500001207022C4F202029142079077D0FFE75F
:103D60000F98016801208822C4F202029142079054
:103D70006DD0FFE70F9801680120A022C4F2020273
:103D80009142079063D0FFE70F9801680120B822A5
:103D9000C4F202029142079059D0FFE70F980168E0
:103DA000012040F21042C4F20202914207904ED02C
:103DB000FFE70F980168012040F22842C4F2020296
:103DC0009142079043D0FFE70F980168012040F22D
:103DD0004042C4F202029142079038D0FFE70F98A8
:103DE0000168012040F25842C4F202029142079059
:103DF0002DD0FFE70F980168012040F27042C4F215
:103E000002029142079022D0FFE70F98016801203B
:103E100040F28842C4F202029142079017D0FFE7B5
:103E20000F980168012040F2A042C4F202029142C0
:103E300007900CD0FFE70F9800684FF64831CBF69B
:103E4000FD710844B0FA80F040090790FFE7079839
:103E5000C007002800F01385FFE70E980F99C96D81
:103E600001F01F01C8400007002840F1B080FFE7C3
:103E70000F9800681021C4F20201884200F081808E
:103E8000FFE70F9800682821C4F20201884278D029
:103E9000FFE70F9800684021C4F20201884270D009
:103EA000FFE70F9800685821C4F20201884268D0E9
:103EB000FFE70F9800687021C4F20201884260D0C9
:103EC000FFE70F9800688821C4F20201884258D0A9
:103ED000FFE70F980068A021C4F20201884250D089
:103EE000FFE70F980068B821C4F20201884248D069
:103EF000FFE70F98006840F21041C4F202018842C7
:103F00003FD0FFE70F98006840F22841C4F2020159
:103F1000884236D0FFE70F98006840F24041C4F273
:103F2000020188422DD0FFE70F98006840F2584107
:103F3000C4F20201884224D0FFE70F98006840F2E3
:103F40007041C4F2020188421BD0FFE70F9800685D
:103F500040F28841C4F20201884212D0FFE70F9874
:103F6000006840F2A041C4F20201884209D0FFE794
:103F70000F98006840F2B841C4F20201884207D1AC
:103F8000FFE70F980068006800F00400069006E064
:103F90000F980068006800F008000690FFE7069898
:103FA000A0B1FFE70F980168086820F004000860DE
:103FB0000F98C06D00F01F010820884009998860A3
:103FC0000F99486D40F001004865FFE7FFE70E9844
:103FD0000F99C96D01F01F01C840C007002800F00B
:103FE000A980FFE70F9800681021C4F202018842FF
:103FF00000F08180FFE70F9800682821C4F20201D9
:10400000884278D0FFE70F9800684021C4F202018F
:10401000884270D0FFE70F9800685821C4F202016F
:10402000884268D0FFE70F9800687021C4F202014F
:10403000884260D0FFE70F9800688821C4F202012F
:10404000884258D0FFE70F980068A021C4F202010F
:10405000884250D0FFE70F980068B821C4F20201EF
:10406000884248D0FFE70F98006840F21041C4F240
:10407000020188423FD0FFE70F98006840F22841D4
:10408000C4F20201884236D0FFE70F98006840F280
:104090004041C4F2020188422DD0FFE70F9800682A
:1040A00040F25841C4F20201884224D0FFE70F9841
:1040B000006840F27041C4F2020188421BD0FFE761
:1040C0000F98006840F28841C4F20201884212D081
:1040D000FFE70F98006840F2A041C4F20201884255
:1040E00009D0FFE70F98006840F2B841C4F202011E
:1040F000884207D1FFE70F980068406900F0800010
:10410000059005E00F980068006800200590FFE723
:10411000059870B1FFE70F98C06D00F01F010120F6
:104120008840099988600F99486D40F00200486501
:10413000FFE7FFE70E980F99C96D01F01F01C84016
:104140004007002840F1A980FFE70F980068102180
:10415000C4F20201884200F08180FFE70F980068F6
:104160002821C4F20201884278D0FFE70F98006846
:104170004021C4F20201884270D0FFE70F98006826
:104180005821C4F20201884268D0FFE70F98006806
:104190007021C4F20201884260D0FFE70F980068E6
:1041A0008821C4F20201884258D0FFE70F980068C6
:1041B000A021C4F20201884250D0FFE70F980068A6
:1041C000B821C4F20201884248D0FFE70F98006886
:1041D00040F21041C4F2020188423FD0FFE70F983D
:1041E000006840F22841C4F20201884236D0FFE75D
:1041F0000F98006840F24041C4F2020188422DD07D
:10420000FFE70F98006840F25841C4F2020188426B
:1042100024D0FFE70F98006840F27041C4F2020119
:1042200088421BD0FFE70F98006840F28841C4F233
:104230000201884212D0FFE70F98006840F2A041C7
:10424000C4F20201884209D0FFE70F98006840F2EB
:10425000B841C4F20201884207D1FFE70F98006815
:10426000006800F00200049005E00F980068006804
:1042700000200490FFE7049870B1FFE70F98C06D2D
:1042800000F01F0104208840099988600F99486D4B
:1042900040F004004865FFE7FFE70E980F99C96DED
:1042A00001F01F01C840C006002840F1DE80FFE792
:1042B0000F9800681021C4F20201884200F081804A
:1042C000FFE70F9800682821C4F20201884278D0E5
:1042D000FFE70F9800684021C4F20201884270D0C5
:1042E000FFE70F9800685821C4F20201884268D0A5
:1042F000FFE70F9800687021C4F20201884260D085
:10430000FFE70F9800688821C4F20201884258D064
:10431000FFE70F980068A021C4F20201884250D044
:10432000FFE70F980068B821C4F20201884248D024
:10433000FFE70F98006840F21041C4F20201884282
:104340003FD0FFE70F98006840F22841C4F2020115
:10435000884236D0FFE70F98006840F24041C4F22F
:10436000020188422DD0FFE70F98006840F25841C3
:10437000C4F20201884224D0FFE70F98006840F29F
:104380007041C4F2020188421BD0FFE70F98006819
:1043900040F28841C4F20201884212D0FFE70F9830
:1043A000006840F2A041C4F20201884209D0FFE750
:1043B0000F98006840F2B841C4F20201884207D168
:1043C000FFE70F980068006800F00800039006E01F
:1043D0000F980068006800F004000390FFE703985E
:1043E000002841D0FFE70F98C06D00F01F0110209A
:1043F0008840099988600F98006800684003002889
:104400001AD5FFE70F98006800680003002809D458
:10441000FFE70F98006C20B1FFE70F98016C884709
:10442000FFE708E00F98806C20B1FFE70F98816CE0
:104430008847FFE7FFE716E00F9800680068C005AF
:10444000002807D4FFE70F980168086820F00800EB
:104450000860FFE70F98006C20B1FFE70F98016C30
:104460008847FFE7FFE7FFE7FFE70E980F99C96D61
:1044700001F01F01C8408006002840F12681FFE7B7
:104480000F9800681021C4F20201884200F0818078
:10449000FFE70F9800682821C4F20201884278D013
:1044A000FFE70F9800684021C4F20201884270D0F3
:1044B000FFE70F9800685821C4F20201884268D0D3
:1044C000FFE70F9800687021C4F20201884260D0B3
:1044D000FFE70F9800688821C4F20201884258D093
:1044E000FFE70F980068A021C4F20201884250D073
:1044F000FFE70F980068B821C4F20201884248D053
:10450000FFE70F98006840F21041C4F202018842B0
:104510003FD0FFE70F98006840F22841C4F2020143
:10452000884236D0FFE70F98006840F24041C4F25D
:10453000020188422DD0FFE70F98006840F25841F1
:10454000C4F20201884224D0FFE70F98006840F2CD
:104550007041C4F2020188421BD0FFE70F98006847
:1045600040F28841C4F20201884212D0FFE70F985E
:10457000006840F2A041C4F20201884209D0FFE77E
:104580000F98006840F2B841C4F20201884207D196
:10459000FFE70F980068006800F01000029006E046
:1045A0000F980068006800F002000290FFE7029890
:1045B000002800F08980FFE70F98C06D00F01F0110
:1045C00020208840099988600F9890F835000428C9
:1045D00037D1FFE70F980168086820F016000860DF
:1045E0000F980168486920F0800048610F98006CBE
:1045F00020B9FFE70F98806C38B1FFE70F9801688A
:10460000086820F008000860FFE70F98C06D00F010
:104610001F013F208840099988600F99012081F887
:104620003500FFE70F99002081F83400FFE70F986D
:10463000006D20B1FFE70F98016D8847FFE700F09C
:1046400019BC0F9800680068400300281AD5FFE7DE
:104650000F98006800680003002809D4FFE70F984E
:10466000406C20B1FFE70F98416C8847FFE708E0F6
:104670000F98C06B20B1FFE70F98C16B8847FFE729
:10468000FFE720E00F9800680068C005002811D4FB
:10469000FFE70F980168086820F0100008600F9984
:1046A000012081F83500FFE70F99002081F83400E0
:1046B000FFE7FFE70F98C06B20B1FFE70F98C16BD2
:1046C0008847FFE7FFE7FFE7FFE70F98406D002807
:1046D00000F0D480FFE70F98406DC007002800F07D
:1046E000C480FFE70F99042081F835000F98006817
:1046F0001021C4F20201884200F08180FFE70F9888
:1047000000682821C4F20201884278D0FFE70F98A0
:1047100000684021C4F20201884270D0FFE70F9880
:1047200000685821C4F20201884268D0FFE70F9860
:1047300000687021C4F20201884260D0FFE70F9840
:1047400000688821C4F20201884258D0FFE70F9820
:104750000068A021C4F20201884250D0FFE70F9800
:104760000068B821C4F20201884248D0FFE70F98E0
:10477000006840F21041C4F2020188423FD0FFE7D6
:104780000F98006840F22841C4F20201884236D0F6
:10479000FFE70F98006840F24041C4F202018842EE
:1047A0002DD0FFE70F98006840F25841C4F2020193
:1047B000884224D0FFE70F98006840F27041C4F2AD
:1047C000020188421BD0FFE70F98006840F2884141
:1047D000C4F20201884212D0FFE70F98006840F24D
:1047E000A041C4F20201884209D0FFE70F98006897
:1047F00040F2B841C4F20201884207D1FFE70F98A6
:104800000168086820F00100086006E00F98016860
:10481000086820F001000860FFE7FFE70B9801300F
:104820000B900A99884201D9FFE707E0FFE70F984C
:1048300000680068C0070028F0D1FFE70F98006803
:104840000068C00728B1FFE70F99032081F8350001
:1048500004E00F99012081F83500FFE7FFE70F9989
:10486000002081F83400FFE7FFE70F98C06C20B10B
:10487000FFE70F98C16C8847FFE7FFE7FAE20F9860
:104880000168012045F20842C5F6020291420190FA
:104890004ED0FFE70F980168012045F21C42C5F693
:1048A00002029142019043D0FFE70F980168012076
:1048B00045F23042C5F602029142019038D0FFE73E
:1048C0000F980168012045F24442C5F60202914268
:1048D00001902DD0FFE70F980168012045F2584262
:1048E000C5F602029142019022D0FFE70F980168BD
:1048F000012045F26C42C5F602029142019017D0A8
:10490000FFE70F980168012045F28042C5F60202D8
:10491000914201900CD0FFE70F9800684AF66C3185
:10492000CAF2FD710844B0FA80F040090190FFE737
:104930000198C007002800F09B82FFE70F980068ED
:1049400000680C900D980F99C96D01F01F01C840C7
:104950004007002840F1D780FFE79DF8300040076E
:10496000002840F1D080FFE70F98C06D00F01F01D4
:1049700004208840089948609DF83100000600280E
:1049800018D5FFE79DF83200C00748B9FFE70F9838
:10499000806C20B1FFE70F98816C8847FFE708E043
:1049A0000F98006C20B1FFE70F98016C8847FFE774
:1049B000FFE7A7E09DF830008006002800F199800D
:1049C000FFE70F9800681021C4F20201884200F04E
:1049D0008180FFE70F9800682821C4F20201884215
:1049E00078D0FFE70F9800684021C4F202018842A6
:1049F00070D0FFE70F9800685821C4F20201884286
:104A000068D0FFE70F9800687021C4F20201884265
:104A100060D0FFE70F9800688821C4F20201884245
:104A200058D0FFE70F980068A021C4F20201884225
:104A300050D0FFE70F980068B821C4F20201884205
:104A400048D0FFE70F98006840F21041C4F202011D
:104A500088423FD0FFE70F98006840F22841C4F237
:104A60000201884236D0FFE70F98006840F24041CB
:104A7000C4F2020188422DD0FFE70F98006840F28F
:104A80005841C4F20201884224D0FFE70F98006821
:104A900040F27041C4F2020188421BD0FFE70F9838
:104AA000006840F28841C4F20201884212D0FFE758
:104AB0000F98006840F2A041C4F20201884209D078
:104AC000FFE70F98006840F2B841C4F20201884243
:104AD00007D1FFE70F980168086820F00800086018
:104AE00006E00F980168086820F004000860FFE7FE
:104AF000FFE70F98006C20B1FFE70F98016C884723
:104B0000FFE7FFE7B3E10D980F99C96D01F01F01B1
:104B1000C8408007002840F1E180FFE79DF83000A1
:104B20008007002840F1DA80FFE70F98C06D00F0A1
:104B30001F0102208840089948609DF83100000656
:104B4000002818D5FFE79DF83200C00748B9FFE7F5
:104B50000F98406C20B1FFE70F98416C8847FFE742
:104B600008E00F98C06B20B1FFE70F98C16B884732
:104B7000FFE7FFE7B1E09DF830008006002800F174
:104B8000A380FFE70F9800681021C4F20201884259
:104B900000F08180FFE70F9800682821C4F202012D
:104BA000884278D0FFE70F9800684021C4F20201E4
:104BB000884270D0FFE70F9800685821C4F20201C4
:104BC000884268D0FFE70F9800687021C4F20201A4
:104BD000884260D0FFE70F9800688821C4F2020184
:104BE000884258D0FFE70F980068A021C4F2020164
:104BF000884250D0FFE70F980068B821C4F2020144
:104C0000884248D0FFE70F98006840F21041C4F294
:104C1000020188423FD0FFE70F98006840F2284128
:104C2000C4F20201884236D0FFE70F98006840F2D4
:104C30004041C4F2020188422DD0FFE70F9800687E
:104C400040F25841C4F20201884224D0FFE70F9895
:104C5000006840F27041C4F2020188421BD0FFE7B5
:104C60000F98006840F28841C4F20201884212D0D5
:104C7000FFE70F98006840F2A041C4F202018842A9
:104C800009D0FFE70F98006840F2B841C4F2020172
:104C9000884207D1FFE70F980168086820F01400E8
:104CA000086006E00F980168086820F00A000860B4
:104CB000FFE70F99012081F83500FFE70F990020E9
:104CC00081F83400FFE7FFE70F98C06B20B1FFE7E2
:104CD0000F98C16B8847FFE7FFE7C7E00D980F9972
:104CE000C96D01F01F01C8400007002840F1BC80D9
:104CF000FFE79DF830000007002840F1B580FFE78E
:104D00000F9800681021C4F20201884200F08180EF
:104D1000FFE70F9800682821C4F20201884278D08A
:104D2000FFE70F9800684021C4F20201884270D06A
:104D3000FFE70F9800685821C4F20201884268D04A
:104D4000FFE70F9800687021C4F20201884260D02A
:104D5000FFE70F9800688821C4F20201884258D00A
:104D6000FFE70F980068A021C4F20201884250D0EA
:104D7000FFE70F980068B821C4F20201884248D0CA
:104D8000FFE70F98006840F21041C4F20201884228
:104D90003FD0FFE70F98006840F22841C4F20201BB
:104DA000884236D0FFE70F98006840F24041C4F2D5
:104DB000020188422DD0FFE70F98006840F2584169
:104DC000C4F20201884224D0FFE70F98006840F245
:104DD0007041C4F2020188421BD0FFE70F980068BF
:104DE00040F28841C4F20201884212D0FFE70F98D6
:104DF000006840F2A041C4F20201884209D0FFE7F6
:104E00000F98006840F2B841C4F20201884207D10D
:104E1000FFE70F980168086820F01C00086006E0B2
:104E20000F980168086820F00E000860FFE70F98EF
:104E3000C06D00F01F01012000FA01F1089A5160D5
:104E40000F9948650F9981F83500FFE70F99002009
:104E500081F83400FFE70F98C06C20B1FFE70F988E
:104E6000C16C8847FFE700E0FFE7FFE7FFE700E0EE
:104E7000FFE7FFE710B080BD10B58EB00C9002F0D8
:104E80001FF80A900C9828B9FFE701208DF8370029
:104E900000F09EBC0C98016801201022C4F20202AE
:104EA0009142079000F0A380FFE70C980168012071
:104EB0002822C4F202029142079000F09880FFE796
:104EC0000C98016801204022C4F20202914207902E
:104ED00000F08D80FFE70C98016801205822C4F291
:104EE00002029142079000F08280FFE70C9801686F
:104EF00001207022C4F202029142079077D0FFE7AE
:104F00000C98016801208822C4F2020291420790A5
:104F10006DD0FFE70C9801680120A022C4F20202C4
:104F20009142079063D0FFE70C9801680120B822F6
:104F3000C4F202029142079059D0FFE70C98016831
:104F4000012040F21042C4F20202914207904ED07A
:104F5000FFE70C980168012040F22842C4F20202E7
:104F60009142079043D0FFE70C980168012040F27E
:104F70004042C4F202029142079038D0FFE70C98F9
:104F80000168012040F25842C4F2020291420790A7
:104F90002DD0FFE70C980168012040F27042C4F266
:104FA00002029142079022D0FFE70C98016801208D
:104FB00040F28842C4F202029142079017D0FFE704
:104FC0000C980168012040F2A042C4F20202914212
:104FD00007900CD0FFE70C9800684FF64831CBF6ED
:104FE000FD710844B0FA80F040090790FFE7079888
:104FF000C007002800F07881FFE70C98406A08B1EC
:10500000FFE7FFE70C99022081F83500FFE70C99D4
:10501000002081F83400FFE70C9800681021C4F2EA
:105020000201884200F08180FFE70C980068282187
:10503000C4F20201884278D0FFE70C980068402152
:10504000C4F20201884270D0FFE70C980068582132
:10505000C4F20201884268D0FFE70C980068702112
:10506000C4F20201884260D0FFE70C9800688821F2
:10507000C4F20201884258D0FFE70C980068A021D2
:10508000C4F20201884250D0FFE70C980068B821B2
:10509000C4F20201884248D0FFE70C98006840F251
:1050A0001041C4F2020188423FD0FFE70C9800682B
:1050B00040F22841C4F20201884236D0FFE70C9842
:1050C000006840F24041C4F2020188422DD0FFE75F
:1050D0000C98006840F25841C4F20201884224D082
:1050E000FFE70C98006840F27041C4F20201884268
:1050F0001BD0FFE70C98006840F28841C4F202011F
:10510000884212D0FFE70C98006840F2A041C4F238
:105110000201884209D0FFE70C98006840F2B841CC
:10512000C4F20201884207D1FFE70C9801680868C1
:1051300020F00100086006E00C980168086820F083
:1051400001000860FFE7FFE70C9800680068C007EF
:1051500098B1FFE701F0B4FE0A99401A06280BD374
:10516000FFE70C99202048650C99032081F8350051
:1051700001208DF837002BE3E6E70C980068006803
:105180000B900B9848F23F01CFF6106108400B904E
:105190000C998868D1F80CC00B694A6940EA0C0088
:1051A000184310438A691043CA691043096A0143CE
:1051B0000B9808430B900C98406A042808D1FFE72D
:1051C0000C99C86A096B01430B9808430B90FFE7E1
:1051D0000C984068292807D3FFE70C984168012004
:1051E0002F29069036D3FFE70C9840683F2807D355
:1051F000FFE70C9841680120432906902AD3FFE776
:105200000C984068472807D3FFE70C9841680120B5
:10521000492906901ED3FFE70C9840684F2807D312
:10522000FFE70C98416801205329069012D3FFE74D
:105230000C98416800207429059008D3FFE70C986A
:1052400041680020782938BF01200590FFE70598C4
:105250000690FFE70698C00728B1FFE70B9840F4D7
:1052600080100B90FFE70B980C99096808600C9868
:10527000006840690B900B9820F007000B900C9889
:10528000416A0B9808430B900C98406A04281AD185
:10529000FFE70C98816A0B9808430B900C98C06A42
:1052A00080B1FFE70C98FCF747F850B1FFE70C9985
:1052B000402048650C99012081F835008DF83700B1
:1052C00086E2FFE7FFE70B980C99096848610C98A4
:1052D000FBF7F6FD09900C98C06D00F01F013F2010
:1052E00088400999886026E10C980168012045F200
:1052F0000842C5F60202914204904ED0FFE70C9896
:105300000168012045F21C42C5F602029142049058
:1053100043D0FFE70C980168012045F23042C5F602
:1053200002029142049038D0FFE70C9801680120F6
:1053300045F24442C5F60202914204902DD0FFE7A7
:105340000C980168012045F25842C5F602029142CC
:10535000049022D0FFE70C980168012045F26C42CE
:10536000C5F602029142049017D0FFE70C9801683D
:10537000012045F28042C5F60202914204900CD011
:10538000FFE70C9800684AF66C31CAF2FD710844D8
:10539000B0FA80F040090490FFE70498C0070028A5
:1053A00000F0BD80FFE70C980168012045F208423B
:1053B000C5F60202914203904ED0FFE70C980168B7
:1053C000012045F21C42C5F602029142039043D0EF
:1053D000FFE70C980168012045F23042C5F6020251
:1053E0009142039038D0FFE70C980168012045F204
:1053F0004442C5F60202914203902DD0FFE70C987B
:105400000168012045F25842C5F60202914203901C
:1054100022D0FFE70C980168012045F26C42C5F6E6
:1054200002029142039017D0FFE70C980168012017
:1054300045F28042C5F60202914203900CD0FFE78C
:105440000C9800684AF66C31CAF2FD710844B0FA53
:1054500080F040090390FFE70398C00708B1FFE719
:10546000FFE70C99022081F83500FFE70C99002036
:1054700081F83400FFE70C98006800680B900B98E7
:105480006FF310100B900C988068402803D1FFE751
:105490001020029008E00C9880688038B0FA80F004
:1054A000400980030290FFE702980C99CA680B69D3
:1054B000D1F814C0D1F818E0CC694EEA040E4CEAD9
:1054C0000E0C43EA0C031A4340EAD200096A40EA90
:1054D00011110B9808430B900B980C990968086000
:1054E0000C9908684AF6F832CAF2FD7210444CF67C
:1054F000CD42CCF6CC42A0FB02026FF0030000EAE2
:105500009200C8650C98FBF7DBFC08900C98C06D06
:1055100000F01F0101208840089948600AE00C99BA
:10552000402048650C99032081F8350001208DF852
:1055300037004DE1FFE70C98016801201022C4F20A
:1055400002029142019000F00381FFE70C9801688C
:1055500001202822C4F202029142019000F0F8805A
:10556000FFE70C98016801204022C4F20202914238
:10557000019000F0ED80FFE70C98016801205822AF
:10558000C4F202029142019000F0E280FFE70C9821
:10559000016801207022C4F202029142019000F0E1
:1055A000D780FFE70C98016801208822C4F202022C
:1055B0009142019000F0CC80FFE70C980168012037
:1055C000A022C4F202029142019000F0C180FFE7E4
:1055D0000C9801680120B822C4F2020291420190A5
:1055E00000F0B680FFE70C980168012040F21042FD
:1055F000C4F202029142019000F0AA80FFE70C98E9
:105600000168012040F22842C4F202029142019056
:1056100000F09E80FFE70C980168012040F24042B4
:10562000C4F202029142019000F09280FFE70C98D0
:105630000168012040F25842C4F2020291420190F6
:1056400000F08680FFE70C980168012040F270426C
:10565000C4F20202914201907AD0FFE70C980168EF
:10566000012040F28842C4F20202914201906FD0C0
:10567000FFE70C980168012040F2A042C4F2020248
:105680009142019064D0FFE70C980168012040F23C
:10569000B842C4F202029142019059D0FFE70C983F
:1056A0000168012045F20842C5F6020291420190CC
:1056B0004ED0FFE70C980168012045F21C42C5F668
:1056C00002029142019043D0FFE70C98016801204B
:1056D00045F23042C5F602029142019038D0FFE710
:1056E0000C980168012045F24442C5F6020291423D
:1056F00001902DD0FFE70C980168012045F2584237
:10570000C5F602029142019022D0FFE70C98016891
:10571000012045F26C42C5F602029142019017D079
:10572000FFE70C980168012045F28042C5F60202AD
:10573000914201900CD0FFE70C9800684AF66C315A
:10574000CAF2FD710844B0FA80F040090190FFE709
:105750000198C00790B3FFE70C98FBF799FC0C98F1
:105760008068802804D1FFE70C9900204860FFE79B
:105770000C990879096E08600C98416E806E48603B
:105780000C98406888B1FFE70C98406808280CD84E
:10579000FFE70C98FBF738FD0C98C16E00200860FD
:1057A0000C98016F406F486007E00C990020C866B4
:1057B0000C9908670C994867FFE7FFE70C990020F0
:1057C00048650C9A012182F835108DF83700FFE703
:1057D0009DF837000EB010BD80B582B00190BDF8C5
:1057E00004000FF041F802B080BD0000000000008E
:1057F00085B0039002910192039890F898008DF87B
:1058000003009DF80300012805D0FFE79DF8030081
:1058100002285DD1FFE7029803990968896D084263
:1058200007D1FFE703980168C86D40F00100C86523
:1058300015E0029803990968896D08400299884229
:1058400007D1FFE703980168C86D40F00200C86502
:1058500004E0039801680320C865FFE7FFE79DF8AF
:1058600009008007002809D5FFE7019A039801681D
:10587000D1F8E0001043C1F8E000FFE79DF809000F
:105880004007002809D5FFE7019A03980168D1F87D
:10589000E4001043C1F8E400FFE7FFE702984FF689
:1058A000FF71C3F6CF7100EA010203980168486DE9
:1058B00010434865029A4AF61401C4F200010868D0
:1058C00040EA92700860FFE700208DF813000AE0BC
:1058D0000399D1F89C0040F00200C1F89C0001201F
:1058E0008DF81300FFE79DF8130005B07047000026
:1058F00080B586B00490039102920398406808B97D
:10590000FFE700E0FFE7049890F89800022845D1EF
:10591000FFE704980068D0F8C00010F07C5F0BD15E
:10592000FFE70499D1F89C0040F02000C1F89C00EA
:1059300001208DF817003CE004980068D0F8C400FE
:10594000800200280BD5FFE70499D1F89C0040F4B1
:105950000070C1F89C0001208DF8170029E0049820
:105960000068D0F8C400C0F3044001900498039983
:10597000029A019BFBF7D8FE0199012000FA01F180
:10598000049A1268C2F8D010019988400499C1F8AD
:105990009400FFE700208DF817000AE00499D1F881
:1059A0009C0040F00800C1F89C0001208DF8170011
:1059B000FFE79DF8170006B080BD00000000000062
:1059C00082B00190009102B070470000000000001A
:1059D00084B0029001910092019808B9FFE700E0BD
:1059E000FFE7029890F89800012836D1FFE7019868
:1059F00070B9FFE702980068D0F8F00020F07C5002
:105A0000009940EA016002990968C1F8F00020E0BD
:105A1000019801280ED1FFE702980068D0F8A00095
:105A200020F0FE40009940EA016002990968C1F83F
:105A3000A0000DE002980068D0F8B00020F0FE4011
:105A4000009940EA016002990968C1F8B000FFE7D7
:105A5000FFE700208DF80F000AE00299D1F89C00C2
:105A600040F00400C1F89C0001208DF80F00FFE712
:105A70009DF80F0004B0704787B005900491059819
:105A800090F898008DF803009DF80300012805D0D8
:105A9000FFE79DF8030002286AD1FFE70498C06879
:105AA000072801D1FFE7FFE70498006878BBFFE70C
:105AB0000498C068072801D0FFE7FFE70498C06892
:105AC00007280CD1FFE7049A10699169D269000494
:105AD00040EA0220084340F0605003900CE0049933
